{
  "abi": [
    {
      "type": "function",
      "name": "onchainCallback",
      "inputs": [],
      "outputs": [],
      "stateMutability": "nonpayable"
    },
    {
      "type": "function",
      "name": "owner",
      "inputs": [],
      "outputs": [
        {
          "name": "",
          "type": "address",
          "internalType": "address"
        }
      ],
      "stateMutability": "view"
    },
    {
      "type": "function",
      "name": "test",
      "inputs": [],
      "outputs": [],
      "stateMutability": "nonpayable"
    },
    {
      "type": "event",
      "name": "TestEvent",
      "inputs": [
        {
          "name": "",
          "type": "string",
          "indexed": false,
          "internalType": "string"
        }
      ],
      "anonymous": false
    }
  ],
  "bytecode": {
    "object": "0x6080604052348015600f57600080fd5b506101008061001f6000396000f3fe6080604052348015600f57600080fd5b5060043610603c5760003560e01c80634a5250541460415780638da5cb5b146043578063f8a8fd6d146071575b600080fd5b005b6000546055906001600160a01b031681565b6040516001600160a01b03909116815260200160405180910390f35b60417fe75028ff36bb6473da3731a30e1aeeae9988e2415dba2c4e91e0357955065fba60405160c0906020808252600c908201526b5465737420776f726b696e6760a01b604082015260600190565b60405180910390a156fea26469706673582212200a2143b3af0893085937a01e6362378a70c4e73df6e3e9c45fe269bbce902f2f64736f6c634300081c0033",
    "linkReferences": {}
  },
  "methodIdentifiers": {
    "onchainCallback()": "4a525054",
    "owner()": "8da5cb5b",
    "test()": "f8a8fd6d"
  },
  "id": 17
}