{
  "abi": [
    {
      "type": "function",
      "name": "createAuctionContractOffchain",
      "inputs": [],
      "outputs": [
        {
          "name": "",
          "type": "bytes",
          "internalType": "bytes"
        }
      ],
      "stateMutability": "nonpayable"
    },
    {
      "type": "function",
      "name": "getDeployedContracts",
      "inputs": [],
      "outputs": [
        {
          "name": "",
          "type": "address[]",
          "internalType": "address[]"
        }
      ],
      "stateMutability": "nonpayable"
    },
    {
      "type": "function",
      "name": "onchainCallback",
      "inputs": [],
      "outputs": [],
      "stateMutability": "nonpayable"
    },
    {
      "type": "function",
      "name": "onchainCreateContract",
      "inputs": [
        {
          "name": "ac",
          "type": "bytes",
          "internalType": "bytes"
        }
      ],
      "outputs": [],
      "stateMutability": "nonpayable"
    },
    {
      "type": "function",
      "name": "registerPrivateKeyOffchain",
      "inputs": [],
      "outputs": [
        {
          "name": "",
          "type": "bytes",
          "internalType": "bytes"
        }
      ],
      "stateMutability": "nonpayable"
    },
    {
      "type": "function",
      "name": "test",
      "inputs": [],
      "outputs": [
        {
          "name": "",
          "type": "bytes",
          "internalType": "bytes"
        }
      ],
      "stateMutability": "nonpayable"
    },
    {
      "type": "function",
      "name": "testOnchain",
      "inputs": [],
      "outputs": [],
      "stateMutability": "nonpayable"
    },
    {
      "type": "function",
      "name": "updateKeyOnchain",
      "inputs": [
        {
          "name": "_signingKeyRecord",
          "type": "bytes16",
          "internalType": "Suave.DataId"
        }
      ],
      "outputs": [],
      "stateMutability": "nonpayable"
    },
    {
      "type": "event",
      "name": "AuctionContractCreated",
      "inputs": [
        {
          "name": "contractAddress",
          "type": "address",
          "indexed": true,
          "internalType": "address"
        },
        {
          "name": "owner",
          "type": "address",
          "indexed": true,
          "internalType": "address"
        }
      ],
      "anonymous": false
    },
    {
      "type": "error",
      "name": "PeekerReverted",
      "inputs": [
        {
          "name": "",
          "type": "address",
          "internalType": "address"
        },
        {
          "name": "",
          "type": "bytes",
          "internalType": "bytes"
        }
      ]
    }
  ],
  "bytecode": {
    "object": "0x6080604052348015600f57600080fd5b506117e78061001f6000396000f3fe608060405234801561001057600080fd5b50600436106100885760003560e01c8063b87cf3071161005b578063b87cf307146100d2578063c4cac93f146100da578063d4e4e680146100ed578063f8a8fd6d1461010057600080fd5b80634a5250541461008d578063641c1f2a1461009757806379a8c697146100b5578063aa9a068f146100bd575b600080fd5b61009561012f565b005b61009f610171565b6040516100ac9190610f85565b60405180910390f35b610095610249565b6100c5610359565b6040516100ac9190610fe4565b61009f61047d565b6100956100e8366004611010565b6105ce565b6100956100fb3660046110e4565b61062a565b61009f6040805160048152602481019091526020810180516001600160e01b03166379a8c69760e01b17905290565b61016f6000368080601f0160208091040260200160405190810160405280939291908181526020018383808284376000920191909152506106d092505050565b565b6060600060405161018190610f28565b604051809103906000f08015801561019d573d6000803e3d6000fd5b5060405190915033906001600160a01b038316907f520f8f1a1f42a47717ebe04dbad1bb98ff4120e505463a83b0b35ee9c0d6636c90600090a3604080516001600160a01b03831660208201526301a9c9cd60e71b910160408051601f198184030181529082905261021191602401610f85565b60408051601f198184030181529190526020810180516001600160e01b03166001600160e01b03199093169290921790915292915050565b6102896000368080601f0160208091040260200160405190810160405280939291908181526020018383808284376000920191909152506106d092505050565b6001546102dd5760405162461bcd60e51b815260206004820152601f60248201527f4e6f206465706c6f79656420636f6e74726163747320617661696c61626c650060448201526064015b60405180910390fd5b600060016000815481106102f3576102f3611163565b60009182526020822001546040805163f8a8fd6d60e01b815290516001600160a01b039092169350839263f8a8fd6d9260048084019382900301818387803b15801561033e57600080fd5b505af1158015610352573d6000803e3d6000fd5b5050505050565b60005460408051808201909152600581526427aba722a960d91b60208201526060916103ab9161038c9160801b906107fa565b60408051336020820152016040516020818303038152906040526108b1565b61041d5760405162461bcd60e51b815260206004820152603c60248201527f4f6e6c7920746865206f776e6572206f662074686520466163746f727920436f60448201527f6e747261637420697320616c6c6f77656420746f20646f20746861740000000060648201526084016102d4565b600180548060200260200160405190810160405280929190818152602001828054801561047357602002820191906000526020600020905b81546001600160a01b03168152600190910190602001808311610455575b5050505050905090565b60606000610489610939565b604080516001808252818301909252919250600091906020808301908036833701905050905030816000815181106104c3576104c3611163565b60200260200101906001600160a01b031690816001600160a01b0316815250506000610515600083846040518060400160405280600b81526020016a707269766174655f6b657960a81b815250610973565b90506105418160000151604051806040016040528060038152602001624b455960e81b81525085610a72565b8051604080518082018252600581526427aba722a960d91b602080830191909152825133818301528351808203909201825283019092526105829291610a72565b51604080516001600160801b031990921660248084019190915281518084039091018152604490920190526020810180516001600160e01b031663c4cac93f60e01b1790529392505050565b61060e6000368080601f0160208091040260200160405190810160405280939291908181526020018383808284376000920191909152506106d092505050565b600080546001600160801b03191660809290921c919091179055565b61066a6000368080601f0160208091040260200160405190810160405280939291908181526020018383808284376000920191909152506106d092505050565b600081806020019051810190610680919061118e565b6001805480820182556000919091527fb10e2d527612073b26eecdfd717e6a320cf44b4afac2b0732d9fcbe2b7fa0cf60180546001600160a01b0319166001600160a01b03831617905590505050565b60006106db82610b1f565b9050815181036106e9575050565b60008183516106f891906111c1565b90506000816001600160401b038111156107145761071461102d565b6040519080825280601f01601f19166020018201604052801561073e576020820181803683370190505b50905060005b828110156107a3578461075782866111d4565b8151811061076757610767611163565b602001015160f81c60f81b82828151811061078457610784611163565b60200101906001600160f81b031916908160001a905350600101610744565b506000818060200190518101906107ba919061125a565b905060005b81518110156107f2576107ea8282815181106107dd576107dd611163565b6020026020010151610c77565b6001016107bf565b505050505050565b606060008063420200016001600160a01b031685856040516020016108209291906113e4565b60408051601f198184030181529082905261083a91611407565b6000604051808303816000865af19150503d8060008114610877576040519150601f19603f3d011682016040523d82523d6000602084013e61087c565b606091505b5091509150816108a7576342020001816040516375fff46760e01b81526004016102d4929190611423565b9150505b92915050565b600081518351146108c4575060006108ab565b60005b835181101561092f578281815181106108e2576108e2611163565b602001015160f81c60f81b6001600160f81b03191684828151811061090957610909611163565b01602001516001600160f81b031916146109275760009150506108ab565b6001016108c7565b5060019392505050565b606061096e60405180604001604052806012815260200171636f6e666964656e7469616c496e7075747360701b815250610e69565b905090565b6040805160c0810182526000808252602082018190529181019190915260608082018190526080820181905260a082015260008063420300006001600160a01b0316878787876040516020016109cc9493929190611447565b60408051601f19818403018152908290526109e691611407565b6000604051808303816000865af19150503d8060008114610a23576040519150601f19603f3d011682016040523d82523d6000602084013e610a28565b606091505b509150915081610a53576342030000816040516375fff46760e01b81526004016102d4929190611423565b80806020019051810190610a679190611527565b979650505050505050565b60008063420200006001600160a01b0316858585604051602001610a989392919061161f565b60408051601f1981840301815290829052610ab291611407565b6000604051808303816000865af19150503d8060008114610aef576040519150601f19603f3d011682016040523d82523d6000602084013e610af4565b606091505b509150915081610352576342020000816040516375fff46760e01b81526004016102d4929190611423565b6000805b8251811015610c715760408051808201909152600381526254354360e81b6020909101528251601560fa1b90849083908110610b6157610b61611163565b01602001516001600160f81b03191603610c69576001805b6040518060400160405280600381526020016254354360e81b81525051811015610c30578451610ba982856111d4565b101580610c1a57506040518060400160405280600381526020016254354360e81b8152508181518110610bde57610bde611163565b01602001516001600160f81b03191685610bf883866111d4565b81518110610c0857610c08611163565b01602001516001600160f81b03191614155b15610c285760009150610c30565b600101610b79565b508015610c67576040518060400160405280600381526020016254354360e81b8152505182610c5f91906111d4565b949350505050565b505b600101610b23565b50505190565b60408101518051602083015151600003610c96578060208301a0505050565b826020015151600103610cd35760008360200151600081518110610cbc57610cbc611163565b60200260200101519050808260208501a150505050565b826020015151600203610d355760008360200151600081518110610cf957610cf9611163565b6020026020010151905060008460200151600181518110610d1c57610d1c611163565b6020026020010151905080828460208701a25050505050565b826020015151600303610dbc5760008360200151600081518110610d5b57610d5b611163565b6020026020010151905060008460200151600181518110610d7e57610d7e611163565b6020026020010151905060008560200151600281518110610da157610da1611163565b602002602001015190508082848660208901a3505050505050565b826020015151600403610e645760008360200151600081518110610de257610de2611163565b6020026020010151905060008460200151600181518110610e0557610e05611163565b6020026020010151905060008560200151600281518110610e2857610e28611163565b6020026020010151905060008660200151600381518110610e4b57610e4b611163565b60200260200101519050808284868860208b01a4505050505b505050565b606060008063533000036001600160a01b031684604051602001610e8d9190610f85565b60408051601f1981840301815290829052610ea791611407565b6000604051808303816000865af19150503d8060008114610ee4576040519150601f19603f3d011682016040523d82523d6000602084013e610ee9565b606091505b509150915081610f14576353300003816040516375fff46760e01b81526004016102d4929190611423565b80806020019051810190610c5f919061165e565b61011f8061169383390190565b60005b83811015610f50578181015183820152602001610f38565b50506000910152565b60008151808452610f71816020860160208601610f35565b601f01601f19169290920160200192915050565b602081526000610f986020830184610f59565b9392505050565b600081518084526020840193506020830160005b82811015610fda5781516001600160a01b0316865260209586019590910190600101610fb3565b5093949350505050565b602081526000610f986020830184610f9f565b6001600160801b03198116811461100d57600080fd5b50565b60006020828403121561102257600080fd5b8135610f9881610ff7565b634e487b7160e01b600052604160045260246000fd5b604051606081016001600160401b03811182821017156110655761106561102d565b60405290565b60405160c081016001600160401b03811182821017156110655761106561102d565b604051601f8201601f191681016001600160401b03811182821017156110b5576110b561102d565b604052919050565b60006001600160401b038211156110d6576110d661102d565b50601f01601f191660200190565b6000602082840312156110f657600080fd5b81356001600160401b0381111561110c57600080fd5b8201601f8101841361111d57600080fd5b803561113061112b826110bd565b61108d565b81815285602083850101111561114557600080fd5b81602084016020830137600091810160200191909152949350505050565b634e487b7160e01b600052603260045260246000fd5b6001600160a01b038116811461100d57600080fd5b6000602082840312156111a057600080fd5b8151610f9881611179565b634e487b7160e01b600052601160045260246000fd5b818103818111156108ab576108ab6111ab565b808201808211156108ab576108ab6111ab565b60006001600160401b038211156112005761120061102d565b5060051b60200190565b600082601f83011261121b57600080fd5b815160208301600061122f61112b846110bd565b905082815285838301111561124357600080fd5b611251836020830184610f35565b95945050505050565b60006020828403121561126c57600080fd5b81516001600160401b0381111561128257600080fd5b8201601f8101841361129357600080fd5b80516112a161112b826111e7565b8082825260208201915060208360051b8501019250868311156112c357600080fd5b602084015b838110156113d95780516001600160401b038111156112e657600080fd5b85016060818a03601f190112156112fc57600080fd5b611304611043565b602082015161131281611179565b815260408201516001600160401b0381111561132d57600080fd5b82016020810190603f018b1361134257600080fd5b805161135061112b826111e7565b8082825260208201915060208360051b85010192508d83111561137257600080fd5b6020840193505b82841015611394578351825260209384019390910190611379565b602085015250505060608201516001600160401b038111156113b557600080fd5b6113c48b60208386010161120a565b604083015250845250602092830192016112c8565b509695505050505050565b6001600160801b031983168152604060208201526000610c5f6040830184610f59565b60008251611419818460208701610f35565b9190910192915050565b6001600160a01b0383168152604060208201819052600090610c5f90830184610f59565b6001600160401b03851681526080602082015260006114696080830186610f9f565b828103604084015261147b8186610f9f565b90508281036060840152610a678185610f59565b805161149a81610ff7565b919050565b80516001600160401b038116811461149a57600080fd5b600082601f8301126114c757600080fd5b81516114d561112b826111e7565b8082825260208201915060208360051b8601019250858311156114f757600080fd5b602085015b8381101561151d57805161150f81611179565b8352602092830192016114fc565b5095945050505050565b60006020828403121561153957600080fd5b81516001600160401b0381111561154f57600080fd5b820160c0818503121561156157600080fd5b61156961106b565b6115728261148f565b81526115806020830161148f565b60208201526115916040830161149f565b604082015260608201516001600160401b038111156115af57600080fd5b6115bb868285016114b6565b60608301525060808201516001600160401b038111156115da57600080fd5b6115e6868285016114b6565b60808301525060a08201516001600160401b0381111561160557600080fd5b6116118682850161120a565b60a083015250949350505050565b6001600160801b0319841681526060602082015260006116426060830185610f59565b82810360408401526116548185610f59565b9695505050505050565b60006020828403121561167057600080fd5b81516001600160401b0381111561168657600080fd5b610c5f8482850161120a56fe6080604052348015600f57600080fd5b506101008061001f6000396000f3fe6080604052348015600f57600080fd5b5060043610603c5760003560e01c80634a5250541460415780638da5cb5b146043578063f8a8fd6d146071575b600080fd5b005b6000546055906001600160a01b031681565b6040516001600160a01b03909116815260200160405180910390f35b60417fe75028ff36bb6473da3731a30e1aeeae9988e2415dba2c4e91e0357955065fba60405160c0906020808252600c908201526b5465737420776f726b696e6760a01b604082015260600190565b60405180910390a156fea26469706673582212200a2143b3af0893085937a01e6362378a70c4e73df6e3e9c45fe269bbce902f2f64736f6c634300081c0033a26469706673582212204da8b828475850703b3e502465011ddf234861aeeb8537229902eae4fa66643c64736f6c634300081c0033",
    "linkReferences": {}
  },
  "methodIdentifiers": {
    "createAuctionContractOffchain()": "641c1f2a",
    "getDeployedContracts()": "aa9a068f",
    "onchainCallback()": "4a525054",
    "onchainCreateContract(bytes)": "d4e4e680",
    "registerPrivateKeyOffchain()": "b87cf307",
    "test()": "f8a8fd6d",
    "testOnchain()": "79a8c697",
    "updateKeyOnchain(bytes16)": "c4cac93f"
  },
  "id": 5
}