{
  "abi": [
    {
      "type": "function",
      "name": "offchain",
      "inputs": [],
      "outputs": [
        {
          "name": "",
          "type": "bytes",
          "internalType": "bytes"
        }
      ],
      "stateMutability": "nonpayable"
    },
    {
      "type": "function",
      "name": "onchain",
      "inputs": [],
      "outputs": [],
      "stateMutability": "nonpayable"
    },
    {
      "type": "event",
      "name": "OffchainEvent",
      "inputs": [
        {
          "name": "num",
          "type": "uint256",
          "indexed": false,
          "internalType": "uint256"
        }
      ],
      "anonymous": false
    }
  ],
  "bytecode": {
    "object": "0x6080604052348015600f57600080fd5b506109338061001f6000396000f3fe608060405234801561001057600080fd5b50600436106100365760003560e01c80630251acae1461003b578063acdae89914610059575b600080fd5b610043610063565b60405161005091906105db565b60405180910390f35b610061610100565b005b60607f067536b2754f04acd7f6ef401de85369d297e9369f74fb001a111f2cd0f6e751600160405161009791815260200190565b60405180910390a1604051600281527f067536b2754f04acd7f6ef401de85369d297e9369f74fb001a111f2cd0f6e7519060200160405180910390a1506040805160048152602481019091526020810180516001600160e01b031663acdae89960e01b17905290565b6101406000368080601f01602080910402602001604051908101604052809392919081815260200183838082843760009201919091525061014292505050565b565b600061014d8261026d565b90508151810361015b575050565b600081835161016a9190610624565b905060008167ffffffffffffffff8111156101875761018761063d565b6040519080825280601f01601f1916602001820160405280156101b1576020820181803683370190505b50905060005b8281101561021657846101ca8286610653565b815181106101da576101da610666565b602001015160f81c60f81b8282815181106101f7576101f7610666565b60200101906001600160f81b031916908160001a9053506001016101b7565b5060008180602001905181019061022d919061075e565b905060005b81518110156102655761025d82828151811061025057610250610666565b60200260200101516103c5565b600101610232565b505050505050565b6000805b82518110156103bf5760408051808201909152600381526254354360e81b6020909101528251601560fa1b908490839081106102af576102af610666565b01602001516001600160f81b031916036103b7576001805b6040518060400160405280600381526020016254354360e81b8152505181101561037e5784516102f78285610653565b10158061036857506040518060400160405280600381526020016254354360e81b815250818151811061032c5761032c610666565b01602001516001600160f81b031916856103468386610653565b8151811061035657610356610666565b01602001516001600160f81b03191614155b15610376576000915061037e565b6001016102c7565b5080156103b5576040518060400160405280600381526020016254354360e81b81525051826103ad9190610653565b949350505050565b505b600101610271565b50505190565b604081015180516020830151516000036103e4578060208301a0505050565b826020015151600103610421576000836020015160008151811061040a5761040a610666565b60200260200101519050808260208501a150505050565b826020015151600203610483576000836020015160008151811061044757610447610666565b602002602001015190506000846020015160018151811061046a5761046a610666565b6020026020010151905080828460208701a25050505050565b82602001515160030361050a57600083602001516000815181106104a9576104a9610666565b60200260200101519050600084602001516001815181106104cc576104cc610666565b60200260200101519050600085602001516002815181106104ef576104ef610666565b602002602001015190508082848660208901a3505050505050565b8260200151516004036105b2576000836020015160008151811061053057610530610666565b602002602001015190506000846020015160018151811061055357610553610666565b602002602001015190506000856020015160028151811061057657610576610666565b602002602001015190506000866020015160038151811061059957610599610666565b60200260200101519050808284868860208b01a4505050505b505050565b60005b838110156105d25781810151838201526020016105ba565b50506000910152565b60208152600082518060208401526105fa8160408501602087016105b7565b601f01601f19169190910160400192915050565b634e487b7160e01b600052601160045260246000fd5b818103818111156106375761063761060e565b92915050565b634e487b7160e01b600052604160045260246000fd5b808201808211156106375761063761060e565b634e487b7160e01b600052603260045260246000fd5b6040516060810167ffffffffffffffff8111828210171561069f5761069f61063d565b60405290565b604051601f8201601f1916810167ffffffffffffffff811182821017156106ce576106ce61063d565b604052919050565b600067ffffffffffffffff8211156106f0576106f061063d565b5060051b60200190565b600082601f83011261070b57600080fd5b815167ffffffffffffffff8111156107255761072561063d565b610738601f8201601f19166020016106a5565b81815284602083860101111561074d57600080fd5b6103ad8260208301602087016105b7565b60006020828403121561077057600080fd5b815167ffffffffffffffff81111561078757600080fd5b8201601f8101841361079857600080fd5b80516107ab6107a6826106d6565b6106a5565b8082825260208201915060208360051b8501019250868311156107cd57600080fd5b602084015b838110156108f257805167ffffffffffffffff8111156107f157600080fd5b85016060818a03601f1901121561080757600080fd5b61080f61067c565b60208201516001600160a01b038116811461082957600080fd5b8152604082015167ffffffffffffffff81111561084557600080fd5b82016020810190603f018b1361085a57600080fd5b80516108686107a6826106d6565b8082825260208201915060208360051b85010192508d83111561088a57600080fd5b6020840193505b828410156108ac578351825260209384019390910190610891565b6020850152505050606082015167ffffffffffffffff8111156108ce57600080fd5b6108dd8b6020838601016106fa565b604083015250845250602092830192016107d2565b50969550505050505056fea2646970667358221220c6e50d690e857c53548ef27da650999863c22f8b3d61aa1f0fc6393f39848ae964736f6c634300081c0033",
    "linkReferences": {}
  },
  "methodIdentifiers": {
    "offchain()": "0251acae",
    "onchain()": "acdae899"
  },
  "id": 3
}