{
  "abi": [
    {
      "type": "constructor",
      "inputs": [
        {
          "name": "_chainID",
          "type": "uint256",
          "internalType": "uint256"
        }
      ],
      "stateMutability": "nonpayable"
    },
    {
      "type": "function",
      "name": "BASE_ALCHEMY_URL",
      "inputs": [],
      "outputs": [
        {
          "name": "",
          "type": "string",
          "internalType": "string"
        }
      ],
      "stateMutability": "view"
    },
    {
      "type": "function",
      "name": "BASE_SEPOLIA_ETHERSCAN_URL",
      "inputs": [],
      "outputs": [
        {
          "name": "",
          "type": "string",
          "internalType": "string"
        }
      ],
      "stateMutability": "view"
    },
    {
      "type": "function",
      "name": "chainID",
      "inputs": [],
      "outputs": [
        {
          "name": "",
          "type": "uint256",
          "internalType": "uint256"
        }
      ],
      "stateMutability": "view"
    },
    {
      "type": "function",
      "name": "endAuction",
      "inputs": [
        {
          "name": "l1Addresses",
          "type": "address[]",
          "internalType": "address[]"
        },
        {
          "name": "endTimestamp",
          "type": "uint256",
          "internalType": "uint256"
        }
      ],
      "outputs": [
        {
          "name": "",
          "type": "bytes",
          "internalType": "bytes"
        }
      ],
      "stateMutability": "nonpayable"
    },
    {
      "type": "function",
      "name": "getNFTOwnedBy",
      "inputs": [
        {
          "name": "_nftContract",
          "type": "address",
          "internalType": "address"
        },
        {
          "name": "_tokenId",
          "type": "uint256",
          "internalType": "uint256"
        }
      ],
      "outputs": [
        {
          "name": "",
          "type": "address",
          "internalType": "address"
        }
      ],
      "stateMutability": "nonpayable"
    },
    {
      "type": "function",
      "name": "getNearestPreviousBlock",
      "inputs": [
        {
          "name": "timestamp",
          "type": "uint256",
          "internalType": "uint256"
        }
      ],
      "outputs": [
        {
          "name": "",
          "type": "uint256",
          "internalType": "uint256"
        }
      ],
      "stateMutability": "nonpayable"
    },
    {
      "type": "function",
      "name": "onchainCallback",
      "inputs": [],
      "outputs": [],
      "stateMutability": "nonpayable"
    },
    {
      "type": "function",
      "name": "owner",
      "inputs": [],
      "outputs": [
        {
          "name": "",
          "type": "address",
          "internalType": "address"
        }
      ],
      "stateMutability": "view"
    },
    {
      "type": "function",
      "name": "registerApiKeyOffchain",
      "inputs": [
        {
          "name": "rpcName",
          "type": "string",
          "internalType": "string"
        }
      ],
      "outputs": [
        {
          "name": "",
          "type": "bytes",
          "internalType": "bytes"
        }
      ],
      "stateMutability": "nonpayable"
    },
    {
      "type": "function",
      "name": "registerApiKeyOnchain",
      "inputs": [
        {
          "name": "rpcName",
          "type": "string",
          "internalType": "string"
        },
        {
          "name": "_rpcRecord",
          "type": "bytes16",
          "internalType": "Suave.DataId"
        }
      ],
      "outputs": [],
      "stateMutability": "nonpayable"
    },
    {
      "type": "function",
      "name": "transferETH",
      "inputs": [
        {
          "name": "returnAddress",
          "type": "address",
          "internalType": "address"
        },
        {
          "name": "suaveDataID",
          "type": "bytes16",
          "internalType": "Suave.DataId"
        }
      ],
      "outputs": [
        {
          "name": "",
          "type": "bytes",
          "internalType": "bytes"
        }
      ],
      "stateMutability": "nonpayable"
    },
    {
      "type": "function",
      "name": "transferETHForNFT",
      "inputs": [
        {
          "name": "returnAddress",
          "type": "address",
          "internalType": "address"
        },
        {
          "name": "suaveDataID",
          "type": "bytes16",
          "internalType": "Suave.DataId"
        }
      ],
      "outputs": [],
      "stateMutability": "nonpayable"
    },
    {
      "type": "function",
      "name": "transferNFT",
      "inputs": [
        {
          "name": "from",
          "type": "address",
          "internalType": "address"
        },
        {
          "name": "to",
          "type": "address",
          "internalType": "address"
        },
        {
          "name": "nftContract",
          "type": "address",
          "internalType": "address"
        },
        {
          "name": "tokenId",
          "type": "uint256",
          "internalType": "uint256"
        },
        {
          "name": "suaveDataID",
          "type": "bytes16",
          "internalType": "Suave.DataId"
        }
      ],
      "outputs": [
        {
          "name": "",
          "type": "bytes",
          "internalType": "bytes"
        }
      ],
      "stateMutability": "nonpayable"
    },
    {
      "type": "error",
      "name": "PeekerReverted",
      "inputs": [
        {
          "name": "",
          "type": "address",
          "internalType": "address"
        },
        {
          "name": "",
          "type": "bytes",
          "internalType": "bytes"
        }
      ]
    }
  ],
  "bytecode": {
    "object": "0x60c060405260036080908152624b455960e81b60a052600290620000249082620001d6565b506040805180820190915260038082526252504360e81b6020830152906200004d9082620001d6565b5060408051808201909152601581527f687474703a2f2f6c6f63616c686f73743a3835353500000000000000000000006020820152600590620000919082620001d6565b50604051806060016040528060258152602001620056d360259139600690620000bb9082620001d6565b50604051806060016040528060248152602001620056af60249139600790620000e59082620001d6565b50348015620000f357600080fd5b50604051620056f8380380620056f88339810160408190526200011691620002a2565b600080546001600160a01b03191633179055600155620002bc565b634e487b7160e01b600052604160045260246000fd5b600181811c908216806200015c57607f821691505b6020821081036200017d57634e487b7160e01b600052602260045260246000fd5b50919050565b601f821115620001d157600081815260208120601f850160051c81016020861015620001ac5750805b601f850160051c820191505b81811015620001cd57828155600101620001b8565b5050505b505050565b81516001600160401b03811115620001f257620001f262000131565b6200020a8162000203845462000147565b8462000183565b602080601f831160018114620002425760008415620002295750858301515b600019600386901b1c1916600185901b178555620001cd565b600085815260208120601f198616915b82811015620002735788860151825594840194600190910190840162000252565b5085821015620002925787850151600019600388901b60f8161c191681555b5050505050600190811b01905550565b600060208284031215620002b557600080fd5b5051919050565b6153e380620002cc6000396000f3fe608060405234801561001057600080fd5b50600436106100cf5760003560e01c80638da5cb5b1161008c578063b7912a1811610066578063b7912a181461019d578063e5feb639146101b0578063ee03cb3a146101b8578063f8fde203146101cb57600080fd5b80638da5cb5b1461016e5780639e479d9814610181578063adc879e91461019457600080fd5b8063095c6469146100d45780631bcfe34d146100fd5780632ddcd98c146101055780634a52505414610118578063627dc0171461012257806373b072f114610143575b600080fd5b6100e76100e23660046140fd565b6101de565b6040516100f491906141b5565b60405180910390f35b6100e7610269565b6100e76101133660046141c8565b6102f7565b6101206104a9565b005b610135610130366004614201565b6104eb565b6040519081526020016100f4565b61015661015136600461421a565b6106b3565b6040516001600160a01b0390911681526020016100f4565b600054610156906001600160a01b031681565b61012061018f3660046141c8565b61074e565b61013560015481565b6101206101ab366004614353565b610824565b6100e76109f5565b6100e76101c6366004614399565b610a02565b6100e76101d93660046143f0565b610c45565b606060006101ea610d64565b6101f59060026144a5565b6040516001600160a01b03808a166024830152881660448201526064810186905290915060009060840160408051601f198184030181529190526020810180516001600160e01b03166323b872dd60e01b179052905061025d86620138808460008589610ddd565b98975050505050505050565b60068054610276906144bc565b80601f01602080910402602001604051908101604052809291908181526020018280546102a2906144bc565b80156102ef5780601f106102c4576101008083540402835291602001916102ef565b820191906000526020600020905b8154815290600101906020018083116102d257829003601f168201915b505050505081565b6060600061038f836002805461030c906144bc565b80601f0160208091040260200160405190810160405280929190818152602001828054610338906144bc565b80156103855780601f1061035a57610100808354040283529160200191610385565b820191906000526020600020905b81548152906001019060200180831161036857829003601f168201915b5050505050610f3f565b9050600061039c82610ff4565b905060006103a8610d64565b6103b39060026144a5565b905060006103c08361106b565b90506103ce826152086144a5565b811061043c5761040687615208846103e681836144a5565b6103f090866144f0565b604051806020016040528060008152508b610ddd565b50506040805160048152602481019091526020810180516001600160e01b0316631294941560e21b17905293506104a392505050565b610464836040516020016104509190614503565b60405160208183030381529060405261113c565b604051602001610474919061455d565b60408051601f198184030181529082905262461bcd60e51b825261049a916004016141b5565b60405180910390fd5b92915050565b6104e96000368080601f01602080910402602001604051908101604052809392919081815260200183838082843760009201919091525061114792505050565b565b60408051808201825260108152600060208083018290529251909261051291839101614580565b60408051601f19818403018152908290528051602091820120600454909261054692600160801b90920460801b910161459c565b60405160208183030381529060405280519060200120036105b55760405162461bcd60e51b8152602060048201526024808201527f4e6f2065746865727363616e20456e64706f696e742072656769737465726564604482015263081e595d60e21b606482015260840161049a565b600060076105c28561127d565b600454600380546105e292600160801b900460801b919061030c906144bc565b6040516020016105f49392919061464e565b60408051601f1981840301815260c08301825280835281518083018352600381526211d15560ea1b602082810191909152840152925060009161066691810161063b611288565b8152604080516020818101835260008083529084019190915290820152611b58606090910152611313565b90506106a86106a361069e61069984604051806040016040528060068152602001651c995cdd5b1d60d21b8152506113d2565b61147f565b61148e565b61161f565b935050505b50919050565b6000806106ca846040516020016104509190614503565b6106d38461127d565b6040516020016106e49291906146f4565b6040516020818303038152906040529050600061070082611691565b9050600061074461073f61069e61069961073886604051806040016040528060068152602001656f776e65727360d01b8152506113d2565b6000611786565b6117cb565b9695505050505050565b6000610761826002805461030c906144bc565b9050600061076e82610ff4565b9050600061077a610d64565b6107859060026144a5565b905060006107928361106b565b90506107a18262018a886144a5565b81106107d8576107d286615208846107bc81620138806144a5565b604051806020016040528060008152508a610ddd565b5061081c565b6107ec836040516020016104509190614503565b6107f58261127d565b61080a6108058562018a886144a5565b61127d565b6040516020016104749392919061476d565b505050505050565b6000546001600160a01b0316331461084e5760405162461bcd60e51b815260040161049a906147de565b61088e6000368080601f01602080910402602001604051908101604052809392919081815260200183838082843760009201919091525061114792505050565b6108966117d6565b6108b25760405162461bcd60e51b815260040161049a9061483b565b604080518082019091526007815266616c6368656d7960c81b6020918201528251908301207ff32a8f3cb2c0a22e6b1176c61af2ce6b601d168886a69603d89546e80a90837d0161091757600480546001600160801b031916608083901c1790555050565b60408051808201909152600981526832ba3432b939b1b0b760b91b6020918201528251908301207ff2a838274ab14069c06b321275a85e4ef6538b9a525de7a8ab8c9b740c8c46f30161098357600480546001600160801b0316600160801b608084901c021790555050565b60405162461bcd60e51b815260206004820152603a60248201527f5468652070726f7669646564205250432d4e616d65206973206e65697468657260448201527f2022616c6368656d7922206e6f72202265746865727363616e22000000000000606482015260840161049a565b5050565b60078054610276906144bc565b6000546060906001600160a01b03163314610a2f5760405162461bcd60e51b815260040161049a906147de565b610a376117d6565b610a535760405162461bcd60e51b815260040161049a9061483b565b6000610a5d611857565b60408051600180825281830190925291925060009190602080830190803683370190505090503081600081518110610a9757610a97614872565b60200260200101906001600160a01b031690816001600160a01b0316815250506000610b506000838460038054610acd906144bc565b80601f0160208091040260200160405190810160405280929190818152602001828054610af9906144bc565b8015610b465780601f10610b1b57610100808354040283529160200191610b46565b820191906000526020600020905b815481529060010190602001808311610b2957829003601f168201915b5050505050611891565b9050610beb816000015160038054610b67906144bc565b80601f0160208091040260200160405190810160405280929190818152602001828054610b93906144bc565b8015610be05780601f10610bb557610100808354040283529160200191610be0565b820191906000526020600020905b815481529060010190602001808311610bc357829003601f168201915b505050505085611985565b80516040516316f2254360e31b91610c0891889190602401614888565b60408051601f198184030181529190526020810180516001600160e01b03166001600160e01b03199093169290921790915293505050505b919050565b6060610c4f6117d6565b610c6b5760405162461bcd60e51b815260040161049a9061483b565b6000806000610c79856104eb565b905060005b8651811015610ce8576000610cab888381518110610c9e57610c9e614872565b602002602001015161106b565b905084811115610cd557809450878281518110610cca57610cca614872565b602002602001015193505b5080610ce0816148b4565b915050610c7e565b506040516339a317c160e21b81523390819063e68c5f0490610d1290869088908c90600401614911565b6000604051808303816000875af1158015610d31573d6000803e3d6000fd5b505050506040513d6000823e601f3d908101601f19168201604052610d59919081019061497d565b979650505050505050565b600080610d7260015461127d565b604051602001610d8291906149b1565b60405160208183030381529060405290506000610d9e82611a39565b9050610dd6610dd161069e61069984604051806040016040528060068152602001651c995cdd5b1d60d21b8152506113d2565b611baf565b9250505090565b606060006040518060400160405280601081526020016000815250905080604051602001610e0b9190614580565b60408051601f198184030181529082905280516020918201206004549092610e3a9260809290921b910161459c565b6040516020818303038152906040528051906020012003610e6d5760405162461bcd60e51b815260040161049a90614a15565b6000610e80846002805461030c906144bc565b90506000610e8d82610ff4565b90506000610e9a82611c34565b905060006040518060e001604052808d6001600160a01b031681526020018c81526020018b81526020018a815260200183815260200189815260200160015481525090506000610eea8286611d3e565b90506000610ef782611eb9565b9050610f02816120f2565b50506040805160048152602481019091526020810180516001600160e01b0316631294941560e21b17905296505050505050509695505050505050565b606060008063420200016001600160a01b03168585604051602001610f65929190614a4c565b60408051601f1981840301815290829052610f7f91614580565b6000604051808303816000865af19150503d8060008114610fbc576040519150601f19603f3d011682016040523d82523d6000602084013e610fc1565b606091505b509150915081610fec576342020001816040516375fff46760e01b815260040161049a929190614a6f565b949350505050565b600080611000836121c3565b905080516020146110535760405162461bcd60e51b815260206004820152601a60248201527f496e76616c69642070726976617465206b6579206c656e677468000000000000604482015260640161049a565b61106461105f82614a93565b6122e3565b9392505050565b60006110756117d6565b6110915760405162461bcd60e51b815260040161049a9061483b565b60006110a7836040516020016104509190614503565b6110b260015461127d565b6040516020016110c3929190614ab7565b604051602081830303815290604052905060006110df82611a39565b9050610fec610dd161069e61069961111585604051806040016040528060068152602001651c995cdd5b1d60d21b8152506113d2565b60405180604001604052806009815260200168113130b630b731b29160b91b815250612322565b60606104a382612389565b6000611152826123ad565b905081518103611160575050565b600081835161116f91906144f0565b90506000816001600160401b0381111561118b5761118b614246565b6040519080825280601f01601f1916602001820160405280156111b5576020820181803683370190505b50905060005b8281101561122457846111ce8286614b67565b815181106111de576111de614872565b602001015160f81c60f81b8282815181106111fb576111fb614872565b60200101906001600160f81b031916908160001a9053508061121c816148b4565b9150506111bb565b5060008180602001905181019061123b9190614b7a565b905060005b815181101561081c5761126b82828151811061125e5761125e614872565b6020026020010151612511565b80611275816148b4565b915050611240565b60606104a382612703565b60408051600180825281830190925260609160009190816020015b60608152602001906001900390816112a35790505090506040518060400160405280601e81526020017f436f6e74656e742d547970653a206170706c69636174696f6e2f6a736f6e00008152508160008151811061130357611303614872565b6020908102919091010152919050565b606060008063432000026001600160a01b0316846040516020016113379190614ce8565b60408051601f198184030181529082905261135191614580565b6000604051808303816000865af19150503d806000811461138e576040519150601f19603f3d011682016040523d82523d6000602084013e611393565b606091505b5091509150816113be576343200002816040516375fff46760e01b815260040161049a929190614a6f565b80806020019051810190610fec919061497d565b60408051602081019091526000815260006113ec84612747565b9050600061141982604051806040016040528060078152602001661132b93937b91160c91b815250612322565b905061142781516007161590565b61144d576114348161147f565b60405162461bcd60e51b815260040161049a91906141b5565b61147682856040516020016114629190614dc9565b604051602081830303815290604052612322565b95945050505050565b6060600061106483600061275c565b6060600082905060028151101580156114cc5750806000815181106114b5576114b5614872565b6020910101516001600160f81b031916601160f91b145b8015611509575080600182516114e291906144f0565b815181106114f2576114f2614872565b6020910101516001600160f81b031916601160f91b145b6115455760405162461bcd60e51b815260206004820152600d60248201526c125b9d985b1a59081a5b9c1d5d609a1b604482015260640161049a565b60006002825161155591906144f0565b6001600160401b0381111561156c5761156c614246565b6040519080825280601f01601f191660200182016040528015611596576020820181803683370190505b50905060015b600183516115aa91906144f0565b811015611617578281815181106115c3576115c3614872565b01602001516001600160f81b031916826115de6001846144f0565b815181106115ee576115ee614872565b60200101906001600160f81b031916908160001a9053508061160f816148b4565b91505061159c565b509392505050565b80516000907f1999999999999999999999999999999999999999999999999999999999999999825b600181019050603060ff82870151160382851185600a028281019650600983118188108317171586029550505050828110611647575050806106ad5763101827966000526004601cfd5b6060600060405180604001604052806010815260200160008152509050806040516020016116bf9190614580565b60408051601f1981840301815290829052805160209182012060045490926116ee9260809290921b910161459c565b60405160208183030381529060405280519060200120036117215760405162461bcd60e51b815260040161049a90614a15565b6110646040518060c00160405280611737612eea565b86604051602001611749929190614df7565b60405160208183030381529060405281526020016040518060400160405280600381526020016211d15560ea1b815250815260200161063b611288565b60408051600080825291819052906117a0845b600361275c565b90508260051b6020820101519150600160078551161481518410166117c457606091505b5092915050565b60006104a382611baf565b604051600090819081906342010000908281818181865af19150503d806000811461181d576040519150601f19603f3d011682016040523d82523d6000602084013e611822565b606091505b50915091508161184d576342010000816040516375fff46760e01b815260040161049a929190614a6f565b6020015192915050565b606061188c60405180604001604052806012815260200171636f6e666964656e7469616c496e7075747360701b815250612f33565b905090565b6040805160c0810182526000808252602082018190529181019190915260608082018190526080820181905260a082015260008063420300006001600160a01b0316878787876040516020016118ea9493929190614e26565b60408051601f198184030181529082905261190491614580565b6000604051808303816000865af19150503d8060008114611941576040519150601f19603f3d011682016040523d82523d6000602084013e611946565b606091505b509150915081611971576342030000816040516375fff46760e01b815260040161049a929190614a6f565b80806020019051810190610d599190614eff565b60008063420200006001600160a01b03168585856040516020016119ab93929190614fe6565b60408051601f19818403018152908290526119c591614580565b6000604051808303816000865af19150503d8060008114611a02576040519150601f19603f3d011682016040523d82523d6000602084013e611a07565b606091505b509150915081611a32576342020000816040516375fff46760e01b815260040161049a929190614a6f565b5050505050565b606060006040518060400160405280601081526020016000815250905080604051602001611a679190614580565b60408051601f198184030181529082905280516020918201206004549092611a969260809290921b910161459c565b6040516020818303038152906040528051906020012003611ac95760405162461bcd60e51b815260040161049a90614a15565b6110646040518060c0016040528060058054611ae4906144bc565b80601f0160208091040260200160405190810160405280929190818152602001828054611b10906144bc565b8015611b5d5780601f10611b3257610100808354040283529160200191611b5d565b820191906000526020600020905b815481529060010190602001808311611b4057829003601f168201915b50505050508152602001604051806040016040528060048152602001631413d4d560e21b8152508152602001611b91611288565b81526020810186905260006040820152611b58606090910152611313565b600081516001811160208085015160f01c17613078141660011b5b6001810190507403010a071000000b0104040208000c05090d060e0f6d03e4088843e41bac00000000000060ff83870151161c601f161a8360fc1c8115171583029250600181038460041b01935050818110611bca5750806106ad5763101827966000526004601cfd5b604080518082018252601081526000602080830182905292519092611c5b91839101614580565b60408051601f198184030181529082905280516020918201206004549092611c8a9260809290921b910161459c565b6040516020818303038152906040528051906020012003611cbd5760405162461bcd60e51b815260040161049a90614a15565b6000611cd3846040516020016104509190614503565b611cde60015461127d565b604051602001611cef92919061501b565b60405160208183030381529060405290506000611d0b82611a39565b90506106a8610dd161069e61069984604051806040016040528060068152602001651c995cdd5b1d60d21b8152506113d2565b611da360405180610140016040528060006001600160a01b031681526020016000815260200160008152602001600081526020016000815260200160608152602001600081526020016000801916815260200160008019168152602001600081525090565b6000611dae84612fde565b905060008180519060200120604051602001611dcc91815260200190565b60405160208183030381529060405290506000611deb826000876131d6565b905060008660c001516002611e0091906150c4565b90506000806000611e24856020810151604082015160609092015160001a92909190565b919450925090506000611e3b60ff851660236150ef565b9050611e4785826150ef565b8b516001600160a01b03168a526020808d0151908b01526040808d0151908b01526060808d0151908b01526080808d0151908b015260a0808d0151908b015260c0808d0151908b01526001600160401b03166101208a01525060e0880191909152610100870152505050505092915050565b604080516009808252610140820190925260609160009190816020015b6060815260200190600190039081611ed6579050509050611efa83608001516132aa565b81600081518110611f0d57611f0d614872565b6020026020010181905250611f2583604001516132aa565b81600181518110611f3857611f38614872565b6020026020010181905250611f5083602001516132aa565b81600281518110611f6357611f63614872565b602090810291909101015282516001600160a01b0316611fb857611f95604051806020016040528060008152506132b8565b81600381518110611fa857611fa8614872565b6020026020010181905250611fe2565b8251611fc390613327565b81600381518110611fd657611fd6614872565b60200260200101819052505b611fef83606001516132aa565b8160048151811061200257612002614872565b602002602001018190525061201a8360a001516132b8565b8160058151811061202d5761202d614872565b60200260200101819052506120468361012001516132aa565b8160068151811061205957612059614872565b60200260200101819052506120928360e0015160405160200161207e91815260200190565b6040516020818303038152906040526132b8565b816007815181106120a5576120a5614872565b60200260200101819052506120cb83610100015160405160200161207e91815260200190565b816008815181106120de576120de614872565b60200260200101819052506110648161333d565b6060600060405180604001604052806010815260200160008152509050806040516020016121209190614580565b60408051601f19818403018152908290528051602091820120600454909261214f9260809290921b910161459c565b60405160208183030381529060405280519060200120036121825760405162461bcd60e51b815260040161049a90614a15565b600061218d8461113c565b61219860015461127d565b6040516020016121a992919061510f565b6040516020818303038152906040529050610fec81611a39565b805160609082906121d6906002906151c2565b156121e057600080fd5b6000600282516121f091906151d6565b6001600160401b0381111561220757612207614246565b6040519080825280601f01601f191660200182016040528015612231576020820181803683370190505b50905060005b6002835161224591906151d6565b811015611617576122838361225b8360026144a5565b612266906001614b67565b8151811061227657612276614872565b016020015160f81c613381565b612292846122668460026144a5565b61229d9060106151ea565b6122a79190615206565b60f81b8282815181106122bc576122bc614872565b60200101906001600160f81b031916908160001a9053506122dc816148b4565b9050612237565b60008060006122f18461348e565b6040805160208082019490945280820192909252805180830382018152606090920190528051910120949350505050565b6040805160008152905281516060906007166002036104a35781516020830120600061234d856134ef565b805190915060051b5b801561238057818101519550601f190182612370876134fc565b8051906020012003612356578593505b50505092915050565b606061239482613516565b8051613078825260020160011990910190815292915050565b6000805b825181101561250b5760408051808201909152600381526254354360e81b6020909101528251601560fa1b908490839081106123ef576123ef614872565b01602001516001600160f81b031916036124f9576001805b6040518060400160405280600381526020016254354360e81b815250518110156124c85784516124378285614b67565b1015806124a857506040518060400160405280600381526020016254354360e81b815250818151811061246c5761246c614872565b01602001516001600160f81b031916856124868386614b67565b8151811061249657612496614872565b01602001516001600160f81b03191614155b156124b657600091506124c8565b806124c0816148b4565b915050612407565b5080156124f7576040518060400160405280600381526020016254354360e81b8152505182610fec9190614b67565b505b80612503816148b4565b9150506123b1565b50505190565b60408101518051602083015151600003612530578060208301a0505050565b82602001515160010361256d576000836020015160008151811061255657612556614872565b60200260200101519050808260208501a150505050565b8260200151516002036125cf576000836020015160008151811061259357612593614872565b60200260200101519050600084602001516001815181106125b6576125b6614872565b6020026020010151905080828460208701a25050505050565b82602001515160030361265657600083602001516000815181106125f5576125f5614872565b602002602001015190506000846020015160018151811061261857612618614872565b602002602001015190506000856020015160028151811061263b5761263b614872565b602002602001015190508082848660208901a3505050505050565b8260200151516004036126fe576000836020015160008151811061267c5761267c614872565b602002602001015190506000846020015160018151811061269f5761269f614872565b60200260200101519050600085602001516002815181106126c2576126c2614872565b60200260200101519050600086602001516003815181106126e5576126e5614872565b60200260200101519050808284868860208b01a4505050505b505050565b60606080604051019050602081016040526000815280600019835b928101926030600a8206018453600a90048061271e575050819003601f19909101908152919050565b60408051600080825291819052906110648360ff5b6000612e4a565b63101827966000526004601cfd5b805b6001640100002600612786835160001a90565b1c16156104a357600101612773565b63ffffffff83113d3d3e63ffffffff821b191691901b1790565b6040516127d184860360786127cc601f1986890301605888612795565b612795565b959095178552505050602082016040525090565b6000806127f6846018600051612795565b6128008787612771565b915086821061280f5750612935565b815160001a60228103612841578261282989858589612b41565b935061283960048583868a6127af565b945050612926565b605b810361285e576128558884848861293e565b93509350612926565b607b81036128725761285588848488612a07565b6703ff200000000000811c600116156128915761285588848488612c15565b8760048401116128eb5782835160e01c637472756581036128c9576004850194506128c060058684878b6127af565b95505050612926565b636e756c6c81036128e8576004850194506128c060068684878b6127af565b50505b87600584011161291e5782835160d81c6466616c7365810361291b576005850194506128c060058684878b6127af565b50505b612926612763565b50506129328682612771565b90505b94509492505050565b600060018401815b86821061295557612955612763565b82612979576129648783612771565b9150605d612973835160001a90565b146129dc575b612985878385876127e5565b9250925082156129cd5761299f8160988551604017612795565b83526001016129af825160001a90565b605d81036129bd57506129dc565b602c81036129cb57506129d1565b505b8691505b600182019150612946565b506001016129ec82603886612795565b93506129fc6001828787876127af565b915094509492505050565b6000600184015b858110612a1d57612a1d612763565b81612a4157612a2c8682612771565b9050607d612a3b825160001a90565b14612ae5575b612a4b8682612771565b905080612a5a87838587612b41565b612a648882612771565b9250603a612a73845160001a90565b03612ad757612a87886001850186886127e5565b935093508315612ad757612aae60208601830360986127cc85850360b88951608017612795565b8452825160001a607d8103612ac557505050612ae5565b602c8103612ad557505050612add565b505b50508590505b600101612a0e565b600101612af482603886612795565b93506129fc6002828787876127af565b6001667e0000007e03ff6030612b1d8585015160001a90565b031c16612b2c57612b2c612763565b600582146109f1576109f16001830182612b04565b50506000828210612b5457612b54612763565b50600181015b805160001a60228103612b6d5750612bcb565b605c8114612b7e5750600101612b5a565b600182015160001a905060016a0510110400000000002001602283031c1615612baa5750600201612b5a565b60758103612bc657612bbd600283612b04565b50600601612b5a565b508290505b828110612bda57612bda612763565b60010192915050565b805b600a6030612bf4835160001a90565b031015612c0357600101612be5565b80821484161561106457611064612763565b600083602d612c25825160001a90565b03612c2e576001015b600a6030612c3d835160001a90565b0310612c4b57612c4b612763565b805160001a60018201915060308114612c6d57612c6a60008884612be3565b91505b50602e612c7b825160001a90565b03612c9257612c8f60018760018401612be3565b90505b805160658160001a60201703612cc157612cbe6001886001850162010001600e8660011a031a01612be3565b91505b506129fc6003828787876127af565b60405190820190601f19601f850181165b8381015183820152810180612ce15750508381526000846020830101528360408201016040529392505050565b8483612cd0565b8051606090600281600716116106ad5782158115176106ad576020811615612d4957603881901c63ffffffff1691506106ad565b604051915060208201603882901c63ffffffff165b8015612d90578082528051601881901c63ffffffff16612d8087601884612795565b9092525060209190910190612d5e565b50601f1983820381018060051c855282604052612daf85603886612795565b935083602017865260408110612de2576020850192508085015b83518151855281526020909301928201808410612dc957505b50505050919050565b8051606090821581151715612e005750610fec565b80841c63ffffffff169150808616612e415760d881901c63ffffffff16612e2e82871c63ffffffff16612d0e565b925050612e3c828583612795565b861783525b50949350505050565b818015612ebc5760018114612ed25760038114612ee1576020840184518101808214612ea257805160001a60228253612e898760d8601160f91b612795565b600052612e99828460008a6127e5565b93509450808253505b83158183101715612eb557612eb5612763565b50506117c4565b612ecb60106078605887612deb565b91506117c4565b612ecb600860b8609887612deb565b610fec84612d15565b60606006612f0e600460009054906101000a900460801b6003805461030c906144bc565b604051602001612f1f92919061521f565b604051602081830303815290604052905090565b606060008063533000036001600160a01b031684604051602001612f5791906141b5565b60408051601f1981840301815290829052612f7191614580565b6000604051808303816000865af19150503d8060008114612fae576040519150601f19603f3d011682016040523d82523d6000602084013e612fb3565b606091505b5091509150816113be576353300003816040516375fff46760e01b815260040161049a929190614a6f565b604080516009808252610140820190925260609160009190816020015b6060815260200190600190039081612ffb57905050905061301f83608001516132aa565b8160008151811061303257613032614872565b602002602001018190525061304a83604001516132aa565b8160018151811061305d5761305d614872565b602002602001018190525061307583602001516132aa565b8160028151811061308857613088614872565b602090810291909101015282516001600160a01b03166130dd576130ba604051806020016040528060008152506132b8565b816003815181106130cd576130cd614872565b6020026020010181905250613107565b82516130e890613327565b816003815181106130fb576130fb614872565b60200260200101819052505b61311483606001516132aa565b8160048151811061312757613127614872565b602002602001018190525061313f8360a001516132b8565b8160058151811061315257613152614872565b602002602001018190525061316a8360c001516132aa565b8160068151811061317d5761317d614872565b60200260200101819052506131a0604051806020016040528060008152506132b8565b816007815181106131b3576131b3614872565b60200260200101819052506120cb604051806020016040528060008152506132b8565b60606131e06117d6565b6131e957600080fd5b60008063401000036001600160a01b031686868660405160200161320f9392919061523b565b60408051601f198184030181529082905261322991614580565b6000604051808303816000865af19150503d8060008114613266576040519150601f19603f3d011682016040523d82523d6000602084013e61326b565b606091505b509150915081613296576340100003816040516375fff46760e01b815260040161049a929190614a6f565b80806020019051810190610744919061497d565b60606104a36132b88361357c565b606080825160011480156132e657506080836000815181106132dc576132dc614872565b016020015160f81c105b156132f25750816104a3565b6132fe835160806136aa565b83604051602001613310929190614df7565b604051602081830303815290604052905092915050565b60606104a38260405160200161207e9190614503565b6060600061334a83613857565b9050613358815160c06136aa565b8160405160200161336a929190614df7565b604051602081830303815290604052915050919050565b6000600360fc1b60f883901b6001600160f81b031916108015906133b75750603960f81b60f883901b6001600160f81b03191611155b156133c7576104a3603083615284565b606160f81b60f883901b6001600160f81b031916108015906133fb5750603360f91b60f883901b6001600160f81b03191611155b1561341757606161340d83600a615206565b6104a39190615284565b604160f81b60f883901b6001600160f81b0319161080159061344b5750602360f91b60f883901b6001600160f81b03191611155b1561345d57604161340d83600a615206565b60405162461bcd60e51b815260040161049a9060208082526004908201526319985a5b60e21b604082015260600190565b6000806134e5837f79be667ef9dcbbac55a06295ce870b07029bfcdb2dce28d959f2815b16f817987f483ada7726a3c4655da4fbfc0e1108a8fd17b448a68554199c47d08ffb10d4b860006401000003d019613987565b9094909350915050565b6060600061106483611799565b805160609060801615610c4057600061106483600161275c565b8051604051818001600282019081526f30313233343536373839616263646566600f52918301906022015b81841461356c57600184019350600f845116516001820153600f845160041c16518153600201613541565b6000815260200160405250919050565b606060008260405160200161359391815260200190565b604051602081830303815290604052905060005b60208110156135ea578181815181106135c2576135c2614872565b01602001516001600160f81b0319166000036135ea57806135e2816148b4565b9150506135a7565b60006135f78260206144f0565b6001600160401b0381111561360e5761360e614246565b6040519080825280601f01601f191660200182016040528015613638576020820181803683370190505b50905060005b8151811015612e41578383613652816148b4565b94508151811061366457613664614872565b602001015160f81c60f81b82828151811061368157613681614872565b60200101906001600160f81b031916908160001a905350806136a2816148b4565b91505061363e565b606080603884101561371157604080516001808252818301909252906020820181803683370190505090506136df8385615206565b60f81b816000815181106136f5576136f5614872565b60200101906001600160f81b031916908160001a905350611064565b600060015b61372081876151d6565b15613746578161372f816148b4565b925061373f9050610100826144a5565b9050613716565b613751826001614b67565b6001600160401b0381111561376857613768614246565b6040519080825280601f01601f191660200182016040528015613792576020820181803683370190505b50925061379f8583615206565b6137aa906037615206565b60f81b836000815181106137c0576137c0614872565b60200101906001600160f81b031916908160001a905350600190505b81811161384e576101006137f082846144f0565b6137fc90610100615381565b61380690886151d6565b61381091906151c2565b60f81b83828151811061382557613825614872565b60200101906001600160f81b031916908160001a90535080613846816148b4565b9150506137dc565b50509392505050565b606081516000036138785760408051600080825260208201909252906117c4565b6000805b83518110156138bf5783818151811061389757613897614872565b602002602001015151826138ab9190614b67565b9150806138b7816148b4565b91505061387c565b6000826001600160401b038111156138d9576138d9614246565b6040519080825280601f01601f191660200182016040528015613903576020820181803683370190505b50600092509050602081015b8551831015612e4157600086848151811061392c5761392c614872565b60200260200101519050600060208201905061394a838284516139c1565b87858151811061395c5761395c614872565b602002602001015151836139709190614b67565b92505050828061397f906148b4565b93505061390f565b600080600080600061399e8a8a8a60018b8b613a1e565b9250925092506139b083838389613aa0565b945094505050509550959350505050565b8282825b602081106139fd57815183526139dc602084614b67565b92506139e9602083614b67565b91506139f66020826144f0565b90506139c5565b905182516020929092036101000a6000190180199091169116179052505050565b600080600088600003613a38575086915085905084613a94565b8860008060015b8315613a8b576001841615613a6557613a5d8383838f8f8f8e613b0f565b919450925090505b613a706002856151d6565b9350613a7f8c8c8c8c8c613e42565b919d509b509950613a3f565b91955093509150505b96509650969350505050565b6000806000613aaf8585613fe5565b905060008480613ac157613ac16151ac565b828309905060008580613ad657613ad66151ac565b828a09905060008680613aeb57613aeb6151ac565b8780613af957613af96151ac565b8486098a09919a91995090975050505050505050565b6000808089158015613b1f575088155b15613b31575085915084905083613e35565b86158015613b3d575085155b15613b4f575088915087905086613e35565b613b576140b1565b8480613b6557613b656151ac565b898a0981528480613b7857613b786151ac565b81518a0960208201528480613b8f57613b8f6151ac565b86870960408201528480613ba557613ba56151ac565b6040820151870960608201526040805160808101909152808680613bcb57613bcb6151ac565b60408401518e0981526020018680613be557613be56151ac565b60608401518d0981526020018680613bff57613bff6151ac565b83518b0981526020018680613c1657613c166151ac565b60208401518a09905260408101518151919250141580613c3e57506060810151602082015114155b613c8a5760405162461bcd60e51b815260206004820152601e60248201527f557365206a6163446f75626c652066756e6374696f6e20696e73746561640000604482015260640161049a565b613c926140b1565b8580613ca057613ca06151ac565b8251613cac90886144f0565b60408401510881528580613cc257613cc26151ac565b6020830151613cd190886144f0565b60608401510860208201528580613cea57613cea6151ac565b8151800960408201528580613d0157613d016151ac565b8151604083015109606082015260008680613d1e57613d1e6151ac565b6060830151613d2d90896144f0565b8880613d3b57613d3b6151ac565b602085015180090890508680613d5357613d536151ac565b8780613d6157613d616151ac565b8880613d6f57613d6f6151ac565b6040850151865109600209613d8490896144f0565b8208905060008780613d9857613d986151ac565b8880613da657613da66151ac565b613db0848b6144f0565b8a80613dbe57613dbe6151ac565b60408701518851090860208501510990508780613ddd57613ddd6151ac565b8880613deb57613deb6151ac565b6060850151602087015109613e00908a6144f0565b8208905060008880613e1457613e146151ac565b8980613e2257613e226151ac565b8b8f098551099297509095509093505050505b9750975097945050505050565b600080600085600003613e5c575086915085905084613fda565b60008480613e6c57613e6c6151ac565b898a09905060008580613e8157613e816151ac565b898a09905060008680613e9657613e966151ac565b898a09905060008780613eab57613eab6151ac565b8880613eb957613eb96151ac565b848e09600409905060008880613ed157613ed16151ac565b8980613edf57613edf6151ac565b8a80613eed57613eed6151ac565b8586098c098a80613f0057613f006151ac565b876003090890508880613f1557613f156151ac565b8980613f2357613f236151ac565b838408613f30908b6144f0565b8a80613f3e57613f3e6151ac565b8384090894508880613f5257613f526151ac565b8980613f6057613f606151ac565b8a80613f6e57613f6e6151ac565b868709600809613f7e908b6144f0565b8a80613f8c57613f8c6151ac565b8b80613f9a57613f9a6151ac565b613fa4898e6144f0565b860884090893508880613fb957613fb96151ac565b8980613fc757613fc76151ac565b8c8e096002099497509295509293505050505b955095509592505050565b60008215801590613ff65750818314155b801561400157508115155b61403e5760405162461bcd60e51b815260206004820152600e60248201526d24b73b30b634b210373ab6b132b960911b604482015260640161049a565b6000600183825b86156140a65761405587836151d6565b9050828680614066576140666151ac565b8780614074576140746151ac565b85840961408190896144f0565b860890945092508661409381836144a5565b61409d90846144f0565b97509150614045565b509195945050505050565b60405180608001604052806004906020820280368337509192915050565b6001600160a01b03811681146140e457600080fd5b50565b6001600160801b0319811681146140e457600080fd5b600080600080600060a0868803121561411557600080fd5b8535614120816140cf565b94506020860135614130816140cf565b93506040860135614140816140cf565b9250606086013591506080860135614157816140e7565b809150509295509295909350565b60005b83811015614180578181015183820152602001614168565b50506000910152565b600081518084526141a1816020860160208601614165565b601f01601f19169290920160200192915050565b6020815260006110646020830184614189565b600080604083850312156141db57600080fd5b82356141e6816140cf565b915060208301356141f6816140e7565b809150509250929050565b60006020828403121561421357600080fd5b5035919050565b6000806040838503121561422d57600080fd5b8235614238816140cf565b946020939093013593505050565b634e487b7160e01b600052604160045260246000fd5b604051606081016001600160401b038111828210171561427e5761427e614246565b60405290565b60405160c081016001600160401b038111828210171561427e5761427e614246565b604051601f8201601f191681016001600160401b03811182821017156142ce576142ce614246565b604052919050565b60006001600160401b038211156142ef576142ef614246565b50601f01601f191660200190565b600082601f83011261430e57600080fd5b813561432161431c826142d6565b6142a6565b81815284602083860101111561433657600080fd5b816020850160208301376000918101602001919091529392505050565b6000806040838503121561436657600080fd5b82356001600160401b0381111561437c57600080fd5b614388858286016142fd565b92505060208301356141f6816140e7565b6000602082840312156143ab57600080fd5b81356001600160401b038111156143c157600080fd5b610fec848285016142fd565b60006001600160401b038211156143e6576143e6614246565b5060051b60200190565b6000806040838503121561440357600080fd5b82356001600160401b0381111561441957600080fd5b8301601f8101851361442a57600080fd5b8035602061443a61431c836143cd565b82815260059290921b8301810191818101908884111561445957600080fd5b938201935b83851015614480578435614471816140cf565b8252938201939082019061445e565b98969091013596505050505050565b634e487b7160e01b600052601160045260246000fd5b80820281158282048414176104a3576104a361448f565b600181811c908216806144d057607f821691505b6020821081036106ad57634e487b7160e01b600052602260045260246000fd5b818103818111156104a3576104a361448f565b60609190911b6bffffffffffffffffffffffff1916815260140190565b7f46756e647320746f6f206c65737320746f20706179206f75742062696473206181526a03a1030b2323932b9b99d160ad1b6020820152602b0190565b600061456882614520565b8351614578818360208801614165565b019392505050565b60008251614592818460208701614165565b9190910192915050565b6001600160801b031991909116815260100190565b8054600090600181811c90808316806145cb57607f831692505b602080841082036145ec57634e487b7160e01b600052602260045260246000fd5b818015614600576001811461461557614642565b60ff1986168952841515850289019650614642565b60008881526020902060005b8681101561463a5781548b820152908501908301614621565b505084890196505b50505050505092915050565b600061465a82866145b1565b7f3f6d6f64756c653d626c6f636b26616374696f6e3d676574626c6f636b6e6f6281526f7974696d652674696d657374616d703d60801b602082015284516146a9816030840160208901614165565b7f26636c6f736573743d6265666f7265266170696b65793d0000000000000000006030929091019182015283516146e7816047840160208801614165565b0160470195945050505050565b7f2f6765744f776e657273466f72546f6b656e3f636f6e7472616374416464726581526273733d60e81b602082015260008351614738816023850160208801614165565b6826746f6b656e49643d60b81b602391840191820152835161476181602c840160208801614165565b01602c01949350505050565b600061477882614520565b8551614788818360208a01614165565b6453430b99d160d51b910190815284516147a9816006840160208901614165565b664b732b2b2399d160c51b6006929091019182015283516147d181600e840160208801614165565b01600e0195945050505050565b6020808252603c908201527f596f7520617265206e6f7420746865206f776e6572206f66207468697320636f60408201527f6e747261637420616e642063616e206e6f74206d6f6469667920697400000000606082015260800190565b6020808252601d908201527f6d7573742062652063616c6c656420636f6e666964656e7469616c6c79000000604082015260600190565b634e487b7160e01b600052603260045260246000fd5b60408152600061489b6040830185614189565b90506001600160801b0319831660208301529392505050565b6000600182016148c6576148c661448f565b5060010190565b600081518084526020808501945080840160005b838110156149065781516001600160a01b0316875295820195908201906001016148e1565b509495945050505050565b60018060a01b038416815282602082015260606040820152600061147660608301846148cd565b600082601f83011261494957600080fd5b815161495761431c826142d6565b81815284602083860101111561496c57600080fd5b610fec826020830160208701614165565b60006020828403121561498f57600080fd5b81516001600160401b038111156149a557600080fd5b610fec84828501614938565b60008051602061538e83398151915281527f5f6761735072696365222c2022706172616d73223a205b5d2c20226964223a206020820152600082516149fd816040850160208701614165565b607d60f81b6040939091019283015250604101919050565b6020808252601e908201527f4e6f2052504320456e64706f696e742072656769737465726564207965740000604082015260600190565b6001600160801b031983168152604060208201526000610fec6040830184614189565b6001600160a01b0383168152604060208201819052600090610fec90830184614189565b805160208083015191908110156106ad5760001960209190910360031b1b16919050565b60008051602061538e83398151915281527f5f67657450726f6f66222c2022706172616d73223a205b220000000000000000602082015260008351614b03816038850160208801614165565b6511162dae961160d11b603891840191820152651b185d195cdd60d21b603e8201526a112e96101134b2111d101160a91b60448201528351614b4c81604f840160208801614165565b61227d60f01b604f9290910191820152605101949350505050565b808201808211156104a3576104a361448f565b60006020808385031215614b8d57600080fd5b82516001600160401b0380821115614ba457600080fd5b818501915085601f830112614bb857600080fd5b8151614bc661431c826143cd565b81815260059190911b83018401908481019088831115614be557600080fd5b8585015b83811015614cdb57805185811115614c0057600080fd5b86016060818c03601f19011215614c1657600080fd5b614c1e61425c565b88820151614c2b816140cf565b8152604082015187811115614c3f57600080fd5b8201603f81018d13614c5057600080fd5b89810151614c6061431c826143cd565b81815260059190911b8201604001908b8101908f831115614c8057600080fd5b6040840193505b82841015614ca05783518252928c0192908c0190614c87565b848d0152505050606082015187811115614cb957600080fd5b614cc78d8b83860101614938565b604083015250845250918601918601614be9565b5098975050505050505050565b60006020808352835160c082850152614d0460e0850182614189565b905081850151601f1980868403016040870152614d218383614189565b60408801518782038301606089015280518083529194508501925084840190600581901b8501860160005b82811015614d785784878303018452614d66828751614189565b95880195938801939150600101614d4c565b5060608a01519650838982030160808a0152614d948188614189565b96505050505050506080840151614daf60a085018215159052565b5060a08401516001600160401b03811660c0850152611617565b6000601160f91b8083528351614de6816001860160208801614165565b600193019283015250600201919050565b60008351614e09818460208801614165565b835190830190614e1d818360208801614165565b01949350505050565b6001600160401b0385168152608060208201526000614e4860808301866148cd565b8281036040840152614e5a81866148cd565b90508281036060840152610d598185614189565b8051610c40816140e7565b80516001600160401b0381168114610c4057600080fd5b600082601f830112614ea157600080fd5b81516020614eb161431c836143cd565b82815260059290921b84018101918181019086841115614ed057600080fd5b8286015b84811015614ef4578051614ee7816140cf565b8352918301918301614ed4565b509695505050505050565b600060208284031215614f1157600080fd5b81516001600160401b0380821115614f2857600080fd5b9083019060c08286031215614f3c57600080fd5b614f44614284565b614f4d83614e6e565b8152614f5b60208401614e6e565b6020820152614f6c60408401614e79565b6040820152606083015182811115614f8357600080fd5b614f8f87828601614e90565b606083015250608083015182811115614fa757600080fd5b614fb387828601614e90565b60808301525060a083015182811115614fcb57600080fd5b614fd787828601614938565b60a08301525095945050505050565b6001600160801b0319841681526060602082015260006150096060830185614189565b82810360408401526107448185614189565b60008051602061538e83398151915281527f5f6765745472616e73616374696f6e436f756e74222c2022706172616d73223a602082015262102d9160e91b604082015260008351615073816043850160208801614165565b75111610113630ba32b9ba11102e96101134b2111d101160511b60439184019182015283516150a9816059840160208801614165565b61227d60f01b60599290910191820152605b01949350505050565b6001600160401b038181168382160280821691908281146150e7576150e761448f565b505092915050565b6001600160401b038181168382160190808211156117c4576117c461448f565b60008051602061538e83398151915281527f5f73656e645261775472616e73616374696f6e222c2022706172616d73223a206020820152612d9160f11b604082015260008351615166816042850160208801614165565b6a112e96101134b2111d101160a91b604291840191820152835161519181604d840160208801614165565b61227d60f01b604d9290910191820152604f01949350505050565b634e487b7160e01b600052601260045260246000fd5b6000826151d1576151d16151ac565b500690565b6000826151e5576151e56151ac565b500490565b60ff81811683821602908116908181146117c4576117c461448f565b60ff81811683821601908111156104a3576104a361448f565b600061522b82856145b1565b8351614e1d818360208801614165565b60608152600061524e6060830186614189565b6002851061526c57634e487b7160e01b600052602160045260246000fd5b84602084015282810360408401526107448185614189565b60ff82811682821603908111156104a3576104a361448f565b600181815b808511156152d85781600019048211156152be576152be61448f565b808516156152cb57918102915b93841c93908002906152a2565b509250929050565b6000826152ef575060016104a3565b816152fc575060006104a3565b8160018114615312576002811461531c57615338565b60019150506104a3565b60ff84111561532d5761532d61448f565b50506001821b6104a3565b5060208310610133831016604e8410600b841016171561535b575081810a6104a3565b615365838361529d565b80600019048211156153795761537961448f565b029392505050565b600061106483836152e056fe7b226a736f6e727063223a22322e30222c20226d6574686f64223a2022657468a2646970667358221220b70fdb74df6e78369167c2d7b25c59537d11784007ceafc90224385528b9cb3d64736f6c6343000814003368747470733a2f2f6170692d7365706f6c69612e65746865727363616e2e696f2f61706968747470733a2f2f6574682d7365706f6c69612e672e616c6368656d792e636f6d2f76322f",
    "linkReferences": {}
  },
  "methodIdentifiers": {
    "BASE_ALCHEMY_URL()": "1bcfe34d",
    "BASE_SEPOLIA_ETHERSCAN_URL()": "e5feb639",
    "chainID()": "adc879e9",
    "endAuction(address[],uint256)": "f8fde203",
    "getNFTOwnedBy(address,uint256)": "73b072f1",
    "getNearestPreviousBlock(uint256)": "627dc017",
    "onchainCallback()": "4a525054",
    "owner()": "8da5cb5b",
    "registerApiKeyOffchain(string)": "ee03cb3a",
    "registerApiKeyOnchain(string,bytes16)": "b7912a18",
    "transferETH(address,bytes16)": "2ddcd98c",
    "transferETHForNFT(address,bytes16)": "9e479d98",
    "transferNFT(address,address,address,uint256,bytes16)": "095c6469"
  },
  "id": 39
}