{
  "abi": [
    {
      "type": "constructor",
      "inputs": [
        {
          "name": "_chainID",
          "type": "uint256",
          "internalType": "uint256"
        }
      ],
      "stateMutability": "nonpayable"
    },
    {
      "type": "function",
      "name": "BASE_ALCHEMY_URL",
      "inputs": [],
      "outputs": [
        {
          "name": "",
          "type": "string",
          "internalType": "string"
        }
      ],
      "stateMutability": "view"
    },
    {
      "type": "function",
      "name": "BASE_SEPOLIA_ETHERSCAN_URL",
      "inputs": [],
      "outputs": [
        {
          "name": "",
          "type": "string",
          "internalType": "string"
        }
      ],
      "stateMutability": "view"
    },
    {
      "type": "function",
      "name": "chainID",
      "inputs": [],
      "outputs": [
        {
          "name": "",
          "type": "uint256",
          "internalType": "uint256"
        }
      ],
      "stateMutability": "view"
    },
    {
      "type": "function",
      "name": "endAuction",
      "inputs": [
        {
          "name": "l1Addresses",
          "type": "address[]",
          "internalType": "address[]"
        },
        {
          "name": "endTimestamp",
          "type": "uint256",
          "internalType": "uint256"
        }
      ],
      "outputs": [
        {
          "name": "",
          "type": "bytes",
          "internalType": "bytes"
        }
      ],
      "stateMutability": "nonpayable"
    },
    {
      "type": "function",
      "name": "getNFTOwnedBy",
      "inputs": [
        {
          "name": "_nftContract",
          "type": "address",
          "internalType": "address"
        },
        {
          "name": "_tokenId",
          "type": "uint256",
          "internalType": "uint256"
        }
      ],
      "outputs": [
        {
          "name": "",
          "type": "address",
          "internalType": "address"
        }
      ],
      "stateMutability": "nonpayable"
    },
    {
      "type": "function",
      "name": "getNearestPreviousBlock",
      "inputs": [
        {
          "name": "timestamp",
          "type": "uint256",
          "internalType": "uint256"
        }
      ],
      "outputs": [
        {
          "name": "",
          "type": "uint256",
          "internalType": "uint256"
        }
      ],
      "stateMutability": "nonpayable"
    },
    {
      "type": "function",
      "name": "onchainCallback",
      "inputs": [],
      "outputs": [],
      "stateMutability": "nonpayable"
    },
    {
      "type": "function",
      "name": "owner",
      "inputs": [],
      "outputs": [
        {
          "name": "",
          "type": "address",
          "internalType": "address"
        }
      ],
      "stateMutability": "view"
    },
    {
      "type": "function",
      "name": "registerApiKeyOffchain",
      "inputs": [
        {
          "name": "rpcName",
          "type": "string",
          "internalType": "string"
        }
      ],
      "outputs": [
        {
          "name": "",
          "type": "bytes",
          "internalType": "bytes"
        }
      ],
      "stateMutability": "nonpayable"
    },
    {
      "type": "function",
      "name": "registerApiKeyOnchain",
      "inputs": [
        {
          "name": "rpcName",
          "type": "string",
          "internalType": "string"
        },
        {
          "name": "_rpcRecord",
          "type": "bytes16",
          "internalType": "Suave.DataId"
        }
      ],
      "outputs": [],
      "stateMutability": "nonpayable"
    },
    {
      "type": "function",
      "name": "transferETH",
      "inputs": [
        {
          "name": "returnAddress",
          "type": "address",
          "internalType": "address"
        },
        {
          "name": "suaveDataID",
          "type": "bytes16",
          "internalType": "Suave.DataId"
        }
      ],
      "outputs": [
        {
          "name": "",
          "type": "bytes",
          "internalType": "bytes"
        }
      ],
      "stateMutability": "nonpayable"
    },
    {
      "type": "function",
      "name": "transferETHForNFT",
      "inputs": [
        {
          "name": "returnAddress",
          "type": "address",
          "internalType": "address"
        },
        {
          "name": "suaveDataID",
          "type": "bytes16",
          "internalType": "Suave.DataId"
        }
      ],
      "outputs": [],
      "stateMutability": "nonpayable"
    },
    {
      "type": "function",
      "name": "transferNFT",
      "inputs": [
        {
          "name": "from",
          "type": "address",
          "internalType": "address"
        },
        {
          "name": "to",
          "type": "address",
          "internalType": "address"
        },
        {
          "name": "nftContract",
          "type": "address",
          "internalType": "address"
        },
        {
          "name": "tokenId",
          "type": "uint256",
          "internalType": "uint256"
        },
        {
          "name": "suaveDataID",
          "type": "bytes16",
          "internalType": "Suave.DataId"
        }
      ],
      "outputs": [
        {
          "name": "",
          "type": "bytes",
          "internalType": "bytes"
        }
      ],
      "stateMutability": "nonpayable"
    },
    {
      "type": "error",
      "name": "PeekerReverted",
      "inputs": [
        {
          "name": "",
          "type": "address",
          "internalType": "address"
        },
        {
          "name": "",
          "type": "bytes",
          "internalType": "bytes"
        }
      ]
    }
  ],
  "bytecode": {
    "object": "0x60c060405260036080908152624b455960e81b60a05260029062000024908262000192565b506040805180820190915260038082526252504360e81b6020830152906200004d908262000192565b50604051806060016040528060258152602001620057dc6025913960059062000077908262000192565b50604051806060016040528060248152602001620057b860249139600690620000a1908262000192565b50348015620000af57600080fd5b506040516200580138038062005801833981016040819052620000d2916200025e565b600080546001600160a01b0319163317905560015562000278565b634e487b7160e01b600052604160045260246000fd5b600181811c908216806200011857607f821691505b6020821081036200013957634e487b7160e01b600052602260045260246000fd5b50919050565b601f8211156200018d57600081815260208120601f850160051c81016020861015620001685750805b601f850160051c820191505b81811015620001895782815560010162000174565b5050505b505050565b81516001600160401b03811115620001ae57620001ae620000ed565b620001c681620001bf845462000103565b846200013f565b602080601f831160018114620001fe5760008415620001e55750858301515b600019600386901b1c1916600185901b17855562000189565b600085815260208120601f198616915b828110156200022f578886015182559484019460019091019084016200020e565b50858210156200024e5787850151600019600388901b60f8161c191681555b5050505050600190811b01905550565b6000602082840312156200027157600080fd5b5051919050565b61553080620002886000396000f3fe608060405234801561001057600080fd5b50600436106100cf5760003560e01c80638da5cb5b1161008c578063b7912a1811610066578063b7912a181461019d578063e5feb639146101b0578063ee03cb3a146101b8578063f8fde203146101cb57600080fd5b80638da5cb5b1461016e5780639e479d9814610181578063adc879e91461019457600080fd5b8063095c6469146100d45780631bcfe34d146100fd5780632ddcd98c146101055780634a52505414610118578063627dc0171461012257806373b072f114610143575b600080fd5b6100e76100e23660046141bd565b6101de565b6040516100f49190614275565b60405180910390f35b6100e7610269565b6100e7610113366004614288565b6102f7565b6101206104a9565b005b6101356101303660046142c1565b6104eb565b6040519081526020016100f4565b6101566101513660046142da565b6106b3565b6040516001600160a01b0390911681526020016100f4565b600054610156906001600160a01b031681565b61012061018f366004614288565b61074e565b61013560015481565b6101206101ab366004614413565b610824565b6100e76109f5565b6100e76101c6366004614459565b610a02565b6100e76101d93660046144b0565b610c45565b606060006101ea610d65565b6101f5906002614565565b6040516001600160a01b03808a166024830152881660448201526064810186905290915060009060840160408051601f198184030181529190526020810180516001600160e01b03166323b872dd60e01b179052905061025d86620138808460008589610dde565b98975050505050505050565b600580546102769061457c565b80601f01602080910402602001604051908101604052809291908181526020018280546102a29061457c565b80156102ef5780601f106102c4576101008083540402835291602001916102ef565b820191906000526020600020905b8154815290600101906020018083116102d257829003601f168201915b505050505081565b6060600061038f836002805461030c9061457c565b80601f01602080910402602001604051908101604052809291908181526020018280546103389061457c565b80156103855780601f1061035a57610100808354040283529160200191610385565b820191906000526020600020905b81548152906001019060200180831161036857829003601f168201915b5050505050610f40565b9050600061039c82610ff5565b905060006103a8610d65565b6103b3906002614565565b905060006103c08361106c565b90506103ce82615208614565565b811061043c5761040687615208846103e68183614565565b6103f090866145b0565b604051806020016040528060008152508b610dde565b50506040805160048152602481019091526020810180516001600160e01b0316631294941560e21b17905293506104a392505050565b6104648360405160200161045091906145c3565b60405160208183030381529060405261113d565b604051602001610474919061461d565b60408051601f198184030181529082905262461bcd60e51b825261049a91600401614275565b60405180910390fd5b92915050565b6104e96000368080601f01602080910402602001604051908101604052809392919081815260200183838082843760009201919091525061114892505050565b565b60408051808201825260108152600060208083018290529251909261051291839101614640565b60408051601f19818403018152908290528051602091820120600454909261054692600160801b90920460801b910161465c565b60405160208183030381529060405280519060200120036105b55760405162461bcd60e51b8152602060048201526024808201527f4e6f2065746865727363616e20456e64706f696e742072656769737465726564604482015263081e595d60e21b606482015260840161049a565b600060066105c28561127e565b600454600380546105e292600160801b900460801b919061030c9061457c565b6040516020016105f49392919061470e565b60408051601f1981840301815260c08301825280835281518083018352600381526211d15560ea1b602082810191909152840152925060009161066691810161063b611289565b8152604080516020818101835260008083529084019190915290820152611b58606090910152611314565b90506106a86106a361069e61069984604051806040016040528060068152602001651c995cdd5b1d60d21b8152506113d3565b611480565b61148f565b611620565b935050505b50919050565b6000806106ca8460405160200161045091906145c3565b6106d38461127e565b6040516020016106e49291906147b4565b6040516020818303038152906040529050600061070082611692565b9050600061074461073f61069e61069961073886604051806040016040528060068152602001656f776e65727360d01b8152506113d3565b6000611787565b6117cc565b9695505050505050565b6000610761826002805461030c9061457c565b9050600061076e82610ff5565b9050600061077a610d65565b610785906002614565565b905060006107928361106c565b90506107a18262018a88614565565b81106107d8576107d286615208846107bc8162013880614565565b604051806020016040528060008152508a610dde565b5061081c565b6107ec8360405160200161045091906145c3565b6107f58261127e565b61080a6108058562018a88614565565b61127e565b6040516020016104749392919061482d565b505050505050565b6000546001600160a01b0316331461084e5760405162461bcd60e51b815260040161049a9061489e565b61088e6000368080601f01602080910402602001604051908101604052809392919081815260200183838082843760009201919091525061114892505050565b6108966117d7565b6108b25760405162461bcd60e51b815260040161049a906148fb565b604080518082019091526007815266616c6368656d7960c81b6020918201528251908301207ff32a8f3cb2c0a22e6b1176c61af2ce6b601d168886a69603d89546e80a90837d0161091757600480546001600160801b031916608083901c1790555050565b60408051808201909152600981526832ba3432b939b1b0b760b91b6020918201528251908301207ff2a838274ab14069c06b321275a85e4ef6538b9a525de7a8ab8c9b740c8c46f30161098357600480546001600160801b0316600160801b608084901c021790555050565b60405162461bcd60e51b815260206004820152603a60248201527f5468652070726f7669646564205250432d4e616d65206973206e65697468657260448201527f2022616c6368656d7922206e6f72202265746865727363616e22000000000000606482015260840161049a565b5050565b600680546102769061457c565b6000546060906001600160a01b03163314610a2f5760405162461bcd60e51b815260040161049a9061489e565b610a376117d7565b610a535760405162461bcd60e51b815260040161049a906148fb565b6000610a5d611858565b60408051600180825281830190925291925060009190602080830190803683370190505090503081600081518110610a9757610a97614932565b60200260200101906001600160a01b031690816001600160a01b0316815250506000610b506000838460038054610acd9061457c565b80601f0160208091040260200160405190810160405280929190818152602001828054610af99061457c565b8015610b465780601f10610b1b57610100808354040283529160200191610b46565b820191906000526020600020905b815481529060010190602001808311610b2957829003601f168201915b5050505050611892565b9050610beb816000015160038054610b679061457c565b80601f0160208091040260200160405190810160405280929190818152602001828054610b939061457c565b8015610be05780601f10610bb557610100808354040283529160200191610be0565b820191906000526020600020905b815481529060010190602001808311610bc357829003601f168201915b505050505085611986565b80516040516316f2254360e31b91610c0891889190602401614948565b60408051601f198184030181529190526020810180516001600160e01b03166001600160e01b03199093169290921790915293505050505b919050565b6060610c4f6117d7565b610c6b5760405162461bcd60e51b815260040161049a906148fb565b6000806000610c79856104eb565b905060005b8651811015610ce9576000610cac888381518110610c9e57610c9e614932565b602002602001015184611a3a565b905084811115610cd657809450878281518110610ccb57610ccb614932565b602002602001015193505b5080610ce181614974565b915050610c7e565b506040516339a317c160e21b81523390819063e68c5f0490610d1390869088908c906004016149d1565b6000604051808303816000875af1158015610d32573d6000803e3d6000fd5b505050506040513d6000823e601f3d908101601f19168201604052610d5a9190810190614a3d565b979650505050505050565b600080610d7360015461127e565b604051602001610d839190614a71565b60405160208183030381529060405290506000610d9f82611aee565b9050610dd7610dd261069e61069984604051806040016040528060068152602001651c995cdd5b1d60d21b8152506113d3565b611be1565b9250505090565b606060006040518060400160405280601081526020016000815250905080604051602001610e0c9190614640565b60408051601f198184030181529082905280516020918201206004549092610e3b9260809290921b910161465c565b6040516020818303038152906040528051906020012003610e6e5760405162461bcd60e51b815260040161049a90614ad5565b6000610e81846002805461030c9061457c565b90506000610e8e82610ff5565b90506000610e9b82611c66565b905060006040518060e001604052808d6001600160a01b031681526020018c81526020018b81526020018a815260200183815260200189815260200160015481525090506000610eeb8286611d70565b90506000610ef882611eeb565b9050610f0381612124565b50506040805160048152602481019091526020810180516001600160e01b0316631294941560e21b17905296505050505050509695505050505050565b606060008063420200016001600160a01b03168585604051602001610f66929190614b0c565b60408051601f1981840301815290829052610f8091614640565b6000604051808303816000865af19150503d8060008114610fbd576040519150601f19603f3d011682016040523d82523d6000602084013e610fc2565b606091505b509150915081610fed576342020001816040516375fff46760e01b815260040161049a929190614b2f565b949350505050565b600080611001836121f5565b905080516020146110545760405162461bcd60e51b815260206004820152601a60248201527f496e76616c69642070726976617465206b6579206c656e677468000000000000604482015260640161049a565b61106561106082614b53565b612315565b9392505050565b60006110766117d7565b6110925760405162461bcd60e51b815260040161049a906148fb565b60006110a88360405160200161045091906145c3565b6110b360015461127e565b6040516020016110c4929190614bb4565b604051602081830303815290604052905060006110e082611aee565b9050610fed610dd261069e61069961111685604051806040016040528060068152602001651c995cdd5b1d60d21b8152506113d3565b60405180604001604052806009815260200168113130b630b731b29160b91b815250612354565b60606104a3826123bb565b6000611153826123df565b905081518103611161575050565b600081835161117091906145b0565b90506000816001600160401b0381111561118c5761118c614306565b6040519080825280601f01601f1916602001820160405280156111b6576020820181803683370190505b50905060005b8281101561122557846111cf8286614c2f565b815181106111df576111df614932565b602001015160f81c60f81b8282815181106111fc576111fc614932565b60200101906001600160f81b031916908160001a9053508061121d81614974565b9150506111bc565b5060008180602001905181019061123c9190614c42565b905060005b815181101561081c5761126c82828151811061125f5761125f614932565b6020026020010151612543565b8061127681614974565b915050611241565b60606104a382612735565b60408051600180825281830190925260609160009190816020015b60608152602001906001900390816112a45790505090506040518060400160405280601e81526020017f436f6e74656e742d547970653a206170706c69636174696f6e2f6a736f6e00008152508160008151811061130457611304614932565b6020908102919091010152919050565b606060008063432000026001600160a01b0316846040516020016113389190614db0565b60408051601f198184030181529082905261135291614640565b6000604051808303816000865af19150503d806000811461138f576040519150601f19603f3d011682016040523d82523d6000602084013e611394565b606091505b5091509150816113bf576343200002816040516375fff46760e01b815260040161049a929190614b2f565b80806020019051810190610fed9190614a3d565b60408051602081019091526000815260006113ed8461277a565b9050600061141a82604051806040016040528060078152602001661132b93937b91160c91b815250612354565b905061142881516007161590565b61144e5761143581611480565b60405162461bcd60e51b815260040161049a9190614275565b61147782856040516020016114639190614e91565b604051602081830303815290604052612354565b95945050505050565b6060600061106583600061278f565b6060600082905060028151101580156114cd5750806000815181106114b6576114b6614932565b6020910101516001600160f81b031916601160f91b145b801561150a575080600182516114e391906145b0565b815181106114f3576114f3614932565b6020910101516001600160f81b031916601160f91b145b6115465760405162461bcd60e51b815260206004820152600d60248201526c125b9d985b1a59081a5b9c1d5d609a1b604482015260640161049a565b60006002825161155691906145b0565b6001600160401b0381111561156d5761156d614306565b6040519080825280601f01601f191660200182016040528015611597576020820181803683370190505b50905060015b600183516115ab91906145b0565b811015611618578281815181106115c4576115c4614932565b01602001516001600160f81b031916826115df6001846145b0565b815181106115ef576115ef614932565b60200101906001600160f81b031916908160001a9053508061161081614974565b91505061159d565b509392505050565b80516000907f1999999999999999999999999999999999999999999999999999999999999999825b600181019050603060ff82870151160382851185600a028281019650600983118188108317171586029550505050828110611648575050806106ad5763101827966000526004601cfd5b6060600060405180604001604052806010815260200160008152509050806040516020016116c09190614640565b60408051601f1981840301815290829052805160209182012060045490926116ef9260809290921b910161465c565b60405160208183030381529060405280519060200120036117225760405162461bcd60e51b815260040161049a90614ad5565b6110656040518060c00160405280611738612f1d565b8660405160200161174a929190614ebf565b60405160208183030381529060405281526020016040518060400160405280600381526020016211d15560ea1b815250815260200161063b611289565b60408051600080825291819052906117a1845b600361278f565b90508260051b6020820101519150600160078551161481518410166117c557606091505b5092915050565b60006104a382611be1565b604051600090819081906342010000908281818181865af19150503d806000811461181e576040519150601f19603f3d011682016040523d82523d6000602084013e611823565b606091505b50915091508161184e576342010000816040516375fff46760e01b815260040161049a929190614b2f565b6020015192915050565b606061188d60405180604001604052806012815260200171636f6e666964656e7469616c496e7075747360701b815250612f66565b905090565b6040805160c0810182526000808252602082018190529181019190915260608082018190526080820181905260a082015260008063420300006001600160a01b0316878787876040516020016118eb9493929190614eee565b60408051601f198184030181529082905261190591614640565b6000604051808303816000865af19150503d8060008114611942576040519150601f19603f3d011682016040523d82523d6000602084013e611947565b606091505b509150915081611972576342030000816040516375fff46760e01b815260040161049a929190614b2f565b80806020019051810190610d5a9190614fc7565b60008063420200006001600160a01b03168585856040516020016119ac939291906150ae565b60408051601f19818403018152908290526119c691614640565b6000604051808303816000865af19150503d8060008114611a03576040519150601f19603f3d011682016040523d82523d6000602084013e611a08565b606091505b509150915081611a33576342020000816040516375fff46760e01b815260040161049a929190614b2f565b5050505050565b6000611a446117d7565b611a605760405162461bcd60e51b815260040161049a906148fb565b6000611a768460405160200161045091906145c3565b611a7f84613011565b611a8a60015461127e565b604051602001611a9c939291906150e3565b60405160208183030381529060405290506000611ab882611aee565b9050611477610dd261069e61069961111685604051806040016040528060068152602001651c995cdd5b1d60d21b8152506113d3565b606060006040518060400160405280601081526020016000815250905080604051602001611b1c9190614640565b60408051601f198184030181529082905280516020918201206004549092611b4b9260809290921b910161465c565b6040516020818303038152906040528051906020012003611b7e5760405162461bcd60e51b815260040161049a90614ad5565b6110656040518060c00160405280611b94612f1d565b8152602001604051806040016040528060048152602001631413d4d560e21b8152508152602001611bc3611289565b81526020810186905260006040820152611b58606090910152611314565b600081516001811160208085015160f01c17613078141660011b5b6001810190507403010a071000000b0104040208000c05090d060e0f6d03e4088843e41bac00000000000060ff83870151161c601f161a8360fc1c8115171583029250600181038460041b01935050818110611bfc5750806106ad5763101827966000526004601cfd5b604080518082018252601081526000602080830182905292519092611c8d91839101614640565b60408051601f198184030181529082905280516020918201206004549092611cbc9260809290921b910161465c565b6040516020818303038152906040528051906020012003611cef5760405162461bcd60e51b815260040161049a90614ad5565b6000611d058460405160200161045091906145c3565b611d1060015461127e565b604051602001611d21929190615168565b60405160208183030381529060405290506000611d3d82611aee565b90506106a8610dd261069e61069984604051806040016040528060068152602001651c995cdd5b1d60d21b8152506113d3565b611dd560405180610140016040528060006001600160a01b031681526020016000815260200160008152602001600081526020016000815260200160608152602001600081526020016000801916815260200160008019168152602001600081525090565b6000611de084613049565b905060008180519060200120604051602001611dfe91815260200190565b60405160208183030381529060405290506000611e1d82600087613241565b905060008660c001516002611e329190615211565b90506000806000611e56856020810151604082015160609092015160001a92909190565b919450925090506000611e6d60ff8516602361523c565b9050611e79858261523c565b8b516001600160a01b03168a526020808d0151908b01526040808d0151908b01526060808d0151908b01526080808d0151908b015260a0808d0151908b015260c0808d0151908b01526001600160401b03166101208a01525060e0880191909152610100870152505050505092915050565b604080516009808252610140820190925260609160009190816020015b6060815260200190600190039081611f08579050509050611f2c8360800151613315565b81600081518110611f3f57611f3f614932565b6020026020010181905250611f578360400151613315565b81600181518110611f6a57611f6a614932565b6020026020010181905250611f828360200151613315565b81600281518110611f9557611f95614932565b602090810291909101015282516001600160a01b0316611fea57611fc760405180602001604052806000815250613323565b81600381518110611fda57611fda614932565b6020026020010181905250612014565b8251611ff590613392565b8160038151811061200857612008614932565b60200260200101819052505b6120218360600151613315565b8160048151811061203457612034614932565b602002602001018190525061204c8360a00151613323565b8160058151811061205f5761205f614932565b6020026020010181905250612078836101200151613315565b8160068151811061208b5761208b614932565b60200260200101819052506120c48360e001516040516020016120b091815260200190565b604051602081830303815290604052613323565b816007815181106120d7576120d7614932565b60200260200101819052506120fd8361010001516040516020016120b091815260200190565b8160088151811061211057612110614932565b6020026020010181905250611065816133a8565b6060600060405180604001604052806010815260200160008152509050806040516020016121529190614640565b60408051601f1981840301815290829052805160209182012060045490926121819260809290921b910161465c565b60405160208183030381529060405280519060200120036121b45760405162461bcd60e51b815260040161049a90614ad5565b60006121bf8461113d565b6121ca60015461127e565b6040516020016121db92919061525c565b6040516020818303038152906040529050610fed81611aee565b805160609082906122089060029061530f565b1561221257600080fd5b6000600282516122229190615323565b6001600160401b0381111561223957612239614306565b6040519080825280601f01601f191660200182016040528015612263576020820181803683370190505b50905060005b600283516122779190615323565b811015611618576122b58361228d836002614565565b612298906001614c2f565b815181106122a8576122a8614932565b016020015160f81c6133ec565b6122c484612298846002614565565b6122cf906010615337565b6122d99190615353565b60f81b8282815181106122ee576122ee614932565b60200101906001600160f81b031916908160001a90535061230e81614974565b9050612269565b6000806000612323846134f9565b6040805160208082019490945280820192909252805180830382018152606090920190528051910120949350505050565b6040805160008152905281516060906007166002036104a35781516020830120600061237f8561355a565b805190915060051b5b80156123b257818101519550601f1901826123a287613567565b8051906020012003612388578593505b50505092915050565b60606123c682613581565b8051613078825260020160011990910190815292915050565b6000805b825181101561253d5760408051808201909152600381526254354360e81b6020909101528251601560fa1b9084908390811061242157612421614932565b01602001516001600160f81b0319160361252b576001805b6040518060400160405280600381526020016254354360e81b815250518110156124fa5784516124698285614c2f565b1015806124da57506040518060400160405280600381526020016254354360e81b815250818151811061249e5761249e614932565b01602001516001600160f81b031916856124b88386614c2f565b815181106124c8576124c8614932565b01602001516001600160f81b03191614155b156124e857600091506124fa565b806124f281614974565b915050612439565b508015612529576040518060400160405280600381526020016254354360e81b8152505182610fed9190614c2f565b505b8061253581614974565b9150506123e3565b50505190565b60408101518051602083015151600003612562578060208301a0505050565b82602001515160010361259f576000836020015160008151811061258857612588614932565b60200260200101519050808260208501a150505050565b82602001515160020361260157600083602001516000815181106125c5576125c5614932565b60200260200101519050600084602001516001815181106125e8576125e8614932565b6020026020010151905080828460208701a25050505050565b826020015151600303612688576000836020015160008151811061262757612627614932565b602002602001015190506000846020015160018151811061264a5761264a614932565b602002602001015190506000856020015160028151811061266d5761266d614932565b602002602001015190508082848660208901a3505050505050565b82602001515160040361273057600083602001516000815181106126ae576126ae614932565b60200260200101519050600084602001516001815181106126d1576126d1614932565b60200260200101519050600085602001516002815181106126f4576126f4614932565b602002602001015190506000866020015160038151811061271757612717614932565b60200260200101519050808284868860208b01a4505050505b505050565b60606080604051019050602081016040526000815280600019835b928101926030600a8206018453600a900480612750575b5050819003601f19909101908152919050565b60408051600080825291819052906110658360ff5b6000612e7d565b63101827966000526004601cfd5b805b60016401000026006127b9835160001a90565b1c16156104a3576001016127a6565b63ffffffff83113d3d3e63ffffffff821b191691901b1790565b60405161280484860360786127ff601f19868903016058886127c8565b6127c8565b959095178552505050602082016040525090565b6000806128298460186000516127c8565b61283387876127a4565b91508682106128425750612968565b815160001a60228103612874578261285c89858589612b74565b935061286c60048583868a6127e2565b945050612959565b605b81036128915761288888848488612971565b93509350612959565b607b81036128a55761288888848488612a3a565b6703ff200000000000811c600116156128c45761288888848488612c48565b87600484011161291e5782835160e01c637472756581036128fc576004850194506128f360058684878b6127e2565b95505050612959565b636e756c6c810361291b576004850194506128f360068684878b6127e2565b50505b8760058401116129515782835160d81c6466616c7365810361294e576005850194506128f360058684878b6127e2565b50505b612959612796565b505061296586826127a4565b90505b94509492505050565b600060018401815b86821061298857612988612796565b826129ac5761299787836127a4565b9150605d6129a6835160001a90565b14612a0f575b6129b887838587612818565b925092508215612a00576129d281609885516040176127c8565b83526001016129e2825160001a90565b605d81036129f05750612a0f565b602c81036129fe5750612a04565b505b8691505b600182019150612979565b50600101612a1f826038866127c8565b9350612a2f6001828787876127e2565b915094509492505050565b6000600184015b858110612a5057612a50612796565b81612a7457612a5f86826127a4565b9050607d612a6e825160001a90565b14612b18575b612a7e86826127a4565b905080612a8d87838587612b74565b612a9788826127a4565b9250603a612aa6845160001a90565b03612b0a57612aba88600185018688612818565b935093508315612b0a57612ae160208601830360986127ff85850360b889516080176127c8565b8452825160001a607d8103612af857505050612b18565b602c8103612b0857505050612b10565b505b50508590505b600101612a41565b600101612b27826038866127c8565b9350612a2f6002828787876127e2565b6001667e0000007e03ff6030612b508585015160001a90565b031c16612b5f57612b5f612796565b600582146109f1576109f16001830182612b37565b50506000828210612b8757612b87612796565b50600181015b805160001a60228103612ba05750612bfe565b605c8114612bb15750600101612b8d565b600182015160001a905060016a0510110400000000002001602283031c1615612bdd5750600201612b8d565b60758103612bf957612bf0600283612b37565b50600601612b8d565b508290505b828110612c0d57612c0d612796565b60010192915050565b805b600a6030612c27835160001a90565b031015612c3657600101612c18565b80821484161561106557611065612796565b600083602d612c58825160001a90565b03612c61576001015b600a6030612c70835160001a90565b0310612c7e57612c7e612796565b805160001a60018201915060308114612ca057612c9d60008884612c16565b91505b50602e612cae825160001a90565b03612cc557612cc260018760018401612c16565b90505b805160658160001a60201703612cf457612cf16001886001850162010001600e8660011a031a01612c16565b91505b50612a2f6003828787876127e2565b60405190820190601f19601f850181165b8381015183820152810180612d145750508381526000846020830101528360408201016040529392505050565b8483612d03565b8051606090600281600716116106ad5782158115176106ad576020811615612d7c57603881901c63ffffffff1691506106ad565b604051915060208201603882901c63ffffffff165b8015612dc3578082528051601881901c63ffffffff16612db3876018846127c8565b9092525060209190910190612d91565b50601f1983820381018060051c855282604052612de2856038866127c8565b935083602017865260408110612e15576020850192508085015b83518151855281526020909301928201808410612dfc57505b50505050919050565b8051606090821581151715612e335750610fed565b80841c63ffffffff169150808616612e745760d881901c63ffffffff16612e6182871c63ffffffff16612d41565b925050612e6f8285836127c8565b861783525b50949350505050565b818015612eef5760018114612f055760038114612f14576020840184518101808214612ed557805160001a60228253612ebc8760d8601160f91b6127c8565b600052612ecc828460008a612818565b93509450808253505b83158183101715612ee857612ee8612796565b50506117c5565b612efe60106078605887612e1e565b91506117c5565b612efe600860b8609887612e1e565b610fed84612d48565b60606005612f41600460009054906101000a900460801b6003805461030c9061457c565b604051602001612f5292919061536c565b604051602081830303815290604052905090565b606060008063533000036001600160a01b031684604051602001612f8a9190614275565b60408051601f1981840301815290829052612fa491614640565b6000604051808303816000865af19150503d8060008114612fe1576040519150601f19603f3d011682016040523d82523d6000602084013e612fe6565b606091505b5091509150816113bf576353300003816040516375fff46760e01b815260040161049a929190614b2f565b606061301c826135e7565b90506030602082015160001a14600282510161307882840152600282840103925081810383525050919050565b604080516009808252610140820190925260609160009190816020015b606081526020019060019003908161306657905050905061308a8360800151613315565b8160008151811061309d5761309d614932565b60200260200101819052506130b58360400151613315565b816001815181106130c8576130c8614932565b60200260200101819052506130e08360200151613315565b816002815181106130f3576130f3614932565b602090810291909101015282516001600160a01b03166131485761312560405180602001604052806000815250613323565b8160038151811061313857613138614932565b6020026020010181905250613172565b825161315390613392565b8160038151811061316657613166614932565b60200260200101819052505b61317f8360600151613315565b8160048151811061319257613192614932565b60200260200101819052506131aa8360a00151613323565b816005815181106131bd576131bd614932565b60200260200101819052506131d58360c00151613315565b816006815181106131e8576131e8614932565b602002602001018190525061320b60405180602001604052806000815250613323565b8160078151811061321e5761321e614932565b60200260200101819052506120fd60405180602001604052806000815250613323565b606061324b6117d7565b61325457600080fd5b60008063401000036001600160a01b031686868660405160200161327a93929190615388565b60408051601f198184030181529082905261329491614640565b6000604051808303816000865af19150503d80600081146132d1576040519150601f19603f3d011682016040523d82523d6000602084013e6132d6565b606091505b509150915081613301576340100003816040516375fff46760e01b815260040161049a929190614b2f565b808060200190518101906107449190614a3d565b60606104a36133238361363c565b60608082516001148015613351575060808360008151811061334757613347614932565b016020015160f81c105b1561335d5750816104a3565b6133698351608061376a565b8360405160200161337b929190614ebf565b604051602081830303815290604052905092915050565b60606104a3826040516020016120b091906145c3565b606060006133b583613917565b90506133c3815160c061376a565b816040516020016133d5929190614ebf565b604051602081830303815290604052915050919050565b6000600360fc1b60f883901b6001600160f81b031916108015906134225750603960f81b60f883901b6001600160f81b03191611155b15613432576104a36030836153d1565b606160f81b60f883901b6001600160f81b031916108015906134665750603360f91b60f883901b6001600160f81b03191611155b1561348257606161347883600a615353565b6104a391906153d1565b604160f81b60f883901b6001600160f81b031916108015906134b65750602360f91b60f883901b6001600160f81b03191611155b156134c857604161347883600a615353565b60405162461bcd60e51b815260040161049a9060208082526004908201526319985a5b60e21b604082015260600190565b600080613550837f79be667ef9dcbbac55a06295ce870b07029bfcdb2dce28d959f2815b16f817987f483ada7726a3c4655da4fbfc0e1108a8fd17b448a68554199c47d08ffb10d4b860006401000003d019613a47565b9094909350915050565b606060006110658361179a565b805160609060801615610c4057600061106583600161278f565b8051604051818001600282019081526f30313233343536373839616263646566600f52918301906022015b8184146135d757600184019350600f845116516001820153600f845160041c165181536002016135ac565b6000815260200160405250919050565b606060806040510190506020810160405260008152806f30313233343536373839616263646566600f52600119835b600f811651938201936001850153600f8160041c1651845360081c801561276757613616565b606060008260405160200161365391815260200190565b604051602081830303815290604052905060005b60208110156136aa5781818151811061368257613682614932565b01602001516001600160f81b0319166000036136aa57806136a281614974565b915050613667565b60006136b78260206145b0565b6001600160401b038111156136ce576136ce614306565b6040519080825280601f01601f1916602001820160405280156136f8576020820181803683370190505b50905060005b8151811015612e7457838361371281614974565b94508151811061372457613724614932565b602001015160f81c60f81b82828151811061374157613741614932565b60200101906001600160f81b031916908160001a9053508061376281614974565b9150506136fe565b60608060388410156137d1576040805160018082528183019092529060208201818036833701905050905061379f8385615353565b60f81b816000815181106137b5576137b5614932565b60200101906001600160f81b031916908160001a905350611065565b600060015b6137e08187615323565b1561380657816137ef81614974565b92506137ff905061010082614565565b90506137d6565b613811826001614c2f565b6001600160401b0381111561382857613828614306565b6040519080825280601f01601f191660200182016040528015613852576020820181803683370190505b50925061385f8583615353565b61386a906037615353565b60f81b8360008151811061388057613880614932565b60200101906001600160f81b031916908160001a905350600190505b81811161390e576101006138b082846145b0565b6138bc906101006154ce565b6138c69088615323565b6138d0919061530f565b60f81b8382815181106138e5576138e5614932565b60200101906001600160f81b031916908160001a9053508061390681614974565b91505061389c565b50509392505050565b606081516000036139385760408051600080825260208201909252906117c5565b6000805b835181101561397f5783818151811061395757613957614932565b6020026020010151518261396b9190614c2f565b91508061397781614974565b91505061393c565b6000826001600160401b0381111561399957613999614306565b6040519080825280601f01601f1916602001820160405280156139c3576020820181803683370190505b50600092509050602081015b8551831015612e745760008684815181106139ec576139ec614932565b602002602001015190506000602082019050613a0a83828451613a81565b878581518110613a1c57613a1c614932565b60200260200101515183613a309190614c2f565b925050508280613a3f90614974565b9350506139cf565b6000806000806000613a5e8a8a8a60018b8b613ade565b925092509250613a7083838389613b60565b945094505050509550959350505050565b8282825b60208110613abd5781518352613a9c602084614c2f565b9250613aa9602083614c2f565b9150613ab66020826145b0565b9050613a85565b905182516020929092036101000a6000190180199091169116179052505050565b600080600088600003613af8575086915085905084613b54565b8860008060015b8315613b4b576001841615613b2557613b1d8383838f8f8f8e613bcf565b919450925090505b613b30600285615323565b9350613b3f8c8c8c8c8c613f02565b919d509b509950613aff565b91955093509150505b96509650969350505050565b6000806000613b6f85856140a5565b905060008480613b8157613b816152f9565b828309905060008580613b9657613b966152f9565b828a09905060008680613bab57613bab6152f9565b8780613bb957613bb96152f9565b8486098a09919a91995090975050505050505050565b6000808089158015613bdf575088155b15613bf1575085915084905083613ef5565b86158015613bfd575085155b15613c0f575088915087905086613ef5565b613c17614171565b8480613c2557613c256152f9565b898a0981528480613c3857613c386152f9565b81518a0960208201528480613c4f57613c4f6152f9565b86870960408201528480613c6557613c656152f9565b6040820151870960608201526040805160808101909152808680613c8b57613c8b6152f9565b60408401518e0981526020018680613ca557613ca56152f9565b60608401518d0981526020018680613cbf57613cbf6152f9565b83518b0981526020018680613cd657613cd66152f9565b60208401518a09905260408101518151919250141580613cfe57506060810151602082015114155b613d4a5760405162461bcd60e51b815260206004820152601e60248201527f557365206a6163446f75626c652066756e6374696f6e20696e73746561640000604482015260640161049a565b613d52614171565b8580613d6057613d606152f9565b8251613d6c90886145b0565b60408401510881528580613d8257613d826152f9565b6020830151613d9190886145b0565b60608401510860208201528580613daa57613daa6152f9565b8151800960408201528580613dc157613dc16152f9565b8151604083015109606082015260008680613dde57613dde6152f9565b6060830151613ded90896145b0565b8880613dfb57613dfb6152f9565b602085015180090890508680613e1357613e136152f9565b8780613e2157613e216152f9565b8880613e2f57613e2f6152f9565b6040850151865109600209613e4490896145b0565b8208905060008780613e5857613e586152f9565b8880613e6657613e666152f9565b613e70848b6145b0565b8a80613e7e57613e7e6152f9565b60408701518851090860208501510990508780613e9d57613e9d6152f9565b8880613eab57613eab6152f9565b6060850151602087015109613ec0908a6145b0565b8208905060008880613ed457613ed46152f9565b8980613ee257613ee26152f9565b8b8f098551099297509095509093505050505b9750975097945050505050565b600080600085600003613f1c57508691508590508461409a565b60008480613f2c57613f2c6152f9565b898a09905060008580613f4157613f416152f9565b898a09905060008680613f5657613f566152f9565b898a09905060008780613f6b57613f6b6152f9565b8880613f7957613f796152f9565b848e09600409905060008880613f9157613f916152f9565b8980613f9f57613f9f6152f9565b8a80613fad57613fad6152f9565b8586098c098a80613fc057613fc06152f9565b876003090890508880613fd557613fd56152f9565b8980613fe357613fe36152f9565b838408613ff0908b6145b0565b8a80613ffe57613ffe6152f9565b8384090894508880614012576140126152f9565b8980614020576140206152f9565b8a8061402e5761402e6152f9565b86870960080961403e908b6145b0565b8a8061404c5761404c6152f9565b8b8061405a5761405a6152f9565b614064898e6145b0565b860884090893508880614079576140796152f9565b8980614087576140876152f9565b8c8e096002099497509295509293505050505b955095509592505050565b600082158015906140b65750818314155b80156140c157508115155b6140fe5760405162461bcd60e51b815260206004820152600e60248201526d24b73b30b634b210373ab6b132b960911b604482015260640161049a565b6000600183825b8615614166576141158783615323565b9050828680614126576141266152f9565b8780614134576141346152f9565b85840961414190896145b0565b86089094509250866141538183614565565b61415d90846145b0565b97509150614105565b509195945050505050565b60405180608001604052806004906020820280368337509192915050565b6001600160a01b03811681146141a457600080fd5b50565b6001600160801b0319811681146141a457600080fd5b600080600080600060a086880312156141d557600080fd5b85356141e08161418f565b945060208601356141f08161418f565b935060408601356142008161418f565b9250606086013591506080860135614217816141a7565b809150509295509295909350565b60005b83811015614240578181015183820152602001614228565b50506000910152565b60008151808452614261816020860160208601614225565b601f01601f19169290920160200192915050565b6020815260006110656020830184614249565b6000806040838503121561429b57600080fd5b82356142a68161418f565b915060208301356142b6816141a7565b809150509250929050565b6000602082840312156142d357600080fd5b5035919050565b600080604083850312156142ed57600080fd5b82356142f88161418f565b946020939093013593505050565b634e487b7160e01b600052604160045260246000fd5b604051606081016001600160401b038111828210171561433e5761433e614306565b60405290565b60405160c081016001600160401b038111828210171561433e5761433e614306565b604051601f8201601f191681016001600160401b038111828210171561438e5761438e614306565b604052919050565b60006001600160401b038211156143af576143af614306565b50601f01601f191660200190565b600082601f8301126143ce57600080fd5b81356143e16143dc82614396565b614366565b8181528460208386010111156143f657600080fd5b816020850160208301376000918101602001919091529392505050565b6000806040838503121561442657600080fd5b82356001600160401b0381111561443c57600080fd5b614448858286016143bd565b92505060208301356142b6816141a7565b60006020828403121561446b57600080fd5b81356001600160401b0381111561448157600080fd5b610fed848285016143bd565b60006001600160401b038211156144a6576144a6614306565b5060051b60200190565b600080604083850312156144c357600080fd5b82356001600160401b038111156144d957600080fd5b8301601f810185136144ea57600080fd5b803560206144fa6143dc8361448d565b82815260059290921b8301810191818101908884111561451957600080fd5b938201935b838510156145405784356145318161418f565b8252938201939082019061451e565b98969091013596505050505050565b634e487b7160e01b600052601160045260246000fd5b80820281158282048414176104a3576104a361454f565b600181811c9082168061459057607f821691505b6020821081036106ad57634e487b7160e01b600052602260045260246000fd5b818103818111156104a3576104a361454f565b60609190911b6bffffffffffffffffffffffff1916815260140190565b7f46756e647320746f6f206c65737320746f20706179206f75742062696473206181526a03a1030b2323932b9b99d160ad1b6020820152602b0190565b6000614628826145e0565b8351614638818360208801614225565b019392505050565b60008251614652818460208701614225565b9190910192915050565b6001600160801b031991909116815260100190565b8054600090600181811c908083168061468b57607f831692505b602080841082036146ac57634e487b7160e01b600052602260045260246000fd5b8180156146c057600181146146d557614702565b60ff1986168952841515850289019650614702565b60008881526020902060005b868110156146fa5781548b8201529085019083016146e1565b505084890196505b50505050505092915050565b600061471a8286614671565b7f3f6d6f64756c653d626c6f636b26616374696f6e3d676574626c6f636b6e6f6281526f7974696d652674696d657374616d703d60801b60208201528451614769816030840160208901614225565b7f26636c6f736573743d6265666f7265266170696b65793d0000000000000000006030929091019182015283516147a7816047840160208801614225565b0160470195945050505050565b7f2f6765744f776e657273466f72546f6b656e3f636f6e7472616374416464726581526273733d60e81b6020820152600083516147f8816023850160208801614225565b6826746f6b656e49643d60b81b602391840191820152835161482181602c840160208801614225565b01602c01949350505050565b6000614838826145e0565b8551614848818360208a01614225565b6453430b99d160d51b91019081528451614869816006840160208901614225565b664b732b2b2399d160c51b60069290910191820152835161489181600e840160208801614225565b01600e0195945050505050565b6020808252603c908201527f596f7520617265206e6f7420746865206f776e6572206f66207468697320636f60408201527f6e747261637420616e642063616e206e6f74206d6f6469667920697400000000606082015260800190565b6020808252601d908201527f6d7573742062652063616c6c656420636f6e666964656e7469616c6c79000000604082015260600190565b634e487b7160e01b600052603260045260246000fd5b60408152600061495b6040830185614249565b90506001600160801b0319831660208301529392505050565b6000600182016149865761498661454f565b5060010190565b600081518084526020808501945080840160005b838110156149c65781516001600160a01b0316875295820195908201906001016149a1565b509495945050505050565b60018060a01b0384168152826020820152606060408201526000611477606083018461498d565b600082601f830112614a0957600080fd5b8151614a176143dc82614396565b818152846020838601011115614a2c57600080fd5b610fed826020830160208701614225565b600060208284031215614a4f57600080fd5b81516001600160401b03811115614a6557600080fd5b610fed848285016149f8565b6000805160206154db83398151915281527f5f6761735072696365222c2022706172616d73223a205b5d2c20226964223a20602082015260008251614abd816040850160208701614225565b607d60f81b6040939091019283015250604101919050565b6020808252601e908201527f4e6f2052504320456e64706f696e742072656769737465726564207965740000604082015260600190565b6001600160801b031983168152604060208201526000610fed6040830184614249565b6001600160a01b0383168152604060208201819052600090610fed90830184614249565b805160208083015191908110156106ad5760001960209190910360031b1b16919050565b6000805160206154db83398151915281527f5f67657450726f6f66222c2022706172616d73223a205b220000000000000000602082015260380190565b6000614bbf82614b77565b8451614bcf818360208901614225565b6511162dae961160d11b9101908152651b185d195cdd60d21b60068201526a112e96101134b2111d101160a91b600c8201528351614c14816017840160208801614225565b61227d60f01b60179290910191820152601901949350505050565b808201808211156104a3576104a361454f565b60006020808385031215614c5557600080fd5b82516001600160401b0380821115614c6c57600080fd5b818501915085601f830112614c8057600080fd5b8151614c8e6143dc8261448d565b81815260059190911b83018401908481019088831115614cad57600080fd5b8585015b83811015614da357805185811115614cc857600080fd5b86016060818c03601f19011215614cde57600080fd5b614ce661431c565b88820151614cf38161418f565b8152604082015187811115614d0757600080fd5b8201603f81018d13614d1857600080fd5b89810151614d286143dc8261448d565b81815260059190911b8201604001908b8101908f831115614d4857600080fd5b6040840193505b82841015614d685783518252928c0192908c0190614d4f565b848d0152505050606082015187811115614d8157600080fd5b614d8f8d8b838601016149f8565b604083015250845250918601918601614cb1565b5098975050505050505050565b60006020808352835160c082850152614dcc60e0850182614249565b905081850151601f1980868403016040870152614de98383614249565b60408801518782038301606089015280518083529194508501925084840190600581901b8501860160005b82811015614e405784878303018452614e2e828751614249565b95880195938801939150600101614e14565b5060608a01519650838982030160808a0152614e5c8188614249565b96505050505050506080840151614e7760a085018215159052565b5060a08401516001600160401b03811660c0850152611618565b6000601160f91b8083528351614eae816001860160208801614225565b600193019283015250600201919050565b60008351614ed1818460208801614225565b835190830190614ee5818360208801614225565b01949350505050565b6001600160401b0385168152608060208201526000614f10608083018661498d565b8281036040840152614f22818661498d565b90508281036060840152610d5a8185614249565b8051610c40816141a7565b80516001600160401b0381168114610c4057600080fd5b600082601f830112614f6957600080fd5b81516020614f796143dc8361448d565b82815260059290921b84018101918181019086841115614f9857600080fd5b8286015b84811015614fbc578051614faf8161418f565b8352918301918301614f9c565b509695505050505050565b600060208284031215614fd957600080fd5b81516001600160401b0380821115614ff057600080fd5b9083019060c0828603121561500457600080fd5b61500c614344565b61501583614f36565b815261502360208401614f36565b602082015261503460408401614f41565b604082015260608301518281111561504b57600080fd5b61505787828601614f58565b60608301525060808301518281111561506f57600080fd5b61507b87828601614f58565b60808301525060a08301518281111561509357600080fd5b61509f878286016149f8565b60a08301525095945050505050565b6001600160801b0319841681526060602082015260006150d16060830185614249565b82810360408401526107448185614249565b60006150ee82614b77565b85516150fe818360208a01614225565b6511162dae961160d11b91019081528451615120816006840160208901614225565b6a112e96101134b2111d101160a91b60069290910191820152835161514c816011840160208801614225565b61227d60f01b6011929091019182015260130195945050505050565b6000805160206154db83398151915281527f5f6765745472616e73616374696f6e436f756e74222c2022706172616d73223a602082015262102d9160e91b6040820152600083516151c0816043850160208801614225565b75111610113630ba32b9ba11102e96101134b2111d101160511b60439184019182015283516151f6816059840160208801614225565b61227d60f01b60599290910191820152605b01949350505050565b6001600160401b038181168382160280821691908281146152345761523461454f565b505092915050565b6001600160401b038181168382160190808211156117c5576117c561454f565b6000805160206154db83398151915281527f5f73656e645261775472616e73616374696f6e222c2022706172616d73223a206020820152612d9160f11b6040820152600083516152b3816042850160208801614225565b6a112e96101134b2111d101160a91b60429184019182015283516152de81604d840160208801614225565b61227d60f01b604d9290910191820152604f01949350505050565b634e487b7160e01b600052601260045260246000fd5b60008261531e5761531e6152f9565b500690565b600082615332576153326152f9565b500490565b60ff81811683821602908116908181146117c5576117c561454f565b60ff81811683821601908111156104a3576104a361454f565b60006153788285614671565b8351614ee5818360208801614225565b60608152600061539b6060830186614249565b600285106153b957634e487b7160e01b600052602160045260246000fd5b84602084015282810360408401526107448185614249565b60ff82811682821603908111156104a3576104a361454f565b600181815b8085111561542557816000190482111561540b5761540b61454f565b8085161561541857918102915b93841c93908002906153ef565b509250929050565b60008261543c575060016104a3565b81615449575060006104a3565b816001811461545f576002811461546957615485565b60019150506104a3565b60ff84111561547a5761547a61454f565b50506001821b6104a3565b5060208310610133831016604e8410600b84101617156154a8575081810a6104a3565b6154b283836153ea565b80600019048211156154c6576154c661454f565b029392505050565b6000611065838361542d56fe7b226a736f6e727063223a22322e30222c20226d6574686f64223a2022657468a264697066735822122056f1328276fe7c5ca147b344a0447af6bbd0a895eee3cc18e52929bf76f4d31264736f6c6343000814003368747470733a2f2f6170692d7365706f6c69612e65746865727363616e2e696f2f61706968747470733a2f2f6574682d7365706f6c69612e672e616c6368656d792e636f6d2f76322f",
    "linkReferences": {}
  },
  "methodIdentifiers": {
    "BASE_ALCHEMY_URL()": "1bcfe34d",
    "BASE_SEPOLIA_ETHERSCAN_URL()": "e5feb639",
    "chainID()": "adc879e9",
    "endAuction(address[],uint256)": "f8fde203",
    "getNFTOwnedBy(address,uint256)": "73b072f1",
    "getNearestPreviousBlock(uint256)": "627dc017",
    "onchainCallback()": "4a525054",
    "owner()": "8da5cb5b",
    "registerApiKeyOffchain(string)": "ee03cb3a",
    "registerApiKeyOnchain(string,bytes16)": "b7912a18",
    "transferETH(address,bytes16)": "2ddcd98c",
    "transferETHForNFT(address,bytes16)": "9e479d98",
    "transferNFT(address,address,address,uint256,bytes16)": "095c6469"
  },
  "id": 39
}