{
  "abi": [
    {
      "type": "constructor",
      "inputs": [
        {
          "name": "_chainID",
          "type": "uint256",
          "internalType": "uint256"
        }
      ],
      "stateMutability": "nonpayable"
    },
    {
      "type": "function",
      "name": "BASE_ALCHEMY_URL",
      "inputs": [],
      "outputs": [
        {
          "name": "",
          "type": "string",
          "internalType": "string"
        }
      ],
      "stateMutability": "view"
    },
    {
      "type": "function",
      "name": "BASE_SEPOLIA_ETHERSCAN_URL",
      "inputs": [],
      "outputs": [
        {
          "name": "",
          "type": "string",
          "internalType": "string"
        }
      ],
      "stateMutability": "view"
    },
    {
      "type": "function",
      "name": "chainID",
      "inputs": [],
      "outputs": [
        {
          "name": "",
          "type": "uint256",
          "internalType": "uint256"
        }
      ],
      "stateMutability": "view"
    },
    {
      "type": "function",
      "name": "endAuction",
      "inputs": [
        {
          "name": "l1Addresses",
          "type": "address[]",
          "internalType": "address[]"
        },
        {
          "name": "endTimestamp",
          "type": "uint256",
          "internalType": "uint256"
        }
      ],
      "outputs": [
        {
          "name": "",
          "type": "bytes",
          "internalType": "bytes"
        }
      ],
      "stateMutability": "nonpayable"
    },
    {
      "type": "function",
      "name": "getNFTOwnedBy",
      "inputs": [
        {
          "name": "_nftContract",
          "type": "address",
          "internalType": "address"
        },
        {
          "name": "_tokenId",
          "type": "uint256",
          "internalType": "uint256"
        }
      ],
      "outputs": [
        {
          "name": "",
          "type": "bytes",
          "internalType": "bytes"
        }
      ],
      "stateMutability": "nonpayable"
    },
    {
      "type": "function",
      "name": "getNearestPreviousBlock",
      "inputs": [
        {
          "name": "timestamp",
          "type": "uint256",
          "internalType": "uint256"
        }
      ],
      "outputs": [
        {
          "name": "",
          "type": "uint256",
          "internalType": "uint256"
        }
      ],
      "stateMutability": "nonpayable"
    },
    {
      "type": "function",
      "name": "onchainCallback",
      "inputs": [],
      "outputs": [],
      "stateMutability": "nonpayable"
    },
    {
      "type": "function",
      "name": "owner",
      "inputs": [],
      "outputs": [
        {
          "name": "",
          "type": "address",
          "internalType": "address"
        }
      ],
      "stateMutability": "view"
    },
    {
      "type": "function",
      "name": "registerApiKeyOffchain",
      "inputs": [
        {
          "name": "rpcName",
          "type": "string",
          "internalType": "string"
        }
      ],
      "outputs": [
        {
          "name": "",
          "type": "bytes",
          "internalType": "bytes"
        }
      ],
      "stateMutability": "nonpayable"
    },
    {
      "type": "function",
      "name": "registerApiKeyOnchain",
      "inputs": [
        {
          "name": "rpcName",
          "type": "string",
          "internalType": "string"
        },
        {
          "name": "_rpcRecord",
          "type": "bytes16",
          "internalType": "Suave.DataId"
        }
      ],
      "outputs": [],
      "stateMutability": "nonpayable"
    },
    {
      "type": "function",
      "name": "transferETH",
      "inputs": [
        {
          "name": "returnAddress",
          "type": "address",
          "internalType": "address"
        },
        {
          "name": "suaveDataID",
          "type": "bytes16",
          "internalType": "Suave.DataId"
        }
      ],
      "outputs": [
        {
          "name": "",
          "type": "bytes",
          "internalType": "bytes"
        }
      ],
      "stateMutability": "nonpayable"
    },
    {
      "type": "function",
      "name": "transferNFT",
      "inputs": [
        {
          "name": "from",
          "type": "address",
          "internalType": "address"
        },
        {
          "name": "to",
          "type": "address",
          "internalType": "address"
        },
        {
          "name": "nftContract",
          "type": "address",
          "internalType": "address"
        },
        {
          "name": "tokenId",
          "type": "uint256",
          "internalType": "uint256"
        },
        {
          "name": "suaveDataID",
          "type": "bytes16",
          "internalType": "Suave.DataId"
        }
      ],
      "outputs": [
        {
          "name": "",
          "type": "bytes",
          "internalType": "bytes"
        }
      ],
      "stateMutability": "nonpayable"
    },
    {
      "type": "error",
      "name": "PeekerReverted",
      "inputs": [
        {
          "name": "",
          "type": "address",
          "internalType": "address"
        },
        {
          "name": "",
          "type": "bytes",
          "internalType": "bytes"
        }
      ]
    }
  ],
  "bytecode": {
    "object": "0x60c060405260036080908152624b455960e81b60a05260029062000024908262000192565b506040805180820190915260038082526252504360e81b6020830152906200004d908262000192565b50604051806060016040528060258152602001620054c66025913960059062000077908262000192565b50604051806060016040528060248152602001620054a260249139600690620000a1908262000192565b50348015620000af57600080fd5b50604051620054eb380380620054eb833981016040819052620000d2916200025e565b600080546001600160a01b0319163317905560015562000278565b634e487b7160e01b600052604160045260246000fd5b600181811c908216806200011857607f821691505b6020821081036200013957634e487b7160e01b600052602260045260246000fd5b50919050565b601f8211156200018d57600081815260208120601f850160051c81016020861015620001685750805b601f850160051c820191505b81811015620001895782815560010162000174565b5050505b505050565b81516001600160401b03811115620001ae57620001ae620000ed565b620001c681620001bf845462000103565b846200013f565b602080601f831160018114620001fe5760008415620001e55750858301515b600019600386901b1c1916600185901b17855562000189565b600085815260208120601f198616915b828110156200022f578886015182559484019460019091019084016200020e565b50858210156200024e5787850151600019600388901b60f8161c191681555b5050505050600190811b01905550565b6000602082840312156200027157600080fd5b5051919050565b61521a80620002886000396000f3fe608060405234801561001057600080fd5b50600436106100b45760003560e01c80638da5cb5b116100715780638da5cb5b1461013b578063adc879e914610166578063b7912a181461016f578063e5feb63914610182578063ee03cb3a1461018a578063f8fde2031461019d57600080fd5b8063095c6469146100b95780631bcfe34d146100e25780632ddcd98c146100ea5780634a525054146100fd578063627dc0171461010757806373b072f114610128575b600080fd5b6100cc6100c7366004613fac565b6101b0565b6040516100d99190614064565b60405180910390f35b6100cc61023b565b6100cc6100f8366004614077565b6102c9565b61010561047b565b005b61011a6101153660046140b0565b6104bd565b6040519081526020016100d9565b6100cc6101363660046140c9565b610685565b60005461014e906001600160a01b031681565b6040516001600160a01b0390911681526020016100d9565b61011a60015481565b61010561017d366004614202565b610796565b6100cc610967565b6100cc610198366004614248565b610974565b6100cc6101ab36600461429f565b610bb7565b606060006101bc610c84565b6101c7906002614354565b6040516001600160a01b03808a166024830152881660448201526064810186905290915060009060840160408051601f198184030181529190526020810180516001600160e01b03166323b872dd60e01b179052905061022f86620138808460008589610cfd565b98975050505050505050565b600580546102489061436b565b80601f01602080910402602001604051908101604052809291908181526020018280546102749061436b565b80156102c15780601f10610296576101008083540402835291602001916102c1565b820191906000526020600020905b8154815290600101906020018083116102a457829003601f168201915b505050505081565b6060600061036183600280546102de9061436b565b80601f016020809104026020016040519081016040528092919081815260200182805461030a9061436b565b80156103575780601f1061032c57610100808354040283529160200191610357565b820191906000526020600020905b81548152906001019060200180831161033a57829003601f168201915b5050505050610e5f565b9050600061036e82610f14565b9050600061037a610c84565b610385906002614354565b9050600061039283610f8b565b90506103a082615208614354565b811061040e576103d887615208846103b88183614354565b6103c2908661439f565b604051806020016040528060008152508b610cfd565b50506040805160048152602481019091526020810180516001600160e01b0316631294941560e21b179052935061047592505050565b6104368360405160200161042291906143b2565b60405160208183030381529060405261105c565b60405160200161044691906143cf565b60408051601f198184030181529082905262461bcd60e51b825261046c91600401614064565b60405180910390fd5b92915050565b6104bb6000368080601f01602080910402602001604051908101604052809392919081815260200183838082843760009201919091525061106792505050565b565b6040805180820182526010815260006020808301829052925190926104e491839101614428565b60408051601f19818403018152908290528051602091820120600454909261051892600160801b90920460801b9101614444565b60405160208183030381529060405280519060200120036105875760405162461bcd60e51b8152602060048201526024808201527f4e6f2065746865727363616e20456e64706f696e742072656769737465726564604482015263081e595d60e21b606482015260840161046c565b60006006610594856111a5565b600454600380546105b492600160801b900460801b91906102de9061436b565b6040516020016105c6939291906144f6565b60408051601f1981840301815260c08301825280835281518083018352600381526211d15560ea1b602082810191909152840152925060009161063891810161060d6111b0565b8152604080516020818101835260008083529084019190915290820152611b5860609091015261123b565b905061067a61067561067061066b84604051806040016040528060068152602001651c995cdd5b1d60d21b8152506112fa565b6113a7565b6113b6565b611547565b935050505b50919050565b6060600061069d8460405160200161042291906143b2565b6106a6846111a5565b6040516020016106b792919061459c565b604051602081830303815290604052905060006106d3826115b9565b9050600061071761071261067061066b61070b86604051806040016040528060068152602001656f776e65727360d01b8152506112fa565b60006116ae565b6116f3565b6040516349e60fb360e11b81526001600160a01b0382166004820152909150339081906393cc1f66906024015b6000604051808303816000875af1158015610763573d6000803e3d6000fd5b505050506040513d6000823e601f3d908101601f1916820160405261078b919081019061465a565b979650505050505050565b6000546001600160a01b031633146107c05760405162461bcd60e51b815260040161046c9061468e565b6108006000368080601f01602080910402602001604051908101604052809392919081815260200183838082843760009201919091525061106792505050565b6108086116fe565b6108245760405162461bcd60e51b815260040161046c906146eb565b604080518082019091526007815266616c6368656d7960c81b6020918201528251908301207ff32a8f3cb2c0a22e6b1176c61af2ce6b601d168886a69603d89546e80a90837d0161088957600480546001600160801b031916608083901c1790555050565b60408051808201909152600981526832ba3432b939b1b0b760b91b6020918201528251908301207ff2a838274ab14069c06b321275a85e4ef6538b9a525de7a8ab8c9b740c8c46f3016108f557600480546001600160801b0316600160801b608084901c021790555050565b60405162461bcd60e51b815260206004820152603a60248201527f5468652070726f7669646564205250432d4e616d65206973206e65697468657260448201527f2022616c6368656d7922206e6f72202265746865727363616e22000000000000606482015260840161046c565b5050565b600680546102489061436b565b6000546060906001600160a01b031633146109a15760405162461bcd60e51b815260040161046c9061468e565b6109a96116fe565b6109c55760405162461bcd60e51b815260040161046c906146eb565b60006109cf61177f565b60408051600180825281830190925291925060009190602080830190803683370190505090503081600081518110610a0957610a09614722565b60200260200101906001600160a01b031690816001600160a01b0316815250506000610ac26000838460038054610a3f9061436b565b80601f0160208091040260200160405190810160405280929190818152602001828054610a6b9061436b565b8015610ab85780601f10610a8d57610100808354040283529160200191610ab8565b820191906000526020600020905b815481529060010190602001808311610a9b57829003601f168201915b50505050506117b9565b9050610b5d816000015160038054610ad99061436b565b80601f0160208091040260200160405190810160405280929190818152602001828054610b059061436b565b8015610b525780601f10610b2757610100808354040283529160200191610b52565b820191906000526020600020905b815481529060010190602001808311610b3557829003601f168201915b5050505050856118ad565b80516040516316f2254360e31b91610b7a91889190602401614738565b60408051601f198184030181529190526020810180516001600160e01b03166001600160e01b03199093169290921790915293505050505b919050565b6060610bc16116fe565b610bdd5760405162461bcd60e51b815260040161046c906146eb565b6000806000610beb856104bd565b905060005b8651811015610c5a576000610c1d888381518110610c1057610c10614722565b6020026020010151610f8b565b905084811115610c4757809450878281518110610c3c57610c3c614722565b602002602001015193505b5080610c5281614764565b915050610bf0565b506040516339a317c160e21b81523390819063e68c5f049061074490869088908c906004016147c1565b600080610c926001546111a5565b604051602001610ca291906147e8565b60405160208183030381529060405290506000610cbe82611961565b9050610cf6610cf161067061066b84604051806040016040528060068152602001651c995cdd5b1d60d21b8152506112fa565b611a54565b9250505090565b606060006040518060400160405280601081526020016000815250905080604051602001610d2b9190614428565b60408051601f198184030181529082905280516020918201206004549092610d5a9260809290921b9101614444565b6040516020818303038152906040528051906020012003610d8d5760405162461bcd60e51b815260040161046c9061484c565b6000610da084600280546102de9061436b565b90506000610dad82610f14565b90506000610dba82611ad9565b905060006040518060e001604052808d6001600160a01b031681526020018c81526020018b81526020018a815260200183815260200189815260200160015481525090506000610e0a8286611be3565b90506000610e1782611d5e565b9050610e2281611f97565b50506040805160048152602481019091526020810180516001600160e01b0316631294941560e21b17905296505050505050509695505050505050565b606060008063420200016001600160a01b03168585604051602001610e85929190614883565b60408051601f1981840301815290829052610e9f91614428565b6000604051808303816000865af19150503d8060008114610edc576040519150601f19603f3d011682016040523d82523d6000602084013e610ee1565b606091505b509150915081610f0c576342020001816040516375fff46760e01b815260040161046c9291906148a6565b949350505050565b600080610f2083612068565b90508051602014610f735760405162461bcd60e51b815260206004820152601a60248201527f496e76616c69642070726976617465206b6579206c656e677468000000000000604482015260640161046c565b610f84610f7f826148ca565b612188565b9392505050565b6000610f956116fe565b610fb15760405162461bcd60e51b815260040161046c906146eb565b6000610fc78360405160200161042291906143b2565b610fd26001546111a5565b604051602001610fe39291906148ee565b60405160208183030381529060405290506000610fff82611961565b9050610f0c610cf161067061066b61103585604051806040016040528060068152602001651c995cdd5b1d60d21b8152506112fa565b60405180604001604052806009815260200168113130b630b731b29160b91b8152506121c7565b60606104758261222e565b600061107282612252565b905081518103611080575050565b600081835161108f919061439f565b90506000816001600160401b038111156110ab576110ab6140f5565b6040519080825280601f01601f1916602001820160405280156110d5576020820181803683370190505b50905060005b8281101561114457846110ee828661499e565b815181106110fe576110fe614722565b602001015160f81c60f81b82828151811061111b5761111b614722565b60200101906001600160f81b031916908160001a9053508061113c81614764565b9150506110db565b5060008180602001905181019061115b91906149b1565b905060005b815181101561119d5761118b82828151811061117e5761117e614722565b60200260200101516123b6565b8061119581614764565b915050611160565b505050505050565b6060610475826125a8565b60408051600180825281830190925260609160009190816020015b60608152602001906001900390816111cb5790505090506040518060400160405280601e81526020017f436f6e74656e742d547970653a206170706c69636174696f6e2f6a736f6e00008152508160008151811061122b5761122b614722565b6020908102919091010152919050565b606060008063432000026001600160a01b03168460405160200161125f9190614b1f565b60408051601f198184030181529082905261127991614428565b6000604051808303816000865af19150503d80600081146112b6576040519150601f19603f3d011682016040523d82523d6000602084013e6112bb565b606091505b5091509150816112e6576343200002816040516375fff46760e01b815260040161046c9291906148a6565b80806020019051810190610f0c919061465a565b6040805160208101909152600081526000611314846125ec565b9050600061134182604051806040016040528060078152602001661132b93937b91160c91b8152506121c7565b905061134f81516007161590565b6113755761135c816113a7565b60405162461bcd60e51b815260040161046c9190614064565b61139e828560405160200161138a9190614c00565b6040516020818303038152906040526121c7565b95945050505050565b60606000610f84836000612601565b6060600082905060028151101580156113f45750806000815181106113dd576113dd614722565b6020910101516001600160f81b031916601160f91b145b80156114315750806001825161140a919061439f565b8151811061141a5761141a614722565b6020910101516001600160f81b031916601160f91b145b61146d5760405162461bcd60e51b815260206004820152600d60248201526c125b9d985b1a59081a5b9c1d5d609a1b604482015260640161046c565b60006002825161147d919061439f565b6001600160401b03811115611494576114946140f5565b6040519080825280601f01601f1916602001820160405280156114be576020820181803683370190505b50905060015b600183516114d2919061439f565b81101561153f578281815181106114eb576114eb614722565b01602001516001600160f81b0319168261150660018461439f565b8151811061151657611516614722565b60200101906001600160f81b031916908160001a9053508061153781614764565b9150506114c4565b509392505050565b80516000907f1999999999999999999999999999999999999999999999999999999999999999825b600181019050603060ff82870151160382851185600a02828101965060098311818810831717158602955050505082811061156f5750508061067f5763101827966000526004601cfd5b6060600060405180604001604052806010815260200160008152509050806040516020016115e79190614428565b60408051601f1981840301815290829052805160209182012060045490926116169260809290921b9101614444565b60405160208183030381529060405280519060200120036116495760405162461bcd60e51b815260040161046c9061484c565b610f846040518060c0016040528061165f612d8f565b86604051602001611671929190614c2e565b60405160208183030381529060405281526020016040518060400160405280600381526020016211d15560ea1b815250815260200161060d6111b0565b60408051600080825291819052906116c8845b6003612601565b90508260051b6020820101519150600160078551161481518410166116ec57606091505b5092915050565b600061047582611a54565b604051600090819081906342010000908281818181865af19150503d8060008114611745576040519150601f19603f3d011682016040523d82523d6000602084013e61174a565b606091505b509150915081611775576342010000816040516375fff46760e01b815260040161046c9291906148a6565b6020015192915050565b60606117b460405180604001604052806012815260200171636f6e666964656e7469616c496e7075747360701b815250612dd8565b905090565b6040805160c0810182526000808252602082018190529181019190915260608082018190526080820181905260a082015260008063420300006001600160a01b0316878787876040516020016118129493929190614c5d565b60408051601f198184030181529082905261182c91614428565b6000604051808303816000865af19150503d8060008114611869576040519150601f19603f3d011682016040523d82523d6000602084013e61186e565b606091505b509150915081611899576342030000816040516375fff46760e01b815260040161046c9291906148a6565b8080602001905181019061078b9190614d36565b60008063420200006001600160a01b03168585856040516020016118d393929190614e1d565b60408051601f19818403018152908290526118ed91614428565b6000604051808303816000865af19150503d806000811461192a576040519150601f19603f3d011682016040523d82523d6000602084013e61192f565b606091505b50915091508161195a576342020000816040516375fff46760e01b815260040161046c9291906148a6565b5050505050565b60606000604051806040016040528060108152602001600081525090508060405160200161198f9190614428565b60408051601f1981840301815290829052805160209182012060045490926119be9260809290921b9101614444565b60405160208183030381529060405280519060200120036119f15760405162461bcd60e51b815260040161046c9061484c565b610f846040518060c00160405280611a07612d8f565b8152602001604051806040016040528060048152602001631413d4d560e21b8152508152602001611a366111b0565b81526020810186905260006040820152611b5860609091015261123b565b600081516001811160208085015160f01c17613078141660011b5b6001810190507403010a071000000b0104040208000c05090d060e0f6d03e4088843e41bac00000000000060ff83870151161c601f161a8360fc1c8115171583029250600181038460041b01935050818110611a6f57508061067f5763101827966000526004601cfd5b604080518082018252601081526000602080830182905292519092611b0091839101614428565b60408051601f198184030181529082905280516020918201206004549092611b2f9260809290921b9101614444565b6040516020818303038152906040528051906020012003611b625760405162461bcd60e51b815260040161046c9061484c565b6000611b788460405160200161042291906143b2565b611b836001546111a5565b604051602001611b94929190614e52565b60405160208183030381529060405290506000611bb082611961565b905061067a610cf161067061066b84604051806040016040528060068152602001651c995cdd5b1d60d21b8152506112fa565b611c4860405180610140016040528060006001600160a01b031681526020016000815260200160008152602001600081526020016000815260200160608152602001600081526020016000801916815260200160008019168152602001600081525090565b6000611c5384612e83565b905060008180519060200120604051602001611c7191815260200190565b60405160208183030381529060405290506000611c908260008761307b565b905060008660c001516002611ca59190614efb565b90506000806000611cc9856020810151604082015160609092015160001a92909190565b919450925090506000611ce060ff85166023614f26565b9050611cec8582614f26565b8b516001600160a01b03168a526020808d0151908b01526040808d0151908b01526060808d0151908b01526080808d0151908b015260a0808d0151908b015260c0808d0151908b01526001600160401b03166101208a01525060e0880191909152610100870152505050505092915050565b604080516009808252610140820190925260609160009190816020015b6060815260200190600190039081611d7b579050509050611d9f8360800151613159565b81600081518110611db257611db2614722565b6020026020010181905250611dca8360400151613159565b81600181518110611ddd57611ddd614722565b6020026020010181905250611df58360200151613159565b81600281518110611e0857611e08614722565b602090810291909101015282516001600160a01b0316611e5d57611e3a60405180602001604052806000815250613167565b81600381518110611e4d57611e4d614722565b6020026020010181905250611e87565b8251611e68906131d6565b81600381518110611e7b57611e7b614722565b60200260200101819052505b611e948360600151613159565b81600481518110611ea757611ea7614722565b6020026020010181905250611ebf8360a00151613167565b81600581518110611ed257611ed2614722565b6020026020010181905250611eeb836101200151613159565b81600681518110611efe57611efe614722565b6020026020010181905250611f378360e00151604051602001611f2391815260200190565b604051602081830303815290604052613167565b81600781518110611f4a57611f4a614722565b6020026020010181905250611f70836101000151604051602001611f2391815260200190565b81600881518110611f8357611f83614722565b6020026020010181905250610f84816131ec565b606060006040518060400160405280601081526020016000815250905080604051602001611fc59190614428565b60408051601f198184030181529082905280516020918201206004549092611ff49260809290921b9101614444565b60405160208183030381529060405280519060200120036120275760405162461bcd60e51b815260040161046c9061484c565b60006120328461105c565b61203d6001546111a5565b60405160200161204e929190614f46565b6040516020818303038152906040529050610f0c81611961565b8051606090829061207b90600290614ff9565b1561208557600080fd5b600060028251612095919061500d565b6001600160401b038111156120ac576120ac6140f5565b6040519080825280601f01601f1916602001820160405280156120d6576020820181803683370190505b50905060005b600283516120ea919061500d565b81101561153f5761212883612100836002614354565b61210b90600161499e565b8151811061211b5761211b614722565b016020015160f81c613230565b6121378461210b846002614354565b612142906010615021565b61214c919061503d565b60f81b82828151811061216157612161614722565b60200101906001600160f81b031916908160001a90535061218181614764565b90506120dc565b60008060006121968461333d565b6040805160208082019490945280820192909252805180830382018152606090920190528051910120949350505050565b604080516000815290528151606090600716600203610475578151602083012060006121f28561339e565b805190915060051b5b801561222557818101519550601f190182612215876133ab565b80519060200120036121fb578593505b50505092915050565b6060612239826133c5565b8051613078825260020160011990910190815292915050565b6000805b82518110156123b05760408051808201909152600381526254354360e81b6020909101528251601560fa1b9084908390811061229457612294614722565b01602001516001600160f81b0319160361239e576001805b6040518060400160405280600381526020016254354360e81b8152505181101561236d5784516122dc828561499e565b10158061234d57506040518060400160405280600381526020016254354360e81b815250818151811061231157612311614722565b01602001516001600160f81b0319168561232b838661499e565b8151811061233b5761233b614722565b01602001516001600160f81b03191614155b1561235b576000915061236d565b8061236581614764565b9150506122ac565b50801561239c576040518060400160405280600381526020016254354360e81b8152505182610f0c919061499e565b505b806123a881614764565b915050612256565b50505190565b604081015180516020830151516000036123d5578060208301a0505050565b82602001515160010361241257600083602001516000815181106123fb576123fb614722565b60200260200101519050808260208501a150505050565b826020015151600203612474576000836020015160008151811061243857612438614722565b602002602001015190506000846020015160018151811061245b5761245b614722565b6020026020010151905080828460208701a25050505050565b8260200151516003036124fb576000836020015160008151811061249a5761249a614722565b60200260200101519050600084602001516001815181106124bd576124bd614722565b60200260200101519050600085602001516002815181106124e0576124e0614722565b602002602001015190508082848660208901a3505050505050565b8260200151516004036125a3576000836020015160008151811061252157612521614722565b602002602001015190506000846020015160018151811061254457612544614722565b602002602001015190506000856020015160028151811061256757612567614722565b602002602001015190506000866020015160038151811061258a5761258a614722565b60200260200101519050808284868860208b01a4505050505b505050565b60606080604051019050602081016040526000815280600019835b928101926030600a8206018453600a9004806125c3575050819003601f19909101908152919050565b6040805160008082529181905290610f848360ff5b6000612cef565b63101827966000526004601cfd5b805b600164010000260061262b835160001a90565b1c161561047557600101612618565b63ffffffff83113d3d3e63ffffffff821b191691901b1790565b6040516126768486036078612671601f198689030160588861263a565b61263a565b959095178552505050602082016040525090565b60008061269b84601860005161263a565b6126a58787612616565b91508682106126b457506127da565b815160001a602281036126e657826126ce898585896129e6565b93506126de60048583868a612654565b9450506127cb565b605b8103612703576126fa888484886127e3565b935093506127cb565b607b8103612717576126fa888484886128ac565b6703ff200000000000811c60011615612736576126fa88848488612aba565b8760048401116127905782835160e01c6374727565810361276e5760048501945061276560058684878b612654565b955050506127cb565b636e756c6c810361278d5760048501945061276560068684878b612654565b50505b8760058401116127c35782835160d81c6466616c736581036127c05760058501945061276560058684878b612654565b50505b6127cb612608565b50506127d78682612616565b90505b94509492505050565b600060018401815b8682106127fa576127fa612608565b8261281e576128098783612616565b9150605d612818835160001a90565b14612881575b61282a8783858761268a565b92509250821561287257612844816098855160401761263a565b8352600101612854825160001a90565b605d81036128625750612881565b602c81036128705750612876565b505b8691505b6001820191506127eb565b506001016128918260388661263a565b93506128a1600182878787612654565b915094509492505050565b6000600184015b8581106128c2576128c2612608565b816128e6576128d18682612616565b9050607d6128e0825160001a90565b1461298a575b6128f08682612616565b9050806128ff878385876129e6565b6129098882612616565b9250603a612918845160001a90565b0361297c5761292c8860018501868861268a565b93509350831561297c57612953602086018303609861267185850360b8895160801761263a565b8452825160001a607d810361296a5750505061298a565b602c810361297a57505050612982565b505b50508590505b6001016128b3565b6001016129998260388661263a565b93506128a1600282878787612654565b6001667e0000007e03ff60306129c28585015160001a90565b031c166129d1576129d1612608565b600582146109635761096360018301826129a9565b505060008282106129f9576129f9612608565b50600181015b805160001a60228103612a125750612a70565b605c8114612a2357506001016129ff565b600182015160001a905060016a0510110400000000002001602283031c1615612a4f57506002016129ff565b60758103612a6b57612a626002836129a9565b506006016129ff565b508290505b828110612a7f57612a7f612608565b60010192915050565b805b600a6030612a99835160001a90565b031015612aa857600101612a8a565b808214841615610f8457610f84612608565b600083602d612aca825160001a90565b03612ad3576001015b600a6030612ae2835160001a90565b0310612af057612af0612608565b805160001a60018201915060308114612b1257612b0f60008884612a88565b91505b50602e612b20825160001a90565b03612b3757612b3460018760018401612a88565b90505b805160658160001a60201703612b6657612b636001886001850162010001600e8660011a031a01612a88565b91505b506128a1600382878787612654565b60405190820190601f19601f850181165b8381015183820152810180612b865750508381526000846020830101528360408201016040529392505050565b8483612b75565b80516060906002816007161161067f57821581151761067f576020811615612bee57603881901c63ffffffff16915061067f565b604051915060208201603882901c63ffffffff165b8015612c35578082528051601881901c63ffffffff16612c258760188461263a565b9092525060209190910190612c03565b50601f1983820381018060051c855282604052612c548560388661263a565b935083602017865260408110612c87576020850192508085015b83518151855281526020909301928201808410612c6e57505b50505050919050565b8051606090821581151715612ca55750610f0c565b80841c63ffffffff169150808616612ce65760d881901c63ffffffff16612cd382871c63ffffffff16612bb3565b925050612ce182858361263a565b861783525b50949350505050565b818015612d615760018114612d775760038114612d86576020840184518101808214612d4757805160001a60228253612d2e8760d8601160f91b61263a565b600052612d3e828460008a61268a565b93509450808253505b83158183101715612d5a57612d5a612608565b50506116ec565b612d7060106078605887612c90565b91506116ec565b612d70600860b8609887612c90565b610f0c84612bba565b60606005612db3600460009054906101000a900460801b600380546102de9061436b565b604051602001612dc4929190615056565b604051602081830303815290604052905090565b606060008063533000036001600160a01b031684604051602001612dfc9190614064565b60408051601f1981840301815290829052612e1691614428565b6000604051808303816000865af19150503d8060008114612e53576040519150601f19603f3d011682016040523d82523d6000602084013e612e58565b606091505b5091509150816112e6576353300003816040516375fff46760e01b815260040161046c9291906148a6565b604080516009808252610140820190925260609160009190816020015b6060815260200190600190039081612ea0579050509050612ec48360800151613159565b81600081518110612ed757612ed7614722565b6020026020010181905250612eef8360400151613159565b81600181518110612f0257612f02614722565b6020026020010181905250612f1a8360200151613159565b81600281518110612f2d57612f2d614722565b602090810291909101015282516001600160a01b0316612f8257612f5f60405180602001604052806000815250613167565b81600381518110612f7257612f72614722565b6020026020010181905250612fac565b8251612f8d906131d6565b81600381518110612fa057612fa0614722565b60200260200101819052505b612fb98360600151613159565b81600481518110612fcc57612fcc614722565b6020026020010181905250612fe48360a00151613167565b81600581518110612ff757612ff7614722565b602002602001018190525061300f8360c00151613159565b8160068151811061302257613022614722565b602002602001018190525061304560405180602001604052806000815250613167565b8160078151811061305857613058614722565b6020026020010181905250611f7060405180602001604052806000815250613167565b60606130856116fe565b61308e57600080fd5b60008063401000036001600160a01b03168686866040516020016130b493929190615072565b60408051601f19818403018152908290526130ce91614428565b6000604051808303816000865af19150503d806000811461310b576040519150601f19603f3d011682016040523d82523d6000602084013e613110565b606091505b50915091508161313b576340100003816040516375fff46760e01b815260040161046c9291906148a6565b8080602001905181019061314f919061465a565b9695505050505050565b60606104756131678361342b565b60608082516001148015613195575060808360008151811061318b5761318b614722565b016020015160f81c105b156131a1575081610475565b6131ad83516080613559565b836040516020016131bf929190614c2e565b604051602081830303815290604052905092915050565b606061047582604051602001611f2391906143b2565b606060006131f983613706565b9050613207815160c0613559565b81604051602001613219929190614c2e565b604051602081830303815290604052915050919050565b6000600360fc1b60f883901b6001600160f81b031916108015906132665750603960f81b60f883901b6001600160f81b03191611155b15613276576104756030836150bb565b606160f81b60f883901b6001600160f81b031916108015906132aa5750603360f91b60f883901b6001600160f81b03191611155b156132c65760616132bc83600a61503d565b61047591906150bb565b604160f81b60f883901b6001600160f81b031916108015906132fa5750602360f91b60f883901b6001600160f81b03191611155b1561330c5760416132bc83600a61503d565b60405162461bcd60e51b815260040161046c9060208082526004908201526319985a5b60e21b604082015260600190565b600080613394837f79be667ef9dcbbac55a06295ce870b07029bfcdb2dce28d959f2815b16f817987f483ada7726a3c4655da4fbfc0e1108a8fd17b448a68554199c47d08ffb10d4b860006401000003d019613836565b9094909350915050565b60606000610f84836116c1565b805160609060801615610bb2576000610f84836001612601565b8051604051818001600282019081526f30313233343536373839616263646566600f52918301906022015b81841461341b57600184019350600f845116516001820153600f845160041c165181536002016133f0565b6000815260200160405250919050565b606060008260405160200161344291815260200190565b604051602081830303815290604052905060005b60208110156134995781818151811061347157613471614722565b01602001516001600160f81b031916600003613499578061349181614764565b915050613456565b60006134a682602061439f565b6001600160401b038111156134bd576134bd6140f5565b6040519080825280601f01601f1916602001820160405280156134e7576020820181803683370190505b50905060005b8151811015612ce657838361350181614764565b94508151811061351357613513614722565b602001015160f81c60f81b82828151811061353057613530614722565b60200101906001600160f81b031916908160001a9053508061355181614764565b9150506134ed565b60608060388410156135c0576040805160018082528183019092529060208201818036833701905050905061358e838561503d565b60f81b816000815181106135a4576135a4614722565b60200101906001600160f81b031916908160001a905350610f84565b600060015b6135cf818761500d565b156135f557816135de81614764565b92506135ee905061010082614354565b90506135c5565b61360082600161499e565b6001600160401b03811115613617576136176140f5565b6040519080825280601f01601f191660200182016040528015613641576020820181803683370190505b50925061364e858361503d565b61365990603761503d565b60f81b8360008151811061366f5761366f614722565b60200101906001600160f81b031916908160001a905350600190505b8181116136fd5761010061369f828461439f565b6136ab906101006151b8565b6136b5908861500d565b6136bf9190614ff9565b60f81b8382815181106136d4576136d4614722565b60200101906001600160f81b031916908160001a905350806136f581614764565b91505061368b565b50509392505050565b606081516000036137275760408051600080825260208201909252906116ec565b6000805b835181101561376e5783818151811061374657613746614722565b6020026020010151518261375a919061499e565b91508061376681614764565b91505061372b565b6000826001600160401b03811115613788576137886140f5565b6040519080825280601f01601f1916602001820160405280156137b2576020820181803683370190505b50600092509050602081015b8551831015612ce65760008684815181106137db576137db614722565b6020026020010151905060006020820190506137f983828451613870565b87858151811061380b5761380b614722565b6020026020010151518361381f919061499e565b92505050828061382e90614764565b9350506137be565b600080600080600061384d8a8a8a60018b8b6138cd565b92509250925061385f8383838961394f565b945094505050509550959350505050565b8282825b602081106138ac578151835261388b60208461499e565b925061389860208361499e565b91506138a560208261439f565b9050613874565b905182516020929092036101000a6000190180199091169116179052505050565b6000806000886000036138e7575086915085905084613943565b8860008060015b831561393a5760018416156139145761390c8383838f8f8f8e6139be565b919450925090505b61391f60028561500d565b935061392e8c8c8c8c8c613cf1565b919d509b5099506138ee565b91955093509150505b96509650969350505050565b600080600061395e8585613e94565b90506000848061397057613970614fe3565b82830990506000858061398557613985614fe3565b828a0990506000868061399a5761399a614fe3565b87806139a8576139a8614fe3565b8486098a09919a91995090975050505050505050565b60008080891580156139ce575088155b156139e0575085915084905083613ce4565b861580156139ec575085155b156139fe575088915087905086613ce4565b613a06613f60565b8480613a1457613a14614fe3565b898a0981528480613a2757613a27614fe3565b81518a0960208201528480613a3e57613a3e614fe3565b86870960408201528480613a5457613a54614fe3565b6040820151870960608201526040805160808101909152808680613a7a57613a7a614fe3565b60408401518e0981526020018680613a9457613a94614fe3565b60608401518d0981526020018680613aae57613aae614fe3565b83518b0981526020018680613ac557613ac5614fe3565b60208401518a09905260408101518151919250141580613aed57506060810151602082015114155b613b395760405162461bcd60e51b815260206004820152601e60248201527f557365206a6163446f75626c652066756e6374696f6e20696e73746561640000604482015260640161046c565b613b41613f60565b8580613b4f57613b4f614fe3565b8251613b5b908861439f565b60408401510881528580613b7157613b71614fe3565b6020830151613b80908861439f565b60608401510860208201528580613b9957613b99614fe3565b8151800960408201528580613bb057613bb0614fe3565b8151604083015109606082015260008680613bcd57613bcd614fe3565b6060830151613bdc908961439f565b8880613bea57613bea614fe3565b602085015180090890508680613c0257613c02614fe3565b8780613c1057613c10614fe3565b8880613c1e57613c1e614fe3565b6040850151865109600209613c33908961439f565b8208905060008780613c4757613c47614fe3565b8880613c5557613c55614fe3565b613c5f848b61439f565b8a80613c6d57613c6d614fe3565b60408701518851090860208501510990508780613c8c57613c8c614fe3565b8880613c9a57613c9a614fe3565b6060850151602087015109613caf908a61439f565b8208905060008880613cc357613cc3614fe3565b8980613cd157613cd1614fe3565b8b8f098551099297509095509093505050505b9750975097945050505050565b600080600085600003613d0b575086915085905084613e89565b60008480613d1b57613d1b614fe3565b898a09905060008580613d3057613d30614fe3565b898a09905060008680613d4557613d45614fe3565b898a09905060008780613d5a57613d5a614fe3565b8880613d6857613d68614fe3565b848e09600409905060008880613d8057613d80614fe3565b8980613d8e57613d8e614fe3565b8a80613d9c57613d9c614fe3565b8586098c098a80613daf57613daf614fe3565b876003090890508880613dc457613dc4614fe3565b8980613dd257613dd2614fe3565b838408613ddf908b61439f565b8a80613ded57613ded614fe3565b8384090894508880613e0157613e01614fe3565b8980613e0f57613e0f614fe3565b8a80613e1d57613e1d614fe3565b868709600809613e2d908b61439f565b8a80613e3b57613e3b614fe3565b8b80613e4957613e49614fe3565b613e53898e61439f565b860884090893508880613e6857613e68614fe3565b8980613e7657613e76614fe3565b8c8e096002099497509295509293505050505b955095509592505050565b60008215801590613ea55750818314155b8015613eb057508115155b613eed5760405162461bcd60e51b815260206004820152600e60248201526d24b73b30b634b210373ab6b132b960911b604482015260640161046c565b6000600183825b8615613f5557613f04878361500d565b9050828680613f1557613f15614fe3565b8780613f2357613f23614fe3565b858409613f30908961439f565b8608909450925086613f428183614354565b613f4c908461439f565b97509150613ef4565b509195945050505050565b60405180608001604052806004906020820280368337509192915050565b6001600160a01b0381168114613f9357600080fd5b50565b6001600160801b031981168114613f9357600080fd5b600080600080600060a08688031215613fc457600080fd5b8535613fcf81613f7e565b94506020860135613fdf81613f7e565b93506040860135613fef81613f7e565b925060608601359150608086013561400681613f96565b809150509295509295909350565b60005b8381101561402f578181015183820152602001614017565b50506000910152565b60008151808452614050816020860160208601614014565b601f01601f19169290920160200192915050565b602081526000610f846020830184614038565b6000806040838503121561408a57600080fd5b823561409581613f7e565b915060208301356140a581613f96565b809150509250929050565b6000602082840312156140c257600080fd5b5035919050565b600080604083850312156140dc57600080fd5b82356140e781613f7e565b946020939093013593505050565b634e487b7160e01b600052604160045260246000fd5b604051606081016001600160401b038111828210171561412d5761412d6140f5565b60405290565b60405160c081016001600160401b038111828210171561412d5761412d6140f5565b604051601f8201601f191681016001600160401b038111828210171561417d5761417d6140f5565b604052919050565b60006001600160401b0382111561419e5761419e6140f5565b50601f01601f191660200190565b600082601f8301126141bd57600080fd5b81356141d06141cb82614185565b614155565b8181528460208386010111156141e557600080fd5b816020850160208301376000918101602001919091529392505050565b6000806040838503121561421557600080fd5b82356001600160401b0381111561422b57600080fd5b614237858286016141ac565b92505060208301356140a581613f96565b60006020828403121561425a57600080fd5b81356001600160401b0381111561427057600080fd5b610f0c848285016141ac565b60006001600160401b03821115614295576142956140f5565b5060051b60200190565b600080604083850312156142b257600080fd5b82356001600160401b038111156142c857600080fd5b8301601f810185136142d957600080fd5b803560206142e96141cb8361427c565b82815260059290921b8301810191818101908884111561430857600080fd5b938201935b8385101561432f57843561432081613f7e565b8252938201939082019061430d565b98969091013596505050505050565b634e487b7160e01b600052601160045260246000fd5b80820281158282048414176104755761047561433e565b600181811c9082168061437f57607f821691505b60208210810361067f57634e487b7160e01b600052602260045260246000fd5b818103818111156104755761047561433e565b60609190911b6bffffffffffffffffffffffff1916815260140190565b7f46756e647320746f6f206c65737320746f20706179206f75742062696473206181526a03a1030b2323932b9b99d160ad1b60208201526000825161441b81602b850160208701614014565b91909101602b0192915050565b6000825161443a818460208701614014565b9190910192915050565b6001600160801b031991909116815260100190565b8054600090600181811c908083168061447357607f831692505b6020808410820361449457634e487b7160e01b600052602260045260246000fd5b8180156144a857600181146144bd576144ea565b60ff19861689528415158502890196506144ea565b60008881526020902060005b868110156144e25781548b8201529085019083016144c9565b505084890196505b50505050505092915050565b60006145028286614459565b7f3f6d6f64756c653d626c6f636b26616374696f6e3d676574626c6f636b6e6f6281526f7974696d652674696d657374616d703d60801b60208201528451614551816030840160208901614014565b7f26636c6f736573743d6265666f7265266170696b65793d00000000000000000060309290910191820152835161458f816047840160208801614014565b0160470195945050505050565b7f2f6765744f776e657273466f72546f6b656e3f636f6e7472616374416464726581526273733d60e81b6020820152600083516145e0816023850160208801614014565b6826746f6b656e49643d60b81b602391840191820152835161460981602c840160208801614014565b01602c01949350505050565b600082601f83011261462657600080fd5b81516146346141cb82614185565b81815284602083860101111561464957600080fd5b610f0c826020830160208701614014565b60006020828403121561466c57600080fd5b81516001600160401b0381111561468257600080fd5b610f0c84828501614615565b6020808252603c908201527f596f7520617265206e6f7420746865206f776e6572206f66207468697320636f60408201527f6e747261637420616e642063616e206e6f74206d6f6469667920697400000000606082015260800190565b6020808252601d908201527f6d7573742062652063616c6c656420636f6e666964656e7469616c6c79000000604082015260600190565b634e487b7160e01b600052603260045260246000fd5b60408152600061474b6040830185614038565b90506001600160801b0319831660208301529392505050565b6000600182016147765761477661433e565b5060010190565b600081518084526020808501945080840160005b838110156147b65781516001600160a01b031687529582019590820190600101614791565b509495945050505050565b60018060a01b038416815282602082015260606040820152600061139e606083018461477d565b6000805160206151c583398151915281527f5f6761735072696365222c2022706172616d73223a205b5d2c20226964223a20602082015260008251614834816040850160208701614014565b607d60f81b6040939091019283015250604101919050565b6020808252601e908201527f4e6f2052504320456e64706f696e742072656769737465726564207965740000604082015260600190565b6001600160801b031983168152604060208201526000610f0c6040830184614038565b6001600160a01b0383168152604060208201819052600090610f0c90830184614038565b8051602080830151919081101561067f5760001960209190910360031b1b16919050565b6000805160206151c583398151915281527f5f67657450726f6f66222c2022706172616d73223a205b22000000000000000060208201526000835161493a816038850160208801614014565b6511162dae961160d11b603891840191820152651b185d195cdd60d21b603e8201526a112e96101134b2111d101160a91b6044820152835161498381604f840160208801614014565b61227d60f01b604f9290910191820152605101949350505050565b808201808211156104755761047561433e565b600060208083850312156149c457600080fd5b82516001600160401b03808211156149db57600080fd5b818501915085601f8301126149ef57600080fd5b81516149fd6141cb8261427c565b81815260059190911b83018401908481019088831115614a1c57600080fd5b8585015b83811015614b1257805185811115614a3757600080fd5b86016060818c03601f19011215614a4d57600080fd5b614a5561410b565b88820151614a6281613f7e565b8152604082015187811115614a7657600080fd5b8201603f81018d13614a8757600080fd5b89810151614a976141cb8261427c565b81815260059190911b8201604001908b8101908f831115614ab757600080fd5b6040840193505b82841015614ad75783518252928c0192908c0190614abe565b848d0152505050606082015187811115614af057600080fd5b614afe8d8b83860101614615565b604083015250845250918601918601614a20565b5098975050505050505050565b60006020808352835160c082850152614b3b60e0850182614038565b905081850151601f1980868403016040870152614b588383614038565b60408801518782038301606089015280518083529194508501925084840190600581901b8501860160005b82811015614baf5784878303018452614b9d828751614038565b95880195938801939150600101614b83565b5060608a01519650838982030160808a0152614bcb8188614038565b96505050505050506080840151614be660a085018215159052565b5060a08401516001600160401b03811660c085015261153f565b6000601160f91b8083528351614c1d816001860160208801614014565b600193019283015250600201919050565b60008351614c40818460208801614014565b835190830190614c54818360208801614014565b01949350505050565b6001600160401b0385168152608060208201526000614c7f608083018661477d565b8281036040840152614c91818661477d565b9050828103606084015261078b8185614038565b8051610bb281613f96565b80516001600160401b0381168114610bb257600080fd5b600082601f830112614cd857600080fd5b81516020614ce86141cb8361427c565b82815260059290921b84018101918181019086841115614d0757600080fd5b8286015b84811015614d2b578051614d1e81613f7e565b8352918301918301614d0b565b509695505050505050565b600060208284031215614d4857600080fd5b81516001600160401b0380821115614d5f57600080fd5b9083019060c08286031215614d7357600080fd5b614d7b614133565b614d8483614ca5565b8152614d9260208401614ca5565b6020820152614da360408401614cb0565b6040820152606083015182811115614dba57600080fd5b614dc687828601614cc7565b606083015250608083015182811115614dde57600080fd5b614dea87828601614cc7565b60808301525060a083015182811115614e0257600080fd5b614e0e87828601614615565b60a08301525095945050505050565b6001600160801b031984168152606060208201526000614e406060830185614038565b828103604084015261314f8185614038565b6000805160206151c583398151915281527f5f6765745472616e73616374696f6e436f756e74222c2022706172616d73223a602082015262102d9160e91b604082015260008351614eaa816043850160208801614014565b75111610113630ba32b9ba11102e96101134b2111d101160511b6043918401918201528351614ee0816059840160208801614014565b61227d60f01b60599290910191820152605b01949350505050565b6001600160401b03818116838216028082169190828114614f1e57614f1e61433e565b505092915050565b6001600160401b038181168382160190808211156116ec576116ec61433e565b6000805160206151c583398151915281527f5f73656e645261775472616e73616374696f6e222c2022706172616d73223a206020820152612d9160f11b604082015260008351614f9d816042850160208801614014565b6a112e96101134b2111d101160a91b6042918401918201528351614fc881604d840160208801614014565b61227d60f01b604d9290910191820152604f01949350505050565b634e487b7160e01b600052601260045260246000fd5b60008261500857615008614fe3565b500690565b60008261501c5761501c614fe3565b500490565b60ff81811683821602908116908181146116ec576116ec61433e565b60ff81811683821601908111156104755761047561433e565b60006150628285614459565b8351614c54818360208801614014565b6060815260006150856060830186614038565b600285106150a357634e487b7160e01b600052602160045260246000fd5b846020840152828103604084015261314f8185614038565b60ff82811682821603908111156104755761047561433e565b600181815b8085111561510f5781600019048211156150f5576150f561433e565b8085161561510257918102915b93841c93908002906150d9565b509250929050565b60008261512657506001610475565b8161513357506000610475565b816001811461514957600281146151535761516f565b6001915050610475565b60ff8411156151645761516461433e565b50506001821b610475565b5060208310610133831016604e8410600b8410161715615192575081810a610475565b61519c83836150d4565b80600019048211156151b0576151b061433e565b029392505050565b6000610f84838361511756fe7b226a736f6e727063223a22322e30222c20226d6574686f64223a2022657468a26469706673582212200d7883b9a97bf0b9a1d41fbb44102d78729c75795300af2b2f78b8d3a4af107264736f6c6343000814003368747470733a2f2f6170692d7365706f6c69612e65746865727363616e2e696f2f61706968747470733a2f2f6574682d7365706f6c69612e672e616c6368656d792e636f6d2f76322f",
    "linkReferences": {}
  },
  "methodIdentifiers": {
    "BASE_ALCHEMY_URL()": "1bcfe34d",
    "BASE_SEPOLIA_ETHERSCAN_URL()": "e5feb639",
    "chainID()": "adc879e9",
    "endAuction(address[],uint256)": "f8fde203",
    "getNFTOwnedBy(address,uint256)": "73b072f1",
    "getNearestPreviousBlock(uint256)": "627dc017",
    "onchainCallback()": "4a525054",
    "owner()": "8da5cb5b",
    "registerApiKeyOffchain(string)": "ee03cb3a",
    "registerApiKeyOnchain(string,bytes16)": "b7912a18",
    "transferETH(address,bytes16)": "2ddcd98c",
    "transferNFT(address,address,address,uint256,bytes16)": "095c6469"
  },
  "id": 40
}