{
  "abi": [
    {
      "type": "constructor",
      "inputs": [
        {
          "name": "_chainID",
          "type": "uint256",
          "internalType": "uint256"
        }
      ],
      "stateMutability": "nonpayable"
    },
    {
      "type": "function",
      "name": "BASE_ALCHEMY_URL",
      "inputs": [],
      "outputs": [
        {
          "name": "",
          "type": "string",
          "internalType": "string"
        }
      ],
      "stateMutability": "view"
    },
    {
      "type": "function",
      "name": "BASE_SEPOLIA_ETHERSCAN_URL",
      "inputs": [],
      "outputs": [
        {
          "name": "",
          "type": "string",
          "internalType": "string"
        }
      ],
      "stateMutability": "view"
    },
    {
      "type": "function",
      "name": "chainID",
      "inputs": [],
      "outputs": [
        {
          "name": "",
          "type": "uint256",
          "internalType": "uint256"
        }
      ],
      "stateMutability": "view"
    },
    {
      "type": "function",
      "name": "endAuction",
      "inputs": [
        {
          "name": "l1Addresses",
          "type": "address[]",
          "internalType": "address[]"
        },
        {
          "name": "endTimestamp",
          "type": "uint256",
          "internalType": "uint256"
        }
      ],
      "outputs": [
        {
          "name": "",
          "type": "bytes",
          "internalType": "bytes"
        }
      ],
      "stateMutability": "nonpayable"
    },
    {
      "type": "function",
      "name": "endAuction2",
      "inputs": [
        {
          "name": "l1Addresses",
          "type": "address[]",
          "internalType": "address[]"
        },
        {
          "name": "endTimestamp",
          "type": "uint256",
          "internalType": "uint256"
        }
      ],
      "outputs": [
        {
          "name": "",
          "type": "uint256",
          "internalType": "uint256"
        },
        {
          "name": "",
          "type": "address",
          "internalType": "address"
        }
      ],
      "stateMutability": "nonpayable"
    },
    {
      "type": "function",
      "name": "getNFTOwnedBy",
      "inputs": [
        {
          "name": "_nftContract",
          "type": "address",
          "internalType": "address"
        },
        {
          "name": "_tokenId",
          "type": "uint256",
          "internalType": "uint256"
        }
      ],
      "outputs": [
        {
          "name": "",
          "type": "address",
          "internalType": "address"
        }
      ],
      "stateMutability": "nonpayable"
    },
    {
      "type": "function",
      "name": "getNearestPreviousBlock",
      "inputs": [
        {
          "name": "timestamp",
          "type": "uint256",
          "internalType": "uint256"
        }
      ],
      "outputs": [
        {
          "name": "",
          "type": "uint256",
          "internalType": "uint256"
        }
      ],
      "stateMutability": "nonpayable"
    },
    {
      "type": "function",
      "name": "onchainCallback",
      "inputs": [],
      "outputs": [],
      "stateMutability": "nonpayable"
    },
    {
      "type": "function",
      "name": "owner",
      "inputs": [],
      "outputs": [
        {
          "name": "",
          "type": "address",
          "internalType": "address"
        }
      ],
      "stateMutability": "view"
    },
    {
      "type": "function",
      "name": "registerApiKeyOffchain",
      "inputs": [
        {
          "name": "rpcName",
          "type": "string",
          "internalType": "string"
        }
      ],
      "outputs": [
        {
          "name": "",
          "type": "bytes",
          "internalType": "bytes"
        }
      ],
      "stateMutability": "nonpayable"
    },
    {
      "type": "function",
      "name": "registerApiKeyOnchain",
      "inputs": [
        {
          "name": "rpcName",
          "type": "string",
          "internalType": "string"
        },
        {
          "name": "_rpcRecord",
          "type": "bytes16",
          "internalType": "Suave.DataId"
        }
      ],
      "outputs": [],
      "stateMutability": "nonpayable"
    },
    {
      "type": "function",
      "name": "transferETH",
      "inputs": [
        {
          "name": "returnAddress",
          "type": "address",
          "internalType": "address"
        },
        {
          "name": "suaveDataID",
          "type": "bytes16",
          "internalType": "Suave.DataId"
        }
      ],
      "outputs": [
        {
          "name": "",
          "type": "bytes",
          "internalType": "bytes"
        }
      ],
      "stateMutability": "nonpayable"
    },
    {
      "type": "function",
      "name": "transferETHForNFT",
      "inputs": [
        {
          "name": "returnAddress",
          "type": "address",
          "internalType": "address"
        },
        {
          "name": "suaveDataID",
          "type": "bytes16",
          "internalType": "Suave.DataId"
        }
      ],
      "outputs": [],
      "stateMutability": "nonpayable"
    },
    {
      "type": "function",
      "name": "transferNFT",
      "inputs": [
        {
          "name": "from",
          "type": "address",
          "internalType": "address"
        },
        {
          "name": "to",
          "type": "address",
          "internalType": "address"
        },
        {
          "name": "nftContract",
          "type": "address",
          "internalType": "address"
        },
        {
          "name": "tokenId",
          "type": "uint256",
          "internalType": "uint256"
        },
        {
          "name": "suaveDataID",
          "type": "bytes16",
          "internalType": "Suave.DataId"
        }
      ],
      "outputs": [
        {
          "name": "",
          "type": "bytes",
          "internalType": "bytes"
        }
      ],
      "stateMutability": "nonpayable"
    },
    {
      "type": "error",
      "name": "PeekerReverted",
      "inputs": [
        {
          "name": "",
          "type": "address",
          "internalType": "address"
        },
        {
          "name": "",
          "type": "bytes",
          "internalType": "bytes"
        }
      ]
    }
  ],
  "bytecode": {
    "object": "0x60c060405260036080908152624b455960e81b60a05260029062000024908262000192565b506040805180820190915260038082526252504360e81b6020830152906200004d908262000192565b50604051806060016040528060258152602001620058cb6025913960059062000077908262000192565b50604051806060016040528060248152602001620058a760249139600690620000a1908262000192565b50348015620000af57600080fd5b50604051620058f0380380620058f0833981016040819052620000d2916200025e565b600080546001600160a01b0319163317905560015562000278565b634e487b7160e01b600052604160045260246000fd5b600181811c908216806200011857607f821691505b6020821081036200013957634e487b7160e01b600052602260045260246000fd5b50919050565b601f8211156200018d57600081815260208120601f850160051c81016020861015620001685750805b601f850160051c820191505b81811015620001895782815560010162000174565b5050505b505050565b81516001600160401b03811115620001ae57620001ae620000ed565b620001c681620001bf845462000103565b846200013f565b602080601f831160018114620001fe5760008415620001e55750858301515b600019600386901b1c1916600185901b17855562000189565b600085815260208120601f198616915b828110156200022f578886015182559484019460019091019084016200020e565b50858210156200024e5787850151600019600388901b60f8161c191681555b5050505050600190811b01905550565b6000602082840312156200027157600080fd5b5051919050565b61561f80620002886000396000f3fe608060405234801561001057600080fd5b50600436106100ea5760003560e01c80638da5cb5b1161008c578063b7912a1811610066578063b7912a18146101e8578063e5feb639146101fb578063ee03cb3a14610203578063f8fde2031461021657600080fd5b80638da5cb5b146101b95780639e479d98146101cc578063adc879e9146101df57600080fd5b80633244aaf9116100c85780633244aaf9146101335780634a52505414610163578063627dc0171461016d57806373b072f11461018e57600080fd5b8063095c6469146100ef5780631bcfe34d146101185780632ddcd98c14610120575b600080fd5b6101026100fd3660046142ac565b610229565b60405161010f9190614364565b60405180910390f35b6101026102b4565b61010261012e366004614377565b610342565b610146610141366004614463565b6104f4565b604080519283526001600160a01b0390911660208301520161010f565b61016b6105a6565b005b61018061017b366004614507565b6105e8565b60405190815260200161010f565b6101a161019c366004614520565b6107b0565b6040516001600160a01b03909116815260200161010f565b6000546101a1906001600160a01b031681565b61016b6101da366004614377565b61084b565b61018060015481565b61016b6101f63660046145c4565b610921565b610102610af2565b61010261021136600461460a565b610aff565b610102610224366004614463565b610d42565b60606000610235610e54565b610240906002614654565b6040516001600160a01b03808a166024830152881660448201526064810186905290915060009060840160408051601f198184030181529190526020810180516001600160e01b03166323b872dd60e01b17905290506102a886620138808460008589610ecd565b98975050505050505050565b600580546102c19061466b565b80601f01602080910402602001604051908101604052809291908181526020018280546102ed9061466b565b801561033a5780601f1061030f5761010080835404028352916020019161033a565b820191906000526020600020905b81548152906001019060200180831161031d57829003601f168201915b505050505081565b606060006103da83600280546103579061466b565b80601f01602080910402602001604051908101604052809291908181526020018280546103839061466b565b80156103d05780601f106103a5576101008083540402835291602001916103d0565b820191906000526020600020905b8154815290600101906020018083116103b357829003601f168201915b505050505061102f565b905060006103e7826110e4565b905060006103f3610e54565b6103fe906002614654565b9050600061040b8361115b565b905061041982615208614654565b81106104875761045187615208846104318183614654565b61043b908661469f565b604051806020016040528060008152508b610ecd565b50506040805160048152602481019091526020810180516001600160e01b0316631294941560e21b17905293506104ee92505050565b6104af8360405160200161049b91906146b2565b60405160208183030381529060405261122c565b6040516020016104bf919061470c565b60408051601f198184030181529082905262461bcd60e51b82526104e591600401614364565b60405180910390fd5b92915050565b6000806104ff611237565b61051b5760405162461bcd60e51b81526004016104e59061472f565b6000806000610529866105e8565b905060005b875181101561059957600061055c89838151811061054e5761054e614766565b6020026020010151846112b8565b9050848111156105865780945088828151811061057b5761057b614766565b602002602001015193505b50806105918161477c565b91505061052e565b5091969095509350505050565b6105e66000368080601f01602080910402602001604051908101604052809392919081815260200183838082843760009201919091525061137592505050565b565b60408051808201825260108152600060208083018290529251909261060f91839101614795565b60408051601f19818403018152908290528051602091820120600454909261064392600160801b90920460801b91016147b1565b60405160208183030381529060405280519060200120036106b25760405162461bcd60e51b8152602060048201526024808201527f4e6f2065746865727363616e20456e64706f696e742072656769737465726564604482015263081e595d60e21b60648201526084016104e5565b600060066106bf856114ab565b600454600380546106df92600160801b900460801b91906103579061466b565b6040516020016106f193929190614863565b60408051601f1981840301815260c08301825280835281518083018352600381526211d15560ea1b60208281019190915284015292506000916107639181016107386114b6565b8152604080516020818101835260008083529084019190915290820152611b58606090910152611541565b90506107a56107a061079b61079684604051806040016040528060068152602001651c995cdd5b1d60d21b815250611600565b6116a4565b6116b3565b611844565b935050505b50919050565b6000806107c78460405160200161049b91906146b2565b6107d0846114ab565b6040516020016107e1929190614909565b604051602081830303815290604052905060006107fd826118b6565b9050600061084161083c61079b61079661083586604051806040016040528060068152602001656f776e65727360d01b815250611600565b60006119ab565b6119f0565b9695505050505050565b600061085e82600280546103579061466b565b9050600061086b826110e4565b90506000610877610e54565b610882906002614654565b9050600061088f8361115b565b905061089e8262018a88614654565b81106108d5576108cf86615208846108b98162013880614654565b604051806020016040528060008152508a610ecd565b50610919565b6108e98360405160200161049b91906146b2565b6108f2826114ab565b6109076109028562018a88614654565b6114ab565b6040516020016104bf93929190614982565b505050505050565b6000546001600160a01b0316331461094b5760405162461bcd60e51b81526004016104e5906149f3565b61098b6000368080601f01602080910402602001604051908101604052809392919081815260200183838082843760009201919091525061137592505050565b610993611237565b6109af5760405162461bcd60e51b81526004016104e59061472f565b604080518082019091526007815266616c6368656d7960c81b6020918201528251908301207ff32a8f3cb2c0a22e6b1176c61af2ce6b601d168886a69603d89546e80a90837d01610a1457600480546001600160801b031916608083901c1790555050565b60408051808201909152600981526832ba3432b939b1b0b760b91b6020918201528251908301207ff2a838274ab14069c06b321275a85e4ef6538b9a525de7a8ab8c9b740c8c46f301610a8057600480546001600160801b0316600160801b608084901c021790555050565b60405162461bcd60e51b815260206004820152603a60248201527f5468652070726f7669646564205250432d4e616d65206973206e65697468657260448201527f2022616c6368656d7922206e6f72202265746865727363616e2200000000000060648201526084016104e5565b5050565b600680546102c19061466b565b6000546060906001600160a01b03163314610b2c5760405162461bcd60e51b81526004016104e5906149f3565b610b34611237565b610b505760405162461bcd60e51b81526004016104e59061472f565b6000610b5a6119fb565b60408051600180825281830190925291925060009190602080830190803683370190505090503081600081518110610b9457610b94614766565b60200260200101906001600160a01b031690816001600160a01b0316815250506000610c4d6000838460038054610bca9061466b565b80601f0160208091040260200160405190810160405280929190818152602001828054610bf69061466b565b8015610c435780601f10610c1857610100808354040283529160200191610c43565b820191906000526020600020905b815481529060010190602001808311610c2657829003601f168201915b5050505050611a35565b9050610ce8816000015160038054610c649061466b565b80601f0160208091040260200160405190810160405280929190818152602001828054610c909061466b565b8015610cdd5780601f10610cb257610100808354040283529160200191610cdd565b820191906000526020600020905b815481529060010190602001808311610cc057829003601f168201915b505050505085611b29565b80516040516316f2254360e31b91610d0591889190602401614a50565b60408051601f198184030181529190526020810180516001600160e01b03166001600160e01b03199093169290921790915293505050505b919050565b6060610d4c611237565b610d685760405162461bcd60e51b81526004016104e59061472f565b6000806000610d76856105e8565b905060005b8651811015610dd8576000610d9b88838151811061054e5761054e614766565b905084811115610dc557809450878281518110610dba57610dba614766565b602002602001015193505b5080610dd08161477c565b915050610d7b565b506040516339a317c160e21b81523390819063e68c5f0490610e0290869088908c90600401614ac0565b6000604051808303816000875af1158015610e21573d6000803e3d6000fd5b505050506040513d6000823e601f3d908101601f19168201604052610e499190810190614b2c565b979650505050505050565b600080610e626001546114ab565b604051602001610e729190614b60565b60405160208183030381529060405290506000610e8e82611bdd565b9050610ec6610ec161079b61079684604051806040016040528060068152602001651c995cdd5b1d60d21b815250611600565b611cd0565b9250505090565b606060006040518060400160405280601081526020016000815250905080604051602001610efb9190614795565b60408051601f198184030181529082905280516020918201206004549092610f2a9260809290921b91016147b1565b6040516020818303038152906040528051906020012003610f5d5760405162461bcd60e51b81526004016104e590614bc4565b6000610f7084600280546103579061466b565b90506000610f7d826110e4565b90506000610f8a82611d55565b905060006040518060e001604052808d6001600160a01b031681526020018c81526020018b81526020018a815260200183815260200189815260200160015481525090506000610fda8286611e5f565b90506000610fe782611fda565b9050610ff281612213565b50506040805160048152602481019091526020810180516001600160e01b0316631294941560e21b17905296505050505050509695505050505050565b606060008063420200016001600160a01b03168585604051602001611055929190614bfb565b60408051601f198184030181529082905261106f91614795565b6000604051808303816000865af19150503d80600081146110ac576040519150601f19603f3d011682016040523d82523d6000602084013e6110b1565b606091505b5091509150816110dc576342020001816040516375fff46760e01b81526004016104e5929190614c1e565b949350505050565b6000806110f0836122e4565b905080516020146111435760405162461bcd60e51b815260206004820152601a60248201527f496e76616c69642070726976617465206b6579206c656e67746800000000000060448201526064016104e5565b61115461114f82614c42565b612404565b9392505050565b6000611165611237565b6111815760405162461bcd60e51b81526004016104e59061472f565b60006111978360405160200161049b91906146b2565b6111a26001546114ab565b6040516020016111b3929190614ca3565b604051602081830303815290604052905060006111cf82611bdd565b90506110dc610ec161079b61079661120585604051806040016040528060068152602001651c995cdd5b1d60d21b815250611600565b60405180604001604052806009815260200168113130b630b731b29160b91b815250612443565b60606104ee826124aa565b604051600090819081906342010000908281818181865af19150503d806000811461127e576040519150601f19603f3d011682016040523d82523d6000602084013e611283565b606091505b5091509150816112ae576342010000816040516375fff46760e01b81526004016104e5929190614c1e565b6020015192915050565b60006112c2611237565b6112de5760405162461bcd60e51b81526004016104e59061472f565b60006112f48460405160200161049b91906146b2565b6112fd846124ce565b6113086001546114ab565b60405160200161131a93929190614d1e565b6040516020818303038152906040529050600061133682611bdd565b905061136c610ec161079b61079661120585604051806040016040528060068152602001651c995cdd5b1d60d21b815250611600565b95945050505050565b600061138082612506565b90508151810361138e575050565b600081835161139d919061469f565b90506000816001600160401b038111156113b9576113b96143b0565b6040519080825280601f01601f1916602001820160405280156113e3576020820181803683370190505b50905060005b8281101561145257846113fc8286614da3565b8151811061140c5761140c614766565b602001015160f81c60f81b82828151811061142957611429614766565b60200101906001600160f81b031916908160001a9053508061144a8161477c565b9150506113e9565b506000818060200190518101906114699190614db6565b905060005b81518110156109195761149982828151811061148c5761148c614766565b602002602001015161266a565b806114a38161477c565b91505061146e565b60606104ee8261285c565b60408051600180825281830190925260609160009190816020015b60608152602001906001900390816114d15790505090506040518060400160405280601e81526020017f436f6e74656e742d547970653a206170706c69636174696f6e2f6a736f6e00008152508160008151811061153157611531614766565b6020908102919091010152919050565b606060008063432000026001600160a01b0316846040516020016115659190614f24565b60408051601f198184030181529082905261157f91614795565b6000604051808303816000865af19150503d80600081146115bc576040519150601f19603f3d011682016040523d82523d6000602084013e6115c1565b606091505b5091509150816115ec576343200002816040516375fff46760e01b81526004016104e5929190614c1e565b808060200190518101906110dc9190614b2c565b604080516020810190915260008152600061161a846128a1565b9050600061164782604051806040016040528060078152602001661132b93937b91160c91b815250612443565b905061165581516007161590565b61167b57611662816116a4565b60405162461bcd60e51b81526004016104e59190614364565b61136c82856040516020016116909190615005565b604051602081830303815290604052612443565b606060006111548360006128b6565b6060600082905060028151101580156116f15750806000815181106116da576116da614766565b6020910101516001600160f81b031916601160f91b145b801561172e57508060018251611707919061469f565b8151811061171757611717614766565b6020910101516001600160f81b031916601160f91b145b61176a5760405162461bcd60e51b815260206004820152600d60248201526c125b9d985b1a59081a5b9c1d5d609a1b60448201526064016104e5565b60006002825161177a919061469f565b6001600160401b03811115611791576117916143b0565b6040519080825280601f01601f1916602001820160405280156117bb576020820181803683370190505b50905060015b600183516117cf919061469f565b81101561183c578281815181106117e8576117e8614766565b01602001516001600160f81b0319168261180360018461469f565b8151811061181357611813614766565b60200101906001600160f81b031916908160001a905350806118348161477c565b9150506117c1565b509392505050565b80516000907f1999999999999999999999999999999999999999999999999999999999999999825b600181019050603060ff82870151160382851185600a02828101965060098311818810831717158602955050505082811061186c575050806107aa5763101827966000526004601cfd5b6060600060405180604001604052806010815260200160008152509050806040516020016118e49190614795565b60408051601f1981840301815290829052805160209182012060045490926119139260809290921b91016147b1565b60405160208183030381529060405280519060200120036119465760405162461bcd60e51b81526004016104e590614bc4565b6111546040518060c0016040528061195c613044565b8660405160200161196e929190615033565b60405160208183030381529060405281526020016040518060400160405280600381526020016211d15560ea1b81525081526020016107386114b6565b60408051600080825291819052906119c5845b60036128b6565b90508260051b6020820101519150600160078551161481518410166119e957606091505b5092915050565b60006104ee82611cd0565b6060611a3060405180604001604052806012815260200171636f6e666964656e7469616c496e7075747360701b81525061308d565b905090565b6040805160c0810182526000808252602082018190529181019190915260608082018190526080820181905260a082015260008063420300006001600160a01b031687878787604051602001611a8e9493929190615062565b60408051601f1981840301815290829052611aa891614795565b6000604051808303816000865af19150503d8060008114611ae5576040519150601f19603f3d011682016040523d82523d6000602084013e611aea565b606091505b509150915081611b15576342030000816040516375fff46760e01b81526004016104e5929190614c1e565b80806020019051810190610e49919061513b565b60008063420200006001600160a01b0316858585604051602001611b4f93929190615222565b60408051601f1981840301815290829052611b6991614795565b6000604051808303816000865af19150503d8060008114611ba6576040519150601f19603f3d011682016040523d82523d6000602084013e611bab565b606091505b509150915081611bd6576342020000816040516375fff46760e01b81526004016104e5929190614c1e565b5050505050565b606060006040518060400160405280601081526020016000815250905080604051602001611c0b9190614795565b60408051601f198184030181529082905280516020918201206004549092611c3a9260809290921b91016147b1565b6040516020818303038152906040528051906020012003611c6d5760405162461bcd60e51b81526004016104e590614bc4565b6111546040518060c00160405280611c83613044565b8152602001604051806040016040528060048152602001631413d4d560e21b8152508152602001611cb26114b6565b81526020810186905260006040820152611b58606090910152611541565b600081516001811160208085015160f01c17613078141660011b5b6001810190507403010a071000000b0104040208000c05090d060e0f6d03e4088843e41bac00000000000060ff83870151161c601f161a8360fc1c8115171583029250600181038460041b01935050818110611ceb5750806107aa5763101827966000526004601cfd5b604080518082018252601081526000602080830182905292519092611d7c91839101614795565b60408051601f198184030181529082905280516020918201206004549092611dab9260809290921b91016147b1565b6040516020818303038152906040528051906020012003611dde5760405162461bcd60e51b81526004016104e590614bc4565b6000611df48460405160200161049b91906146b2565b611dff6001546114ab565b604051602001611e10929190615257565b60405160208183030381529060405290506000611e2c82611bdd565b90506107a5610ec161079b61079684604051806040016040528060068152602001651c995cdd5b1d60d21b815250611600565b611ec460405180610140016040528060006001600160a01b031681526020016000815260200160008152602001600081526020016000815260200160608152602001600081526020016000801916815260200160008019168152602001600081525090565b6000611ecf84613138565b905060008180519060200120604051602001611eed91815260200190565b60405160208183030381529060405290506000611f0c82600087613330565b905060008660c001516002611f219190615300565b90506000806000611f45856020810151604082015160609092015160001a92909190565b919450925090506000611f5c60ff8516602361532b565b9050611f68858261532b565b8b516001600160a01b03168a526020808d0151908b01526040808d0151908b01526060808d0151908b01526080808d0151908b015260a0808d0151908b015260c0808d0151908b01526001600160401b03166101208a01525060e0880191909152610100870152505050505092915050565b604080516009808252610140820190925260609160009190816020015b6060815260200190600190039081611ff757905050905061201b8360800151613404565b8160008151811061202e5761202e614766565b60200260200101819052506120468360400151613404565b8160018151811061205957612059614766565b60200260200101819052506120718360200151613404565b8160028151811061208457612084614766565b602090810291909101015282516001600160a01b03166120d9576120b660405180602001604052806000815250613412565b816003815181106120c9576120c9614766565b6020026020010181905250612103565b82516120e490613481565b816003815181106120f7576120f7614766565b60200260200101819052505b6121108360600151613404565b8160048151811061212357612123614766565b602002602001018190525061213b8360a00151613412565b8160058151811061214e5761214e614766565b6020026020010181905250612167836101200151613404565b8160068151811061217a5761217a614766565b60200260200101819052506121b38360e0015160405160200161219f91815260200190565b604051602081830303815290604052613412565b816007815181106121c6576121c6614766565b60200260200101819052506121ec83610100015160405160200161219f91815260200190565b816008815181106121ff576121ff614766565b602002602001018190525061115481613497565b6060600060405180604001604052806010815260200160008152509050806040516020016122419190614795565b60408051601f1981840301815290829052805160209182012060045490926122709260809290921b91016147b1565b60405160208183030381529060405280519060200120036122a35760405162461bcd60e51b81526004016104e590614bc4565b60006122ae8461122c565b6122b96001546114ab565b6040516020016122ca92919061534b565b60405160208183030381529060405290506110dc81611bdd565b805160609082906122f7906002906153fe565b1561230157600080fd5b6000600282516123119190615412565b6001600160401b03811115612328576123286143b0565b6040519080825280601f01601f191660200182016040528015612352576020820181803683370190505b50905060005b600283516123669190615412565b81101561183c576123a48361237c836002614654565b612387906001614da3565b8151811061239757612397614766565b016020015160f81c6134db565b6123b384612387846002614654565b6123be906010615426565b6123c89190615442565b60f81b8282815181106123dd576123dd614766565b60200101906001600160f81b031916908160001a9053506123fd8161477c565b9050612358565b6000806000612412846135e8565b6040805160208082019490945280820192909252805180830382018152606090920190528051910120949350505050565b6040805160008152905281516060906007166002036104ee5781516020830120600061246e85613649565b805190915060051b5b80156124a157818101519550601f19018261249187613656565b8051906020012003612477578593505b50505092915050565b60606124b582613670565b8051613078825260020160011990910190815292915050565b60606124d9826136d6565b90506030602082015160001a14600282510161307882840152600282840103925081810383525050919050565b6000805b82518110156126645760408051808201909152600381526254354360e81b6020909101528251601560fa1b9084908390811061254857612548614766565b01602001516001600160f81b03191603612652576001805b6040518060400160405280600381526020016254354360e81b815250518110156126215784516125908285614da3565b10158061260157506040518060400160405280600381526020016254354360e81b81525081815181106125c5576125c5614766565b01602001516001600160f81b031916856125df8386614da3565b815181106125ef576125ef614766565b01602001516001600160f81b03191614155b1561260f5760009150612621565b806126198161477c565b915050612560565b508015612650576040518060400160405280600381526020016254354360e81b81525051826110dc9190614da3565b505b8061265c8161477c565b91505061250a565b50505190565b60408101518051602083015151600003612689578060208301a0505050565b8260200151516001036126c657600083602001516000815181106126af576126af614766565b60200260200101519050808260208501a150505050565b82602001515160020361272857600083602001516000815181106126ec576126ec614766565b602002602001015190506000846020015160018151811061270f5761270f614766565b6020026020010151905080828460208701a25050505050565b8260200151516003036127af576000836020015160008151811061274e5761274e614766565b602002602001015190506000846020015160018151811061277157612771614766565b602002602001015190506000856020015160028151811061279457612794614766565b602002602001015190508082848660208901a3505050505050565b82602001515160040361285757600083602001516000815181106127d5576127d5614766565b60200260200101519050600084602001516001815181106127f8576127f8614766565b602002602001015190506000856020015160028151811061281b5761281b614766565b602002602001015190506000866020015160038151811061283e5761283e614766565b60200260200101519050808284868860208b01a4505050505b505050565b60606080604051019050602081016040526000815280600019835b928101926030600a8206018453600a900480612877575b5050819003601f19909101908152919050565b60408051600080825291819052906111548360ff5b6000612fa4565b63101827966000526004601cfd5b805b60016401000026006128e0835160001a90565b1c16156104ee576001016128cd565b63ffffffff83113d3d3e63ffffffff821b191691901b1790565b60405161292b8486036078612926601f19868903016058886128ef565b6128ef565b959095178552505050602082016040525090565b6000806129508460186000516128ef565b61295a87876128cb565b91508682106129695750612a8f565b815160001a6022810361299b578261298389858589612c9b565b935061299360048583868a612909565b945050612a80565b605b81036129b8576129af88848488612a98565b93509350612a80565b607b81036129cc576129af88848488612b61565b6703ff200000000000811c600116156129eb576129af88848488612d6f565b876004840111612a455782835160e01c63747275658103612a2357600485019450612a1a60058684878b612909565b95505050612a80565b636e756c6c8103612a4257600485019450612a1a60068684878b612909565b50505b876005840111612a785782835160d81c6466616c73658103612a7557600585019450612a1a60058684878b612909565b50505b612a806128bd565b5050612a8c86826128cb565b90505b94509492505050565b600060018401815b868210612aaf57612aaf6128bd565b82612ad357612abe87836128cb565b9150605d612acd835160001a90565b14612b36575b612adf8783858761293f565b925092508215612b2757612af981609885516040176128ef565b8352600101612b09825160001a90565b605d8103612b175750612b36565b602c8103612b255750612b2b565b505b8691505b600182019150612aa0565b50600101612b46826038866128ef565b9350612b56600182878787612909565b915094509492505050565b6000600184015b858110612b7757612b776128bd565b81612b9b57612b8686826128cb565b9050607d612b95825160001a90565b14612c3f575b612ba586826128cb565b905080612bb487838587612c9b565b612bbe88826128cb565b9250603a612bcd845160001a90565b03612c3157612be18860018501868861293f565b935093508315612c3157612c08602086018303609861292685850360b889516080176128ef565b8452825160001a607d8103612c1f57505050612c3f565b602c8103612c2f57505050612c37565b505b50508590505b600101612b68565b600101612c4e826038866128ef565b9350612b56600282878787612909565b6001667e0000007e03ff6030612c778585015160001a90565b031c16612c8657612c866128bd565b60058214610aee57610aee6001830182612c5e565b50506000828210612cae57612cae6128bd565b50600181015b805160001a60228103612cc75750612d25565b605c8114612cd85750600101612cb4565b600182015160001a905060016a0510110400000000002001602283031c1615612d045750600201612cb4565b60758103612d2057612d17600283612c5e565b50600601612cb4565b508290505b828110612d3457612d346128bd565b60010192915050565b805b600a6030612d4e835160001a90565b031015612d5d57600101612d3f565b808214841615611154576111546128bd565b600083602d612d7f825160001a90565b03612d88576001015b600a6030612d97835160001a90565b0310612da557612da56128bd565b805160001a60018201915060308114612dc757612dc460008884612d3d565b91505b50602e612dd5825160001a90565b03612dec57612de960018760018401612d3d565b90505b805160658160001a60201703612e1b57612e186001886001850162010001600e8660011a031a01612d3d565b91505b50612b56600382878787612909565b60405190820190601f19601f850181165b8381015183820152810180612e3b5750508381526000846020830101528360408201016040529392505050565b8483612e2a565b8051606090600281600716116107aa5782158115176107aa576020811615612ea357603881901c63ffffffff1691506107aa565b604051915060208201603882901c63ffffffff165b8015612eea578082528051601881901c63ffffffff16612eda876018846128ef565b9092525060209190910190612eb8565b50601f1983820381018060051c855282604052612f09856038866128ef565b935083602017865260408110612f3c576020850192508085015b83518151855281526020909301928201808410612f2357505b50505050919050565b8051606090821581151715612f5a57506110dc565b80841c63ffffffff169150808616612f9b5760d881901c63ffffffff16612f8882871c63ffffffff16612e68565b925050612f968285836128ef565b861783525b50949350505050565b818015613016576001811461302c576003811461303b576020840184518101808214612ffc57805160001a60228253612fe38760d8601160f91b6128ef565b600052612ff3828460008a61293f565b93509450808253505b8315818310171561300f5761300f6128bd565b50506119e9565b61302560106078605887612f45565b91506119e9565b613025600860b8609887612f45565b6110dc84612e6f565b60606005613068600460009054906101000a900460801b600380546103579061466b565b60405160200161307992919061545b565b604051602081830303815290604052905090565b606060008063533000036001600160a01b0316846040516020016130b19190614364565b60408051601f19818403018152908290526130cb91614795565b6000604051808303816000865af19150503d8060008114613108576040519150601f19603f3d011682016040523d82523d6000602084013e61310d565b606091505b5091509150816115ec576353300003816040516375fff46760e01b81526004016104e5929190614c1e565b604080516009808252610140820190925260609160009190816020015b60608152602001906001900390816131555790505090506131798360800151613404565b8160008151811061318c5761318c614766565b60200260200101819052506131a48360400151613404565b816001815181106131b7576131b7614766565b60200260200101819052506131cf8360200151613404565b816002815181106131e2576131e2614766565b602090810291909101015282516001600160a01b03166132375761321460405180602001604052806000815250613412565b8160038151811061322757613227614766565b6020026020010181905250613261565b825161324290613481565b8160038151811061325557613255614766565b60200260200101819052505b61326e8360600151613404565b8160048151811061328157613281614766565b60200260200101819052506132998360a00151613412565b816005815181106132ac576132ac614766565b60200260200101819052506132c48360c00151613404565b816006815181106132d7576132d7614766565b60200260200101819052506132fa60405180602001604052806000815250613412565b8160078151811061330d5761330d614766565b60200260200101819052506121ec60405180602001604052806000815250613412565b606061333a611237565b61334357600080fd5b60008063401000036001600160a01b031686868660405160200161336993929190615477565b60408051601f198184030181529082905261338391614795565b6000604051808303816000865af19150503d80600081146133c0576040519150601f19603f3d011682016040523d82523d6000602084013e6133c5565b606091505b5091509150816133f0576340100003816040516375fff46760e01b81526004016104e5929190614c1e565b808060200190518101906108419190614b2c565b60606104ee6134128361372b565b60608082516001148015613440575060808360008151811061343657613436614766565b016020015160f81c105b1561344c5750816104ee565b61345883516080613859565b8360405160200161346a929190615033565b604051602081830303815290604052905092915050565b60606104ee8260405160200161219f91906146b2565b606060006134a483613a06565b90506134b2815160c0613859565b816040516020016134c4929190615033565b604051602081830303815290604052915050919050565b6000600360fc1b60f883901b6001600160f81b031916108015906135115750603960f81b60f883901b6001600160f81b03191611155b15613521576104ee6030836154c0565b606160f81b60f883901b6001600160f81b031916108015906135555750603360f91b60f883901b6001600160f81b03191611155b1561357157606161356783600a615442565b6104ee91906154c0565b604160f81b60f883901b6001600160f81b031916108015906135a55750602360f91b60f883901b6001600160f81b03191611155b156135b757604161356783600a615442565b60405162461bcd60e51b81526004016104e59060208082526004908201526319985a5b60e21b604082015260600190565b60008061363f837f79be667ef9dcbbac55a06295ce870b07029bfcdb2dce28d959f2815b16f817987f483ada7726a3c4655da4fbfc0e1108a8fd17b448a68554199c47d08ffb10d4b860006401000003d019613b36565b9094909350915050565b60606000611154836119be565b805160609060801615610d3d5760006111548360016128b6565b8051604051818001600282019081526f30313233343536373839616263646566600f52918301906022015b8184146136c657600184019350600f845116516001820153600f845160041c1651815360020161369b565b6000815260200160405250919050565b606060806040510190506020810160405260008152806f30313233343536373839616263646566600f52600119835b600f811651938201936001850153600f8160041c1651845360081c801561288e57613705565b606060008260405160200161374291815260200190565b604051602081830303815290604052905060005b60208110156137995781818151811061377157613771614766565b01602001516001600160f81b03191660000361379957806137918161477c565b915050613756565b60006137a682602061469f565b6001600160401b038111156137bd576137bd6143b0565b6040519080825280601f01601f1916602001820160405280156137e7576020820181803683370190505b50905060005b8151811015612f9b5783836138018161477c565b94508151811061381357613813614766565b602001015160f81c60f81b82828151811061383057613830614766565b60200101906001600160f81b031916908160001a905350806138518161477c565b9150506137ed565b60608060388410156138c0576040805160018082528183019092529060208201818036833701905050905061388e8385615442565b60f81b816000815181106138a4576138a4614766565b60200101906001600160f81b031916908160001a905350611154565b600060015b6138cf8187615412565b156138f557816138de8161477c565b92506138ee905061010082614654565b90506138c5565b613900826001614da3565b6001600160401b03811115613917576139176143b0565b6040519080825280601f01601f191660200182016040528015613941576020820181803683370190505b50925061394e8583615442565b613959906037615442565b60f81b8360008151811061396f5761396f614766565b60200101906001600160f81b031916908160001a905350600190505b8181116139fd5761010061399f828461469f565b6139ab906101006155bd565b6139b59088615412565b6139bf91906153fe565b60f81b8382815181106139d4576139d4614766565b60200101906001600160f81b031916908160001a905350806139f58161477c565b91505061398b565b50509392505050565b60608151600003613a275760408051600080825260208201909252906119e9565b6000805b8351811015613a6e57838181518110613a4657613a46614766565b60200260200101515182613a5a9190614da3565b915080613a668161477c565b915050613a2b565b6000826001600160401b03811115613a8857613a886143b0565b6040519080825280601f01601f191660200182016040528015613ab2576020820181803683370190505b50600092509050602081015b8551831015612f9b576000868481518110613adb57613adb614766565b602002602001015190506000602082019050613af983828451613b70565b878581518110613b0b57613b0b614766565b60200260200101515183613b1f9190614da3565b925050508280613b2e9061477c565b935050613abe565b6000806000806000613b4d8a8a8a60018b8b613bcd565b925092509250613b5f83838389613c4f565b945094505050509550959350505050565b8282825b60208110613bac5781518352613b8b602084614da3565b9250613b98602083614da3565b9150613ba560208261469f565b9050613b74565b905182516020929092036101000a6000190180199091169116179052505050565b600080600088600003613be7575086915085905084613c43565b8860008060015b8315613c3a576001841615613c1457613c0c8383838f8f8f8e613cbe565b919450925090505b613c1f600285615412565b9350613c2e8c8c8c8c8c613ff1565b919d509b509950613bee565b91955093509150505b96509650969350505050565b6000806000613c5e8585614194565b905060008480613c7057613c706153e8565b828309905060008580613c8557613c856153e8565b828a09905060008680613c9a57613c9a6153e8565b8780613ca857613ca86153e8565b8486098a09919a91995090975050505050505050565b6000808089158015613cce575088155b15613ce0575085915084905083613fe4565b86158015613cec575085155b15613cfe575088915087905086613fe4565b613d06614260565b8480613d1457613d146153e8565b898a0981528480613d2757613d276153e8565b81518a0960208201528480613d3e57613d3e6153e8565b86870960408201528480613d5457613d546153e8565b6040820151870960608201526040805160808101909152808680613d7a57613d7a6153e8565b60408401518e0981526020018680613d9457613d946153e8565b60608401518d0981526020018680613dae57613dae6153e8565b83518b0981526020018680613dc557613dc56153e8565b60208401518a09905260408101518151919250141580613ded57506060810151602082015114155b613e395760405162461bcd60e51b815260206004820152601e60248201527f557365206a6163446f75626c652066756e6374696f6e20696e7374656164000060448201526064016104e5565b613e41614260565b8580613e4f57613e4f6153e8565b8251613e5b908861469f565b60408401510881528580613e7157613e716153e8565b6020830151613e80908861469f565b60608401510860208201528580613e9957613e996153e8565b8151800960408201528580613eb057613eb06153e8565b8151604083015109606082015260008680613ecd57613ecd6153e8565b6060830151613edc908961469f565b8880613eea57613eea6153e8565b602085015180090890508680613f0257613f026153e8565b8780613f1057613f106153e8565b8880613f1e57613f1e6153e8565b6040850151865109600209613f33908961469f565b8208905060008780613f4757613f476153e8565b8880613f5557613f556153e8565b613f5f848b61469f565b8a80613f6d57613f6d6153e8565b60408701518851090860208501510990508780613f8c57613f8c6153e8565b8880613f9a57613f9a6153e8565b6060850151602087015109613faf908a61469f565b8208905060008880613fc357613fc36153e8565b8980613fd157613fd16153e8565b8b8f098551099297509095509093505050505b9750975097945050505050565b60008060008560000361400b575086915085905084614189565b6000848061401b5761401b6153e8565b898a09905060008580614030576140306153e8565b898a09905060008680614045576140456153e8565b898a0990506000878061405a5761405a6153e8565b8880614068576140686153e8565b848e09600409905060008880614080576140806153e8565b898061408e5761408e6153e8565b8a8061409c5761409c6153e8565b8586098c098a806140af576140af6153e8565b8760030908905088806140c4576140c46153e8565b89806140d2576140d26153e8565b8384086140df908b61469f565b8a806140ed576140ed6153e8565b8384090894508880614101576141016153e8565b898061410f5761410f6153e8565b8a8061411d5761411d6153e8565b86870960080961412d908b61469f565b8a8061413b5761413b6153e8565b8b80614149576141496153e8565b614153898e61469f565b860884090893508880614168576141686153e8565b8980614176576141766153e8565b8c8e096002099497509295509293505050505b955095509592505050565b600082158015906141a55750818314155b80156141b057508115155b6141ed5760405162461bcd60e51b815260206004820152600e60248201526d24b73b30b634b210373ab6b132b960911b60448201526064016104e5565b6000600183825b8615614255576142048783615412565b9050828680614215576142156153e8565b8780614223576142236153e8565b858409614230908961469f565b86089094509250866142428183614654565b61424c908461469f565b975091506141f4565b509195945050505050565b60405180608001604052806004906020820280368337509192915050565b6001600160a01b038116811461429357600080fd5b50565b6001600160801b03198116811461429357600080fd5b600080600080600060a086880312156142c457600080fd5b85356142cf8161427e565b945060208601356142df8161427e565b935060408601356142ef8161427e565b925060608601359150608086013561430681614296565b809150509295509295909350565b60005b8381101561432f578181015183820152602001614317565b50506000910152565b60008151808452614350816020860160208601614314565b601f01601f19169290920160200192915050565b6020815260006111546020830184614338565b6000806040838503121561438a57600080fd5b82356143958161427e565b915060208301356143a581614296565b809150509250929050565b634e487b7160e01b600052604160045260246000fd5b604051606081016001600160401b03811182821017156143e8576143e86143b0565b60405290565b60405160c081016001600160401b03811182821017156143e8576143e86143b0565b604051601f8201601f191681016001600160401b0381118282101715614438576144386143b0565b604052919050565b60006001600160401b03821115614459576144596143b0565b5060051b60200190565b6000806040838503121561447657600080fd5b82356001600160401b0381111561448c57600080fd5b8301601f8101851361449d57600080fd5b803560206144b26144ad83614440565b614410565b82815260059290921b830181019181810190888411156144d157600080fd5b938201935b838510156144f85784356144e98161427e565b825293820193908201906144d6565b98969091013596505050505050565b60006020828403121561451957600080fd5b5035919050565b6000806040838503121561453357600080fd5b823561453e8161427e565b946020939093013593505050565b60006001600160401b03821115614565576145656143b0565b50601f01601f191660200190565b600082601f83011261458457600080fd5b81356145926144ad8261454c565b8181528460208386010111156145a757600080fd5b816020850160208301376000918101602001919091529392505050565b600080604083850312156145d757600080fd5b82356001600160401b038111156145ed57600080fd5b6145f985828601614573565b92505060208301356143a581614296565b60006020828403121561461c57600080fd5b81356001600160401b0381111561463257600080fd5b6110dc84828501614573565b634e487b7160e01b600052601160045260246000fd5b80820281158282048414176104ee576104ee61463e565b600181811c9082168061467f57607f821691505b6020821081036107aa57634e487b7160e01b600052602260045260246000fd5b818103818111156104ee576104ee61463e565b60609190911b6bffffffffffffffffffffffff1916815260140190565b7f46756e647320746f6f206c65737320746f20706179206f75742062696473206181526a03a1030b2323932b9b99d160ad1b6020820152602b0190565b6000614717826146cf565b8351614727818360208801614314565b019392505050565b6020808252601d908201527f6d7573742062652063616c6c656420636f6e666964656e7469616c6c79000000604082015260600190565b634e487b7160e01b600052603260045260246000fd5b60006001820161478e5761478e61463e565b5060010190565b600082516147a7818460208701614314565b9190910192915050565b6001600160801b031991909116815260100190565b8054600090600181811c90808316806147e057607f831692505b6020808410820361480157634e487b7160e01b600052602260045260246000fd5b818015614815576001811461482a57614857565b60ff1986168952841515850289019650614857565b60008881526020902060005b8681101561484f5781548b820152908501908301614836565b505084890196505b50505050505092915050565b600061486f82866147c6565b7f3f6d6f64756c653d626c6f636b26616374696f6e3d676574626c6f636b6e6f6281526f7974696d652674696d657374616d703d60801b602082015284516148be816030840160208901614314565b7f26636c6f736573743d6265666f7265266170696b65793d0000000000000000006030929091019182015283516148fc816047840160208801614314565b0160470195945050505050565b7f2f6765744f776e657273466f72546f6b656e3f636f6e7472616374416464726581526273733d60e81b60208201526000835161494d816023850160208801614314565b6826746f6b656e49643d60b81b602391840191820152835161497681602c840160208801614314565b01602c01949350505050565b600061498d826146cf565b855161499d818360208a01614314565b6453430b99d160d51b910190815284516149be816006840160208901614314565b664b732b2b2399d160c51b6006929091019182015283516149e681600e840160208801614314565b01600e0195945050505050565b6020808252603c908201527f596f7520617265206e6f7420746865206f776e6572206f66207468697320636f60408201527f6e747261637420616e642063616e206e6f74206d6f6469667920697400000000606082015260800190565b604081526000614a636040830185614338565b90506001600160801b0319831660208301529392505050565b600081518084526020808501945080840160005b83811015614ab55781516001600160a01b031687529582019590820190600101614a90565b509495945050505050565b60018060a01b038416815282602082015260606040820152600061136c6060830184614a7c565b600082601f830112614af857600080fd5b8151614b066144ad8261454c565b818152846020838601011115614b1b57600080fd5b6110dc826020830160208701614314565b600060208284031215614b3e57600080fd5b81516001600160401b03811115614b5457600080fd5b6110dc84828501614ae7565b6000805160206155ca83398151915281527f5f6761735072696365222c2022706172616d73223a205b5d2c20226964223a20602082015260008251614bac816040850160208701614314565b607d60f81b6040939091019283015250604101919050565b6020808252601e908201527f4e6f2052504320456e64706f696e742072656769737465726564207965740000604082015260600190565b6001600160801b0319831681526040602082015260006110dc6040830184614338565b6001600160a01b03831681526040602082018190526000906110dc90830184614338565b805160208083015191908110156107aa5760001960209190910360031b1b16919050565b6000805160206155ca83398151915281527f5f67657450726f6f66222c2022706172616d73223a205b220000000000000000602082015260380190565b6000614cae82614c66565b8451614cbe818360208901614314565b6511162dae961160d11b9101908152651b185d195cdd60d21b60068201526a112e96101134b2111d101160a91b600c8201528351614d03816017840160208801614314565b61227d60f01b60179290910191820152601901949350505050565b6000614d2982614c66565b8551614d39818360208a01614314565b6511162dae961160d11b91019081528451614d5b816006840160208901614314565b6a112e96101134b2111d101160a91b600692909101918201528351614d87816011840160208801614314565b61227d60f01b6011929091019182015260130195945050505050565b808201808211156104ee576104ee61463e565b60006020808385031215614dc957600080fd5b82516001600160401b0380821115614de057600080fd5b818501915085601f830112614df457600080fd5b8151614e026144ad82614440565b81815260059190911b83018401908481019088831115614e2157600080fd5b8585015b83811015614f1757805185811115614e3c57600080fd5b86016060818c03601f19011215614e5257600080fd5b614e5a6143c6565b88820151614e678161427e565b8152604082015187811115614e7b57600080fd5b8201603f81018d13614e8c57600080fd5b89810151614e9c6144ad82614440565b81815260059190911b8201604001908b8101908f831115614ebc57600080fd5b6040840193505b82841015614edc5783518252928c0192908c0190614ec3565b848d0152505050606082015187811115614ef557600080fd5b614f038d8b83860101614ae7565b604083015250845250918601918601614e25565b5098975050505050505050565b60006020808352835160c082850152614f4060e0850182614338565b905081850151601f1980868403016040870152614f5d8383614338565b60408801518782038301606089015280518083529194508501925084840190600581901b8501860160005b82811015614fb45784878303018452614fa2828751614338565b95880195938801939150600101614f88565b5060608a01519650838982030160808a0152614fd08188614338565b96505050505050506080840151614feb60a085018215159052565b5060a08401516001600160401b03811660c085015261183c565b6000601160f91b8083528351615022816001860160208801614314565b600193019283015250600201919050565b60008351615045818460208801614314565b835190830190615059818360208801614314565b01949350505050565b6001600160401b03851681526080602082015260006150846080830186614a7c565b82810360408401526150968186614a7c565b90508281036060840152610e498185614338565b8051610d3d81614296565b80516001600160401b0381168114610d3d57600080fd5b600082601f8301126150dd57600080fd5b815160206150ed6144ad83614440565b82815260059290921b8401810191818101908684111561510c57600080fd5b8286015b848110156151305780516151238161427e565b8352918301918301615110565b509695505050505050565b60006020828403121561514d57600080fd5b81516001600160401b038082111561516457600080fd5b9083019060c0828603121561517857600080fd5b6151806143ee565b615189836150aa565b8152615197602084016150aa565b60208201526151a8604084016150b5565b60408201526060830151828111156151bf57600080fd5b6151cb878286016150cc565b6060830152506080830151828111156151e357600080fd5b6151ef878286016150cc565b60808301525060a08301518281111561520757600080fd5b61521387828601614ae7565b60a08301525095945050505050565b6001600160801b0319841681526060602082015260006152456060830185614338565b82810360408401526108418185614338565b6000805160206155ca83398151915281527f5f6765745472616e73616374696f6e436f756e74222c2022706172616d73223a602082015262102d9160e91b6040820152600083516152af816043850160208801614314565b75111610113630ba32b9ba11102e96101134b2111d101160511b60439184019182015283516152e5816059840160208801614314565b61227d60f01b60599290910191820152605b01949350505050565b6001600160401b038181168382160280821691908281146153235761532361463e565b505092915050565b6001600160401b038181168382160190808211156119e9576119e961463e565b6000805160206155ca83398151915281527f5f73656e645261775472616e73616374696f6e222c2022706172616d73223a206020820152612d9160f11b6040820152600083516153a2816042850160208801614314565b6a112e96101134b2111d101160a91b60429184019182015283516153cd81604d840160208801614314565b61227d60f01b604d9290910191820152604f01949350505050565b634e487b7160e01b600052601260045260246000fd5b60008261540d5761540d6153e8565b500690565b600082615421576154216153e8565b500490565b60ff81811683821602908116908181146119e9576119e961463e565b60ff81811683821601908111156104ee576104ee61463e565b600061546782856147c6565b8351615059818360208801614314565b60608152600061548a6060830186614338565b600285106154a857634e487b7160e01b600052602160045260246000fd5b84602084015282810360408401526108418185614338565b60ff82811682821603908111156104ee576104ee61463e565b600181815b808511156155145781600019048211156154fa576154fa61463e565b8085161561550757918102915b93841c93908002906154de565b509250929050565b60008261552b575060016104ee565b81615538575060006104ee565b816001811461554e576002811461555857615574565b60019150506104ee565b60ff8411156155695761556961463e565b50506001821b6104ee565b5060208310610133831016604e8410600b8410161715615597575081810a6104ee565b6155a183836154d9565b80600019048211156155b5576155b561463e565b029392505050565b6000611154838361551c56fe7b226a736f6e727063223a22322e30222c20226d6574686f64223a2022657468a26469706673582212205233b35ce8c040620a129907fd6ea06326eb5b3d11335fc118bf27f039a688cf64736f6c6343000814003368747470733a2f2f6170692d7365706f6c69612e65746865727363616e2e696f2f61706968747470733a2f2f6574682d7365706f6c69612e672e616c6368656d792e636f6d2f76322f",
    "linkReferences": {}
  },
  "methodIdentifiers": {
    "BASE_ALCHEMY_URL()": "1bcfe34d",
    "BASE_SEPOLIA_ETHERSCAN_URL()": "e5feb639",
    "chainID()": "adc879e9",
    "endAuction(address[],uint256)": "f8fde203",
    "endAuction2(address[],uint256)": "3244aaf9",
    "getNFTOwnedBy(address,uint256)": "73b072f1",
    "getNearestPreviousBlock(uint256)": "627dc017",
    "onchainCallback()": "4a525054",
    "owner()": "8da5cb5b",
    "registerApiKeyOffchain(string)": "ee03cb3a",
    "registerApiKeyOnchain(string,bytes16)": "b7912a18",
    "transferETH(address,bytes16)": "2ddcd98c",
    "transferETHForNFT(address,bytes16)": "9e479d98",
    "transferNFT(address,address,address,uint256,bytes16)": "095c6469"
  },
  "id": 39
}