{
  "abi": [
    {
      "type": "constructor",
      "inputs": [
        {
          "name": "nftContractAddress",
          "type": "address",
          "internalType": "address"
        },
        {
          "name": "nftTokenId",
          "type": "uint256",
          "internalType": "uint256"
        },
        {
          "name": "_auctionEndTime",
          "type": "uint256",
          "internalType": "uint256"
        },
        {
          "name": "minimalBiddingAmount",
          "type": "uint256",
          "internalType": "uint256"
        }
      ],
      "stateMutability": "nonpayable"
    },
    {
      "type": "function",
      "name": "PRIVATE_KEYS",
      "inputs": [],
      "outputs": [
        {
          "name": "",
          "type": "string",
          "internalType": "string"
        }
      ],
      "stateMutability": "view"
    },
    {
      "type": "function",
      "name": "auctionEndTime",
      "inputs": [],
      "outputs": [
        {
          "name": "",
          "type": "uint256",
          "internalType": "uint256"
        }
      ],
      "stateMutability": "view"
    },
    {
      "type": "function",
      "name": "auctionHasStarted",
      "inputs": [],
      "outputs": [
        {
          "name": "",
          "type": "bool",
          "internalType": "bool"
        }
      ],
      "stateMutability": "view"
    },
    {
      "type": "function",
      "name": "auctionWinnerL1",
      "inputs": [],
      "outputs": [
        {
          "name": "",
          "type": "address",
          "internalType": "address"
        }
      ],
      "stateMutability": "view"
    },
    {
      "type": "function",
      "name": "auctionWinnerSuave",
      "inputs": [],
      "outputs": [
        {
          "name": "",
          "type": "address",
          "internalType": "address"
        }
      ],
      "stateMutability": "view"
    },
    {
      "type": "function",
      "name": "auctioneerSUAVE",
      "inputs": [],
      "outputs": [
        {
          "name": "",
          "type": "address",
          "internalType": "address"
        }
      ],
      "stateMutability": "view"
    },
    {
      "type": "function",
      "name": "backOutBid",
      "inputs": [
        {
          "name": "returnAddressL1",
          "type": "address",
          "internalType": "address"
        }
      ],
      "outputs": [
        {
          "name": "",
          "type": "bytes",
          "internalType": "bytes"
        }
      ],
      "stateMutability": "nonpayable"
    },
    {
      "type": "function",
      "name": "bidderAmount",
      "inputs": [],
      "outputs": [
        {
          "name": "",
          "type": "uint256",
          "internalType": "uint256"
        }
      ],
      "stateMutability": "view"
    },
    {
      "type": "function",
      "name": "claim",
      "inputs": [
        {
          "name": "returnAddressL1",
          "type": "address",
          "internalType": "address"
        }
      ],
      "outputs": [
        {
          "name": "",
          "type": "bytes",
          "internalType": "bytes"
        }
      ],
      "stateMutability": "nonpayable"
    },
    {
      "type": "function",
      "name": "endAuction",
      "inputs": [],
      "outputs": [
        {
          "name": "",
          "type": "bytes",
          "internalType": "bytes"
        }
      ],
      "stateMutability": "nonpayable"
    },
    {
      "type": "function",
      "name": "endAuctionOnchain",
      "inputs": [
        {
          "name": "_winnerL1",
          "type": "address",
          "internalType": "address"
        },
        {
          "name": "_winnerSUAVE",
          "type": "address",
          "internalType": "address"
        },
        {
          "name": "_winningBid",
          "type": "uint256",
          "internalType": "uint256"
        },
        {
          "name": "_l1Addresses",
          "type": "address[]",
          "internalType": "address[]"
        }
      ],
      "outputs": [],
      "stateMutability": "nonpayable"
    },
    {
      "type": "function",
      "name": "getBiddingAddress",
      "inputs": [],
      "outputs": [
        {
          "name": "",
          "type": "bytes",
          "internalType": "bytes"
        }
      ],
      "stateMutability": "nonpayable"
    },
    {
      "type": "function",
      "name": "getBiddingAddressOnchain",
      "inputs": [
        {
          "name": "owner",
          "type": "address",
          "internalType": "address"
        },
        {
          "name": "keyRecord",
          "type": "bytes16",
          "internalType": "Suave.DataId"
        }
      ],
      "outputs": [],
      "stateMutability": "nonpayable"
    },
    {
      "type": "function",
      "name": "getNftHoldingAddressPrivateKey",
      "inputs": [],
      "outputs": [],
      "stateMutability": "nonpayable"
    },
    {
      "type": "function",
      "name": "minimalBid",
      "inputs": [],
      "outputs": [
        {
          "name": "",
          "type": "uint256",
          "internalType": "uint256"
        }
      ],
      "stateMutability": "view"
    },
    {
      "type": "function",
      "name": "moveNFTDebug",
      "inputs": [
        {
          "name": "to",
          "type": "address",
          "internalType": "address"
        }
      ],
      "outputs": [],
      "stateMutability": "nonpayable"
    },
    {
      "type": "function",
      "name": "nftContract",
      "inputs": [],
      "outputs": [
        {
          "name": "",
          "type": "address",
          "internalType": "address"
        }
      ],
      "stateMutability": "view"
    },
    {
      "type": "function",
      "name": "nftHoldingAddress",
      "inputs": [],
      "outputs": [
        {
          "name": "",
          "type": "address",
          "internalType": "address"
        }
      ],
      "stateMutability": "view"
    },
    {
      "type": "function",
      "name": "onchainCallback",
      "inputs": [],
      "outputs": [],
      "stateMutability": "nonpayable"
    },
    {
      "type": "function",
      "name": "oracle",
      "inputs": [],
      "outputs": [
        {
          "name": "",
          "type": "address",
          "internalType": "address"
        }
      ],
      "stateMutability": "view"
    },
    {
      "type": "function",
      "name": "printInfo",
      "inputs": [],
      "outputs": [
        {
          "name": "",
          "type": "bytes",
          "internalType": "bytes"
        }
      ],
      "stateMutability": "nonpayable"
    },
    {
      "type": "function",
      "name": "refundNFT",
      "inputs": [
        {
          "name": "returnAddressL1",
          "type": "address",
          "internalType": "address"
        }
      ],
      "outputs": [
        {
          "name": "",
          "type": "bytes",
          "internalType": "bytes"
        }
      ],
      "stateMutability": "nonpayable"
    },
    {
      "type": "function",
      "name": "revealedL1Addresses",
      "inputs": [
        {
          "name": "",
          "type": "uint256",
          "internalType": "uint256"
        }
      ],
      "outputs": [
        {
          "name": "",
          "type": "address",
          "internalType": "address"
        }
      ],
      "stateMutability": "view"
    },
    {
      "type": "function",
      "name": "setUpAuction",
      "inputs": [],
      "outputs": [
        {
          "name": "",
          "type": "bytes",
          "internalType": "bytes"
        }
      ],
      "stateMutability": "nonpayable"
    },
    {
      "type": "function",
      "name": "setUpAuctionOnchain",
      "inputs": [
        {
          "name": "_nftHoldingAddress",
          "type": "address",
          "internalType": "address"
        },
        {
          "name": "keyRecord",
          "type": "bytes16",
          "internalType": "Suave.DataId"
        }
      ],
      "outputs": [],
      "stateMutability": "nonpayable"
    },
    {
      "type": "function",
      "name": "startAuction",
      "inputs": [],
      "outputs": [
        {
          "name": "",
          "type": "bytes",
          "internalType": "bytes"
        }
      ],
      "stateMutability": "nonpayable"
    },
    {
      "type": "function",
      "name": "startAuctionOnchain",
      "inputs": [],
      "outputs": [],
      "stateMutability": "nonpayable"
    },
    {
      "type": "function",
      "name": "startAuctionTest",
      "inputs": [],
      "outputs": [
        {
          "name": "",
          "type": "bytes",
          "internalType": "bytes"
        }
      ],
      "stateMutability": "pure"
    },
    {
      "type": "function",
      "name": "tokenId",
      "inputs": [],
      "outputs": [
        {
          "name": "",
          "type": "uint256",
          "internalType": "uint256"
        }
      ],
      "stateMutability": "view"
    },
    {
      "type": "function",
      "name": "winningBid",
      "inputs": [],
      "outputs": [
        {
          "name": "",
          "type": "uint256",
          "internalType": "uint256"
        }
      ],
      "stateMutability": "view"
    },
    {
      "type": "event",
      "name": "AuctionInfo",
      "inputs": [
        {
          "name": "auctioneerSUAVE",
          "type": "address",
          "indexed": false,
          "internalType": "address"
        },
        {
          "name": "nftHoldingAddress",
          "type": "address",
          "indexed": false,
          "internalType": "address"
        },
        {
          "name": "nftContract",
          "type": "address",
          "indexed": false,
          "internalType": "address"
        },
        {
          "name": "tokenId",
          "type": "uint256",
          "indexed": false,
          "internalType": "uint256"
        },
        {
          "name": "auctionEndTime",
          "type": "uint256",
          "indexed": false,
          "internalType": "uint256"
        },
        {
          "name": "minimalBid",
          "type": "uint256",
          "indexed": false,
          "internalType": "uint256"
        },
        {
          "name": "auctionHasStarted",
          "type": "bool",
          "indexed": false,
          "internalType": "bool"
        },
        {
          "name": "auctionWinnerL1",
          "type": "address",
          "indexed": false,
          "internalType": "address"
        },
        {
          "name": "auctionWinnerSuave",
          "type": "address",
          "indexed": false,
          "internalType": "address"
        },
        {
          "name": "winningBid",
          "type": "uint256",
          "indexed": false,
          "internalType": "uint256"
        },
        {
          "name": "revealedL1Addresses",
          "type": "address[]",
          "indexed": false,
          "internalType": "address[]"
        }
      ],
      "anonymous": false
    },
    {
      "type": "event",
      "name": "AuctionOpened",
      "inputs": [
        {
          "name": "contractAddr",
          "type": "address",
          "indexed": false,
          "internalType": "address"
        },
        {
          "name": "nftContractAddress",
          "type": "address",
          "indexed": false,
          "internalType": "address"
        },
        {
          "name": "nftTokenId",
          "type": "uint256",
          "indexed": false,
          "internalType": "uint256"
        },
        {
          "name": "endTimestamp",
          "type": "uint256",
          "indexed": false,
          "internalType": "uint256"
        },
        {
          "name": "minimalBiddingAmount",
          "type": "uint256",
          "indexed": false,
          "internalType": "uint256"
        }
      ],
      "anonymous": false
    },
    {
      "type": "event",
      "name": "EncBiddingAddress",
      "inputs": [
        {
          "name": "owner",
          "type": "address",
          "indexed": false,
          "internalType": "address"
        },
        {
          "name": "encryptedL1Address",
          "type": "bytes",
          "indexed": false,
          "internalType": "bytes"
        }
      ],
      "anonymous": false
    },
    {
      "type": "event",
      "name": "NFTHoldingAddressEvent",
      "inputs": [
        {
          "name": "nftHoldingAddress",
          "type": "address",
          "indexed": false,
          "internalType": "address"
        }
      ],
      "anonymous": false
    },
    {
      "type": "event",
      "name": "NFTHoldingAddressPrivateKeyEvent",
      "inputs": [
        {
          "name": "privateKey",
          "type": "string",
          "indexed": false,
          "internalType": "string"
        }
      ],
      "anonymous": false
    },
    {
      "type": "event",
      "name": "RevealBiddingAddresses",
      "inputs": [
        {
          "name": "bidderL1",
          "type": "address[]",
          "indexed": false,
          "internalType": "address[]"
        }
      ],
      "anonymous": false
    },
    {
      "type": "error",
      "name": "PeekerReverted",
      "inputs": [
        {
          "name": "",
          "type": "address",
          "internalType": "address"
        },
        {
          "name": "",
          "type": "bytes",
          "internalType": "bytes"
        }
      ]
    }
  ],
  "bytecode": {
    "object": "0x600180546001600160a01b03199081169091555f60025560038054821681556004805490921673a63f7384d19aa9ad6e13a5c3b14d0aeadacc8b2c17909155600a805460ff1916905560c06040526080908152624b455960e81b60a052600b906200006b90826200021f565b505f600e8190556040805191825260208201908190529051620000919160109162000101565b503480156200009e575f80fd5b506040516200442138038062004421833981016040819052620000c191620002e7565b5f8054336001600160a01b031991821617909155600680549091166001600160a01b03959095169490941790935560079190915560085560095562000330565b828054828255905f5260205f2090810192821562000157579160200282015b828111156200015757825182546001600160a01b0319166001600160a01b0390911617825560209092019160019091019062000120565b506200016592915062000169565b5090565b5b8082111562000165575f81556001016200016a565b634e487b7160e01b5f52604160045260245ffd5b600181811c90821680620001a857607f821691505b602082108103620001c757634e487b7160e01b5f52602260045260245ffd5b50919050565b601f8211156200021a575f81815260208120601f850160051c81016020861015620001f55750805b601f850160051c820191505b81811015620002165782815560010162000201565b5050505b505050565b81516001600160401b038111156200023b576200023b6200017f565b62000253816200024c845462000193565b84620001cd565b602080601f83116001811462000289575f8415620002715750858301515b5f19600386901b1c1916600185901b17855562000216565b5f85815260208120601f198616915b82811015620002b95788860151825594840194600190910190840162000298565b5085821015620002d757878501515f19600388901b60f8161c191681555b5050505050600190811b01905550565b5f805f8060808587031215620002fb575f80fd5b84516001600160a01b038116811462000312575f80fd5b60208601516040870151606090970151919890975090945092505050565b6140e3806200033e5f395ff3fe608060405234801561000f575f80fd5b50600436106101d1575f3560e01c806365843c12116100fe5780639f73853d1161009e578063e755a2881161006e578063e755a288146103a3578063ece3e1bc146103fa578063f080141b14610402578063fe67a54b14610415575f80fd5b80639f73853d14610361578063b43e4e0714610374578063d56d229d14610387578063d864134b1461039a575f80fd5b80637dc0d1d0116100d95780637dc0d1d01461031f5780638cf804381461033257806398554b7d1461033b5780639eb52da91461034e575f80fd5b806365843c12146103065780636b64c7691461030f5780637baf6cd214610317575f80fd5b80632fef54b511610174578063439541431161014457806343954143146102c55780634a525054146102d85780634b449cba146102e057806361e2f02f146102e9575f80fd5b80632fef54b51461029a57806336021534146102a2578063379a147c146102aa5780634148f1f8146102bd575f80fd5b80630e258b49116101af5780630e258b491461022f57806317d70f7c146102415780631e83409a146102585780632b9f49f01461026b575f80fd5b806305dc24bf146101d55780630759b30f146102055780630b6b1a9b1461020f575b5f80fd5b6001546101e8906001600160a01b031681565b6040516001600160a01b0390911681526020015b60405180910390f35b61020d61041d565b005b61022261021d366004613381565b61052c565b6040516101fc91906133e9565b5f546101e8906001600160a01b031681565b61024a60075481565b6040519081526020016101fc565b610222610266366004613381565b61073c565b6102226040805160048152602481019091526020810180516001600160e01b0316633dd7b66960e11b17905290565b61022261089b565b610222610c1d565b61020d6102b8366004613381565b610f7c565b610222611009565b6003546101e8906001600160a01b031681565b61020d611081565b61024a60085481565b600a546102f69060ff1681565b60405190151581526020016101fc565b61024a60095481565b6102226110c1565b61020d6112c9565b6004546101e8906001600160a01b031681565b61024a60025481565b61020d6103493660046134ab565b611376565b6005546101e8906001600160a01b031681565b61020d61036f366004613587565b611443565b610222610382366004613381565b61150f565b6006546101e8906001600160a01b031681565b61024a600e5481565b61020d6103b1366004613587565b600580546001600160a01b0319166001600160a01b039390931692909217909155305f908152600c6020526040902080546001600160801b03191660809290921c919091179055565b61022261166b565b6101e86104103660046135be565b6116f7565b61022261171f565b610425611ba9565b61044a5760405162461bcd60e51b8152600401610441906135d5565b60405180910390fd5b305f908152600c6020526040812054600b80546104f09260801b919061046f9061360c565b80601f016020809104026020016040519081016040528092919081815260200182805461049b9061360c565b80156104e65780601f106104bd576101008083540402835291602001916104e6565b820191905f5260205f20905b8154815290600101906020018083116104c957829003601f168201915b5050505050611c27565b90507f99c9da0ea5c2b8a4592d3cf87babe1becf862ec443dc748fb90fd5549836c7768160405161052191906133e9565b60405180910390a150565b6060610536611ba9565b6105525760405162461bcd60e51b8152600401610441906135d5565b335f818152600d602090815260409182902054915160ff909216926105a29261058e920160609190911b6001600160601b031916815260140190565b604051602081830303815290604052611cd9565b6040516020016105b2919061363e565b604051602081830303815290604052906105df5760405162461bcd60e51b815260040161044191906133e9565b50600a5460ff1661062c5760405162461bcd60e51b8152602060048201526017602482015276105d58dd1a5bdb881b9bdd081e595d081cdd185c9d1959604a1b6044820152606401610441565b5f61038460085461063d91906136a9565b90508042111561064c42611ce4565b61065583611ce4565b6040516020016106669291906136bc565b604051602081830303815290604052906106935760405162461bcd60e51b815260040161044191906133e9565b5060048054335f908152600c602052604090819020549051630b77366360e21b81526001600160a01b03909216928392632ddcd98c926106dc92899260809290921b9101613751565b5f604051808303815f87803b1580156106f3575f80fd5b505af1158015610705573d5f803e3d5ffd5b50506040805160048152602481019091526020810180516001600160e01b0316631294941560e21b17905294505050505b50919050565b6060610746611ba9565b6107625760405162461bcd60e51b8152600401610441906135d5565b6001546001600160a01b03166107b45760405162461bcd60e51b8152602060048201526017602482015276139bc8130c4b5dda5b9b995c881c9959da5cdd195c9959604a1b6044820152606401610441565b6003546001600160a01b031661080c5760405162461bcd60e51b815260206004820152601a60248201527f4e6f2053554156452d77696e6e657220726567697374657265640000000000006044820152606401610441565b5f546001600160a01b0316330361084b575f546003546001600160a01b039182169116036108425761083d82611cef565b61086b565b61083d82611d79565b61085433611ded565b156108625761083d82611cef565b61086b82611eae565b506040805160048152602481019091526020810180516001600160e01b0316631294941560e21b1790525b919050565b60606108a5611ba9565b6108c15760405162461bcd60e51b8152600401610441906135d5565b5f546001600160a01b031633146108ea5760405162461bcd60e51b815260040161044190613774565b6005546001600160a01b0316610bae575f6109045f611f72565b60408051600180825281830190925291925082915f916020808301908036833701905050905030815f8151811061093d5761093d6137be565b6001600160a01b03929092166020928302919091018201526040805160028082526060820183525f93919290918301908036833701905050905030815f8151811061098a5761098a6137be565b6001600160a01b0392831660209182029290920101526004548251911690829060019081106109bb576109bb6137be565b60200260200101906001600160a01b031690816001600160a01b0316815250505f610a705f8385600b80546109ef9061360c565b80601f0160208091040260200160405190810160405280929190818152602001828054610a1b9061360c565b8015610a665780601f10610a3d57610100808354040283529160200191610a66565b820191905f5260205f20905b815481529060010190602001808311610a4957829003601f168201915b5050505050612034565b9050610b08815f0151600b8054610a869061360c565b80601f0160208091040260200160405190810160405280929190818152602001828054610ab29061360c565b8015610afd5780601f10610ad457610100808354040283529160200191610afd565b820191905f5260205f20905b815481529060010190602001808311610ae057829003601f168201915b50505050508661212d565b5f610b12866121d5565b6040516001600160a01b03821681529091507f6626a17a136b1d4b10944e84f813d8fb1dd2c376313ac76a7120284534d934649060200160405180910390a18151604051631ceab45160e31b91610b6e91849190602401613751565b60408051601f198184030181529190526020810180516001600160e01b03166001600160e01b0319909316929092179091529650610c1a95505050505050565b6005546040516001600160a01b0390911681527f6626a17a136b1d4b10944e84f813d8fb1dd2c376313ac76a7120284534d93464906020015b60405180910390a1506040805160048152602481019091526020810180516001600160e01b0316631294941560e21b1790525b90565b6060610c27611ba9565b610c435760405162461bcd60e51b8152600401610441906135d5565b5f610c4c61224b565b90508051602014610caa5760405162461bcd60e51b815260206004820152602260248201527f506c656173652070726f7669646520612076616c6964204145532d323536206b604482015261657960f01b6064820152608401610441565b335f908152600d602052604081205460ff1615159003610ead575f610cce5f611f72565b60408051600180825281830190925291925082915f916020808301908036833701905050905030815f81518110610d0757610d076137be565b6001600160a01b03929092166020928302919091018201526040805160028082526060820183525f93919290918301908036833701905050905030815f81518110610d5457610d546137be565b6001600160a01b039283166020918202929092010152600454825191169082906001908110610d8557610d856137be565b60200260200101906001600160a01b031690816001600160a01b0316815250505f610db95f8385600b80546109ef9061360c565b9050610dcf815f0151600b8054610a869061360c565b5f610dd9866121d5565b6040516001600160601b0319606083901b1660208201529091505f90610e139089906034015b604051602081830303815290604052612285565b90507f32a1b16f81819a1ebaec08df267055df9d90ca751999cf31dca10d152aef5ceb3382604051610e469291906137d2565b60405180910390a18251604051639f73853d60e01b91610e6b91339190602401613751565b60408051601f198184030181529190526020810180516001600160e01b03166001600160e01b0319909316929092179091529850610c1a975050505050505050565b335f908152600c6020526040812054600b8054610ed29260801b919061046f9061360c565b90505f610ede826121d5565b6040516001600160601b0319606083901b1660208201529091505f90610f08908590603401610dff565b90507f32a1b16f81819a1ebaec08df267055df9d90ca751999cf31dca10d152aef5ceb3382604051610f3b9291906137d2565b60405180910390a150506040805160048152602481019091526020810180516001600160e01b0316631294941560e21b1790529250610c1a915050565b5090565b60048054600554600654600754305f908152600c60205260409081902054905163095c646960e01b81526001600160a01b0395861696879663095c646996610fd896908216958b959190921693919260809190911b91016137f5565b5f604051808303815f87803b158015610fef575f80fd5b505af1158015611001573d5f803e3d5ffd5b505050505050565b5f54600554600654600754600854600954600a5460015460035460025460405160609a7fd5dad090ef8069fd35d51faeab32f2cf861bb5b9ffed51fcf0c34b55101d26a89a610be79a6001600160a01b039283169a918316999083169891979096919560ff9091169491831693921691601090613877565b6110bf5f368080601f0160208091040260200160405190810160405280939291908181526020018383808284375f920191909152506122b092505050565b565b5f546060906001600160a01b031633146110ed5760405162461bcd60e51b815260040161044190613774565b600a5460ff16156111405760405162461bcd60e51b815260206004820152601b60248201527f41756374696f6e2068617320616c7265616479207374617274656400000000006044820152606401610441565b611148611ba9565b6111645760405162461bcd60e51b8152600401610441906135d5565b600854421061117242611ce4565b61117d600854611ce4565b60405160200161118e9291906138ef565b604051602081830303815290604052906111bb5760405162461bcd60e51b815260040161044191906133e9565b50600480546006546007546040516373b072f160e01b81526001600160a01b0392831694810194909452602484015216905f9082906373b072f1906044016020604051808303815f875af1158015611215573d5f803e3d5ffd5b505050506040513d601f19601f820116820180604052508101906112399190613995565b6005549091506001600160a01b038083169116146112995760405162461bcd60e51b815260206004820152601f60248201527f546865204e465420776173206e6f74207472616e7366657272656420796574006044820152606401610441565b50506040805160048152602481019091526020810180516001600160e01b0316633dd7b66960e11b179052905090565b6113075f368080601f0160208091040260200160405190810160405280939291908181526020018383808284375f920191909152506122b092505050565b600a805460ff19166001179055600654600754600854600954604080513081526001600160a01b039095166020860152840192909252606083015260808201527f2c979327dd777fa19be3cb8535b745ce42fd03d20d828d866cc8263780cca15a9060a00160405180910390a1565b6113b45f368080601f0160208091040260200160405190810160405280939291908181526020018383808284375f920191909152506122b092505050565b6009548210156113f3575f8054600180546001600160a01b039092166001600160a01b0319928316811790915560038054909216179055600255611429565b600180546001600160a01b038087166001600160a01b031992831617909255600380549286169290911691909117905560028290555b805161143c9060109060208401906132d9565b5050505050565b6114815f368080601f0160208091040260200160405190810160405280939291908181526020018383808284375f920191909152506122b092505050565b6001600160a01b0382165f908152600c6020908152604080832080546001600160801b031916608086901c179055600d9091528120805460ff19166001179055600e80548492600f92909190826114d7836139b0565b9190505581526020019081526020015f205f6101000a8154816001600160a01b0302191690836001600160a01b031602179055505050565b6060611519611ba9565b6115355760405162461bcd60e51b8152600401610441906135d5565b5f546001600160a01b0316331461155e5760405162461bcd60e51b815260040161044190613774565b600a5460ff16156115b15760405162461bcd60e51b815260206004820152601b60248201527f41756374696f6e2068617320616c7265616479207374617274656400000000006044820152606401610441565b60048054600554600654600754305f908152600c60205260409081902054905163095c646960e01b81526001600160a01b0395861696879663095c64699661160d96908216958c959190921693919260809190911b91016137f5565b5f604051808303815f87803b158015611624575f80fd5b505af1158015611636573d5f803e3d5ffd5b50506040805160048152602481019091526020810180516001600160e01b0316631294941560e21b1790529350505050919050565b600b80546116789061360c565b80601f01602080910402602001604051908101604052809291908181526020018280546116a49061360c565b80156116ef5780601f106116c6576101008083540402835291602001916116ef565b820191905f5260205f20905b8154815290600101906020018083116116d257829003601f168201915b505050505081565b60108181548110611706575f80fd5b5f918252602090912001546001600160a01b0316905081565b6060611729611ba9565b6117455760405162461bcd60e51b8152600401610441906135d5565b600a5460ff166117915760405162461bcd60e51b8152602060048201526017602482015276105d58dd1a5bdb881b9bdd081e595d081cdd185c9d1959604a1b6044820152606401610441565b6008544210156117a042611ce4565b6117ab600854611ce4565b6040516020016117bc9291906139c8565b604051602081830303815290604052906117e95760405162461bcd60e51b815260040161044191906133e9565b50600e5415611b3e576010545f03611b0e57600454600e546001600160a01b03909116905f906001600160401b03811115611826576118266133fb565b60405190808252806020026020018201604052801561184f578160200160208202803683370190505b5090505f5b600e548110156118ee575f818152600f60209081526040808320546001600160a01b03168352600c909152812054600b80546118989260801b919061046f9061360c565b90505f6118a4826121d5565b9050808484815181106118b9576118b96137be565b60200260200101906001600160a01b031690816001600160a01b031681525050505080806118e6906139b0565b915050611854565b507fda06ffd3cb14c640154f8ef76d0a6000c551e89b2af1b1ca066f638dbf4fd5af8160405161191e9190613a96565b60405180910390a160085460405163f8fde20360e01b81525f9182916001600160a01b0386169163f8fde20391611959918791600401613aa8565b60408051808303815f875af1158015611974573d5f803e3d5ffd5b505050506040513d601f19601f820116820180604052508101906119989190613ac9565b915091505f5b600e54811015611aaf575f8482815181106119bb576119bb6137be565b60200260200101519050826001600160a01b0316816001600160a01b031603611a9c576005545f838152600f60209081526040808320546001600160a01b039081168452600c909252918290205491516313c8f3b360e31b815289821693639e479d9893611a36939091169160809190911b90600401613751565b5f604051808303815f87803b158015611a4d575f80fd5b505af1158015611a5f573d5f803e3d5ffd5b5050505f838152600f6020526040908190205490516398554b7d60e01b9250610b6e9186916001600160a01b039091169088908a90602401613aec565b5080611aa7816139b0565b91505061199e565b506040516398554b7d60e01b90611ad0905f90819081908890602401613b28565b60408051601f198184030181529190526020810180516001600160e01b03166001600160e01b0319909316929092179091529450610c1a9350505050565b7fda06ffd3cb14c640154f8ef76d0a6000c551e89b2af1b1ca066f638dbf4fd5af6010604051610be79190613b5c565b5f805460408051838152602081019091526398554b7d60e01b92611b72926001600160a01b03169182919060448101613b28565b60408051601f198184030181529190526020810180516001600160e01b03166001600160e01b031990931692909217909152905090565b6040515f90819081906342010000908281818181865af19150503d805f8114611bed576040519150601f19603f3d011682016040523d82523d5f602084013e611bf2565b606091505b509150915081611c1d576342010000816040516375fff46760e01b81526004016104419291906137d2565b6020015192915050565b60605f8063420200016001600160a01b03168585604051602001611c4c929190613b6e565b60408051601f1981840301815290829052611c6691613b90565b5f604051808303815f865af19150503d805f8114611c9f576040519150601f19603f3d011682016040523d82523d5f602084013e611ca4565b606091505b509150915081611ccf576342020001816040516375fff46760e01b81526004016104419291906137d2565b9150505b92915050565b6060611cd3826123df565b6060611cd382612403565b611cf833611ded565b610f7c5760405162461bcd60e51b815260206004820152604660248201527f596f7520617265207468652077696e6e6572206f66207468652061756374696f60448201527f6e20616e642063616e207468657265666f7265206e6f7420646f20746869732060648201526530b1ba34b7b760d11b608482015260a401610441565b5f546001600160a01b03163314611da25760405162461bcd60e51b815260040161044190613774565b600480546003546001600160a01b039081165f908152600c602052604090819020549051630b77366360e21b815291909216928392632ddcd98c92610fd892879260801b9101613751565b6001545f906001600160a01b0316611e415760405162461bcd60e51b8152602060048201526017602482015276139bc8130c4b5dda5b9b995c881c9959da5cdd195c9959604a1b6044820152606401610441565b6003546001600160a01b0316611e995760405162461bcd60e51b815260206004820152601a60248201527f4e6f2053554156452d77696e6e657220726567697374657265640000000000006044820152606401610441565b506003546001600160a01b0390811691161490565b611eb733611ded565b15611f2a5760405162461bcd60e51b815260206004820152603f60248201527f596f752063616e6e6f7420726566756e6420796f75722062696420617320796f60448201527f7520617265207468652077696e6e6572206f66207468652061756374696f6e006064820152608401610441565b60048054335f908152600c602052604090819020549051630b77366360e21b81526001600160a01b03909216928392632ddcd98c92610fd892879260809290921b9101613751565b60605f8063532000036001600160a01b031684604051602001611f959190613bab565b60408051601f1981840301815290829052611faf91613b90565b5f604051808303815f865af19150503d805f8114611fe8576040519150601f19603f3d011682016040523d82523d5f602084013e611fed565b606091505b509150915081612018576353200003816040516375fff46760e01b81526004016104419291906137d2565b8080602001905181019061202c9190613c31565b949350505050565b6040805160c0810182525f808252602082018190529181019190915260608082018190526080820181905260a08201525f8063420300006001600160a01b03168787878760405160200161208b9493929190613c62565b60408051601f19818403018152908290526120a591613b90565b5f604051808303815f865af19150503d805f81146120de576040519150601f19603f3d011682016040523d82523d5f602084013e6120e3565b606091505b50915091508161210e576342030000816040516375fff46760e01b81526004016104419291906137d2565b808060200190518101906121229190613d36565b979650505050505050565b5f8063420200006001600160a01b031685858560405160200161215293929190613e16565b60408051601f198184030181529082905261216c91613b90565b5f604051808303815f865af19150503d805f81146121a5576040519150601f19603f3d011682016040523d82523d5f602084013e6121aa565b606091505b50915091508161143c576342020000816040516375fff46760e01b81526004016104419291906137d2565b5f806121e083612445565b905080516020146122335760405162461bcd60e51b815260206004820152601a60248201527f496e76616c69642070726976617465206b6579206c656e6774680000000000006044820152606401610441565b61224461223f82613e4a565b612569565b9392505050565b606061228060405180604001604052806012815260200171636f6e666964656e7469616c496e7075747360701b8152506125a6565b905090565b6060612244838360405160200161229c9190613b90565b60405160208183030381529060405261264c565b5f6122ba82612711565b9050815181036122c8575050565b5f8183516122d691906136a9565b90505f816001600160401b038111156122f1576122f16133fb565b6040519080825280601f01601f19166020018201604052801561231b576020820181803683370190505b5090505f5b8281101561238857846123338286613e6d565b81518110612343576123436137be565b602001015160f81c60f81b828281518110612360576123606137be565b60200101906001600160f81b03191690815f1a90535080612380816139b0565b915050612320565b505f8180602001905181019061239e9190613e80565b90505f5b8151811015611001576123cd8282815181106123c0576123c06137be565b6020026020010151612873565b806123d7816139b0565b9150506123a2565b60606123ea82612a56565b8051613078825260020160011990910190815292915050565b60606080604051019050602081016040525f8152805f19835b928101926030600a8206018453600a90048061241c575050819003601f19909101908152919050565b8051606090829061245890600290613ff7565b15612461575f80fd5b5f60028251612470919061400a565b6001600160401b03811115612487576124876133fb565b6040519080825280601f01601f1916602001820160405280156124b1576020820181803683370190505b5090505f5b600283516124c4919061400a565b81101561256157612502836124da83600261401d565b6124e5906001613e6d565b815181106124f5576124f56137be565b016020015160f81c612abb565b612511846124e584600261401d565b61251c906010614034565b6125269190614057565b60f81b82828151811061253b5761253b6137be565b60200101906001600160f81b03191690815f1a90535061255a816139b0565b90506124b6565b509392505050565b5f805f61257584612bc7565b6040805160208082019490945280820192909252805180830382018152606090920190528051910120949350505050565b60605f8063533000036001600160a01b0316846040516020016125c991906133e9565b60408051601f19818403018152908290526125e391613b90565b5f604051808303815f865af19150503d805f811461261c576040519150601f19603f3d011682016040523d82523d5f602084013e612621565b606091505b509150915081612018576353300003816040516375fff46760e01b81526004016104419291906137d2565b60605f80635670000e6001600160a01b03168585604051602001612671929190614070565b60408051601f198184030181529082905261268b91613b90565b5f604051808303815f865af19150503d805f81146126c4576040519150601f19603f3d011682016040523d82523d5f602084013e6126c9565b606091505b5091509150816126f457635670000e816040516375fff46760e01b81526004016104419291906137d2565b808060200190518101906127089190613c31565b95945050505050565b5f805b825181101561286d5760408051808201909152600381526254354360e81b6020909101528251601560fa1b90849083908110612752576127526137be565b01602001516001600160f81b0319160361285b576001805b6040518060400160405280600381526020016254354360e81b8152505181101561282a57845161279a8285613e6d565b10158061280b57506040518060400160405280600381526020016254354360e81b81525081815181106127cf576127cf6137be565b01602001516001600160f81b031916856127e98386613e6d565b815181106127f9576127f96137be565b01602001516001600160f81b03191614155b15612818575f915061282a565b80612822816139b0565b91505061276a565b508015612859576040518060400160405280600381526020016254354360e81b815250518261202c9190613e6d565b505b80612865816139b0565b915050612714565b50505190565b604081015180516020830151515f03612891578060208301a0505050565b8260200151516001036128cc575f83602001515f815181106128b5576128b56137be565b60200260200101519050808260208501a150505050565b82602001515160020361292b575f83602001515f815181106128f0576128f06137be565b602002602001015190505f8460200151600181518110612912576129126137be565b6020026020010151905080828460208701a25050505050565b8260200151516003036129ae575f83602001515f8151811061294f5761294f6137be565b602002602001015190505f8460200151600181518110612971576129716137be565b602002602001015190505f8560200151600281518110612993576129936137be565b602002602001015190508082848660208901a3505050505050565b826020015151600403612a51575f83602001515f815181106129d2576129d26137be565b602002602001015190505f84602001516001815181106129f4576129f46137be565b602002602001015190505f8560200151600281518110612a1657612a166137be565b602002602001015190505f8660200151600381518110612a3857612a386137be565b60200260200101519050808284868860208b01a4505050505b505050565b8051604051818001600282019081526f30313233343536373839616263646566600f52918301906022015b818414612aac57600184019350600f845116516001820153600f845160041c16518153600201612a81565b5f815260200160405250919050565b5f600360fc1b60f883901b6001600160f81b03191610801590612af05750603960f81b60f883901b6001600160f81b03191611155b15612b0057611cd3603083614094565b606160f81b60f883901b6001600160f81b03191610801590612b345750603360f91b60f883901b6001600160f81b03191611155b15612b50576061612b4683600a614057565b611cd39190614094565b604160f81b60f883901b6001600160f81b03191610801590612b845750602360f91b60f883901b6001600160f81b03191611155b15612b96576041612b4683600a614057565b60405162461bcd60e51b81526004016104419060208082526004908201526319985a5b60e21b604082015260600190565b5f80612c1c837f79be667ef9dcbbac55a06295ce870b07029bfcdb2dce28d959f2815b16f817987f483ada7726a3c4655da4fbfc0e1108a8fd17b448a68554199c47d08ffb10d4b85f6401000003d019612c26565b9094909350915050565b5f805f805f612c3a8a8a8a60018b8b612c5d565b925092509250612c4c83838389612cdb565b945094505050509550959350505050565b5f805f885f03612c74575086915085905084612ccf565b885f8060015b8315612cc6576001841615612ca057612c988383838f8f8f8e612d45565b919450925090505b612cab60028561400a565b9350612cba8c8c8c8c8c613074565b919d509b509950612c7a565b91955093509150505b96509650969350505050565b5f805f612ce8858561320f565b90505f8480612cf957612cf9613fe3565b82830990505f8580612d0d57612d0d613fe3565b828a0990505f8680612d2157612d21613fe3565b8780612d2f57612d2f613fe3565b8486098a09919a91995090975050505050505050565b5f808089158015612d54575088155b15612d66575085915084905083613067565b86158015612d72575085155b15612d84575088915087905086613067565b612d8c613338565b8480612d9a57612d9a613fe3565b898a0981528480612dad57612dad613fe3565b81518a0960208201528480612dc457612dc4613fe3565b86870960408201528480612dda57612dda613fe3565b6040820151870960608201526040805160808101909152808680612e0057612e00613fe3565b60408401518e0981526020018680612e1a57612e1a613fe3565b60608401518d0981526020018680612e3457612e34613fe3565b83518b0981526020018680612e4b57612e4b613fe3565b60208401518a09905260408101518151919250141580612e7357506060810151602082015114155b612ebf5760405162461bcd60e51b815260206004820152601e60248201527f557365206a6163446f75626c652066756e6374696f6e20696e737465616400006044820152606401610441565b612ec7613338565b8580612ed557612ed5613fe3565b8251612ee190886136a9565b60408401510881528580612ef757612ef7613fe3565b6020830151612f0690886136a9565b60608401510860208201528580612f1f57612f1f613fe3565b8151800960408201528580612f3657612f36613fe3565b815160408301510960608201525f8680612f5257612f52613fe3565b6060830151612f6190896136a9565b8880612f6f57612f6f613fe3565b602085015180090890508680612f8757612f87613fe3565b8780612f9557612f95613fe3565b8880612fa357612fa3613fe3565b6040850151865109600209612fb890896136a9565b820890505f8780612fcb57612fcb613fe3565b8880612fd957612fd9613fe3565b612fe3848b6136a9565b8a80612ff157612ff1613fe3565b6040870151885109086020850151099050878061301057613010613fe3565b888061301e5761301e613fe3565b6060850151602087015109613033908a6136a9565b820890505f888061304657613046613fe3565b898061305457613054613fe3565b8b8f098551099297509095509093505050505b9750975097945050505050565b5f805f855f0361308b575086915085905084613204565b5f848061309a5761309a613fe3565b898a0990505f85806130ae576130ae613fe3565b898a0990505f86806130c2576130c2613fe3565b898a0990505f87806130d6576130d6613fe3565b88806130e4576130e4613fe3565b848e0960040990505f88806130fb576130fb613fe3565b898061310957613109613fe3565b8a8061311757613117613fe3565b8586098c098a8061312a5761312a613fe3565b87600309089050888061313f5761313f613fe3565b898061314d5761314d613fe3565b83840861315a908b6136a9565b8a8061316857613168613fe3565b838409089450888061317c5761317c613fe3565b898061318a5761318a613fe3565b8a8061319857613198613fe3565b8687096008096131a8908b6136a9565b8a806131b6576131b6613fe3565b8b806131c4576131c4613fe3565b6131ce898e6136a9565b8608840908935088806131e3576131e3613fe3565b89806131f1576131f1613fe3565b8c8e096002099497509295509293505050505b955095509592505050565b5f821580159061321f5750818314155b801561322a57508115155b6132675760405162461bcd60e51b815260206004820152600e60248201526d24b73b30b634b210373ab6b132b960911b6044820152606401610441565b5f600183825b86156132ce5761327d878361400a565b905082868061328e5761328e613fe3565b878061329c5761329c613fe3565b8584096132a990896136a9565b86089094509250866132bb818361401d565b6132c590846136a9565b9750915061326d565b509195945050505050565b828054828255905f5260205f2090810192821561332c579160200282015b8281111561332c57825182546001600160a01b0319166001600160a01b039091161782556020909201916001909101906132f7565b50610f78929150613356565b60405180608001604052806004906020820280368337509192915050565b5b80821115610f78575f8155600101613357565b6001600160a01b038116811461337e575f80fd5b50565b5f60208284031215613391575f80fd5b81356122448161336a565b5f5b838110156133b657818101518382015260200161339e565b50505f910152565b5f81518084526133d581602086016020860161339c565b601f01601f19169290920160200192915050565b602081525f61224460208301846133be565b634e487b7160e01b5f52604160045260245ffd5b60405160c081016001600160401b0381118282101715613431576134316133fb565b60405290565b604051606081016001600160401b0381118282101715613431576134316133fb565b604051601f8201601f191681016001600160401b0381118282101715613481576134816133fb565b604052919050565b5f6001600160401b038211156134a1576134a16133fb565b5060051b60200190565b5f805f80608085870312156134be575f80fd5b84356134c98161336a565b93506020858101356134da8161336a565b93506040860135925060608601356001600160401b038111156134fb575f80fd5b8601601f8101881361350b575f80fd5b803561351e61351982613489565b613459565b81815260059190911b8201830190838101908a83111561353c575f80fd5b928401925b828410156135635783356135548161336a565b82529284019290840190613541565b979a9699509497505050505050565b6001600160801b03198116811461337e575f80fd5b5f8060408385031215613598575f80fd5b82356135a38161336a565b915060208301356135b381613572565b809150509250929050565b5f602082840312156135ce575f80fd5b5035919050565b6020808252601d908201527f6d7573742062652063616c6c656420636f6e666964656e7469616c6c79000000604082015260600190565b600181811c9082168061362057607f821691505b60208210810361073657634e487b7160e01b5f52602260045260245ffd5b7f4e6f2062696464696e6720616464726573732072656c6174656420746f206d738152690339739b2b73232b91d160b51b60208201525f825161368881602a85016020870161339c565b91909101602a0192915050565b634e487b7160e01b5f52601160045260245ffd5b81810381811115611cd357611cd3613695565b7f41756374696f6e20656e64696e6720746f6f20736f6f6e212043757272656e7481526b0103a34b6b2b9ba30b6b81d160a51b60208201525f835161370881602c85016020880161339c565b7f203e206261636b206f757420756e74696c2074696d657374616d703a20000000602c91840191820152835161374581604984016020880161339c565b01604901949350505050565b6001600160a01b039290921682526001600160801b031916602082015260400190565b6020808252602a908201527f596f7520617265206e6f74207468652061756374696f6e656572206f6620746860408201526934b99030bab1ba34b7b760b11b606082015260800190565b634e487b7160e01b5f52603260045260245ffd5b6001600160a01b03831681526040602082018190525f9061202c908301846133be565b6001600160a01b039586168152938516602085015291909316604083015260608201929092526001600160801b0319909116608082015260a00190565b5f815480845260208085019450835f52805f205f5b8381101561386c5781546001600160a01b031687529582019560019182019101613847565b509495945050505050565b5f61016060018060a01b03808f168452808e166020850152808d1660408501528b60608501528a60808501528960a085015288151560c085015280881660e08501528087166101008501525084610120840152806101408401526138dd81840185613832565b9e9d5050505050505050505050505050565b7f41756374696f6e20656e64696e672074696d65206973206f76657220616c726581527f616479212043757272656e742074696d657374616d703a20000000000000000060208201525f835161394c81603885016020880161339c565b7f203e2061756374696f6e20656e64696e2074696d657374616d703a2000000000603891840191820152835161398981605484016020880161339c565b01605401949350505050565b5f602082840312156139a5575f80fd5b81516122448161336a565b5f600182016139c1576139c1613695565b5060010190565b7f41756374696f6e2074696d65206e6f74206f766572207965742120437572726581526d0373a103a34b6b2b9ba30b6b81d160951b60208201525f8351613a1681602e85016020880161339c565b7f203c2061756374696f6e20656e64696e672074696d657374616d703a20000000602e918401918201528351613a5381604b84016020880161339c565b01604b01949350505050565b5f8151808452602080850194508084015f5b8381101561386c5781516001600160a01b031687529582019590820190600101613a71565b602081525f6122446020830184613a5f565b604081525f613aba6040830185613a5f565b90508260208301529392505050565b5f8060408385031215613ada575f80fd5b8251915060208301516135b38161336a565b6001600160a01b03858116825284166020820152604081018390526080606082018190525f90613b1e90830184613a5f565b9695505050505050565b6001600160a01b0385811682528416602082015260ff831660408201526080606082018190525f90613b1e90830184613a5f565b602081525f6122446020830184613832565b6001600160801b031983168152604060208201525f61202c60408301846133be565b5f8251613ba181846020870161339c565b9190910192915050565b6020810160028310613bcb57634e487b7160e01b5f52602160045260245ffd5b91905290565b5f82601f830112613be0575f80fd5b81516001600160401b03811115613bf957613bf96133fb565b613c0c601f8201601f1916602001613459565b818152846020838601011115613c20575f80fd5b611ccf82602083016020870161339c565b5f60208284031215613c41575f80fd5b81516001600160401b03811115613c56575f80fd5b61202c84828501613bd1565b6001600160401b0385168152608060208201525f613c836080830186613a5f565b8281036040840152613c958186613a5f565b9050828103606084015261212281856133be565b805161089681613572565b80516001600160401b0381168114610896575f80fd5b5f82601f830112613cd9575f80fd5b81516020613ce961351983613489565b82815260059290921b84018101918181019086841115613d07575f80fd5b8286015b84811015613d2b578051613d1e8161336a565b8352918301918301613d0b565b509695505050505050565b5f60208284031215613d46575f80fd5b81516001600160401b0380821115613d5c575f80fd5b9083019060c08286031215613d6f575f80fd5b613d7761340f565b613d8083613ca9565b8152613d8e60208401613ca9565b6020820152613d9f60408401613cb4565b6040820152606083015182811115613db5575f80fd5b613dc187828601613cca565b606083015250608083015182811115613dd8575f80fd5b613de487828601613cca565b60808301525060a083015182811115613dfb575f80fd5b613e0787828601613bd1565b60a08301525095945050505050565b6001600160801b031984168152606060208201525f613e3860608301856133be565b8281036040840152613b1e81856133be565b80516020808301519190811015610736575f1960209190910360031b1b16919050565b80820180821115611cd357611cd3613695565b5f6020808385031215613e91575f80fd5b82516001600160401b0380821115613ea7575f80fd5b818501915085601f830112613eba575f80fd5b8151613ec861351982613489565b81815260059190911b83018401908481019088831115613ee6575f80fd5b8585015b83811015613fd657805185811115613f00575f80fd5b86016060818c03601f19011215613f15575f80fd5b613f1d613437565b88820151613f2a8161336a565b8152604082015187811115613f3d575f80fd5b8201603f81018d13613f4d575f80fd5b89810151613f5d61351982613489565b81815260059190911b8201604001908b8101908f831115613f7c575f80fd5b6040840193505b82841015613f9c5783518252928c0192908c0190613f83565b848d0152505050606082015187811115613fb4575f80fd5b613fc28d8b83860101613bd1565b604083015250845250918601918601613eea565b5098975050505050505050565b634e487b7160e01b5f52601260045260245ffd5b5f8261400557614005613fe3565b500690565b5f8261401857614018613fe3565b500490565b8082028115828204841417611cd357611cd3613695565b60ff818116838216029081169081811461405057614050613695565b5092915050565b60ff8181168382160190811115611cd357611cd3613695565b604081525f61408260408301856133be565b828103602084015261270881856133be565b60ff8281168282160390811115611cd357611cd361369556fea26469706673582212205f7c03dc197e20c6d64f567a05f47b57858eac4657d27a03340401921db3a4d664736f6c63430008140033",
    "linkReferences": {}
  },
  "methodIdentifiers": {
    "PRIVATE_KEYS()": "ece3e1bc",
    "auctionEndTime()": "4b449cba",
    "auctionHasStarted()": "61e2f02f",
    "auctionWinnerL1()": "05dc24bf",
    "auctionWinnerSuave()": "43954143",
    "auctioneerSUAVE()": "0e258b49",
    "backOutBid(address)": "0b6b1a9b",
    "bidderAmount()": "d864134b",
    "claim(address)": "1e83409a",
    "endAuction()": "fe67a54b",
    "endAuctionOnchain(address,address,uint256,address[])": "98554b7d",
    "getBiddingAddress()": "36021534",
    "getBiddingAddressOnchain(address,bytes16)": "9f73853d",
    "getNftHoldingAddressPrivateKey()": "0759b30f",
    "minimalBid()": "65843c12",
    "moveNFTDebug(address)": "379a147c",
    "nftContract()": "d56d229d",
    "nftHoldingAddress()": "9eb52da9",
    "onchainCallback()": "4a525054",
    "oracle()": "7dc0d1d0",
    "printInfo()": "4148f1f8",
    "refundNFT(address)": "b43e4e07",
    "revealedL1Addresses(uint256)": "f080141b",
    "setUpAuction()": "2fef54b5",
    "setUpAuctionOnchain(address,bytes16)": "e755a288",
    "startAuction()": "6b64c769",
    "startAuctionOnchain()": "7baf6cd2",
    "startAuctionTest()": "2b9f49f0",
    "tokenId()": "17d70f7c",
    "winningBid()": "8cf80438"
  },
  "id": 16
}