{
  "abi": [
    {
      "type": "constructor",
      "inputs": [
        {
          "name": "nftContractAddress",
          "type": "address",
          "internalType": "address"
        },
        {
          "name": "nftTokenId",
          "type": "uint256",
          "internalType": "uint256"
        },
        {
          "name": "_auctionEndTime",
          "type": "uint256",
          "internalType": "uint256"
        },
        {
          "name": "minimalBiddingAmount",
          "type": "uint256",
          "internalType": "uint256"
        },
        {
          "name": "oracleAddress",
          "type": "address",
          "internalType": "address"
        }
      ],
      "stateMutability": "nonpayable"
    },
    {
      "type": "function",
      "name": "PRIVATE_KEYS",
      "inputs": [],
      "outputs": [
        {
          "name": "",
          "type": "string",
          "internalType": "string"
        }
      ],
      "stateMutability": "view"
    },
    {
      "type": "function",
      "name": "auctionEndTime",
      "inputs": [],
      "outputs": [
        {
          "name": "",
          "type": "uint256",
          "internalType": "uint256"
        }
      ],
      "stateMutability": "view"
    },
    {
      "type": "function",
      "name": "auctionHasStarted",
      "inputs": [],
      "outputs": [
        {
          "name": "",
          "type": "bool",
          "internalType": "bool"
        }
      ],
      "stateMutability": "view"
    },
    {
      "type": "function",
      "name": "auctionWinnerL1",
      "inputs": [],
      "outputs": [
        {
          "name": "",
          "type": "address",
          "internalType": "address"
        }
      ],
      "stateMutability": "view"
    },
    {
      "type": "function",
      "name": "auctionWinnerSuave",
      "inputs": [],
      "outputs": [
        {
          "name": "",
          "type": "address",
          "internalType": "address"
        }
      ],
      "stateMutability": "view"
    },
    {
      "type": "function",
      "name": "auctioneerSUAVE",
      "inputs": [],
      "outputs": [
        {
          "name": "",
          "type": "address",
          "internalType": "address"
        }
      ],
      "stateMutability": "view"
    },
    {
      "type": "function",
      "name": "backOutBid",
      "inputs": [
        {
          "name": "returnAddressL1",
          "type": "address",
          "internalType": "address"
        }
      ],
      "outputs": [
        {
          "name": "",
          "type": "bytes",
          "internalType": "bytes"
        }
      ],
      "stateMutability": "nonpayable"
    },
    {
      "type": "function",
      "name": "bidderAmount",
      "inputs": [],
      "outputs": [
        {
          "name": "",
          "type": "uint256",
          "internalType": "uint256"
        }
      ],
      "stateMutability": "view"
    },
    {
      "type": "function",
      "name": "claim",
      "inputs": [
        {
          "name": "returnAddressL1",
          "type": "address",
          "internalType": "address"
        }
      ],
      "outputs": [
        {
          "name": "",
          "type": "bytes",
          "internalType": "bytes"
        }
      ],
      "stateMutability": "nonpayable"
    },
    {
      "type": "function",
      "name": "endAuction",
      "inputs": [],
      "outputs": [
        {
          "name": "",
          "type": "bytes",
          "internalType": "bytes"
        }
      ],
      "stateMutability": "nonpayable"
    },
    {
      "type": "function",
      "name": "endAuctionCallback",
      "inputs": [
        {
          "name": "_winner",
          "type": "address",
          "internalType": "address"
        },
        {
          "name": "_winningBid",
          "type": "uint256",
          "internalType": "uint256"
        },
        {
          "name": "_l1Addresses",
          "type": "address[]",
          "internalType": "address[]"
        }
      ],
      "outputs": [
        {
          "name": "",
          "type": "bytes",
          "internalType": "bytes"
        }
      ],
      "stateMutability": "nonpayable"
    },
    {
      "type": "function",
      "name": "endAuctionOnchain",
      "inputs": [
        {
          "name": "_winnerL1",
          "type": "address",
          "internalType": "address"
        },
        {
          "name": "_winnerSUAVE",
          "type": "address",
          "internalType": "address"
        },
        {
          "name": "_winningBid",
          "type": "uint256",
          "internalType": "uint256"
        },
        {
          "name": "_l1Addresses",
          "type": "address[]",
          "internalType": "address[]"
        }
      ],
      "outputs": [],
      "stateMutability": "nonpayable"
    },
    {
      "type": "function",
      "name": "getBiddingAddress",
      "inputs": [],
      "outputs": [
        {
          "name": "",
          "type": "bytes",
          "internalType": "bytes"
        }
      ],
      "stateMutability": "nonpayable"
    },
    {
      "type": "function",
      "name": "getBiddingAddressOnchain",
      "inputs": [
        {
          "name": "owner",
          "type": "address",
          "internalType": "address"
        },
        {
          "name": "keyRecord",
          "type": "bytes16",
          "internalType": "Suave.DataId"
        }
      ],
      "outputs": [],
      "stateMutability": "nonpayable"
    },
    {
      "type": "function",
      "name": "getNftHoldingAddressPrivateKey",
      "inputs": [],
      "outputs": [
        {
          "name": "",
          "type": "bytes",
          "internalType": "bytes"
        }
      ],
      "stateMutability": "nonpayable"
    },
    {
      "type": "function",
      "name": "minimalBid",
      "inputs": [],
      "outputs": [
        {
          "name": "",
          "type": "uint256",
          "internalType": "uint256"
        }
      ],
      "stateMutability": "view"
    },
    {
      "type": "function",
      "name": "moveNFTDebug",
      "inputs": [
        {
          "name": "to",
          "type": "address",
          "internalType": "address"
        }
      ],
      "outputs": [
        {
          "name": "",
          "type": "bytes",
          "internalType": "bytes"
        }
      ],
      "stateMutability": "nonpayable"
    },
    {
      "type": "function",
      "name": "nftContract",
      "inputs": [],
      "outputs": [
        {
          "name": "",
          "type": "address",
          "internalType": "address"
        }
      ],
      "stateMutability": "view"
    },
    {
      "type": "function",
      "name": "nftHoldingAddress",
      "inputs": [],
      "outputs": [
        {
          "name": "",
          "type": "address",
          "internalType": "address"
        }
      ],
      "stateMutability": "view"
    },
    {
      "type": "function",
      "name": "onchainCallback",
      "inputs": [],
      "outputs": [],
      "stateMutability": "nonpayable"
    },
    {
      "type": "function",
      "name": "oracle",
      "inputs": [],
      "outputs": [
        {
          "name": "",
          "type": "address",
          "internalType": "address"
        }
      ],
      "stateMutability": "view"
    },
    {
      "type": "function",
      "name": "printInfo",
      "inputs": [],
      "outputs": [
        {
          "name": "",
          "type": "bytes",
          "internalType": "bytes"
        }
      ],
      "stateMutability": "nonpayable"
    },
    {
      "type": "function",
      "name": "refundNFT",
      "inputs": [
        {
          "name": "returnAddressL1",
          "type": "address",
          "internalType": "address"
        }
      ],
      "outputs": [
        {
          "name": "",
          "type": "bytes",
          "internalType": "bytes"
        }
      ],
      "stateMutability": "nonpayable"
    },
    {
      "type": "function",
      "name": "revealedL1Addresses",
      "inputs": [
        {
          "name": "",
          "type": "uint256",
          "internalType": "uint256"
        }
      ],
      "outputs": [
        {
          "name": "",
          "type": "address",
          "internalType": "address"
        }
      ],
      "stateMutability": "view"
    },
    {
      "type": "function",
      "name": "setUpAuction",
      "inputs": [],
      "outputs": [
        {
          "name": "",
          "type": "bytes",
          "internalType": "bytes"
        }
      ],
      "stateMutability": "nonpayable"
    },
    {
      "type": "function",
      "name": "setUpAuctionOnchain",
      "inputs": [
        {
          "name": "_nftHoldingAddress",
          "type": "address",
          "internalType": "address"
        },
        {
          "name": "keyRecord",
          "type": "bytes16",
          "internalType": "Suave.DataId"
        }
      ],
      "outputs": [],
      "stateMutability": "nonpayable"
    },
    {
      "type": "function",
      "name": "startAuction",
      "inputs": [],
      "outputs": [
        {
          "name": "",
          "type": "bytes",
          "internalType": "bytes"
        }
      ],
      "stateMutability": "nonpayable"
    },
    {
      "type": "function",
      "name": "startAuctionOnchain",
      "inputs": [],
      "outputs": [],
      "stateMutability": "nonpayable"
    },
    {
      "type": "function",
      "name": "startAuctionTest",
      "inputs": [],
      "outputs": [
        {
          "name": "",
          "type": "bytes",
          "internalType": "bytes"
        }
      ],
      "stateMutability": "pure"
    },
    {
      "type": "function",
      "name": "tokenId",
      "inputs": [],
      "outputs": [
        {
          "name": "",
          "type": "uint256",
          "internalType": "uint256"
        }
      ],
      "stateMutability": "view"
    },
    {
      "type": "function",
      "name": "winningBid",
      "inputs": [],
      "outputs": [
        {
          "name": "",
          "type": "uint256",
          "internalType": "uint256"
        }
      ],
      "stateMutability": "view"
    },
    {
      "type": "event",
      "name": "AuctionInfo",
      "inputs": [
        {
          "name": "auctioneerSUAVE",
          "type": "address",
          "indexed": false,
          "internalType": "address"
        },
        {
          "name": "nftHoldingAddress",
          "type": "address",
          "indexed": false,
          "internalType": "address"
        },
        {
          "name": "nftContract",
          "type": "address",
          "indexed": false,
          "internalType": "address"
        },
        {
          "name": "tokenId",
          "type": "uint256",
          "indexed": false,
          "internalType": "uint256"
        },
        {
          "name": "auctionEndTime",
          "type": "uint256",
          "indexed": false,
          "internalType": "uint256"
        },
        {
          "name": "minimalBid",
          "type": "uint256",
          "indexed": false,
          "internalType": "uint256"
        },
        {
          "name": "auctionHasStarted",
          "type": "bool",
          "indexed": false,
          "internalType": "bool"
        },
        {
          "name": "auctionWinnerL1",
          "type": "address",
          "indexed": false,
          "internalType": "address"
        },
        {
          "name": "auctionWinnerSuave",
          "type": "address",
          "indexed": false,
          "internalType": "address"
        },
        {
          "name": "winningBid",
          "type": "uint256",
          "indexed": false,
          "internalType": "uint256"
        },
        {
          "name": "revealedL1Addresses",
          "type": "address[]",
          "indexed": false,
          "internalType": "address[]"
        }
      ],
      "anonymous": false
    },
    {
      "type": "event",
      "name": "AuctionOpened",
      "inputs": [
        {
          "name": "contractAddr",
          "type": "address",
          "indexed": false,
          "internalType": "address"
        },
        {
          "name": "nftContractAddress",
          "type": "address",
          "indexed": false,
          "internalType": "address"
        },
        {
          "name": "nftTokenId",
          "type": "uint256",
          "indexed": false,
          "internalType": "uint256"
        },
        {
          "name": "endTimestamp",
          "type": "uint256",
          "indexed": false,
          "internalType": "uint256"
        },
        {
          "name": "minimalBiddingAmount",
          "type": "uint256",
          "indexed": false,
          "internalType": "uint256"
        }
      ],
      "anonymous": false
    },
    {
      "type": "event",
      "name": "EncBiddingAddress",
      "inputs": [
        {
          "name": "owner",
          "type": "address",
          "indexed": false,
          "internalType": "address"
        },
        {
          "name": "encryptedL1Address",
          "type": "bytes",
          "indexed": false,
          "internalType": "bytes"
        }
      ],
      "anonymous": false
    },
    {
      "type": "event",
      "name": "NFTHoldingAddressEvent",
      "inputs": [
        {
          "name": "nftHoldingAddress",
          "type": "address",
          "indexed": false,
          "internalType": "address"
        }
      ],
      "anonymous": false
    },
    {
      "type": "event",
      "name": "NFTHoldingAddressPrivateKeyEvent",
      "inputs": [
        {
          "name": "privateKey",
          "type": "string",
          "indexed": false,
          "internalType": "string"
        }
      ],
      "anonymous": false
    },
    {
      "type": "event",
      "name": "RevealBiddingAddresses",
      "inputs": [
        {
          "name": "bidderL1",
          "type": "address[]",
          "indexed": false,
          "internalType": "address[]"
        }
      ],
      "anonymous": false
    },
    {
      "type": "error",
      "name": "PeekerReverted",
      "inputs": [
        {
          "name": "",
          "type": "address",
          "internalType": "address"
        },
        {
          "name": "",
          "type": "bytes",
          "internalType": "bytes"
        }
      ]
    }
  ],
  "bytecode": {
    "object": "0x600180546001600160a01b03199081169091556000600255600380549091168155600a805460ff1916905560c06040526080908152624b455960e81b60a052600b906200004d908262000217565b506000600e81905560408051918252602082019081905290516200007491601091620000f1565b503480156200008257600080fd5b50604051620048bd380380620048bd833981016040819052620000a59162000300565b600080546001600160a01b03199081163317909155600680546001600160a01b039788169083161790556007949094556008929092556009556004805491909316911617905562000355565b82805482825590600052602060002090810192821562000149579160200282015b828111156200014957825182546001600160a01b0319166001600160a01b0390911617825560209092019160019091019062000112565b50620001579291506200015b565b5090565b5b808211156200015757600081556001016200015c565b634e487b7160e01b600052604160045260246000fd5b600181811c908216806200019d57607f821691505b602082108103620001be57634e487b7160e01b600052602260045260246000fd5b50919050565b601f8211156200021257600081815260208120601f850160051c81016020861015620001ed5750805b601f850160051c820191505b818110156200020e57828155600101620001f9565b5050505b505050565b81516001600160401b0381111562000233576200023362000172565b6200024b8162000244845462000188565b84620001c4565b602080601f8311600181146200028357600084156200026a5750858301515b600019600386901b1c1916600185901b1785556200020e565b600085815260208120601f198616915b82811015620002b45788860151825594840194600190910190840162000293565b5085821015620002d35787850151600019600388901b60f8161c191681555b5050505050600190811b01905550565b80516001600160a01b0381168114620002fb57600080fd5b919050565b600080600080600060a086880312156200031957600080fd5b6200032486620002e3565b94506020860151935060408601519250606086015191506200034960808701620002e3565b90509295509295909350565b61455880620003656000396000f3fe608060405234801561001057600080fd5b50600436106101e55760003560e01c806365843c121161010f578063b43e4e07116100a2578063e755a28811610071578063e755a288146103cc578063ece3e1bc14610424578063f080141b1461042c578063fe67a54b1461043f57600080fd5b8063b43e4e071461038a578063d56d229d1461039d578063d864134b146103b0578063e68c5f04146103b957600080fd5b80638cf80438116100de5780638cf804381461034857806398554b7d146103515780639eb52da9146103645780639f73853d1461037757600080fd5b806365843c121461031c5780636b64c769146103255780637baf6cd21461032d5780637dc0d1d01461033557600080fd5b80632fef54b511610187578063439541431161015657806343954143146102d95780634a525054146102ec5780634b449cba146102f657806361e2f02f146102ff57600080fd5b80632fef54b5146102ae57806336021534146102b6578063379a147c146102be5780634148f1f8146102d157600080fd5b80630e258b49116101c35780630e258b491461024257806317d70f7c146102555780631e83409a1461026c5780632b9f49f01461027f57600080fd5b806305dc24bf146101ea5780630759b30f1461021a5780630b6b1a9b1461022f575b600080fd5b6001546101fd906001600160a01b031681565b6040516001600160a01b0390911681526020015b60405180910390f35b610222610447565b6040516102119190613692565b61022261023d3660046136bd565b61058f565b6000546101fd906001600160a01b031681565b61025e60075481565b604051908152602001610211565b61022261027a3660046136bd565b610756565b6102226040805160048152602481019091526020810180516001600160e01b0316633dd7b66960e11b17905290565b6102226108fa565b610222610c8a565b6102226102cc3660046136bd565b610fd9565b610222611084565b6003546101fd906001600160a01b031681565b6102f46110fd565b005b61025e60085481565b600a5461030c9060ff1681565b6040519015158152602001610211565b61025e60095481565b61022261113f565b6102f461134c565b6004546101fd906001600160a01b031681565b61025e60025481565b6102f461035f366004613801565b6113fb565b6005546101fd906001600160a01b031681565b6102f4610385366004613882565b611546565b6102226103983660046136bd565b611617565b6006546101fd906001600160a01b031681565b61025e600e5481565b6102226103c73660046138bb565b611717565b6102f46103da366004613882565b600580546001600160a01b0319166001600160a01b039390931692909217909155306000908152600c6020526040902080546001600160801b03191660809290921c919091179055565b6102226119f6565b6101fd61043a366004613913565b611a84565b610222611aae565b6060610451611da9565b6104765760405162461bcd60e51b815260040161046d9061392c565b60405180910390fd5b306000908152600c6020526040812054600b805461051f9260801b919061049c90613963565b80601f01602080910402602001604051908101604052809291908181526020018280546104c890613963565b80156105155780601f106104ea57610100808354040283529160200191610515565b820191906000526020600020905b8154815290600101906020018083116104f857829003601f168201915b5050505050611e2a565b90507f99c9da0ea5c2b8a4592d3cf87babe1becf862ec443dc748fb90fd5549836c77661054b82611edf565b6040516105589190613692565b60405180910390a150506040805160048152602481019091526020810180516001600160e01b0316631294941560e21b1790525b90565b6060610599611da9565b6105b55760405162461bcd60e51b815260040161046d9061392c565b336000818152600d602090815260409182902054915160ff909216926105f3926105df9201613997565b604051602081830303815290604052611edf565b60405160200161060391906139b4565b604051602081830303815290604052906106305760405162461bcd60e51b815260040161046d9190613692565b50600a5460ff166106535760405162461bcd60e51b815260040161046d90613a0c565b60006103846008546106659190613a59565b90508042111561067442611eea565b61067d83611eea565b60405160200161068e929190613a6c565b604051602081830303815290604052906106bb5760405162461bcd60e51b815260040161046d9190613692565b5060048054336000908152600c602052604090819020549051630b77366360e21b81526001600160a01b03909216928392632ddcd98c9261070592899260809290921b9101613b02565b6000604051808303816000875af1158015610724573d6000803e3d6000fd5b505050506040513d6000823e601f3d908101601f1916820160405261074c9190810190613b88565b9250505b50919050565b6060610760611da9565b61077c5760405162461bcd60e51b815260040161046d9061392c565b600a5460ff1661079e5760405162461bcd60e51b815260040161046d90613a0c565b6008544210156107ad42611eea565b6107b8600854611eea565b6040516020016107c9929190613bbc565b604051602081830303815290604052906107f65760405162461bcd60e51b815260040161046d9190613692565b506001546001600160a01b03166108495760405162461bcd60e51b8152602060048201526017602482015276139bc8130c4b5dda5b9b995c881c9959da5cdd195c9959604a1b604482015260640161046d565b6003546001600160a01b03166108a15760405162461bcd60e51b815260206004820152601a60248201527f4e6f2053554156452d77696e6e65722072656769737465726564000000000000604482015260640161046d565b6000546001600160a01b0316331480156108c157506108bf33611ef5565b155b156108d5576108cf82612029565b92915050565b6108de33611ef5565b156108ec576108cf826120a2565b6108cf82612177565b919050565b6060610904611da9565b6109205760405162461bcd60e51b815260040161046d9061392c565b6000546001600160a01b0316331461094a5760405162461bcd60e51b815260040161046d90613c54565b6005546001600160a01b0316610c1c57600061096660006121f5565b60408051600180825281830190925291925082916000916020808301908036833701905050905030816000815181106109a1576109a1613c9e565b6001600160a01b0392909216602092830291909101820152604080516002808252606082018352600093919290918301908036833701905050905030816000815181106109f0576109f0613c9e565b6001600160a01b039283166020918202929092010152600454825191169082906001908110610a2157610a21613c9e565b60200260200101906001600160a01b031690816001600160a01b0316815250506000610ada60008385600b8054610a5790613963565b80601f0160208091040260200160405190810160405280929190818152602001828054610a8390613963565b8015610ad05780601f10610aa557610100808354040283529160200191610ad0565b820191906000526020600020905b815481529060010190602001808311610ab357829003601f168201915b50505050506122b4565b9050610b758160000151600b8054610af190613963565b80601f0160208091040260200160405190810160405280929190818152602001828054610b1d90613963565b8015610b6a5780601f10610b3f57610100808354040283529160200191610b6a565b820191906000526020600020905b815481529060010190602001808311610b4d57829003601f168201915b5050505050866123b3565b6000610b8086612460565b6040516001600160a01b03821681529091507f6626a17a136b1d4b10944e84f813d8fb1dd2c376313ac76a7120284534d934649060200160405180910390a18151604051631ceab45160e31b91610bdc91849190602401613b02565b60408051601f198184030181529190526020810180516001600160e01b03166001600160e01b031990931692909217909152965061058c95505050505050565b6005546040516001600160a01b0390911681527f6626a17a136b1d4b10944e84f813d8fb1dd2c376313ac76a7120284534d93464906020015b60405180910390a1506040805160048152602481019091526020810180516001600160e01b0316631294941560e21b17905290565b6060610c94611da9565b610cb05760405162461bcd60e51b815260040161046d9061392c565b6000610cba6124d0565b90508051602014610d185760405162461bcd60e51b815260206004820152602260248201527f506c656173652070726f7669646520612076616c6964204145532d323536206b604482015261657960f01b606482015260840161046d565b336000908152600d602052604081205460ff1615159003610f19576000610d3f60006121f5565b6040805160018082528183019092529192508291600091602080830190803683370190505090503081600081518110610d7a57610d7a613c9e565b6001600160a01b039290921660209283029190910182015260408051600280825260608201835260009391929091830190803683370190505090503081600081518110610dc957610dc9613c9e565b6001600160a01b039283166020918202929092010152600454825191169082906001908110610dfa57610dfa613c9e565b60200260200101906001600160a01b031690816001600160a01b0316815250506000610e3060008385600b8054610a5790613963565b9050610e478160000151600b8054610af190613963565b6000610e5286612460565b90506000610e7f8883604051602001610e6b9190613997565b60405160208183030381529060405261250a565b90507f32a1b16f81819a1ebaec08df267055df9d90ca751999cf31dca10d152aef5ceb3382604051610eb2929190613cb4565b60405180910390a18251604051639f73853d60e01b91610ed791339190602401613b02565b60408051601f198184030181529190526020810180516001600160e01b03166001600160e01b031990931692909217909152985061058c975050505050505050565b336000908152600c6020526040812054600b8054610f3f9260801b919061049c90613963565b90506000610f4c82612460565b90506000610f658483604051602001610e6b9190613997565b90507f32a1b16f81819a1ebaec08df267055df9d90ca751999cf31dca10d152aef5ceb3382604051610f98929190613cb4565b60405180910390a150506040805160048152602481019091526020810180516001600160e01b0316631294941560e21b179052925061058c915050565b5090565b60048054600554600654600754306000908152600c60205260409081902054905163095c646960e01b81526060966001600160a01b0396871696879663095c64699661103696918316958c959190931693919260801b9101613cd8565b6000604051808303816000875af1158015611055573d6000803e3d6000fd5b505050506040513d6000823e601f3d908101601f1916820160405261107d9190810190613b88565b9392505050565b600054600554600654600754600854600954600a5460015460035460025460405160609a7fd5dad090ef8069fd35d51faeab32f2cf861bb5b9ffed51fcf0c34b55101d26a89a610c559a6001600160a01b039283169a918316999083169891979096919560ff9091169491831693921691601090613d5e565b61113d6000368080601f01602080910402602001604051908101604052809392919081815260200183838082843760009201919091525061253592505050565b565b6000546060906001600160a01b0316331461116c5760405162461bcd60e51b815260040161046d90613c54565b600a5460ff16156111bf5760405162461bcd60e51b815260206004820152601b60248201527f41756374696f6e2068617320616c726561647920737461727465640000000000604482015260640161046d565b6111c7611da9565b6111e35760405162461bcd60e51b815260040161046d9061392c565b60085442106111f142611eea565b6111fc600854611eea565b60405160200161120d929190613dd7565b6040516020818303038152906040529061123a5760405162461bcd60e51b815260040161046d9190613692565b50600480546006546007546040516373b072f160e01b81526001600160a01b03928316948101949094526024840152169060009082906373b072f1906044016020604051808303816000875af1158015611298573d6000803e3d6000fd5b505050506040513d601f19601f820116820180604052508101906112bc9190613e7e565b6005549091506001600160a01b0380831691161461131c5760405162461bcd60e51b815260206004820152601f60248201527f546865204e465420776173206e6f74207472616e736665727265642079657400604482015260640161046d565b50506040805160048152602481019091526020810180516001600160e01b0316633dd7b66960e11b179052905090565b61138c6000368080601f01602080910402602001604051908101604052809392919081815260200183838082843760009201919091525061253592505050565b600a805460ff19166001179055600654600754600854600954604080513081526001600160a01b039095166020860152840192909252606083015260808201527f2c979327dd777fa19be3cb8535b745ce42fd03d20d828d866cc8263780cca15a9060a00160405180910390a1565b600a5460ff1661141d5760405162461bcd60e51b815260040161046d90613a0c565b60085442101561142c42611eea565b611437600854611eea565b604051602001611448929190613bbc565b604051602081830303815290604052906114755760405162461bcd60e51b815260040161046d9190613692565b506114b66000368080601f01602080910402602001604051908101604052809392919081815260200183838082843760009201919091525061253592505050565b6009548210156114f657600180546001600160a01b031990811690915560008054600380549093166001600160a01b03919091161790915560025561152c565b600180546001600160a01b038087166001600160a01b031992831617909255600380549286169290911691909117905560028290555b805161153f9060109060208401906135ae565b5050505050565b6115866000368080601f01602080910402602001604051908101604052809392919081815260200183838082843760009201919091525061253592505050565b6001600160a01b0382166000908152600c6020908152604080832080546001600160801b031916608086901c179055600d9091528120805460ff19166001179055600e80548492600f92909190826115dd83613e9b565b91905055815260200190815260200160002060006101000a8154816001600160a01b0302191690836001600160a01b031602179055505050565b6060611621611da9565b61163d5760405162461bcd60e51b815260040161046d9061392c565b6000546001600160a01b031633146116675760405162461bcd60e51b815260040161046d90613c54565b600a5460ff16156116ba5760405162461bcd60e51b815260206004820152601b60248201527f41756374696f6e2068617320616c726561647920737461727465640000000000604482015260640161046d565b60048054600554600654600754306000908152600c60205260409081902054905163095c646960e01b81526001600160a01b0395861696879663095c64699661103696908216958c959190921693919260809190911b9101613cd8565b6060611721611da9565b61173d5760405162461bcd60e51b815260040161046d9061392c565b600a5460ff1661175f5760405162461bcd60e51b815260040161046d90613a0c565b60085442101561176e42611eea565b611779600854611eea565b60405160200161178a929190613bbc565b604051602081830303815290604052906117b75760405162461bcd60e51b815260040161046d9190613692565b506004546001600160a01b031633146118255760405162461bcd60e51b815260206004820152602a60248201527f4f6e6c7920746865206f7261636c652063616e20706572666f726d20746869736044820152691037b832b930ba34b7b760b11b606482015260840161046d565b60005b600e548110156119ab576000818152600f60209081526040808320546001600160a01b03168352600c909152812054600b805461186d9260801b919061049c90613963565b9050600061187a82612460565b9050866001600160a01b0316816001600160a01b03160361199657600480546005546000868152600f60209081526040808320546001600160a01b039081168452600c909252918290205491516313c8f3b360e31b815293811694639e479d98946118ed949092169260801b9101613b02565b600060405180830381600087803b15801561190757600080fd5b505af115801561191b573d6000803e3d6000fd5b5050506000848152600f6020526040908190205490516398554b7d60e01b9250611959918a916001600160a01b03909116908a908a90602401613eed565b60408051601f198184030181529190526020810180516001600160e01b03166001600160e01b031990931692909217909152935061107d92505050565b505080806119a390613e9b565b915050611828565b506119c0846040516020016105df9190613997565b6040516020016119d09190613f2a565b60408051601f198184030181529082905262461bcd60e51b825261046d91600401613692565b600b8054611a0390613963565b80601f0160208091040260200160405190810160405280929190818152602001828054611a2f90613963565b8015611a7c5780601f10611a5157610100808354040283529160200191611a7c565b820191906000526020600020905b815481529060010190602001808311611a5f57829003601f168201915b505050505081565b60108181548110611a9457600080fd5b6000918252602090912001546001600160a01b0316905081565b6060611ab8611da9565b611ad45760405162461bcd60e51b815260040161046d9061392c565b600a5460ff16611af65760405162461bcd60e51b815260040161046d90613a0c565b600854421015611b0542611eea565b611b10600854611eea565b604051602001611b21929190613bbc565b60405160208183030381529060405290611b4e5760405162461bcd60e51b815260040161046d9190613692565b50600e5415611d3d57601054600003611d0d57600454600e546001600160a01b03909116906000906001600160401b03811115611b8d57611b8d6136da565b604051908082528060200260200182016040528015611bb6578160200160208202803683370190505b50905060005b600e54811015611c58576000818152600f60209081526040808320546001600160a01b03168352600c909152812054600b8054611c019260801b919061049c90613963565b90506000611c0e82612460565b905080848481518110611c2357611c23613c9e565b60200260200101906001600160a01b031690816001600160a01b03168152505050508080611c5090613e9b565b915050611bbc565b507fda06ffd3cb14c640154f8ef76d0a6000c551e89b2af1b1ca066f638dbf4fd5af81604051611c889190613f86565b60405180910390a160085460405163f8fde20360e01b81526001600160a01b0384169163f8fde20391611cbf918591600401613f99565b6000604051808303816000875af1158015611cde573d6000803e3d6000fd5b505050506040513d6000823e601f3d908101601f19168201604052611d069190810190613b88565b9250505090565b7fda06ffd3cb14c640154f8ef76d0a6000c551e89b2af1b1ca066f638dbf4fd5af6010604051610c559190613fbb565b6000805460408051838152602081019091526398554b7d60e01b92611d72926001600160a01b03169182919060448101613fce565b60408051601f198184030181529190526020810180516001600160e01b03166001600160e01b031990931692909217909152905090565b604051600090819081906342010000908281818181865af19150503d8060008114611df0576040519150601f19603f3d011682016040523d82523d6000602084013e611df5565b606091505b509150915081611e20576342010000816040516375fff46760e01b815260040161046d929190613cb4565b6020015192915050565b606060008063420200016001600160a01b03168585604051602001611e50929190614003565b60408051601f1981840301815290829052611e6a91614026565b6000604051808303816000865af19150503d8060008114611ea7576040519150601f19603f3d011682016040523d82523d6000602084013e611eac565b606091505b509150915081611ed7576342020001816040516375fff46760e01b815260040161046d929190613cb4565b949350505050565b60606108cf82612673565b60606108cf82612697565b6001600160a01b0381166000908152600d60209081526040808320549051849260ff90921691611f2b916105df91859101613997565b604051602001611f3b9190614042565b60405160208183030381529060405290611f685760405162461bcd60e51b815260040161046d9190613692565b506001546001600160a01b0316611fbb5760405162461bcd60e51b8152602060048201526017602482015276139bc8130c4b5dda5b9b995c881c9959da5cdd195c9959604a1b604482015260640161046d565b6003546001600160a01b03166120135760405162461bcd60e51b815260206004820152601a60248201527f4e6f2053554156452d77696e6e65722072656769737465726564000000000000604482015260640161046d565b50506003546001600160a01b0390811691161490565b6000546060906001600160a01b031633146120565760405162461bcd60e51b815260040161046d90613c54565b600480546003546001600160a01b039081166000908152600c602052604090819020549051630b77366360e21b815291909216928392632ddcd98c9261103692889260801b9101613b02565b60606120ad33611ef5565b61212e5760405162461bcd60e51b815260206004820152604660248201527f596f7520617265207468652077696e6e6572206f66207468652061756374696f60448201527f6e20616e642063616e207468657265666f7265206e6f7420646f20746869732060648201526530b1ba34b7b760d11b608482015260a40161046d565b60048054336000908152600c602052604090819020549051630b77366360e21b81526001600160a01b03909216928392632ddcd98c9261103692889260809290921b9101613b02565b606061218233611ef5565b1561212e5760405162461bcd60e51b815260206004820152603f60248201527f596f752063616e6e6f7420726566756e6420796f75722062696420617320796f60448201527f7520617265207468652077696e6e6572206f66207468652061756374696f6e00606482015260840161046d565b606060008063532000036001600160a01b031684604051602001612219919061409c565b60408051601f198184030181529082905261223391614026565b6000604051808303816000865af19150503d8060008114612270576040519150601f19603f3d011682016040523d82523d6000602084013e612275565b606091505b5091509150816122a0576353200003816040516375fff46760e01b815260040161046d929190613cb4565b8080602001905181019061074c9190613b88565b6040805160c0810182526000808252602082018190529181019190915260608082018190526080820181905260a082015260008063420300006001600160a01b03168787878760405160200161230d94939291906140c4565b60408051601f198184030181529082905261232791614026565b6000604051808303816000865af19150503d8060008114612364576040519150601f19603f3d011682016040523d82523d6000602084013e612369565b606091505b509150915081612394576342030000816040516375fff46760e01b815260040161046d929190613cb4565b808060200190518101906123a89190614192565b979650505050505050565b60008063420200006001600160a01b03168585856040516020016123d993929190614279565b60408051601f19818403018152908290526123f391614026565b6000604051808303816000865af19150503d8060008114612430576040519150601f19603f3d011682016040523d82523d6000602084013e612435565b606091505b50915091508161153f576342020000816040516375fff46760e01b815260040161046d929190613cb4565b60008061246c836126db565b905080516020146124bf5760405162461bcd60e51b815260206004820152601a60248201527f496e76616c69642070726976617465206b6579206c656e677468000000000000604482015260640161046d565b61107d6124cb826142ae565b612803565b606061250560405180604001604052806012815260200171636f6e666964656e7469616c496e7075747360701b815250612842565b905090565b606061107d83836040516020016125219190614026565b6040516020818303038152906040526128ed565b6000612540826129b7565b90508151810361254e575050565b600081835161255d9190613a59565b90506000816001600160401b03811115612579576125796136da565b6040519080825280601f01601f1916602001820160405280156125a3576020820181803683370190505b50905060005b8281101561261257846125bc82866142d2565b815181106125cc576125cc613c9e565b602001015160f81c60f81b8282815181106125e9576125e9613c9e565b60200101906001600160f81b031916908160001a9053508061260a81613e9b565b9150506125a9565b5060008180602001905181019061262991906142e5565b905060005b815181101561266b5761265982828151811061264c5761264c613c9e565b6020026020010151612b1b565b8061266381613e9b565b91505061262e565b505050505050565b606061267e82612d0d565b8051613078825260020160011990910190815292915050565b60606080604051019050602081016040526000815280600019835b928101926030600a8206018453600a9004806126b2575050819003601f19909101908152919050565b805160609082906126ee90600290614469565b156126f857600080fd5b600060028251612708919061447d565b6001600160401b0381111561271f5761271f6136da565b6040519080825280601f01601f191660200182016040528015612749576020820181803683370190505b50905060005b6002835161275d919061447d565b8110156127fb5761279b83612773836002614491565b61277e9060016142d2565b8151811061278e5761278e613c9e565b016020015160f81c612d73565b6127aa8461277e846002614491565b6127b59060106144a8565b6127bf91906144cb565b60f81b8282815181106127d4576127d4613c9e565b60200101906001600160f81b031916908160001a9053506127f481613e9b565b905061274f565b509392505050565b600080600061281184612e80565b6040805160208082019490945280820192909252805180830382018152606090920190528051910120949350505050565b606060008063533000036001600160a01b0316846040516020016128669190613692565b60408051601f198184030181529082905261288091614026565b6000604051808303816000865af19150503d80600081146128bd576040519150601f19603f3d011682016040523d82523d6000602084013e6128c2565b606091505b5091509150816122a0576353300003816040516375fff46760e01b815260040161046d929190613cb4565b6060600080635670000e6001600160a01b031685856040516020016129139291906144e4565b60408051601f198184030181529082905261292d91614026565b6000604051808303816000865af19150503d806000811461296a576040519150601f19603f3d011682016040523d82523d6000602084013e61296f565b606091505b50915091508161299a57635670000e816040516375fff46760e01b815260040161046d929190613cb4565b808060200190518101906129ae9190613b88565b95945050505050565b6000805b8251811015612b155760408051808201909152600381526254354360e81b6020909101528251601560fa1b908490839081106129f9576129f9613c9e565b01602001516001600160f81b03191603612b03576001805b6040518060400160405280600381526020016254354360e81b81525051811015612ad2578451612a4182856142d2565b101580612ab257506040518060400160405280600381526020016254354360e81b8152508181518110612a7657612a76613c9e565b01602001516001600160f81b03191685612a9083866142d2565b81518110612aa057612aa0613c9e565b01602001516001600160f81b03191614155b15612ac05760009150612ad2565b80612aca81613e9b565b915050612a11565b508015612b01576040518060400160405280600381526020016254354360e81b815250518261074c91906142d2565b505b80612b0d81613e9b565b9150506129bb565b50505190565b60408101518051602083015151600003612b3a578060208301a0505050565b826020015151600103612b775760008360200151600081518110612b6057612b60613c9e565b60200260200101519050808260208501a150505050565b826020015151600203612bd95760008360200151600081518110612b9d57612b9d613c9e565b6020026020010151905060008460200151600181518110612bc057612bc0613c9e565b6020026020010151905080828460208701a25050505050565b826020015151600303612c605760008360200151600081518110612bff57612bff613c9e565b6020026020010151905060008460200151600181518110612c2257612c22613c9e565b6020026020010151905060008560200151600281518110612c4557612c45613c9e565b602002602001015190508082848660208901a3505050505050565b826020015151600403612d085760008360200151600081518110612c8657612c86613c9e565b6020026020010151905060008460200151600181518110612ca957612ca9613c9e565b6020026020010151905060008560200151600281518110612ccc57612ccc613c9e565b6020026020010151905060008660200151600381518110612cef57612cef613c9e565b60200260200101519050808284868860208b01a4505050505b505050565b8051604051818001600282019081526f30313233343536373839616263646566600f52918301906022015b818414612d6357600184019350600f845116516001820153600f845160041c16518153600201612d38565b6000815260200160405250919050565b6000600360fc1b60f883901b6001600160f81b03191610801590612da95750603960f81b60f883901b6001600160f81b03191611155b15612db9576108cf603083614509565b606160f81b60f883901b6001600160f81b03191610801590612ded5750603360f91b60f883901b6001600160f81b03191611155b15612e09576061612dff83600a6144cb565b6108cf9190614509565b604160f81b60f883901b6001600160f81b03191610801590612e3d5750602360f91b60f883901b6001600160f81b03191611155b15612e4f576041612dff83600a6144cb565b60405162461bcd60e51b815260040161046d9060208082526004908201526319985a5b60e21b604082015260600190565b600080612ed7837f79be667ef9dcbbac55a06295ce870b07029bfcdb2dce28d959f2815b16f817987f483ada7726a3c4655da4fbfc0e1108a8fd17b448a68554199c47d08ffb10d4b860006401000003d019612ee1565b9094909350915050565b6000806000806000612ef88a8a8a60018b8b612f1b565b925092509250612f0a83838389612f9d565b945094505050509550959350505050565b600080600088600003612f35575086915085905084612f91565b8860008060015b8315612f88576001841615612f6257612f5a8383838f8f8f8e61300c565b919450925090505b612f6d60028561447d565b9350612f7c8c8c8c8c8c61333f565b919d509b509950612f3c565b91955093509150505b96509650969350505050565b6000806000612fac85856134e2565b905060008480612fbe57612fbe614453565b828309905060008580612fd357612fd3614453565b828a09905060008680612fe857612fe8614453565b8780612ff657612ff6614453565b8486098a09919a91995090975050505050505050565b600080808915801561301c575088155b1561302e575085915084905083613332565b8615801561303a575085155b1561304c575088915087905086613332565b61305461360f565b848061306257613062614453565b898a098152848061307557613075614453565b81518a096020820152848061308c5761308c614453565b868709604082015284806130a2576130a2614453565b60408201518709606082015260408051608081019091528086806130c8576130c8614453565b60408401518e09815260200186806130e2576130e2614453565b60608401518d09815260200186806130fc576130fc614453565b83518b098152602001868061311357613113614453565b60208401518a0990526040810151815191925014158061313b57506060810151602082015114155b6131875760405162461bcd60e51b815260206004820152601e60248201527f557365206a6163446f75626c652066756e6374696f6e20696e73746561640000604482015260640161046d565b61318f61360f565b858061319d5761319d614453565b82516131a99088613a59565b604084015108815285806131bf576131bf614453565b60208301516131ce9088613a59565b606084015108602082015285806131e7576131e7614453565b81518009604082015285806131fe576131fe614453565b815160408301510960608201526000868061321b5761321b614453565b606083015161322a9089613a59565b888061323857613238614453565b60208501518009089050868061325057613250614453565b878061325e5761325e614453565b888061326c5761326c614453565b60408501518651096002096132819089613a59565b820890506000878061329557613295614453565b88806132a3576132a3614453565b6132ad848b613a59565b8a806132bb576132bb614453565b604087015188510908602085015109905087806132da576132da614453565b88806132e8576132e8614453565b60608501516020870151096132fd908a613a59565b820890506000888061331157613311614453565b898061331f5761331f614453565b8b8f098551099297509095509093505050505b9750975097945050505050565b6000806000856000036133595750869150859050846134d7565b6000848061336957613369614453565b898a0990506000858061337e5761337e614453565b898a0990506000868061339357613393614453565b898a099050600087806133a8576133a8614453565b88806133b6576133b6614453565b848e096004099050600088806133ce576133ce614453565b89806133dc576133dc614453565b8a806133ea576133ea614453565b8586098c098a806133fd576133fd614453565b87600309089050888061341257613412614453565b898061342057613420614453565b83840861342d908b613a59565b8a8061343b5761343b614453565b838409089450888061344f5761344f614453565b898061345d5761345d614453565b8a8061346b5761346b614453565b86870960080961347b908b613a59565b8a8061348957613489614453565b8b8061349757613497614453565b6134a1898e613a59565b8608840908935088806134b6576134b6614453565b89806134c4576134c4614453565b8c8e096002099497509295509293505050505b955095509592505050565b600082158015906134f35750818314155b80156134fe57508115155b61353b5760405162461bcd60e51b815260206004820152600e60248201526d24b73b30b634b210373ab6b132b960911b604482015260640161046d565b6000600183825b86156135a357613552878361447d565b905082868061356357613563614453565b878061357157613571614453565b85840961357e9089613a59565b86089094509250866135908183614491565b61359a9084613a59565b97509150613542565b509195945050505050565b828054828255906000526020600020908101928215613603579160200282015b8281111561360357825182546001600160a01b0319166001600160a01b039091161782556020909201916001909101906135ce565b50610fd592915061362d565b60405180608001604052806004906020820280368337509192915050565b5b80821115610fd5576000815560010161362e565b60005b8381101561365d578181015183820152602001613645565b50506000910152565b6000815180845261367e816020860160208601613642565b601f01601f19169290920160200192915050565b60208152600061107d6020830184613666565b6001600160a01b03811681146136ba57600080fd5b50565b6000602082840312156136cf57600080fd5b813561107d816136a5565b634e487b7160e01b600052604160045260246000fd5b60405160c081016001600160401b0381118282101715613712576137126136da565b60405290565b604051606081016001600160401b0381118282101715613712576137126136da565b604051601f8201601f191681016001600160401b0381118282101715613762576137626136da565b604052919050565b60006001600160401b03821115613783576137836136da565b5060051b60200190565b600082601f83011261379e57600080fd5b813560206137b36137ae8361376a565b61373a565b82815260059290921b840181019181810190868411156137d257600080fd5b8286015b848110156137f65780356137e9816136a5565b83529183019183016137d6565b509695505050505050565b6000806000806080858703121561381757600080fd5b8435613822816136a5565b93506020850135613832816136a5565b92506040850135915060608501356001600160401b0381111561385457600080fd5b6138608782880161378d565b91505092959194509250565b6001600160801b0319811681146136ba57600080fd5b6000806040838503121561389557600080fd5b82356138a0816136a5565b915060208301356138b08161386c565b809150509250929050565b6000806000606084860312156138d057600080fd5b83356138db816136a5565b92506020840135915060408401356001600160401b038111156138fd57600080fd5b6139098682870161378d565b9150509250925092565b60006020828403121561392557600080fd5b5035919050565b6020808252601d908201527f6d7573742062652063616c6c656420636f6e666964656e7469616c6c79000000604082015260600190565b600181811c9082168061397757607f821691505b60208210810361075057634e487b7160e01b600052602260045260246000fd5b60609190911b6bffffffffffffffffffffffff1916815260140190565b7f4e6f2062696464696e6720616464726573732072656c6174656420746f206d738152690339739b2b73232b91d160b51b6020820152600082516139ff81602a850160208701613642565b91909101602a0192915050565b60208082526017908201527f41756374696f6e206e6f74207965742073746172746564000000000000000000604082015260600190565b634e487b7160e01b600052601160045260246000fd5b818103818111156108cf576108cf613a43565b7f41756374696f6e20656e64696e6720746f6f20736f6f6e212043757272656e7481526b0103a34b6b2b9ba30b6b81d160a51b602082015260008351613ab981602c850160208801613642565b7f203e206261636b206f757420756e74696c2074696d657374616d703a20000000602c918401918201528351613af6816049840160208801613642565b01604901949350505050565b6001600160a01b039290921682526001600160801b031916602082015260400190565b600082601f830112613b3657600080fd5b81516001600160401b03811115613b4f57613b4f6136da565b613b62601f8201601f191660200161373a565b818152846020838601011115613b7757600080fd5b611ed7826020830160208701613642565b600060208284031215613b9a57600080fd5b81516001600160401b03811115613bb057600080fd5b611ed784828501613b25565b7f41756374696f6e2074696d65206e6f74206f766572207965742120437572726581526d0373a103a34b6b2b9ba30b6b81d160951b602082015260008351613c0b81602e850160208801613642565b7f203c2061756374696f6e20656e64696e672074696d657374616d703a20000000602e918401918201528351613c4881604b840160208801613642565b01604b01949350505050565b6020808252602a908201527f596f7520617265206e6f74207468652061756374696f6e656572206f6620746860408201526934b99030bab1ba34b7b760b11b606082015260800190565b634e487b7160e01b600052603260045260246000fd5b6001600160a01b0383168152604060208201819052600090611ed790830184613666565b6001600160a01b039586168152938516602085015291909316604083015260608201929092526001600160801b0319909116608082015260a00190565b6000815480845260208085019450836000528060002060005b83811015613d535781546001600160a01b031687529582019560019182019101613d2e565b509495945050505050565b600061016060018060a01b03808f168452808e166020850152808d1660408501528b60608501528a60808501528960a085015288151560c085015280881660e0850152808716610100850152508461012084015280610140840152613dc581840185613d15565b9e9d5050505050505050505050505050565b7f41756374696f6e20656e64696e672074696d65206973206f76657220616c726581527f616479212043757272656e742074696d657374616d703a200000000000000000602082015260008351613e35816038850160208801613642565b7f203e2061756374696f6e20656e64696e2074696d657374616d703a20000000006038918401918201528351613e72816054840160208801613642565b01605401949350505050565b600060208284031215613e9057600080fd5b815161107d816136a5565b600060018201613ead57613ead613a43565b5060010190565b600081518084526020808501945080840160005b83811015613d535781516001600160a01b031687529582019590820190600101613ec8565b6001600160a01b0385811682528416602082015260408101839052608060608201819052600090613f2090830184613eb4565b9695505050505050565b7f57696e6e6572204c312061646472657373206973206e6f742070617274206f6681526d0103a34329030bab1ba34b7b71d160951b602082015260008251613f7981602e850160208701613642565b91909101602e0192915050565b60208152600061107d6020830184613eb4565b604081526000613fac6040830185613eb4565b90508260208301529392505050565b60208152600061107d6020830184613d15565b6001600160a01b0385811682528416602082015260ff83166040820152608060608201819052600090613f2090830184613eb4565b6001600160801b031983168152604060208201526000611ed76040830184613666565b60008251614038818460208701613642565b9190910192915050565b7f4e6f2062696464696e6720616464726573732072656c6174656420746f20746881526b034b99030b2323932b9b99d160a51b60208201526000825161408f81602c850160208701613642565b91909101602c0192915050565b60208101600283106140be57634e487b7160e01b600052602160045260246000fd5b91905290565b6001600160401b03851681526080602082015260006140e66080830186613eb4565b82810360408401526140f88186613eb4565b905082810360608401526123a88185613666565b80516108f58161386c565b80516001600160401b03811681146108f557600080fd5b600082601f83011261413f57600080fd5b8151602061414f6137ae8361376a565b82815260059290921b8401810191818101908684111561416e57600080fd5b8286015b848110156137f6578051614185816136a5565b8352918301918301614172565b6000602082840312156141a457600080fd5b81516001600160401b03808211156141bb57600080fd5b9083019060c082860312156141cf57600080fd5b6141d76136f0565b6141e08361410c565b81526141ee6020840161410c565b60208201526141ff60408401614117565b604082015260608301518281111561421657600080fd5b6142228782860161412e565b60608301525060808301518281111561423a57600080fd5b6142468782860161412e565b60808301525060a08301518281111561425e57600080fd5b61426a87828601613b25565b60a08301525095945050505050565b6001600160801b03198416815260606020820152600061429c6060830185613666565b8281036040840152613f208185613666565b805160208083015191908110156107505760001960209190910360031b1b16919050565b808201808211156108cf576108cf613a43565b600060208083850312156142f857600080fd5b82516001600160401b038082111561430f57600080fd5b818501915085601f83011261432357600080fd5b81516143316137ae8261376a565b81815260059190911b8301840190848101908883111561435057600080fd5b8585015b838110156144465780518581111561436b57600080fd5b86016060818c03601f1901121561438157600080fd5b614389613718565b88820151614396816136a5565b81526040820151878111156143aa57600080fd5b8201603f81018d136143bb57600080fd5b898101516143cb6137ae8261376a565b81815260059190911b8201604001908b8101908f8311156143eb57600080fd5b6040840193505b8284101561440b5783518252928c0192908c01906143f2565b848d015250505060608201518781111561442457600080fd5b6144328d8b83860101613b25565b604083015250845250918601918601614354565b5098975050505050505050565b634e487b7160e01b600052601260045260246000fd5b60008261447857614478614453565b500690565b60008261448c5761448c614453565b500490565b80820281158282048414176108cf576108cf613a43565b60ff81811683821602908116908181146144c4576144c4613a43565b5092915050565b60ff81811683821601908111156108cf576108cf613a43565b6040815260006144f76040830185613666565b82810360208401526129ae8185613666565b60ff82811682821603908111156108cf576108cf613a4356fea2646970667358221220467e95cd8885b56a2765f9a64e87b0f5a853f599557dea8f1252899ae5d8906164736f6c63430008140033",
    "linkReferences": {}
  },
  "methodIdentifiers": {
    "PRIVATE_KEYS()": "ece3e1bc",
    "auctionEndTime()": "4b449cba",
    "auctionHasStarted()": "61e2f02f",
    "auctionWinnerL1()": "05dc24bf",
    "auctionWinnerSuave()": "43954143",
    "auctioneerSUAVE()": "0e258b49",
    "backOutBid(address)": "0b6b1a9b",
    "bidderAmount()": "d864134b",
    "claim(address)": "1e83409a",
    "endAuction()": "fe67a54b",
    "endAuctionCallback(address,uint256,address[])": "e68c5f04",
    "endAuctionOnchain(address,address,uint256,address[])": "98554b7d",
    "getBiddingAddress()": "36021534",
    "getBiddingAddressOnchain(address,bytes16)": "9f73853d",
    "getNftHoldingAddressPrivateKey()": "0759b30f",
    "minimalBid()": "65843c12",
    "moveNFTDebug(address)": "379a147c",
    "nftContract()": "d56d229d",
    "nftHoldingAddress()": "9eb52da9",
    "onchainCallback()": "4a525054",
    "oracle()": "7dc0d1d0",
    "printInfo()": "4148f1f8",
    "refundNFT(address)": "b43e4e07",
    "revealedL1Addresses(uint256)": "f080141b",
    "setUpAuction()": "2fef54b5",
    "setUpAuctionOnchain(address,bytes16)": "e755a288",
    "startAuction()": "6b64c769",
    "startAuctionOnchain()": "7baf6cd2",
    "startAuctionTest()": "2b9f49f0",
    "tokenId()": "17d70f7c",
    "winningBid()": "8cf80438"
  },
  "id": 36
}