{
  "abi": [
    {
      "type": "constructor",
      "inputs": [
        {
          "name": "nftContractAddress",
          "type": "address",
          "internalType": "address"
        },
        {
          "name": "nftTokenId",
          "type": "uint256",
          "internalType": "uint256"
        },
        {
          "name": "_auctionEndTime",
          "type": "uint256",
          "internalType": "uint256"
        },
        {
          "name": "minimalBiddingAmount",
          "type": "uint256",
          "internalType": "uint256"
        },
        {
          "name": "oracleAddress",
          "type": "address",
          "internalType": "address"
        }
      ],
      "stateMutability": "nonpayable"
    },
    {
      "type": "function",
      "name": "PRIVATE_KEYS",
      "inputs": [],
      "outputs": [
        {
          "name": "",
          "type": "string",
          "internalType": "string"
        }
      ],
      "stateMutability": "view"
    },
    {
      "type": "function",
      "name": "auctionEndTime",
      "inputs": [],
      "outputs": [
        {
          "name": "",
          "type": "uint256",
          "internalType": "uint256"
        }
      ],
      "stateMutability": "view"
    },
    {
      "type": "function",
      "name": "auctionHasStarted",
      "inputs": [],
      "outputs": [
        {
          "name": "",
          "type": "bool",
          "internalType": "bool"
        }
      ],
      "stateMutability": "view"
    },
    {
      "type": "function",
      "name": "auctionWinnerL1",
      "inputs": [],
      "outputs": [
        {
          "name": "",
          "type": "address",
          "internalType": "address"
        }
      ],
      "stateMutability": "view"
    },
    {
      "type": "function",
      "name": "auctionWinnerSuave",
      "inputs": [],
      "outputs": [
        {
          "name": "",
          "type": "address",
          "internalType": "address"
        }
      ],
      "stateMutability": "view"
    },
    {
      "type": "function",
      "name": "auctioneerSUAVE",
      "inputs": [],
      "outputs": [
        {
          "name": "",
          "type": "address",
          "internalType": "address"
        }
      ],
      "stateMutability": "view"
    },
    {
      "type": "function",
      "name": "backOutBid",
      "inputs": [
        {
          "name": "returnAddressL1",
          "type": "address",
          "internalType": "address"
        }
      ],
      "outputs": [
        {
          "name": "",
          "type": "bytes",
          "internalType": "bytes"
        }
      ],
      "stateMutability": "nonpayable"
    },
    {
      "type": "function",
      "name": "bidderAmount",
      "inputs": [],
      "outputs": [
        {
          "name": "",
          "type": "uint256",
          "internalType": "uint256"
        }
      ],
      "stateMutability": "view"
    },
    {
      "type": "function",
      "name": "claimNFT",
      "inputs": [
        {
          "name": "returnAddressL1",
          "type": "address",
          "internalType": "address"
        }
      ],
      "outputs": [
        {
          "name": "",
          "type": "bytes",
          "internalType": "bytes"
        }
      ],
      "stateMutability": "nonpayable"
    },
    {
      "type": "function",
      "name": "claimWinningBid",
      "inputs": [
        {
          "name": "returnAddressL1",
          "type": "address",
          "internalType": "address"
        }
      ],
      "outputs": [
        {
          "name": "",
          "type": "bytes",
          "internalType": "bytes"
        }
      ],
      "stateMutability": "nonpayable"
    },
    {
      "type": "function",
      "name": "confirmNFTowner",
      "inputs": [
        {
          "name": "NFTowner",
          "type": "address",
          "internalType": "address"
        }
      ],
      "outputs": [
        {
          "name": "",
          "type": "bytes",
          "internalType": "bytes"
        }
      ],
      "stateMutability": "view"
    },
    {
      "type": "function",
      "name": "createNFTaddressCallback",
      "inputs": [
        {
          "name": "_nftHoldingAddress",
          "type": "address",
          "internalType": "address"
        },
        {
          "name": "keyRecord",
          "type": "bytes16",
          "internalType": "Suave.DataId"
        }
      ],
      "outputs": [],
      "stateMutability": "nonpayable"
    },
    {
      "type": "function",
      "name": "endAuction",
      "inputs": [],
      "outputs": [
        {
          "name": "",
          "type": "bytes",
          "internalType": "bytes"
        }
      ],
      "stateMutability": "nonpayable"
    },
    {
      "type": "function",
      "name": "endAuctionCallback",
      "inputs": [
        {
          "name": "_winner",
          "type": "address",
          "internalType": "address"
        },
        {
          "name": "_winningBid",
          "type": "uint256",
          "internalType": "uint256"
        },
        {
          "name": "_l1Addresses",
          "type": "address[]",
          "internalType": "address[]"
        }
      ],
      "outputs": [
        {
          "name": "",
          "type": "bytes",
          "internalType": "bytes"
        }
      ],
      "stateMutability": "nonpayable"
    },
    {
      "type": "function",
      "name": "endAuctionOnchain",
      "inputs": [
        {
          "name": "_winnerL1",
          "type": "address",
          "internalType": "address"
        },
        {
          "name": "_winnerSUAVE",
          "type": "address",
          "internalType": "address"
        },
        {
          "name": "_winningBid",
          "type": "uint256",
          "internalType": "uint256"
        },
        {
          "name": "_l1Addresses",
          "type": "address[]",
          "internalType": "address[]"
        }
      ],
      "outputs": [],
      "stateMutability": "nonpayable"
    },
    {
      "type": "function",
      "name": "getBiddingAddress",
      "inputs": [],
      "outputs": [
        {
          "name": "",
          "type": "bytes",
          "internalType": "bytes"
        }
      ],
      "stateMutability": "nonpayable"
    },
    {
      "type": "function",
      "name": "getNftHoldingAddressPrivateKey",
      "inputs": [],
      "outputs": [
        {
          "name": "",
          "type": "bytes",
          "internalType": "bytes"
        }
      ],
      "stateMutability": "nonpayable"
    },
    {
      "type": "function",
      "name": "minimalBid",
      "inputs": [],
      "outputs": [
        {
          "name": "",
          "type": "uint256",
          "internalType": "uint256"
        }
      ],
      "stateMutability": "view"
    },
    {
      "type": "function",
      "name": "moveNFTDebug",
      "inputs": [
        {
          "name": "to",
          "type": "address",
          "internalType": "address"
        }
      ],
      "outputs": [
        {
          "name": "",
          "type": "bytes",
          "internalType": "bytes"
        }
      ],
      "stateMutability": "nonpayable"
    },
    {
      "type": "function",
      "name": "nftContract",
      "inputs": [],
      "outputs": [
        {
          "name": "",
          "type": "address",
          "internalType": "address"
        }
      ],
      "stateMutability": "view"
    },
    {
      "type": "function",
      "name": "nftHoldingAddress",
      "inputs": [],
      "outputs": [
        {
          "name": "",
          "type": "address",
          "internalType": "address"
        }
      ],
      "stateMutability": "view"
    },
    {
      "type": "function",
      "name": "onchainCallback",
      "inputs": [],
      "outputs": [],
      "stateMutability": "nonpayable"
    },
    {
      "type": "function",
      "name": "oracle",
      "inputs": [],
      "outputs": [
        {
          "name": "",
          "type": "address",
          "internalType": "address"
        }
      ],
      "stateMutability": "view"
    },
    {
      "type": "function",
      "name": "printInfo",
      "inputs": [],
      "outputs": [
        {
          "name": "",
          "type": "bytes",
          "internalType": "bytes"
        }
      ],
      "stateMutability": "nonpayable"
    },
    {
      "type": "function",
      "name": "refundBid",
      "inputs": [
        {
          "name": "returnAddressL1",
          "type": "address",
          "internalType": "address"
        }
      ],
      "outputs": [
        {
          "name": "",
          "type": "bytes",
          "internalType": "bytes"
        }
      ],
      "stateMutability": "nonpayable"
    },
    {
      "type": "function",
      "name": "refundNFT",
      "inputs": [
        {
          "name": "returnAddressL1",
          "type": "address",
          "internalType": "address"
        }
      ],
      "outputs": [
        {
          "name": "",
          "type": "bytes",
          "internalType": "bytes"
        }
      ],
      "stateMutability": "nonpayable"
    },
    {
      "type": "function",
      "name": "registerBiddingPrivateKeyCallback",
      "inputs": [
        {
          "name": "owner",
          "type": "address",
          "internalType": "address"
        },
        {
          "name": "keyRecord",
          "type": "bytes16",
          "internalType": "Suave.DataId"
        }
      ],
      "outputs": [],
      "stateMutability": "nonpayable"
    },
    {
      "type": "function",
      "name": "revealedL1Addresses",
      "inputs": [
        {
          "name": "",
          "type": "uint256",
          "internalType": "uint256"
        }
      ],
      "outputs": [
        {
          "name": "",
          "type": "address",
          "internalType": "address"
        }
      ],
      "stateMutability": "view"
    },
    {
      "type": "function",
      "name": "setUpAuction",
      "inputs": [],
      "outputs": [
        {
          "name": "",
          "type": "bytes",
          "internalType": "bytes"
        }
      ],
      "stateMutability": "nonpayable"
    },
    {
      "type": "function",
      "name": "startAuction",
      "inputs": [],
      "outputs": [
        {
          "name": "",
          "type": "bytes",
          "internalType": "bytes"
        }
      ],
      "stateMutability": "nonpayable"
    },
    {
      "type": "function",
      "name": "startAuctionCallback",
      "inputs": [],
      "outputs": [],
      "stateMutability": "nonpayable"
    },
    {
      "type": "function",
      "name": "startAuctionTest",
      "inputs": [],
      "outputs": [
        {
          "name": "",
          "type": "bytes",
          "internalType": "bytes"
        }
      ],
      "stateMutability": "pure"
    },
    {
      "type": "function",
      "name": "tokenId",
      "inputs": [],
      "outputs": [
        {
          "name": "",
          "type": "uint256",
          "internalType": "uint256"
        }
      ],
      "stateMutability": "view"
    },
    {
      "type": "function",
      "name": "winningBid",
      "inputs": [],
      "outputs": [
        {
          "name": "",
          "type": "uint256",
          "internalType": "uint256"
        }
      ],
      "stateMutability": "view"
    },
    {
      "type": "event",
      "name": "AuctionInfo",
      "inputs": [
        {
          "name": "auctioneerSUAVE",
          "type": "address",
          "indexed": false,
          "internalType": "address"
        },
        {
          "name": "nftHoldingAddress",
          "type": "address",
          "indexed": false,
          "internalType": "address"
        },
        {
          "name": "nftContract",
          "type": "address",
          "indexed": false,
          "internalType": "address"
        },
        {
          "name": "tokenId",
          "type": "uint256",
          "indexed": false,
          "internalType": "uint256"
        },
        {
          "name": "auctionEndTime",
          "type": "uint256",
          "indexed": false,
          "internalType": "uint256"
        },
        {
          "name": "minimalBid",
          "type": "uint256",
          "indexed": false,
          "internalType": "uint256"
        },
        {
          "name": "auctionHasStarted",
          "type": "bool",
          "indexed": false,
          "internalType": "bool"
        },
        {
          "name": "auctionWinnerL1",
          "type": "address",
          "indexed": false,
          "internalType": "address"
        },
        {
          "name": "auctionWinnerSuave",
          "type": "address",
          "indexed": false,
          "internalType": "address"
        },
        {
          "name": "winningBid",
          "type": "uint256",
          "indexed": false,
          "internalType": "uint256"
        },
        {
          "name": "revealedL1Addresses",
          "type": "address[]",
          "indexed": false,
          "internalType": "address[]"
        }
      ],
      "anonymous": false
    },
    {
      "type": "event",
      "name": "AuctionOpened",
      "inputs": [
        {
          "name": "contractAddr",
          "type": "address",
          "indexed": false,
          "internalType": "address"
        },
        {
          "name": "nftContractAddress",
          "type": "address",
          "indexed": false,
          "internalType": "address"
        },
        {
          "name": "nftTokenId",
          "type": "uint256",
          "indexed": false,
          "internalType": "uint256"
        },
        {
          "name": "endTimestamp",
          "type": "uint256",
          "indexed": false,
          "internalType": "uint256"
        },
        {
          "name": "minimalBiddingAmount",
          "type": "uint256",
          "indexed": false,
          "internalType": "uint256"
        }
      ],
      "anonymous": false
    },
    {
      "type": "event",
      "name": "EncBiddingAddress",
      "inputs": [
        {
          "name": "owner",
          "type": "address",
          "indexed": false,
          "internalType": "address"
        },
        {
          "name": "encryptedL1Address",
          "type": "bytes",
          "indexed": false,
          "internalType": "bytes"
        }
      ],
      "anonymous": false
    },
    {
      "type": "event",
      "name": "NFTHoldingAddressEvent",
      "inputs": [
        {
          "name": "nftHoldingAddress",
          "type": "address",
          "indexed": false,
          "internalType": "address"
        }
      ],
      "anonymous": false
    },
    {
      "type": "event",
      "name": "NFTHoldingAddressPrivateKeyEvent",
      "inputs": [
        {
          "name": "privateKey",
          "type": "string",
          "indexed": false,
          "internalType": "string"
        }
      ],
      "anonymous": false
    },
    {
      "type": "event",
      "name": "RevealBiddingAddresses",
      "inputs": [
        {
          "name": "bidderL1",
          "type": "address[]",
          "indexed": false,
          "internalType": "address[]"
        }
      ],
      "anonymous": false
    },
    {
      "type": "error",
      "name": "PeekerReverted",
      "inputs": [
        {
          "name": "",
          "type": "address",
          "internalType": "address"
        },
        {
          "name": "",
          "type": "bytes",
          "internalType": "bytes"
        }
      ]
    }
  ],
  "bytecode": {
    "object": "0x600180546001600160a01b03199081169091556000600255600380549091168155600a805460ff1916905560c06040526080908152624b455960e81b60a052600b906200004d908262000217565b506000600e81905560408051918252602082019081905290516200007491601091620000f1565b503480156200008257600080fd5b50604051620048f2380380620048f2833981016040819052620000a59162000300565b600080546001600160a01b03199081163317909155600680546001600160a01b039788169083161790556007949094556008929092556009556004805491909316911617905562000355565b82805482825590600052602060002090810192821562000149579160200282015b828111156200014957825182546001600160a01b0319166001600160a01b0390911617825560209092019160019091019062000112565b50620001579291506200015b565b5090565b5b808211156200015757600081556001016200015c565b634e487b7160e01b600052604160045260246000fd5b600181811c908216806200019d57607f821691505b602082108103620001be57634e487b7160e01b600052602260045260246000fd5b50919050565b601f8211156200021257600081815260208120601f850160051c81016020861015620001ed5750805b601f850160051c820191505b818110156200020e57828155600101620001f9565b5050505b505050565b81516001600160401b0381111562000233576200023362000172565b6200024b8162000244845462000188565b84620001c4565b602080601f8311600181146200028357600084156200026a5750858301515b600019600386901b1c1916600185901b1785556200020e565b600085815260208120601f198616915b82811015620002b45788860151825594840194600190910190840162000293565b5085821015620002d35787850151600019600388901b60f8161c191681555b5050505050600190811b01905550565b80516001600160a01b0381168114620002fb57600080fd5b919050565b600080600080600060a086880312156200031957600080fd5b6200032486620002e3565b94506020860151935060408601519250606086015191506200034960808701620002e3565b90509295509295909350565b61458d80620003656000396000f3fe608060405234801561001057600080fd5b50600436106102065760003560e01c80636b64c7691161011a578063bb5fdba3116100ad578063e68c5f041161007c578063e68c5f0414610458578063ece3e1bc1461046b578063f080141b14610473578063f6f8d5ba14610486578063fe67a54b1461049957600080fd5b8063bb5fdba314610416578063d10fdb5c14610429578063d56d229d1461043c578063d864134b1461044f57600080fd5b806398554b7d116100e957806398554b7d146103855780639eb52da914610398578063b43e4e07146103ab578063b9cd1cbb146103be57600080fd5b80636b64c7691461034e5780637dc0d1d0146103565780638cf804381461036957806393cc1f661461037257600080fd5b8063360215341161019d578063439541431161016c57806343954143146103045780634a525054146103175780634b449cba1461031f57806361e2f02f1461032857806365843c121461034557600080fd5b806336021534146102ce578063379a147c146102d6578063385e3155146102e95780634148f1f8146102fc57600080fd5b806317d70f7c116101d957806317d70f7c14610276578063297268ad1461028d5780632b9f49f0146102975780632fef54b5146102c657600080fd5b806305dc24bf1461020b5780630759b30f1461023b5780630b6b1a9b146102505780630e258b4914610263575b600080fd5b60015461021e906001600160a01b031681565b6040516001600160a01b0390911681526020015b60405180910390f35b6102436104a1565b60405161023291906136c7565b61024361025e3660046136f2565b6105e9565b60005461021e906001600160a01b031681565b61027f60075481565b604051908152602001610232565b6102956107b0565b005b6102436040805160048152602481019091526020810180516001600160e01b031663297268ad60e01b17905290565b61024361085f565b610243610bef565b6102436102e43660046136f2565b610f3e565b6102436102f73660046136f2565b610fe9565b610243611154565b60035461021e906001600160a01b031681565b6102956111cd565b61027f60085481565b600a546103359060ff1681565b6040519015158152602001610232565b61027f60095481565b61024361120f565b60045461021e906001600160a01b031681565b61027f60025481565b6102436103803660046136f2565b61136f565b610295610393366004613836565b611428565b60055461021e906001600160a01b031681565b6102436103b93660046136f2565b611532565b6102956103cc3660046138b7565b600580546001600160a01b0319166001600160a01b039390931692909217909155306000908152600c6020526040902080546001600160801b03191660809290921c919091179055565b6102436104243660046136f2565b611632565b6102436104373660046136f2565b6117f3565b60065461021e906001600160a01b031681565b61027f600e5481565b6102436104663660046138f0565b61197b565b610243611b8b565b61021e610481366004613948565b611c19565b6102956104943660046138b7565b611c43565b610243611d14565b60606104ab611fa8565b6104d05760405162461bcd60e51b81526004016104c790613961565b60405180910390fd5b306000908152600c6020526040812054600b80546105799260801b91906104f690613998565b80601f016020809104026020016040519081016040528092919081815260200182805461052290613998565b801561056f5780601f106105445761010080835404028352916020019161056f565b820191906000526020600020905b81548152906001019060200180831161055257829003601f168201915b5050505050612029565b90507f99c9da0ea5c2b8a4592d3cf87babe1becf862ec443dc748fb90fd5549836c7766105a5826120e0565b6040516105b291906136c7565b60405180910390a150506040805160048152602481019091526020810180516001600160e01b0316631294941560e21b1790525b90565b60606105f3611fa8565b61060f5760405162461bcd60e51b81526004016104c790613961565b336000818152600d602090815260409182902054915160ff9092169261064d9261063992016139cc565b6040516020818303038152906040526120e0565b60405160200161065d91906139e9565b6040516020818303038152906040529061068a5760405162461bcd60e51b81526004016104c791906136c7565b50600a5460ff166106ad5760405162461bcd60e51b81526004016104c790613a41565b600061012c6008546106bf9190613a8e565b9050804211156106ce426120eb565b6106d7836120eb565b6040516020016106e8929190613aa1565b604051602081830303815290604052906107155760405162461bcd60e51b81526004016104c791906136c7565b5060048054336000908152600c602052604090819020549051630b77366360e21b81526001600160a01b03909216928392632ddcd98c9261075f92899260809290921b9101613b37565b6000604051808303816000875af115801561077e573d6000803e3d6000fd5b505050506040513d6000823e601f3d908101601f191682016040526107a69190810190613bbd565b9250505b50919050565b6107f06000368080601f0160208091040260200160405190810160405280939291908181526020018383808284376000920191909152506120f692505050565b600a805460ff19166001179055600654600754600854600954604080513081526001600160a01b039095166020860152840192909252606083015260808201527f2c979327dd777fa19be3cb8535b745ce42fd03d20d828d866cc8263780cca15a9060a00160405180910390a1565b6060610869611fa8565b6108855760405162461bcd60e51b81526004016104c790613961565b6000546001600160a01b031633146108af5760405162461bcd60e51b81526004016104c790613bf9565b6005546001600160a01b0316610b815760006108cb6000612234565b604080516001808252818301909252919250829160009160208083019080368337019050509050308160008151811061090657610906613c43565b6001600160a01b03929092166020928302919091018201526040805160028082526060820183526000939192909183019080368337019050509050308160008151811061095557610955613c43565b6001600160a01b03928316602091820292909201015260045482519116908290600190811061098657610986613c43565b60200260200101906001600160a01b031690816001600160a01b0316815250506000610a3f60008385600b80546109bc90613998565b80601f01602080910402602001604051908101604052809291908181526020018280546109e890613998565b8015610a355780601f10610a0a57610100808354040283529160200191610a35565b820191906000526020600020905b815481529060010190602001808311610a1857829003601f168201915b50505050506122f3565b9050610ada8160000151600b8054610a5690613998565b80601f0160208091040260200160405190810160405280929190818152602001828054610a8290613998565b8015610acf5780601f10610aa457610100808354040283529160200191610acf565b820191906000526020600020905b815481529060010190602001808311610ab257829003601f168201915b5050505050866123f2565b6000610ae58661249f565b6040516001600160a01b03821681529091507f6626a17a136b1d4b10944e84f813d8fb1dd2c376313ac76a7120284534d934649060200160405180910390a1815160405163b9cd1cbb60e01b91610b4191849190602401613b37565b60408051601f198184030181529190526020810180516001600160e01b03166001600160e01b03199093169290921790915296506105e695505050505050565b6005546040516001600160a01b0390911681527f6626a17a136b1d4b10944e84f813d8fb1dd2c376313ac76a7120284534d93464906020015b60405180910390a1506040805160048152602481019091526020810180516001600160e01b0316631294941560e21b17905290565b6060610bf9611fa8565b610c155760405162461bcd60e51b81526004016104c790613961565b6000610c1f61250f565b90508051602014610c7d5760405162461bcd60e51b815260206004820152602260248201527f506c656173652070726f7669646520612076616c6964204145532d323536206b604482015261657960f01b60648201526084016104c7565b336000908152600d602052604081205460ff1615159003610e7e576000610ca46000612234565b6040805160018082528183019092529192508291600091602080830190803683370190505090503081600081518110610cdf57610cdf613c43565b6001600160a01b039290921660209283029190910182015260408051600280825260608201835260009391929091830190803683370190505090503081600081518110610d2e57610d2e613c43565b6001600160a01b039283166020918202929092010152600454825191169082906001908110610d5f57610d5f613c43565b60200260200101906001600160a01b031690816001600160a01b0316815250506000610d9560008385600b80546109bc90613998565b9050610dac8160000151600b8054610a5690613998565b6000610db78661249f565b90506000610de48883604051602001610dd091906139cc565b604051602081830303815290604052612549565b90507f32a1b16f81819a1ebaec08df267055df9d90ca751999cf31dca10d152aef5ceb3382604051610e17929190613c59565b60405180910390a18251604051637b7c6add60e11b91610e3c91339190602401613b37565b60408051601f198184030181529190526020810180516001600160e01b03166001600160e01b03199093169290921790915298506105e6975050505050505050565b336000908152600c6020526040812054600b8054610ea49260801b91906104f690613998565b90506000610eb18261249f565b90506000610eca8483604051602001610dd091906139cc565b90507f32a1b16f81819a1ebaec08df267055df9d90ca751999cf31dca10d152aef5ceb3382604051610efd929190613c59565b60405180910390a150506040805160048152602481019091526020810180516001600160e01b0316631294941560e21b17905292506105e6915050565b5090565b60048054600554600654600754306000908152600c60205260409081902054905163095c646960e01b81526060966001600160a01b0396871696879663095c646996610f9b96918316958c959190931693919260801b9101613c7d565b6000604051808303816000875af1158015610fba573d6000803e3d6000fd5b505050506040513d6000823e601f3d908101601f19168201604052610fe29190810190613bbd565b9392505050565b6060610ff3611fa8565b61100f5760405162461bcd60e51b81526004016104c790613961565b61101833612574565b1561108b5760405162461bcd60e51b815260206004820152603f60248201527f596f752063616e6e6f7420726566756e6420796f75722062696420617320796f60448201527f7520617265207468652077696e6e6572206f66207468652061756374696f6e0060648201526084016104c7565b600a5460ff166110ad5760405162461bcd60e51b81526004016104c790613a41565b6008544210156110bc426120eb565b6110c76008546120eb565b6040516020016110d8929190613cba565b604051602081830303815290604052906111055760405162461bcd60e51b81526004016104c791906136c7565b5060048054336000908152600c602052604090819020549051630b77366360e21b81526001600160a01b03909216928392632ddcd98c92610f9b92889260809290921b9101613b37565b919050565b600054600554600654600754600854600954600a5460015460035460025460405160609a7fd5dad090ef8069fd35d51faeab32f2cf861bb5b9ffed51fcf0c34b55101d26a89a610bba9a6001600160a01b039283169a918316999083169891979096919560ff9091169491831693921691601090613d9b565b61120d6000368080601f0160208091040260200160405190810160405280939291908181526020018383808284376000920191909152506120f692505050565b565b6000546060906001600160a01b0316331461123c5760405162461bcd60e51b81526004016104c790613bf9565b600a5460ff161561128f5760405162461bcd60e51b815260206004820152601b60248201527f41756374696f6e2068617320616c72656164792073746172746564000000000060448201526064016104c7565b600854421061129d426120eb565b6112a86008546120eb565b6040516020016112b9929190613e14565b604051602081830303815290604052906112e65760405162461bcd60e51b81526004016104c791906136c7565b50600480546006546007546040516373b072f160e01b81526001600160a01b03928316948101949094526024840152169081906373b072f1906044016000604051808303816000875af1158015611341573d6000803e3d6000fd5b505050506040513d6000823e601f3d908101601f191682016040526113699190810190613bbd565b91505090565b6004546060906001600160a01b0316331461139c5760405162461bcd60e51b81526004016104c790613ebb565b6005546001600160a01b038381169116146113f95760405162461bcd60e51b815260206004820152601f60248201527f546865204e465420776173206e6f74207472616e73666572726564207965740060448201526064016104c7565b506040805160048152602481019091526020810180516001600160e01b031663297268ad60e01b179052919050565b600a5460ff1661144a5760405162461bcd60e51b81526004016104c790613a41565b600854421015611459426120eb565b6114646008546120eb565b604051602001611475929190613cba565b604051602081830303815290604052906114a25760405162461bcd60e51b81526004016104c791906136c7565b506114e36000368080601f0160208091040260200160405190810160405280939291908181526020018383808284376000920191909152506120f692505050565b600180546001600160a01b038087166001600160a01b03199283161790925560038054928616929091169190911790556002829055805161152b9060109060208401906135e3565b5050505050565b606061153c611fa8565b6115585760405162461bcd60e51b81526004016104c790613961565b6000546001600160a01b031633146115825760405162461bcd60e51b81526004016104c790613bf9565b600a5460ff16156115d55760405162461bcd60e51b815260206004820152601b60248201527f41756374696f6e2068617320616c72656164792073746172746564000000000060448201526064016104c7565b60048054600554600654600754306000908152600c60205260409081902054905163095c646960e01b81526001600160a01b0395861696879663095c646996610f9b96908216958c959190921693919260809190911b9101613c7d565b606061163c611fa8565b6116585760405162461bcd60e51b81526004016104c790613961565b6000546001600160a01b031633146116825760405162461bcd60e51b81526004016104c790613bf9565b600a5460ff166116a45760405162461bcd60e51b81526004016104c790613a41565b6008544210156116b3426120eb565b6116be6008546120eb565b6040516020016116cf929190613cba565b604051602081830303815290604052906116fc5760405162461bcd60e51b81526004016104c791906136c7565b506001546001600160a01b031661174f5760405162461bcd60e51b8152602060048201526017602482015276139bc8130c4b5dda5b9b995c881c9959da5cdd195c9959604a1b60448201526064016104c7565b6003546001600160a01b03166117a75760405162461bcd60e51b815260206004820152601a60248201527f4e6f2053554156452d77696e6e6572207265676973746572656400000000000060448201526064016104c7565b600480546003546001600160a01b039081166000908152600c602052604090819020549051630b77366360e21b815291909216928392632ddcd98c92610f9b92889260801b9101613b37565b60606117fd611fa8565b6118195760405162461bcd60e51b81526004016104c790613961565b61182233612574565b6118a35760405162461bcd60e51b815260206004820152604660248201527f596f7520617265207468652077696e6e6572206f66207468652061756374696f60448201527f6e20616e642063616e207468657265666f7265206e6f7420646f20746869732060648201526530b1ba34b7b760d11b608482015260a4016104c7565b600a5460ff166118c55760405162461bcd60e51b81526004016104c790613a41565b6008544210156118d4426120eb565b6118df6008546120eb565b6040516020016118f0929190613cba565b6040516020818303038152906040529061191d5760405162461bcd60e51b81526004016104c791906136c7565b5060048054600554600654600754306000908152600c60205260409081902054905163095c646960e01b81526001600160a01b0395861696879663095c646996610f9b96908216958c959190921693919260809190911b9101613c7d565b6060611985611fa8565b6119a15760405162461bcd60e51b81526004016104c790613961565b600a5460ff166119c35760405162461bcd60e51b81526004016104c790613a41565b6008544210156119d2426120eb565b6119dd6008546120eb565b6040516020016119ee929190613cba565b60405160208183030381529060405290611a1b5760405162461bcd60e51b81526004016104c791906136c7565b506004546001600160a01b03163314611a465760405162461bcd60e51b81526004016104c790613ebb565b60005b600e54811015611b40576000818152600f60209081526040808320546001600160a01b03168352600c909152812054600b8054611a8e9260801b91906104f690613998565b90506000611a9b8261249f565b9050866001600160a01b0316816001600160a01b031603611b2b576000838152600f6020526040908190205490516398554b7d60e01b91611aee918a916001600160a01b0316908a908a90602401613f3e565b60408051601f198184030181529190526020810180516001600160e01b03166001600160e01b0319909316929092179091529350610fe292505050565b50508080611b3890613f7b565b915050611a49565b50611b558460405160200161063991906139cc565b604051602001611b659190613f94565b60408051601f198184030181529082905262461bcd60e51b82526104c7916004016136c7565b600b8054611b9890613998565b80601f0160208091040260200160405190810160405280929190818152602001828054611bc490613998565b8015611c115780601f10611be657610100808354040283529160200191611c11565b820191906000526020600020905b815481529060010190602001808311611bf457829003601f168201915b505050505081565b60108181548110611c2957600080fd5b6000918252602090912001546001600160a01b0316905081565b611c836000368080601f0160208091040260200160405190810160405280939291908181526020018383808284376000920191909152506120f692505050565b6001600160a01b0382166000908152600c6020908152604080832080546001600160801b031916608086901c179055600d9091528120805460ff19166001179055600e80548492600f9290919082611cda83613f7b565b91905055815260200190815260200160002060006101000a8154816001600160a01b0302191690836001600160a01b031602179055505050565b6060611d1e611fa8565b611d3a5760405162461bcd60e51b81526004016104c790613961565b600a5460ff16611d5c5760405162461bcd60e51b81526004016104c790613a41565b600854421015611d6b426120eb565b611d766008546120eb565b604051602001611d87929190613cba565b60405160208183030381529060405290611db45760405162461bcd60e51b81526004016104c791906136c7565b50601054158015611dc757506000600e54115b15611f7857600454600e546001600160a01b03909116906000906001600160401b03811115611df857611df861370f565b604051908082528060200260200182016040528015611e21578160200160208202803683370190505b50905060005b600e54811015611ec3576000818152600f60209081526040808320546001600160a01b03168352600c909152812054600b8054611e6c9260801b91906104f690613998565b90506000611e798261249f565b905080848481518110611e8e57611e8e613c43565b60200260200101906001600160a01b031690816001600160a01b03168152505050508080611ebb90613f7b565b915050611e27565b507fda06ffd3cb14c640154f8ef76d0a6000c551e89b2af1b1ca066f638dbf4fd5af81604051611ef39190613ff0565b60405180910390a160085460405163f8fde20360e01b81526001600160a01b0384169163f8fde20391611f2a918591600401614003565b6000604051808303816000875af1158015611f49573d6000803e3d6000fd5b505050506040513d6000823e601f3d908101601f19168201604052611f719190810190613bbd565b9250505090565b7fda06ffd3cb14c640154f8ef76d0a6000c551e89b2af1b1ca066f638dbf4fd5af6010604051610bba9190614025565b604051600090819081906342010000908281818181865af19150503d8060008114611fef576040519150601f19603f3d011682016040523d82523d6000602084013e611ff4565b606091505b50915091508161201f576342010000816040516375fff46760e01b81526004016104c7929190613c59565b6020015192915050565b606060008063420200016001600160a01b0316858560405160200161204f929190614038565b60408051601f19818403018152908290526120699161405b565b6000604051808303816000865af19150503d80600081146120a6576040519150601f19603f3d011682016040523d82523d6000602084013e6120ab565b606091505b5091509150816120d6576342020001816040516375fff46760e01b81526004016104c7929190613c59565b9150505b92915050565b60606120da826126a8565b60606120da826126cc565b600061210182612710565b90508151810361210f575050565b600081835161211e9190613a8e565b90506000816001600160401b0381111561213a5761213a61370f565b6040519080825280601f01601f191660200182016040528015612164576020820181803683370190505b50905060005b828110156121d3578461217d8286614077565b8151811061218d5761218d613c43565b602001015160f81c60f81b8282815181106121aa576121aa613c43565b60200101906001600160f81b031916908160001a905350806121cb81613f7b565b91505061216a565b506000818060200190518101906121ea919061408a565b905060005b815181101561222c5761221a82828151811061220d5761220d613c43565b6020026020010151612874565b8061222481613f7b565b9150506121ef565b505050505050565b606060008063532000036001600160a01b03168460405160200161225891906141f8565b60408051601f19818403018152908290526122729161405b565b6000604051808303816000865af19150503d80600081146122af576040519150601f19603f3d011682016040523d82523d6000602084013e6122b4565b606091505b5091509150816122df576353200003816040516375fff46760e01b81526004016104c7929190613c59565b808060200190518101906107a69190613bbd565b6040805160c0810182526000808252602082018190529181019190915260608082018190526080820181905260a082015260008063420300006001600160a01b03168787878760405160200161234c9493929190614220565b60408051601f19818403018152908290526123669161405b565b6000604051808303816000865af19150503d80600081146123a3576040519150601f19603f3d011682016040523d82523d6000602084013e6123a8565b606091505b5091509150816123d3576342030000816040516375fff46760e01b81526004016104c7929190613c59565b808060200190518101906123e791906142ee565b979650505050505050565b60008063420200006001600160a01b0316858585604051602001612418939291906143d5565b60408051601f19818403018152908290526124329161405b565b6000604051808303816000865af19150503d806000811461246f576040519150601f19603f3d011682016040523d82523d6000602084013e612474565b606091505b50915091508161152b576342020000816040516375fff46760e01b81526004016104c7929190613c59565b6000806124ab83612a66565b905080516020146124fe5760405162461bcd60e51b815260206004820152601a60248201527f496e76616c69642070726976617465206b6579206c656e67746800000000000060448201526064016104c7565b610fe261250a8261440a565b612b8e565b606061254460405180604001604052806012815260200171636f6e666964656e7469616c496e7075747360701b815250612bcd565b905090565b6060610fe28383604051602001612560919061405b565b604051602081830303815290604052612c78565b6001600160a01b0381166000908152600d60209081526040808320549051849260ff909216916125aa91610639918591016139cc565b6040516020016125ba919061442e565b604051602081830303815290604052906125e75760405162461bcd60e51b81526004016104c791906136c7565b506001546001600160a01b031661263a5760405162461bcd60e51b8152602060048201526017602482015276139bc8130c4b5dda5b9b995c881c9959da5cdd195c9959604a1b60448201526064016104c7565b6003546001600160a01b03166126925760405162461bcd60e51b815260206004820152601a60248201527f4e6f2053554156452d77696e6e6572207265676973746572656400000000000060448201526064016104c7565b50506003546001600160a01b0390811691161490565b60606126b382612d42565b8051613078825260020160011990910190815292915050565b60606080604051019050602081016040526000815280600019835b928101926030600a8206018453600a9004806126e7575050819003601f19909101908152919050565b6000805b825181101561286e5760408051808201909152600381526254354360e81b6020909101528251601560fa1b9084908390811061275257612752613c43565b01602001516001600160f81b0319160361285c576001805b6040518060400160405280600381526020016254354360e81b8152505181101561282b57845161279a8285614077565b10158061280b57506040518060400160405280600381526020016254354360e81b81525081815181106127cf576127cf613c43565b01602001516001600160f81b031916856127e98386614077565b815181106127f9576127f9613c43565b01602001516001600160f81b03191614155b15612819576000915061282b565b8061282381613f7b565b91505061276a565b50801561285a576040518060400160405280600381526020016254354360e81b81525051826107a69190614077565b505b8061286681613f7b565b915050612714565b50505190565b60408101518051602083015151600003612893578060208301a0505050565b8260200151516001036128d057600083602001516000815181106128b9576128b9613c43565b60200260200101519050808260208501a150505050565b82602001515160020361293257600083602001516000815181106128f6576128f6613c43565b602002602001015190506000846020015160018151811061291957612919613c43565b6020026020010151905080828460208701a25050505050565b8260200151516003036129b9576000836020015160008151811061295857612958613c43565b602002602001015190506000846020015160018151811061297b5761297b613c43565b602002602001015190506000856020015160028151811061299e5761299e613c43565b602002602001015190508082848660208901a3505050505050565b826020015151600403612a6157600083602001516000815181106129df576129df613c43565b6020026020010151905060008460200151600181518110612a0257612a02613c43565b6020026020010151905060008560200151600281518110612a2557612a25613c43565b6020026020010151905060008660200151600381518110612a4857612a48613c43565b60200260200101519050808284868860208b01a4505050505b505050565b80516060908290612a799060029061449e565b15612a8357600080fd5b600060028251612a9391906144b2565b6001600160401b03811115612aaa57612aaa61370f565b6040519080825280601f01601f191660200182016040528015612ad4576020820181803683370190505b50905060005b60028351612ae891906144b2565b811015612b8657612b2683612afe8360026144c6565b612b09906001614077565b81518110612b1957612b19613c43565b016020015160f81c612da8565b612b3584612b098460026144c6565b612b409060106144dd565b612b4a9190614500565b60f81b828281518110612b5f57612b5f613c43565b60200101906001600160f81b031916908160001a905350612b7f81613f7b565b9050612ada565b509392505050565b6000806000612b9c84612eb5565b6040805160208082019490945280820192909252805180830382018152606090920190528051910120949350505050565b606060008063533000036001600160a01b031684604051602001612bf191906136c7565b60408051601f1981840301815290829052612c0b9161405b565b6000604051808303816000865af19150503d8060008114612c48576040519150601f19603f3d011682016040523d82523d6000602084013e612c4d565b606091505b5091509150816122df576353300003816040516375fff46760e01b81526004016104c7929190613c59565b6060600080635670000e6001600160a01b03168585604051602001612c9e929190614519565b60408051601f1981840301815290829052612cb89161405b565b6000604051808303816000865af19150503d8060008114612cf5576040519150601f19603f3d011682016040523d82523d6000602084013e612cfa565b606091505b509150915081612d2557635670000e816040516375fff46760e01b81526004016104c7929190613c59565b80806020019051810190612d399190613bbd565b95945050505050565b8051604051818001600282019081526f30313233343536373839616263646566600f52918301906022015b818414612d9857600184019350600f845116516001820153600f845160041c16518153600201612d6d565b6000815260200160405250919050565b6000600360fc1b60f883901b6001600160f81b03191610801590612dde5750603960f81b60f883901b6001600160f81b03191611155b15612dee576120da60308361453e565b606160f81b60f883901b6001600160f81b03191610801590612e225750603360f91b60f883901b6001600160f81b03191611155b15612e3e576061612e3483600a614500565b6120da919061453e565b604160f81b60f883901b6001600160f81b03191610801590612e725750602360f91b60f883901b6001600160f81b03191611155b15612e84576041612e3483600a614500565b60405162461bcd60e51b81526004016104c79060208082526004908201526319985a5b60e21b604082015260600190565b600080612f0c837f79be667ef9dcbbac55a06295ce870b07029bfcdb2dce28d959f2815b16f817987f483ada7726a3c4655da4fbfc0e1108a8fd17b448a68554199c47d08ffb10d4b860006401000003d019612f16565b9094909350915050565b6000806000806000612f2d8a8a8a60018b8b612f50565b925092509250612f3f83838389612fd2565b945094505050509550959350505050565b600080600088600003612f6a575086915085905084612fc6565b8860008060015b8315612fbd576001841615612f9757612f8f8383838f8f8f8e613041565b919450925090505b612fa26002856144b2565b9350612fb18c8c8c8c8c613374565b919d509b509950612f71565b91955093509150505b96509650969350505050565b6000806000612fe18585613517565b905060008480612ff357612ff3614488565b82830990506000858061300857613008614488565b828a0990506000868061301d5761301d614488565b878061302b5761302b614488565b8486098a09919a91995090975050505050505050565b6000808089158015613051575088155b15613063575085915084905083613367565b8615801561306f575085155b15613081575088915087905086613367565b613089613644565b848061309757613097614488565b898a09815284806130aa576130aa614488565b81518a09602082015284806130c1576130c1614488565b868709604082015284806130d7576130d7614488565b60408201518709606082015260408051608081019091528086806130fd576130fd614488565b60408401518e098152602001868061311757613117614488565b60608401518d098152602001868061313157613131614488565b83518b098152602001868061314857613148614488565b60208401518a0990526040810151815191925014158061317057506060810151602082015114155b6131bc5760405162461bcd60e51b815260206004820152601e60248201527f557365206a6163446f75626c652066756e6374696f6e20696e7374656164000060448201526064016104c7565b6131c4613644565b85806131d2576131d2614488565b82516131de9088613a8e565b604084015108815285806131f4576131f4614488565b60208301516132039088613a8e565b6060840151086020820152858061321c5761321c614488565b815180096040820152858061323357613233614488565b815160408301510960608201526000868061325057613250614488565b606083015161325f9089613a8e565b888061326d5761326d614488565b60208501518009089050868061328557613285614488565b878061329357613293614488565b88806132a1576132a1614488565b60408501518651096002096132b69089613a8e565b82089050600087806132ca576132ca614488565b88806132d8576132d8614488565b6132e2848b613a8e565b8a806132f0576132f0614488565b6040870151885109086020850151099050878061330f5761330f614488565b888061331d5761331d614488565b6060850151602087015109613332908a613a8e565b820890506000888061334657613346614488565b898061335457613354614488565b8b8f098551099297509095509093505050505b9750975097945050505050565b60008060008560000361338e57508691508590508461350c565b6000848061339e5761339e614488565b898a099050600085806133b3576133b3614488565b898a099050600086806133c8576133c8614488565b898a099050600087806133dd576133dd614488565b88806133eb576133eb614488565b848e0960040990506000888061340357613403614488565b898061341157613411614488565b8a8061341f5761341f614488565b8586098c098a8061343257613432614488565b87600309089050888061344757613447614488565b898061345557613455614488565b838408613462908b613a8e565b8a8061347057613470614488565b838409089450888061348457613484614488565b898061349257613492614488565b8a806134a0576134a0614488565b8687096008096134b0908b613a8e565b8a806134be576134be614488565b8b806134cc576134cc614488565b6134d6898e613a8e565b8608840908935088806134eb576134eb614488565b89806134f9576134f9614488565b8c8e096002099497509295509293505050505b955095509592505050565b600082158015906135285750818314155b801561353357508115155b6135705760405162461bcd60e51b815260206004820152600e60248201526d24b73b30b634b210373ab6b132b960911b60448201526064016104c7565b6000600183825b86156135d85761358787836144b2565b905082868061359857613598614488565b87806135a6576135a6614488565b8584096135b39089613a8e565b86089094509250866135c581836144c6565b6135cf9084613a8e565b97509150613577565b509195945050505050565b828054828255906000526020600020908101928215613638579160200282015b8281111561363857825182546001600160a01b0319166001600160a01b03909116178255602090920191600190910190613603565b50610f3a929150613662565b60405180608001604052806004906020820280368337509192915050565b5b80821115610f3a5760008155600101613663565b60005b8381101561369257818101518382015260200161367a565b50506000910152565b600081518084526136b3816020860160208601613677565b601f01601f19169290920160200192915050565b602081526000610fe2602083018461369b565b6001600160a01b03811681146136ef57600080fd5b50565b60006020828403121561370457600080fd5b8135610fe2816136da565b634e487b7160e01b600052604160045260246000fd5b604051606081016001600160401b03811182821017156137475761374761370f565b60405290565b60405160c081016001600160401b03811182821017156137475761374761370f565b604051601f8201601f191681016001600160401b03811182821017156137975761379761370f565b604052919050565b60006001600160401b038211156137b8576137b861370f565b5060051b60200190565b600082601f8301126137d357600080fd5b813560206137e86137e38361379f565b61376f565b82815260059290921b8401810191818101908684111561380757600080fd5b8286015b8481101561382b57803561381e816136da565b835291830191830161380b565b509695505050505050565b6000806000806080858703121561384c57600080fd5b8435613857816136da565b93506020850135613867816136da565b92506040850135915060608501356001600160401b0381111561388957600080fd5b613895878288016137c2565b91505092959194509250565b6001600160801b0319811681146136ef57600080fd5b600080604083850312156138ca57600080fd5b82356138d5816136da565b915060208301356138e5816138a1565b809150509250929050565b60008060006060848603121561390557600080fd5b8335613910816136da565b92506020840135915060408401356001600160401b0381111561393257600080fd5b61393e868287016137c2565b9150509250925092565b60006020828403121561395a57600080fd5b5035919050565b6020808252601d908201527f6d7573742062652063616c6c656420636f6e666964656e7469616c6c79000000604082015260600190565b600181811c908216806139ac57607f821691505b6020821081036107aa57634e487b7160e01b600052602260045260246000fd5b60609190911b6bffffffffffffffffffffffff1916815260140190565b7f4e6f2062696464696e6720616464726573732072656c6174656420746f206d738152690339739b2b73232b91d160b51b602082015260008251613a3481602a850160208701613677565b91909101602a0192915050565b60208082526017908201527f41756374696f6e206e6f74207965742073746172746564000000000000000000604082015260600190565b634e487b7160e01b600052601160045260246000fd5b818103818111156120da576120da613a78565b7f41756374696f6e20656e64696e6720746f6f20736f6f6e212043757272656e7481526b0103a34b6b2b9ba30b6b81d160a51b602082015260008351613aee81602c850160208801613677565b7f203e206261636b206f757420756e74696c2074696d657374616d703a20000000602c918401918201528351613b2b816049840160208801613677565b01604901949350505050565b6001600160a01b039290921682526001600160801b031916602082015260400190565b600082601f830112613b6b57600080fd5b81516001600160401b03811115613b8457613b8461370f565b613b97601f8201601f191660200161376f565b818152846020838601011115613bac57600080fd5b6120d6826020830160208701613677565b600060208284031215613bcf57600080fd5b81516001600160401b03811115613be557600080fd5b613bf184828501613b5a565b949350505050565b6020808252602a908201527f596f7520617265206e6f74207468652061756374696f6e656572206f6620746860408201526934b99030bab1ba34b7b760b11b606082015260800190565b634e487b7160e01b600052603260045260246000fd5b6001600160a01b0383168152604060208201819052600090613bf19083018461369b565b6001600160a01b039586168152938516602085015291909316604083015260608201929092526001600160801b0319909116608082015260a00190565b7f41756374696f6e2074696d65206e6f74206f766572207965742120437572726581526d0373a103a34b6b2b9ba30b6b81d160951b602082015260008351613d0981602e850160208801613677565b7f203c2061756374696f6e20656e64696e672074696d657374616d703a20000000602e918401918201528351613d4681604b840160208801613677565b01604b01949350505050565b6000815480845260208085019450836000528060002060005b83811015613d905781546001600160a01b031687529582019560019182019101613d6b565b509495945050505050565b600061016060018060a01b03808f168452808e166020850152808d1660408501528b60608501528a60808501528960a085015288151560c085015280881660e0850152808716610100850152508461012084015280610140840152613e0281840185613d52565b9e9d5050505050505050505050505050565b7f41756374696f6e20656e64696e672074696d65206973206f76657220616c726581527f616479212043757272656e742074696d657374616d703a200000000000000000602082015260008351613e72816038850160208801613677565b7f203e2061756374696f6e20656e64696e2074696d657374616d703a20000000006038918401918201528351613eaf816054840160208801613677565b01605401949350505050565b6020808252602a908201527f4f6e6c7920746865206f7261636c652063616e20706572666f726d20746869736040820152691037b832b930ba34b7b760b11b606082015260800190565b600081518084526020808501945080840160005b83811015613d905781516001600160a01b031687529582019590820190600101613f19565b6001600160a01b0385811682528416602082015260408101839052608060608201819052600090613f7190830184613f05565b9695505050505050565b600060018201613f8d57613f8d613a78565b5060010190565b7f57696e6e6572204c312061646472657373206973206e6f742070617274206f6681526d0103a34329030bab1ba34b7b71d160951b602082015260008251613fe381602e850160208701613677565b91909101602e0192915050565b602081526000610fe26020830184613f05565b6040815260006140166040830185613f05565b90508260208301529392505050565b602081526000610fe26020830184613d52565b6001600160801b031983168152604060208201526000613bf1604083018461369b565b6000825161406d818460208701613677565b9190910192915050565b808201808211156120da576120da613a78565b6000602080838503121561409d57600080fd5b82516001600160401b03808211156140b457600080fd5b818501915085601f8301126140c857600080fd5b81516140d66137e38261379f565b81815260059190911b830184019084810190888311156140f557600080fd5b8585015b838110156141eb5780518581111561411057600080fd5b86016060818c03601f1901121561412657600080fd5b61412e613725565b8882015161413b816136da565b815260408201518781111561414f57600080fd5b8201603f81018d1361416057600080fd5b898101516141706137e38261379f565b81815260059190911b8201604001908b8101908f83111561419057600080fd5b6040840193505b828410156141b05783518252928c0192908c0190614197565b848d01525050506060820151878111156141c957600080fd5b6141d78d8b83860101613b5a565b6040830152508452509186019186016140f9565b5098975050505050505050565b602081016002831061421a57634e487b7160e01b600052602160045260246000fd5b91905290565b6001600160401b03851681526080602082015260006142426080830186613f05565b82810360408401526142548186613f05565b905082810360608401526123e7818561369b565b805161114f816138a1565b80516001600160401b038116811461114f57600080fd5b600082601f83011261429b57600080fd5b815160206142ab6137e38361379f565b82815260059290921b840181019181810190868411156142ca57600080fd5b8286015b8481101561382b5780516142e1816136da565b83529183019183016142ce565b60006020828403121561430057600080fd5b81516001600160401b038082111561431757600080fd5b9083019060c0828603121561432b57600080fd5b61433361374d565b61433c83614268565b815261434a60208401614268565b602082015261435b60408401614273565b604082015260608301518281111561437257600080fd5b61437e8782860161428a565b60608301525060808301518281111561439657600080fd5b6143a28782860161428a565b60808301525060a0830151828111156143ba57600080fd5b6143c687828601613b5a565b60a08301525095945050505050565b6001600160801b0319841681526060602082015260006143f8606083018561369b565b8281036040840152613f71818561369b565b805160208083015191908110156107aa5760001960209190910360031b1b16919050565b7f4e6f2062696464696e6720616464726573732072656c6174656420746f20746881526b034b99030b2323932b9b99d160a51b60208201526000825161447b81602c850160208701613677565b91909101602c0192915050565b634e487b7160e01b600052601260045260246000fd5b6000826144ad576144ad614488565b500690565b6000826144c1576144c1614488565b500490565b80820281158282048414176120da576120da613a78565b60ff81811683821602908116908181146144f9576144f9613a78565b5092915050565b60ff81811683821601908111156120da576120da613a78565b60408152600061452c604083018561369b565b8281036020840152612d39818561369b565b60ff82811682821603908111156120da576120da613a7856fea2646970667358221220e968e2c86fc66f922610ba5dccda728f15c4c0f3702ce11feb07753ee964222464736f6c63430008140033",
    "linkReferences": {}
  },
  "methodIdentifiers": {
    "PRIVATE_KEYS()": "ece3e1bc",
    "auctionEndTime()": "4b449cba",
    "auctionHasStarted()": "61e2f02f",
    "auctionWinnerL1()": "05dc24bf",
    "auctionWinnerSuave()": "43954143",
    "auctioneerSUAVE()": "0e258b49",
    "backOutBid(address)": "0b6b1a9b",
    "bidderAmount()": "d864134b",
    "claimNFT(address)": "d10fdb5c",
    "claimWinningBid(address)": "bb5fdba3",
    "confirmNFTowner(address)": "93cc1f66",
    "createNFTaddressCallback(address,bytes16)": "b9cd1cbb",
    "endAuction()": "fe67a54b",
    "endAuctionCallback(address,uint256,address[])": "e68c5f04",
    "endAuctionOnchain(address,address,uint256,address[])": "98554b7d",
    "getBiddingAddress()": "36021534",
    "getNftHoldingAddressPrivateKey()": "0759b30f",
    "minimalBid()": "65843c12",
    "moveNFTDebug(address)": "379a147c",
    "nftContract()": "d56d229d",
    "nftHoldingAddress()": "9eb52da9",
    "onchainCallback()": "4a525054",
    "oracle()": "7dc0d1d0",
    "printInfo()": "4148f1f8",
    "refundBid(address)": "385e3155",
    "refundNFT(address)": "b43e4e07",
    "registerBiddingPrivateKeyCallback(address,bytes16)": "f6f8d5ba",
    "revealedL1Addresses(uint256)": "f080141b",
    "setUpAuction()": "2fef54b5",
    "startAuction()": "6b64c769",
    "startAuctionCallback()": "297268ad",
    "startAuctionTest()": "2b9f49f0",
    "tokenId()": "17d70f7c",
    "winningBid()": "8cf80438"
  },
  "id": 37
}