{
  "abi": [
    {
      "type": "constructor",
      "inputs": [],
      "stateMutability": "nonpayable"
    },
    {
      "type": "function",
      "name": "PRIVATE_KEYS",
      "inputs": [],
      "outputs": [
        {
          "name": "",
          "type": "string",
          "internalType": "string"
        }
      ],
      "stateMutability": "view"
    },
    {
      "type": "function",
      "name": "RPC",
      "inputs": [],
      "outputs": [
        {
          "name": "",
          "type": "string",
          "internalType": "string"
        }
      ],
      "stateMutability": "view"
    },
    {
      "type": "function",
      "name": "endAuction",
      "inputs": [],
      "outputs": [
        {
          "name": "",
          "type": "bytes",
          "internalType": "bytes"
        }
      ],
      "stateMutability": "nonpayable"
    },
    {
      "type": "function",
      "name": "getBiddingAddress",
      "inputs": [],
      "outputs": [
        {
          "name": "",
          "type": "bytes",
          "internalType": "bytes"
        }
      ],
      "stateMutability": "nonpayable"
    },
    {
      "type": "function",
      "name": "getTxByHash",
      "inputs": [
        {
          "name": "txHash",
          "type": "string",
          "internalType": "string"
        },
        {
          "name": "chainId",
          "type": "uint256",
          "internalType": "uint256"
        }
      ],
      "outputs": [
        {
          "name": "",
          "type": "bytes",
          "internalType": "bytes"
        }
      ],
      "stateMutability": "nonpayable"
    },
    {
      "type": "function",
      "name": "onchainCallback",
      "inputs": [],
      "outputs": [],
      "stateMutability": "nonpayable"
    },
    {
      "type": "function",
      "name": "placeBid",
      "inputs": [],
      "outputs": [
        {
          "name": "",
          "type": "bytes",
          "internalType": "bytes"
        }
      ],
      "stateMutability": "nonpayable"
    },
    {
      "type": "function",
      "name": "printBalance",
      "inputs": [
        {
          "name": "account",
          "type": "address",
          "internalType": "address"
        },
        {
          "name": "chainId",
          "type": "uint256",
          "internalType": "uint256"
        }
      ],
      "outputs": [
        {
          "name": "",
          "type": "bytes",
          "internalType": "bytes"
        }
      ],
      "stateMutability": "nonpayable"
    },
    {
      "type": "function",
      "name": "printBalance",
      "inputs": [
        {
          "name": "account",
          "type": "address",
          "internalType": "address"
        }
      ],
      "outputs": [
        {
          "name": "",
          "type": "bytes",
          "internalType": "bytes"
        }
      ],
      "stateMutability": "nonpayable"
    },
    {
      "type": "function",
      "name": "printERC20Balance",
      "inputs": [
        {
          "name": "coinAddr",
          "type": "address",
          "internalType": "address"
        },
        {
          "name": "account",
          "type": "address",
          "internalType": "address"
        }
      ],
      "outputs": [
        {
          "name": "",
          "type": "bytes",
          "internalType": "bytes"
        }
      ],
      "stateMutability": "nonpayable"
    },
    {
      "type": "function",
      "name": "printERC20Balance",
      "inputs": [
        {
          "name": "coinAddr",
          "type": "address",
          "internalType": "address"
        },
        {
          "name": "account",
          "type": "address",
          "internalType": "address"
        },
        {
          "name": "chainId",
          "type": "uint256",
          "internalType": "uint256"
        }
      ],
      "outputs": [
        {
          "name": "",
          "type": "bytes",
          "internalType": "bytes"
        }
      ],
      "stateMutability": "nonpayable"
    },
    {
      "type": "function",
      "name": "printInfo",
      "inputs": [],
      "outputs": [
        {
          "name": "",
          "type": "bytes",
          "internalType": "bytes"
        }
      ],
      "stateMutability": "nonpayable"
    },
    {
      "type": "function",
      "name": "printNonce",
      "inputs": [
        {
          "name": "account",
          "type": "address",
          "internalType": "address"
        },
        {
          "name": "chainId",
          "type": "uint256",
          "internalType": "uint256"
        }
      ],
      "outputs": [
        {
          "name": "",
          "type": "bytes",
          "internalType": "bytes"
        }
      ],
      "stateMutability": "nonpayable"
    },
    {
      "type": "function",
      "name": "printNonce",
      "inputs": [
        {
          "name": "account",
          "type": "address",
          "internalType": "address"
        }
      ],
      "outputs": [
        {
          "name": "",
          "type": "bytes",
          "internalType": "bytes"
        }
      ],
      "stateMutability": "nonpayable"
    },
    {
      "type": "function",
      "name": "printRPCEndpoint",
      "inputs": [
        {
          "name": "chainId",
          "type": "uint256",
          "internalType": "uint256"
        }
      ],
      "outputs": [
        {
          "name": "",
          "type": "bytes",
          "internalType": "bytes"
        }
      ],
      "stateMutability": "nonpayable"
    },
    {
      "type": "function",
      "name": "reclaimBid",
      "inputs": [],
      "outputs": [
        {
          "name": "",
          "type": "bytes",
          "internalType": "bytes"
        }
      ],
      "stateMutability": "nonpayable"
    },
    {
      "type": "function",
      "name": "registerRPCOffchain",
      "inputs": [
        {
          "name": "chainId",
          "type": "uint256",
          "internalType": "uint256"
        }
      ],
      "outputs": [
        {
          "name": "",
          "type": "bytes",
          "internalType": "bytes"
        }
      ],
      "stateMutability": "nonpayable"
    },
    {
      "type": "function",
      "name": "relayTransaction",
      "inputs": [
        {
          "name": "rlpEncodedTxn",
          "type": "bytes",
          "internalType": "bytes"
        }
      ],
      "outputs": [],
      "stateMutability": "nonpayable"
    },
    {
      "type": "function",
      "name": "revealBidders",
      "inputs": [],
      "outputs": [
        {
          "name": "",
          "type": "bytes",
          "internalType": "bytes"
        }
      ],
      "stateMutability": "nonpayable"
    },
    {
      "type": "function",
      "name": "updatePrivateKeyOnchain",
      "inputs": [
        {
          "name": "owner",
          "type": "address",
          "internalType": "address"
        },
        {
          "name": "keyRecord",
          "type": "bytes16",
          "internalType": "Suave.DataId"
        }
      ],
      "outputs": [],
      "stateMutability": "nonpayable"
    },
    {
      "type": "function",
      "name": "updateRPCOnchain",
      "inputs": [
        {
          "name": "chainId",
          "type": "uint256",
          "internalType": "uint256"
        },
        {
          "name": "_rpcRecord",
          "type": "bytes16",
          "internalType": "Suave.DataId"
        }
      ],
      "outputs": [],
      "stateMutability": "nonpayable"
    },
    {
      "type": "event",
      "name": "AuctionEndedAmbigious",
      "inputs": [
        {
          "name": "numberMaxBidders",
          "type": "uint256",
          "indexed": false,
          "internalType": "uint256"
        },
        {
          "name": "bidAmount",
          "type": "uint256",
          "indexed": false,
          "internalType": "uint256"
        }
      ],
      "anonymous": false
    },
    {
      "type": "event",
      "name": "AuctionOpened",
      "inputs": [
        {
          "name": "contractAddr",
          "type": "address",
          "indexed": false,
          "internalType": "address"
        },
        {
          "name": "endTimestamp",
          "type": "uint256",
          "indexed": false,
          "internalType": "uint256"
        },
        {
          "name": "bidderAmount",
          "type": "uint256",
          "indexed": false,
          "internalType": "uint256"
        }
      ],
      "anonymous": false
    },
    {
      "type": "event",
      "name": "Balance",
      "inputs": [
        {
          "name": "owner",
          "type": "address",
          "indexed": false,
          "internalType": "address"
        },
        {
          "name": "value",
          "type": "uint256",
          "indexed": false,
          "internalType": "uint256"
        }
      ],
      "anonymous": false
    },
    {
      "type": "event",
      "name": "BidPlacedEvent",
      "inputs": [
        {
          "name": "bidder",
          "type": "address",
          "indexed": false,
          "internalType": "address"
        },
        {
          "name": "value",
          "type": "uint256",
          "indexed": false,
          "internalType": "uint256"
        }
      ],
      "anonymous": false
    },
    {
      "type": "event",
      "name": "BiddingAddress",
      "inputs": [
        {
          "name": "owner",
          "type": "address",
          "indexed": false,
          "internalType": "address"
        },
        {
          "name": "encodedL1Address",
          "type": "string",
          "indexed": false,
          "internalType": "string"
        }
      ],
      "anonymous": false
    },
    {
      "type": "event",
      "name": "ERC20Balance",
      "inputs": [
        {
          "name": "coinAddr",
          "type": "address",
          "indexed": false,
          "internalType": "address"
        },
        {
          "name": "owner",
          "type": "address",
          "indexed": false,
          "internalType": "address"
        },
        {
          "name": "value",
          "type": "uint256",
          "indexed": false,
          "internalType": "uint256"
        }
      ],
      "anonymous": false
    },
    {
      "type": "event",
      "name": "FundsTooLessToPayout",
      "inputs": [
        {
          "name": "addr",
          "type": "address",
          "indexed": false,
          "internalType": "address"
        }
      ],
      "anonymous": false
    },
    {
      "type": "event",
      "name": "HttpResponse",
      "inputs": [
        {
          "name": "response",
          "type": "string",
          "indexed": false,
          "internalType": "string"
        }
      ],
      "anonymous": false
    },
    {
      "type": "event",
      "name": "NonceCounter",
      "inputs": [
        {
          "name": "owner",
          "type": "address",
          "indexed": false,
          "internalType": "address"
        },
        {
          "name": "value",
          "type": "uint256",
          "indexed": false,
          "internalType": "uint256"
        }
      ],
      "anonymous": false
    },
    {
      "type": "event",
      "name": "RPCEndpoint",
      "inputs": [
        {
          "name": "chainId",
          "type": "uint256",
          "indexed": false,
          "internalType": "uint256"
        },
        {
          "name": "endpointURL",
          "type": "string",
          "indexed": false,
          "internalType": "string"
        }
      ],
      "anonymous": false
    },
    {
      "type": "event",
      "name": "RPCEndpointUpdated",
      "inputs": [
        {
          "name": "chainId",
          "type": "uint256",
          "indexed": false,
          "internalType": "uint256"
        }
      ],
      "anonymous": false
    },
    {
      "type": "event",
      "name": "RevealBiddingAddress",
      "inputs": [
        {
          "name": "bidder",
          "type": "address",
          "indexed": false,
          "internalType": "address"
        }
      ],
      "anonymous": false
    },
    {
      "type": "event",
      "name": "TxnSignature",
      "inputs": [
        {
          "name": "r",
          "type": "bytes32",
          "indexed": false,
          "internalType": "bytes32"
        },
        {
          "name": "s",
          "type": "bytes32",
          "indexed": false,
          "internalType": "bytes32"
        }
      ],
      "anonymous": false
    },
    {
      "type": "event",
      "name": "WinnerAddress",
      "inputs": [
        {
          "name": "winner",
          "type": "address",
          "indexed": false,
          "internalType": "address"
        },
        {
          "name": "amount",
          "type": "uint256",
          "indexed": false,
          "internalType": "uint256"
        }
      ],
      "anonymous": false
    },
    {
      "type": "error",
      "name": "PeekerReverted",
      "inputs": [
        {
          "name": "",
          "type": "address",
          "internalType": "address"
        },
        {
          "name": "",
          "type": "bytes",
          "internalType": "bytes"
        }
      ]
    }
  ],
  "bytecode": {
    "object": "0x60c060405260036080819052624b455960e81b60a0908152620000269160049190620000bb565b5060006007556040805180820190915260038082526252504360e81b60209092019182526200005891600991620000bb565b503480156200006657600080fd5b50600180546001600160a01b03191633179055620000864260f062000161565b600055600280546001600160a01b031916733a5611e9a0dcb0d7590d408d63c9f691e669e29d1790556101a4600355620001c4565b828054620000c99062000188565b90600052602060002090601f016020900481019282620000ed576000855562000138565b82601f106200010857805160ff191683800117855562000138565b8280016001018555821562000138579182015b82811115620001385782518255916020019190600101906200011b565b50620001469291506200014a565b5090565b5b808211156200014657600081556001016200014b565b600082198211156200018357634e487b7160e01b600052601160045260246000fd5b500190565b600181811c908216806200019d57607f821691505b602082108103620001be57634e487b7160e01b600052602260045260246000fd5b50919050565b61a0c580620001d46000396000f3fe60806040523480156200001157600080fd5b5060043610620001515760003560e01c8063ce6d3cdb11620000c7578063eb1292ea1162000086578063eb1292ea146200027b578063ece3e1bc1462000292578063ecfc7ecc146200029c578063efdd74c314620002a6578063f7bddfcb14620002bd578063fe67a54b14620002d457600080fd5b8063ce6d3cdb1462000222578063d5c79af21462000239578063dd242fad1462000243578063e1580684146200025a578063eae04747146200027157600080fd5b8063564e41101162000114578063564e411014620001af5780636e4bb38c14620001c65780638111fe7914620001dd578063b6ccab8514620001f4578063c9219f8c146200020b57600080fd5b806304ad5c2914620001565780633602153414620001855780634148f1f8146200018f5780634a37057314620001995780634a52505414620001a3575b600080fd5b6200016d6200016736600462004ae6565b620002de565b6040516200017c919062004b85565b60405180910390f35b6200016d620002f9565b6200016d620006d9565b6200016d6200074d565b620001ad620007e3565b005b6200016d620001c036600462004b9a565b62000827565b6200016d620001d736600462004ccf565b620008e4565b6200016d620001ee36600462004d2c565b62000a64565b6200016d6200020536600462004b9a565b62000b71565b620001ad6200021c36600462004d5d565b62000bf8565b6200016d6200023336600462004d2c565b62000ccd565b6200016d62000d9e565b620001ad6200025436600462004d90565b62000f40565b6200016d6200026b36600462004ddd565b62000faf565b6200016d62001076565b6200016d6200028c36600462004e23565b6200115c565b6200016d6200116d565b6200016d6200117c565b6200016d620002b736600462004e23565b620013d9565b620001ad620002ce36600462004e43565b620013ea565b6200016d62001456565b6060620002f0838362aa36a762000faf565b90505b92915050565b3360009081526006602052604081205460609160ff909116151590036200059157600054421115620003985760405162461bcd60e51b815260206004820152603d60248201527f41756374696f6e20697320616c7265616479206f7665722c2063616e6e6f742060448201527f637265617465206e65772062696464696e67206164647265737365732e00000060648201526084015b60405180910390fd5b6000620003a66000620015e2565b6040805160018082528183019092529192508291600091602080830190803683370190505090503081600081518110620003e457620003e462004e6b565b60200260200101906001600160a01b031690816001600160a01b031681525050600062000439600083846040518060400160405280600c81526020016b505249564154455f4b45595360a01b815250620016b4565b9050620004de816000015160048054620004539062004e81565b80601f0160208091040260200160405190810160405280929190818152602001828054620004819062004e81565b8015620004d25780601f10620004a657610100808354040283529160200191620004d2565b820191906000526020600020905b815481529060010190602001808311620004b457829003601f168201915b505050505085620017be565b6000620004eb856200187b565b90507f8e22a716ee926d0925fa29838031d496f4a225975f8a8130b2859e582815205233620005256200051f3385620018fa565b62001932565b6040516200053592919062004eb7565b60405180910390a15051604080513360248201526001600160801b031990921660448084019190915281518084039091018152606490920190526020810180516001600160e01b031663324867e360e21b179052949350505050565b3360009081526005602052604081205460048054620006449260801b9190620005ba9062004e81565b80601f0160208091040260200160405190810160405280929190818152602001828054620005e89062004e81565b8015620006395780601f106200060d5761010080835404028352916020019162000639565b820191906000526020600020905b8154815290600101906020018083116200061b57829003601f168201915b505050505062001b76565b905060006200065d620006578362001c2c565b6200187b565b90507f8e22a716ee926d0925fa29838031d496f4a225975f8a8130b2859e582815205233620006916200051f3385620018fa565b604051620006a192919062004eb7565b60405180910390a150506040805160048152602481019091526020810180516001600160e01b0316631294941560e21b179052919050565b6000546007546040805130815260208101939093528201526060907f0f836ab67e86d5c433b0237d5fd085d4c30090d30384c68b3c14621b3106556690820160405180910390a1506040805160048152602481019091526020810180516001600160e01b0316631294941560e21b17905290565b600980546200075c9062004e81565b80601f01602080910402602001604051908101604052809291908181526020018280546200078a9062004e81565b8015620007db5780601f10620007af57610100808354040283529160200191620007db565b820191906000526020600020905b815481529060010190602001808311620007bd57829003601f168201915b505050505081565b620008256000368080601f01602080910402602001604051908101604052809392919081815260200183838082843760009201919091525062001ce992505050565b565b6000818152600b6020526040902054606090829060ff166200085d5760405162461bcd60e51b81526004016200038f9062004edd565b60006200086b858562001e3f565b604080516001600160a01b0388168152602081018390529192507f3b24b105d571ada2c5ff343f2d44669f73eb6919590174de6e8146ca28159ab791015b60405180910390a1506040805160048152602481019091526020810180516001600160e01b0316631294941560e21b17905291505092915050565b6000818152600b6020526040902054606090829060ff166200091a5760405162461bcd60e51b81526004016200038f9062004edd565b604080516001808252818301909252600091816020015b6060815260200190600190039081620009315790505090506040518060400160405280601e81526020017f436f6e74656e742d547970653a206170706c69636174696f6e2f6a736f6e00008152508160008151811062000995576200099562004e6b565b602002602001018190525060006040518060c00160405280620009eb620009e5600a60008a815260200190815260200160002060009054906101000a900460801b60098054620005ba9062004e81565b62001c2c565b8152602001604051806040016040528060048152602001631413d4d560e21b8152508152602001838152602001878760405160200162000a2d92919062004f29565b60408051601f1981840301815291815290825260006020830152611b58910152905062000a5a8162001f52565b9695505050505050565b6060600062000a7262002006565b6040805160018082528183019092529192506000919060208083019080368337019050509050308160008151811062000aaf5762000aaf62004e6b565b60200260200101906001600160a01b031690816001600160a01b031681525050600062000b04600083846040518060400160405280600c81526020016b1c9c18d7d95b991c1bda5b9d60a21b815250620016b4565b905062000b1e816000015160098054620004539062004e81565b516040805160248101969096526001600160801b031990911660448087019190915281518087039091018152606490950190525050506020810180516001600160e01b031663f7bddfcb60e01b17905290565b6000818152600b6020526040902054606090829060ff1662000ba75760405162461bcd60e51b81526004016200038f9062004edd565b600062000bb5858562002042565b604080516001600160a01b0388168152602081018390529192507f134e340554ff8a7d64280a2a28b982df554e2595e5bf45cd39368f31099172a69101620008a9565b62000c3a6000368080601f01602080910402602001604051908101604052809392919081815260200183838082843760009201919091525062001ce992505050565b6001600160a01b038216600090815260056020908152604080832080546001600160801b031916608086901c17905560069091528120805460ff191660011790556007805484926008929091908262000c938362004fdf565b91905055815260200190815260200160002060006101000a8154816001600160a01b0302191690836001600160a01b031602179055505050565b6000818152600b6020526040902054606090829060ff1662000d035760405162461bcd60e51b81526004016200038f9062004edd565b6000838152600a6020526040902054600980547f8ade15e69c108c4dfe55277d2959a4d55a0a0b68fc8bf37c19b3410fb96efc5392869262000d5492620009e59260801b9190620005ba9062004e81565b60405162000d6492919062004ffb565b60405180910390a16040805160048152602481019091526020810180516001600160e01b0316631294941560e21b17905291505b50919050565b606060005442111562000deb5760405162461bcd60e51b815260206004820152601460248201527320bab1ba34b7b7103a34b6b29034b99037bb32b960611b60448201526064016200038f565b3360008181526006602052604090205460ff1662000e1d5760405162461bcd60e51b81526004016200038f9062005016565b336000908152600560205260408120546004805462000e469260801b9190620005ba9062004e81565b9050600062000e59620006578362001c2c565b9050600062000e688262002114565b9050620186a0811062000eda5762000ed333733a5611e9a0dcb0d7590d408d63c9f691e669e29d62000e9e620186a08562005060565b604051806040016040528060128152602001715468616e6b7320666f722062696464696e6760701b81525062aa36a762002125565b5062000f0e565b6040513381527fd692b103ef89b808053c5972eee16682770a6e1aa473b5ce8d8b4d2b30807e609060200160405180910390a15b50506040805160048152602481019091526020810180516001600160e01b0316631294941560e21b1790529250505090565b600062000f4d8262002380565b60c08101516000908152600a602052604081205460098054939450919262000f8392620009e59260801b91620005ba9062004e81565b9050600062000f9882858560c00151620025ce565b9050600062000fa78262001f52565b505050505050565b6000818152600b6020526040902054606090829060ff1662000fe55760405162461bcd60e51b81526004016200038f9062004edd565b600062000ff48686866200274e565b604080516001600160a01b03808a168252881660208201529081018290529091507f5b4d96e9dd904741ef64e77c434f173074692a9347f17f49e183c334f2cfd1f59060600160405180910390a1506040805160048152602481019091526020810180516001600160e01b0316631294941560e21b1790529150509392505050565b606060005b6007548110156200112e576000818152600860209081526040808320546001600160a01b03168352600590915281205460048054620010c49260801b9190620005ba9062004e81565b90506000620010d7620006578362001c2c565b6040516001600160a01b03821681529091507f45cebfb0355f4c3506802d84e454c517d169fcef2fb9ac4c245a69159950eb9d9060200160405180910390a150508080620011259062004fdf565b9150506200107b565b50506040805160048152602481019091526020810180516001600160e01b0316631294941560e21b17905290565b6060620002f38262aa36a762000b71565b600480546200075c9062004e81565b6060600054421115620011c95760405162461bcd60e51b815260206004820152601460248201527320bab1ba34b7b7103a34b6b29034b99037bb32b960611b60448201526064016200038f565b3360008181526006602052604090205460ff16620011fb5760405162461bcd60e51b81526004016200038f9062005016565b620012056200286d565b620012535760405162461bcd60e51b815260206004820152601d60248201527f6d7573742062652063616c6c656420636f6e666964656e7469616c6c7900000060448201526064016200038f565b60006200125f62002006565b905060006200126e8262002380565b336000908152600560205260408120546004805493945091926200129f9260809290921b9190620005ba9062004e81565b90506000620012b2620006578362001c2c565b9050806001600160a01b031683600001516001600160a01b031614620013105760405162461bcd60e51b8152602060048201526012602482015271556e6b6e6f776e20746f206164647265737360701b60448201526064016200038f565b633b9aca00836060015110156200135b5760405162461bcd60e51b815260206004820152600e60248201526d2b30b63ab2903a37b7903637bb9760911b60448201526064016200038f565b82516060840151604080516001600160a01b03909316835260208301919091527f9ba5ba63c4d0a7bbfbd484f2396254a35fc07b6ef2aa2f3d976fce1c1d79f45a910160405180910390a150506040805160048152602481019091526020810180516001600160e01b0316631294941560e21b179052935050505090565b6060620002f38262aa36a762000827565b6000828152600a6020908152604080832080546001600160801b031916608086901c179055600b825291829020805460ff1916600117905590518381527f75f21ca04fec38f3a9c5d47e1e2a6f75c114170867b1335a94e53d128992902c910160405180910390a15050565b60018054606091906000906001600160a01b0316815b60075481101562001524576000818152600860209081526040808320546001600160a01b03168352600590915281205460048054620014b59260801b9190620005ba9062004e81565b90506000620014c8620006578362001c2c565b90506212d5916000620014dc838362002042565b9050868103620014f65787620014f28162004fdf565b9850505b868111156200150a57600197508096508295505b5050505080806200151b9062004fdf565b9150506200146c565b5060018311156200156e5760408051848152602081018490527f0e9acdc46560b652db1c511cc3a2b21f1b5392bfc3966c60f60d5c9d0a518b91910160405180910390a1620015b1565b604080516001600160a01b0383168152602081018490527f6c697ec02807065f22b7d0c97c8650256a1ba65ccdc72d65d73b54a36d83f642910160405180910390a15b50506040805160048152602481019091526020810180516001600160e01b0316631294941560e21b17905292915050565b606060008063532000036001600160a01b0316846040516020016200160891906200509d565b60408051601f19818403018152908290526200162491620050ad565b6000604051808303816000865af19150503d806000811462001663576040519150601f19603f3d011682016040523d82523d6000602084013e62001668565b606091505b50915091508162001696576353200003816040516375fff46760e01b81526004016200038f92919062004eb7565b80806020019051810190620016ac919062005117565b949350505050565b6040805160c0810182526000808252602082018190529181019190915260608082018190526080820181905260a082015260008063420300006001600160a01b0316878787876040516020016200170f949392919062005195565b60408051601f19818403018152908290526200172b91620050ad565b6000604051808303816000865af19150503d80600081146200176a576040519150601f19603f3d011682016040523d82523d6000602084013e6200176f565b606091505b5091509150816200179d576342030000816040516375fff46760e01b81526004016200038f92919062004eb7565b80806020019051810190620017b39190620052ab565b979650505050505050565b60008063420200006001600160a01b0316858585604051602001620017e693929190620053a6565b60408051601f19818403018152908290526200180291620050ad565b6000604051808303816000865af19150503d806000811462001841576040519150601f19603f3d011682016040523d82523d6000602084013e62001846565b606091505b50915091508162001874576342020000816040516375fff46760e01b81526004016200038f92919062004eb7565b5050505050565b6000806200188983620028f3565b90508051602014620018de5760405162461bcd60e51b815260206004820152601a60248201527f496e76616c69642070726976617465206b6579206c656e67746800000000000060448201526064016200038f565b620018f3620018ed82620053df565b62002a35565b9392505050565b604051606082811b6bffffffffffffffffffffffff19166020830152906034015b604051602081830303815290604052905092915050565b60408051808201909152601081526f181899199a1a9b1b9c1cb0b131b232b360811b60208201528151606091906000906200196f90600262005404565b6200197c90600262005426565b6001600160401b0381111562001996576200199662004bc9565b6040519080825280601f01601f191660200182016040528015620019c1576020820181803683370190505b509050600360fc1b81600081518110620019df57620019df62004e6b565b60200101906001600160f81b031916908160001a905350600f60fb1b8160018151811062001a115762001a1162004e6b565b60200101906001600160f81b031916908160001a90535060005b845181101562001b6e5782600486838151811062001a4d5762001a4d62004e6b565b016020015182516001600160f81b031990911690911c60f81c90811062001a785762001a7862004e6b565b01602001516001600160f81b0319168262001a9583600262005404565b62001aa290600262005426565b8151811062001ab55762001ab562004e6b565b60200101906001600160f81b031916908160001a9053508285828151811062001ae25762001ae262004e6b565b602091010151815160f89190911c600f1690811062001b055762001b0562004e6b565b01602001516001600160f81b0319168262001b2283600262005404565b62001b2f90600362005426565b8151811062001b425762001b4262004e6b565b60200101906001600160f81b031916908160001a9053508062001b658162004fdf565b91505062001a2b565b509392505050565b606060008063420200016001600160a01b0316858560405160200162001b9e92919062005441565b60408051601f198184030181529082905262001bba91620050ad565b6000604051808303816000865af19150503d806000811462001bf9576040519150601f19603f3d011682016040523d82523d6000602084013e62001bfe565b606091505b509150915081620016ac576342020001816040516375fff46760e01b81526004016200038f92919062004eb7565b80516060906000816001600160401b0381111562001c4e5762001c4e62004bc9565b6040519080825280601f01601f19166020018201604052801562001c79576020820181803683370190505b50905060005b8281101562001b6e5784818151811062001c9d5762001c9d62004e6b565b602001015160f81c60f81b82828151811062001cbd5762001cbd62004e6b565b60200101906001600160f81b031916908160001a9053508062001ce08162004fdf565b91505062001c7f565b600062001cf68262002a76565b90508151810362001d05575050565b600081835162001d16919062005060565b90506000816001600160401b0381111562001d355762001d3562004bc9565b6040519080825280601f01601f19166020018201604052801562001d60576020820181803683370190505b50905060005b8281101562001ddb578462001d7c828662005426565b8151811062001d8f5762001d8f62004e6b565b602001015160f81c60f81b82828151811062001daf5762001daf62004e6b565b60200101906001600160f81b031916908160001a9053508062001dd28162004fdf565b91505062001d66565b5060008180602001905181019062001df4919062005466565b905060005b815181101562000fa75762001e2a82828151811062001e1c5762001e1c62004e6b565b602002602001015162002bf6565b8062001e368162004fdf565b91505062001df9565b6000818152600b6020526040812054829060ff1662001e725760405162461bcd60e51b81526004016200038f9062004edd565b6000838152600a60205260408120546009805462001ea192620009e59260809190911b91620005ba9062004e81565b905060008160405162001eb49062004a31565b62001ec0919062004b85565b604051809103906000f08015801562001edd573d6000803e3d6000fd5b50604051633857496960e11b81526001600160a01b038881166004830152919250908216906370ae92d2906024015b6020604051808303816000875af115801562001f2c573d6000803e3d6000fd5b505050506040513d601f19601f8201168201806040525081019062000a5a9190620055ee565b606060008063432000026001600160a01b03168460405160200162001f78919062005608565b60408051601f198184030181529082905262001f9491620050ad565b6000604051808303816000865af19150503d806000811462001fd3576040519150601f19603f3d011682016040523d82523d6000602084013e62001fd8565b606091505b50915091508162001696576343200002816040516375fff46760e01b81526004016200038f92919062004eb7565b60606200203d60405180604001604052806012815260200171636f6e666964656e7469616c496e7075747360701b81525062002e0b565b905090565b6000818152600b6020526040812054829060ff16620020755760405162461bcd60e51b81526004016200038f9062004edd565b6000838152600a602052604081205460098054620020a492620009e59260809190911b91620005ba9062004e81565b9050600081604051620020b79062004a31565b620020c3919062004b85565b604051809103906000f080158015620020e0573d6000803e3d6000fd5b5060405163e3d670d760e01b81526001600160a01b0388811660048301529192509082169063e3d670d79060240162001f0c565b6000620002f3826212d59162002042565b606060005442116200217a5760405162461bcd60e51b815260206004820152601960248201527f41756374696f6e2074696d65206e6f74206f766572207965740000000000000060448201526064016200038f565b6000828152600b6020526040902054829060ff16620021ad5760405162461bcd60e51b81526004016200038f9062004edd565b6001600160a01b038716600090815260066020526040902054879060ff16620021ea5760405162461bcd60e51b81526004016200038f9062005016565b6001600160a01b038816600090815260056020526040812054600480546200221c9260801b9190620005ba9062004e81565b905060006200222f620006578362001c2c565b905060006200223f828862001e3f565b905060006040518060e001604052808c6001600160a01b03168152602001620f424081526020016101f481526020018b81526020018381526020018a8152602001898152509050600062002294828662002ebf565b90507f28a2e2a5c2315d907bc7072899ce62d772c98f261cf931d82943dd6e76e8db738160e00151826101000151604051620022da929190918252602082015260400190565b60405180910390a16000620022ef8262002feb565b60008b8152600a60205260408120546009805493945091926200232092620009e59260801b91620005ba9062004e81565b905060006200233182848e620025ce565b90506000620023408262001f52565b50506040805160048152602481019091526020810180516001600160e01b0316631294941560e21b1790529a505050505050505050505095945050505050565b6200238a62004a3f565b6200239462004a3f565b6000620023d2620023cc8560408051808201825260008082526020918201528151808301909252825182529182019181019190915290565b6200325c565b905080516009146200241d5760405162461bcd60e51b815260206004820152601360248201527234b73b30b634b2103a3930b739b0b1ba34b7b760691b60448201526064016200038f565b620024458160008151811062002437576200243762004e6b565b60200260200101516200338a565b6080830152805162002467908290600190811062002437576200243762004e6b565b6040830152805162002489908290600290811062002437576200243762004e6b565b60208301528051620024b99082906003908110620024ab57620024ab62004e6b565b6020026020010151620033dc565b51600103620024cc576000825262002500565b620024f481600381518110620024e657620024e662004e6b565b602002602001015162003461565b6001600160a01b031682525b6200251a8160048151811062002437576200243762004e6b565b606083015280516200254a90829060059081106200253c576200253c62004e6b565b60200260200101516200347e565b8260a001819052506200256c8160068151811062002437576200243762004e6b565b826101200181815250506200259a62002594826007815181106200253c576200253c62004e6b565b62003504565b8260e0018181525050620025c162002594826008815181106200253c576200253c62004e6b565b6101008301525092915050565b620026136040518060c001604052806060815260200160608152602001606081526020016060815260200160001515815260200160006001600160401b031681525090565b6000828152600b6020526040902054829060ff16620026465760405162461bcd60e51b81526004016200038f9062004edd565b604080516001808252818301909252600091816020015b60608152602001906001900390816200265d5790505090506040518060400160405280601e81526020017f436f6e74656e742d547970653a206170706c69636174696f6e2f6a736f6e000081525081600081518110620026c157620026c162004e6b565b60200260200101819052506040518060c00160405280878152602001604051806040016040528060048152602001631413d4d560e21b8152508152602001828152602001620027108762001932565b8660405160200162002724929190620056f5565b60408051808303601f1901815291815290825260006020830152611b589101529695505050505050565b6000818152600b6020526040812054829060ff16620027815760405162461bcd60e51b81526004016200038f9062004edd565b6000838152600a602052604081205460098054620027b092620009e59260809190911b91620005ba9062004e81565b905060008187604051620027c49062004aa1565b620027d192919062005793565b604051809103906000f080158015620027ee573d6000803e3d6000fd5b506040516370a0823160e01b81526001600160a01b03888116600483015291925082918216906370a0823190602401602060405180830381865afa1580156200283b573d6000803e3d6000fd5b505050506040513d601f19601f82011682018060405250810190620028619190620055ee565b98975050505050505050565b604051600090819081906342010000908281818181865af19150503d8060008114620028b6576040519150601f19603f3d011682016040523d82523d6000602084013e620028bb565b606091505b509150915081620028e9576342010000816040516375fff46760e01b81526004016200038f92919062004eb7565b6020015192915050565b805160609082906200290890600290620057d5565b156200291357600080fd5b600060028251620029259190620057ec565b6001600160401b038111156200293f576200293f62004bc9565b6040519080825280601f01601f1916602001820160405280156200296a576020820181803683370190505b50905060005b60028351620029809190620057ec565b81101562001b6e57620029c8836200299a83600262005404565b620029a790600162005426565b81518110620029ba57620029ba62004e6b565b016020015160f81c6200356d565b620029da84620029a784600262005404565b620029e790601062005803565b620029f391906200582f565b60f81b82828151811062002a0b5762002a0b62004e6b565b60200101906001600160f81b031916908160001a90535062002a2d8162004fdf565b905062002970565b600080600062002a458462003689565b6040805160208082019490945280820192909252805180830382018152606090920190528051910120949350505050565b6000805b825181101562002bf05760408051808201909152600381526254354360e81b6020909101528251601560fa1b9084908390811062002abc5762002abc62004e6b565b01602001516001600160f81b0319160362002bdb576001805b6040518060400160405280600381526020016254354360e81b8152505181101562002ba757845162002b08828562005426565b10158062002b8257506040518060400160405280600381526020016254354360e81b815250818151811062002b415762002b4162004e6b565b01602001516001600160f81b0319168562002b5d838662005426565b8151811062002b705762002b7062004e6b565b01602001516001600160f81b03191614155b1562002b92576000915062002ba7565b8062002b9e8162004fdf565b91505062002ad5565b50801562002bd9576040518060400160405280600381526020016254354360e81b8152505182620016ac919062005426565b505b8062002be78162004fdf565b91505062002a7a565b50505190565b6040810151805160208301515160000362002c16578060208301a0505050565b82602001515160010362002c57576000836020015160008151811062002c405762002c4062004e6b565b60200260200101519050808260208501a150505050565b82602001515160020362002cc0576000836020015160008151811062002c815762002c8162004e6b565b602002602001015190506000846020015160018151811062002ca75762002ca762004e6b565b6020026020010151905080828460208701a25050505050565b82602001515160030362002d51576000836020015160008151811062002cea5762002cea62004e6b565b602002602001015190506000846020015160018151811062002d105762002d1062004e6b565b602002602001015190506000856020015160028151811062002d365762002d3662004e6b565b602002602001015190508082848660208901a3505050505050565b82602001515160040362002e06576000836020015160008151811062002d7b5762002d7b62004e6b565b602002602001015190506000846020015160018151811062002da15762002da162004e6b565b602002602001015190506000856020015160028151811062002dc75762002dc762004e6b565b602002602001015190506000866020015160038151811062002ded5762002ded62004e6b565b60200260200101519050808284868860208b01a4505050505b505050565b606060008063533000036001600160a01b03168460405160200162002e31919062004b85565b60408051601f198184030181529082905262002e4d91620050ad565b6000604051808303816000865af19150503d806000811462002e8c576040519150601f19603f3d011682016040523d82523d6000602084013e62002e91565b606091505b50915091508162001696576353300003816040516375fff46760e01b81526004016200038f92919062004eb7565b62002ec962004a3f565b600062002ed684620036ec565b90506000818051906020012060405160200162002ef591815260200190565b6040516020818303038152906040529050600062002f168260008762003916565b905060008660c00151600262002f2d919062005857565b9050600080600062002f52856020810151604082015160609092015160001a92909190565b91945092509050600062002f6b60ff8516602362005889565b905062002f79858262005889565b8b516001600160a01b03168a526020808d0151908b01526040808d0151908b01526060808d0151908b01526080808d0151908b015260a0808d0151908b015260c0808d0151908b01526001600160401b03166101208a01525060e0880191909152610100870152505050505092915050565b604080516009808252610140820190925260609160009190816020015b6060815260200190600190039081620030085790505090506200302f8360800151620039f8565b8160008151811062003045576200304562004e6b565b60200260200101819052506200305f8360400151620039f8565b8160018151811062003075576200307562004e6b565b60200260200101819052506200308f8360200151620039f8565b81600281518110620030a557620030a562004e6b565b602090810291909101015282516001600160a01b03166200310157620030da6040518060200160405280600081525062003a09565b81600381518110620030f057620030f062004e6b565b602002602001018190525062003130565b82516200310e9062003a6b565b8160038151811062003124576200312462004e6b565b60200260200101819052505b6200313f8360600151620039f8565b8160048151811062003155576200315562004e6b565b60200260200101819052506200316f8360a0015162003a09565b8160058151811062003185576200318562004e6b565b6020026020010181905250620031a0836101200151620039f8565b81600681518110620031b657620031b662004e6b565b6020026020010181905250620031f28360e00151604051602001620031dd91815260200190565b60405160208183030381529060405262003a09565b8160078151811062003208576200320862004e6b565b602002602001018190525062003230836101000151604051602001620031dd91815260200190565b8160088151811062003246576200324662004e6b565b6020026020010181905250620018f38162003a96565b6060620032698262003ae0565b6200327357600080fd5b6000620032808362003b1d565b90506000816001600160401b038111156200329f576200329f62004bc9565b604051908082528060200260200182016040528015620032e657816020015b6040805180820190915260008082526020820152815260200190600190039081620032be5790505b5090506000620032fa856020015162003bb1565b85602001516200330b919062005426565b90506000805b848110156200337f57620033258362003c39565b915060405180604001604052808381526020018481525084828151811062003351576200335162004e6b565b602090810291909101015262003368828462005426565b925080620033768162004fdf565b91505062003311565b509195945050505050565b805160009015801590620033a057508151602110155b620033aa57600080fd5b600080620033b88462003cea565b815191935091506020821015620016ac5760208290036101000a9004949350505050565b6060600082600001516001600160401b03811115620033ff57620033ff62004bc9565b6040519080825280601f01601f1916602001820160405280156200342a576020820181803683370190505b50905080516000036200343d5792915050565b60008160200190506200345a846020015182866000015162003d37565b5092915050565b80516000906015146200347357600080fd5b620002f3826200338a565b80516060906200348d57600080fd5b6000806200349b8462003cea565b915091506000816001600160401b03811115620034bc57620034bc62004bc9565b6040519080825280601f01601f191660200182016040528015620034e7576020820181803683370190505b50905060208101620034fb84828562003d37565b50949350505050565b60008151602014620035655760405162461bcd60e51b8152602060048201526024808201527f6279746573546f427974657333323a20696e76616c696420696e707574206c656044820152630dccee8d60e31b60648201526084016200038f565b506020015190565b6000600360fc1b60f883901b6001600160f81b03191610801590620035a45750603960f81b60f883901b6001600160f81b03191611155b15620035b757620002f3603083620058b7565b606160f81b60f883901b6001600160f81b03191610801590620035ec5750603360f91b60f883901b6001600160f81b03191611155b156200360d5760616200360183600a6200582f565b620002f39190620058b7565b604160f81b60f883901b6001600160f81b03191610801590620036425750602360f91b60f883901b6001600160f81b03191611155b15620036575760416200360183600a6200582f565b60405162461bcd60e51b81526004016200038f9060208082526004908201526319985a5b60e21b604082015260600190565b600080620036e2837f79be667ef9dcbbac55a06295ce870b07029bfcdb2dce28d959f2815b16f817987f483ada7726a3c4655da4fbfc0e1108a8fd17b448a68554199c47d08ffb10d4b860006401000003d01962003dc9565b9094909350915050565b604080516009808252610140820190925260609160009190816020015b606081526020019060019003908162003709579050509050620037308360800151620039f8565b8160008151811062003746576200374662004e6b565b6020026020010181905250620037608360400151620039f8565b8160018151811062003776576200377662004e6b565b6020026020010181905250620037908360200151620039f8565b81600281518110620037a657620037a662004e6b565b602090810291909101015282516001600160a01b03166200380257620037db6040518060200160405280600081525062003a09565b81600381518110620037f157620037f162004e6b565b602002602001018190525062003831565b82516200380f9062003a6b565b8160038151811062003825576200382562004e6b565b60200260200101819052505b620038408360600151620039f8565b8160048151811062003856576200385662004e6b565b6020026020010181905250620038708360a0015162003a09565b8160058151811062003886576200388662004e6b565b6020026020010181905250620038a08360c00151620039f8565b81600681518110620038b657620038b662004e6b565b6020026020010181905250620038db6040518060200160405280600081525062003a09565b81600781518110620038f157620038f162004e6b565b6020026020010181905250620032306040518060200160405280600081525062003a09565b6060620039226200286d565b6200392c57600080fd5b60008063401000036001600160a01b03168686866040516020016200395493929190620058dd565b60408051601f19818403018152908290526200397091620050ad565b6000604051808303816000865af19150503d8060008114620039af576040519150601f19603f3d011682016040523d82523d6000602084013e620039b4565b606091505b509150915081620039e2576340100003816040516375fff46760e01b81526004016200038f92919062004eb7565b8080602001905181019062000a5a919062005117565b6060620002f362003a098362003e07565b6060808251600114801562003a3b575060808360008151811062003a315762003a3162004e6b565b016020015160f81c105b1562003a49575081620002f3565b62003a578351608062003f50565b836040516020016200191b92919062005901565b604051606082811b6bffffffffffffffffffffffff1916602083015290620002f390603401620031dd565b6060600062003aa58362004128565b905062003ab5815160c062003f50565b8160405160200162003ac992919062005901565b604051602081830303815290604052915050919050565b8051600090810362003af457506000919050565b6020820151805160001a9060c082101562003b13575060009392505050565b5060019392505050565b8051600090810362003b3157506000919050565b60008062003b43846020015162003bb1565b846020015162003b54919062005426565b905060008460000151856020015162003b6e919062005426565b90505b8082101562003ba85762003b858262003c39565b62003b91908362005426565b91508262003b9f8162004fdf565b93505062003b71565b50909392505050565b8051600090811a608081101562003bcb5750600092915050565b60b881108062003be8575060c0811080159062003be8575060f881105b1562003bf75750600192915050565b60c081101562003c2b5762003c0f600160b8620058b7565b62003c1e9060ff168262005060565b620018f390600162005426565b62003c0f600160f8620058b7565b80516000908190811a608081101562003c5657600191506200345a565b60b881101562003c825762003c6d60808262005060565b62003c7a90600162005426565b91506200345a565b60c081101562003cb15760b78103600185019450806020036101000a855104600182018101935050506200345a565b60f881101562003cc85762003c6d60c08262005060565b60019390930151602084900360f7016101000a900490920160f5190192915050565b600080600062003cfe846020015162003bb1565b9050600081856020015162003d14919062005426565b9050600082866000015162003d2a919062005060565b9196919550909350505050565b8060000362003d4557505050565b6020811062003d85578251825262003d5f60208462005426565b925062003d6e60208362005426565b915062003d7d60208262005060565b905062003d45565b801562002e06576000600162003d9d83602062005060565b62003dab9061010062005a20565b62003db7919062005060565b84518451821691191617835250505050565b600080600080600062003de28a8a8a60018b8b62004275565b92509250925062003df68383838962004302565b945094505050509550959350505050565b606060008260405160200162003e1f91815260200190565b604051602081830303815290604052905060005b602081101562003e7e5781818151811062003e525762003e5262004e6b565b01602001516001600160f81b03191660000362003e7e578062003e758162004fdf565b91505062003e33565b600062003e8d82602062005060565b6001600160401b0381111562003ea75762003ea762004bc9565b6040519080825280601f01601f19166020018201604052801562003ed2576020820181803683370190505b50905060005b8151811015620034fb57838362003eef8162004fdf565b94508151811062003f045762003f0462004e6b565b602001015160f81c60f81b82828151811062003f245762003f2462004e6b565b60200101906001600160f81b031916908160001a9053508062003f478162004fdf565b91505062003ed8565b606080603884101562003fbe576040805160018082528183019092529060208201818036833701905050905062003f8883856200582f565b60f81b8160008151811062003fa15762003fa162004e6b565b60200101906001600160f81b031916908160001a905350620002f0565b600060015b62003fcf8187620057ec565b1562003ffb578162003fe18162004fdf565b925062003ff390506101008262005404565b905062003fc3565b6200400882600162005426565b6001600160401b0381111562004022576200402262004bc9565b6040519080825280601f01601f1916602001820160405280156200404d576020820181803683370190505b5092506200405c85836200582f565b620040699060376200582f565b60f81b8360008151811062004082576200408262004e6b565b60200101906001600160f81b031916908160001a905350600190505b8181116200411f57610100620040b5828462005060565b620040c39061010062005a20565b620040cf9088620057ec565b620040db9190620057d5565b60f81b838281518110620040f357620040f362004e6b565b60200101906001600160f81b031916908160001a90535080620041168162004fdf565b9150506200409e565b50509392505050565b606081516000036200414b5760408051600080825260208201909252906200345a565b6000805b83518110156200419b578381815181106200416e576200416e62004e6b565b6020026020010151518262004184919062005426565b915080620041928162004fdf565b9150506200414f565b6000826001600160401b03811115620041b857620041b862004bc9565b6040519080825280601f01601f191660200182016040528015620041e3576020820181803683370190505b50600092509050602081015b8551831015620034fb57600086848151811062004210576200421062004e6b565b60200260200101519050600060208201905062004230838284516200437f565b87858151811062004245576200424562004e6b565b602002602001015151836200425b919062005426565b9250505082806200426c9062004fdf565b935050620041ef565b60008060008860000362004291575086915085905084620042f6565b8860008060015b8315620042ed576001841615620042c257620042ba8383838f8f8f8e620043e4565b919450925090505b620042cf600285620057ec565b9350620042e08c8c8c8c8c62004778565b919d509b50995062004298565b91955093509150505b96509650969350505050565b60008060006200431385856200495c565b905060008480620043285762004328620057bf565b828309905060008580620043405762004340620057bf565b828a09905060008680620043585762004358620057bf565b8780620043695762004369620057bf565b8486098a09919a91995090975050505050505050565b8282825b60208110620043c357815183526200439d60208462005426565b9250620043ac60208362005426565b9150620043bb60208262005060565b905062004383565b905182516020929092036101000a6000190180199091169116179052505050565b6000808089158015620043f5575088155b15620044095750859150849050836200476b565b8615801562004416575085155b156200442a5750889150879050866200476b565b6200443462004aaf565b8480620044455762004445620057bf565b898a09815284806200445b576200445b620057bf565b81518a0960208201528480620044755762004475620057bf565b868709604082015284806200448e576200448e620057bf565b6040820151870960608201526040805160808101909152808680620044b757620044b7620057bf565b60408401518e0981526020018680620044d457620044d4620057bf565b60608401518d0981526020018680620044f157620044f1620057bf565b83518b09815260200186806200450b576200450b620057bf565b60208401518a099052604081015181519192501415806200453457506060810151602082015114155b620045825760405162461bcd60e51b815260206004820152601e60248201527f557365206a6163446f75626c652066756e6374696f6e20696e7374656164000060448201526064016200038f565b6200458c62004aaf565b85806200459d576200459d620057bf565b8251620045ab908862005060565b60408401510881528580620045c457620045c4620057bf565b6020830151620045d5908862005060565b60608401510860208201528580620045f157620045f1620057bf565b81518009604082015285806200460b576200460b620057bf565b81516040830151096060820152600086806200462b576200462b620057bf565b60608301516200463c908962005060565b88806200464d576200464d620057bf565b602085015180090890508680620046685762004668620057bf565b8780620046795762004679620057bf565b88806200468a576200468a620057bf565b6040850151865109600209620046a1908962005060565b8208905060008780620046b857620046b8620057bf565b8880620046c957620046c9620057bf565b620046d5848b62005060565b8a80620046e657620046e6620057bf565b60408701518851090860208501510990508780620047085762004708620057bf565b8880620047195762004719620057bf565b606085015160208701510962004730908a62005060565b8208905060008880620047475762004747620057bf565b8980620047585762004758620057bf565b8b8f098551099297509095509093505050505b9750975097945050505050565b6000806000856000036200479457508691508590508462004951565b60008480620047a757620047a7620057bf565b898a09905060008580620047bf57620047bf620057bf565b898a09905060008680620047d757620047d7620057bf565b898a09905060008780620047ef57620047ef620057bf565b8880620048005762004800620057bf565b848e096004099050600088806200481b576200481b620057bf565b89806200482c576200482c620057bf565b8a806200483d576200483d620057bf565b8586098c098a80620048535762004853620057bf565b8760030908905088806200486b576200486b620057bf565b89806200487c576200487c620057bf565b8384086200488b908b62005060565b8a806200489c576200489c620057bf565b8384090894508880620048b357620048b3620057bf565b8980620048c457620048c4620057bf565b8a80620048d557620048d5620057bf565b868709600809620048e7908b62005060565b8a80620048f857620048f8620057bf565b8b80620049095762004909620057bf565b62004915898e62005060565b8608840908935088806200492d576200492d620057bf565b89806200493e576200493e620057bf565b8c8e096002099497509295509293505050505b955095509592505050565b600082158015906200496e5750818314155b80156200497a57508115155b620049b95760405162461bcd60e51b815260206004820152600e60248201526d24b73b30b634b210373ab6b132b960911b60448201526064016200038f565b6000600183825b86156200337f57620049d38783620057ec565b9050828680620049e757620049e7620057bf565b8780620049f857620049f8620057bf565b85840962004a07908962005060565b860890945092508662004a1b818362005404565b62004a27908462005060565b97509150620049c0565b6121308062005a2f83390190565b60405180610140016040528060006001600160a01b031681526020016000815260200160008152602001600081526020016000815260200160608152602001600081526020016000801916815260200160008019168152602001600081525090565b6125318062007b5f83390190565b60405180608001604052806004906020820280368337509192915050565b6001600160a01b038116811462004ae357600080fd5b50565b6000806040838503121562004afa57600080fd5b823562004b078162004acd565b9150602083013562004b198162004acd565b809150509250929050565b60005b8381101562004b4157818101518382015260200162004b27565b8381111562004b51576000848401525b50505050565b6000815180845262004b7181602086016020860162004b24565b601f01601f19169290920160200192915050565b602081526000620002f0602083018462004b57565b6000806040838503121562004bae57600080fd5b823562004bbb8162004acd565b946020939093013593505050565b634e487b7160e01b600052604160045260246000fd5b60405160c081016001600160401b038111828210171562004c045762004c0462004bc9565b60405290565b604051606081016001600160401b038111828210171562004c045762004c0462004bc9565b604051601f8201601f191681016001600160401b038111828210171562004c5a5762004c5a62004bc9565b604052919050565b60006001600160401b0382111562004c7e5762004c7e62004bc9565b50601f01601f191660200190565b600062004ca362004c9d8462004c62565b62004c2f565b905082815283838301111562004cb857600080fd5b828260208301376000602084830101529392505050565b6000806040838503121562004ce357600080fd5b82356001600160401b0381111562004cfa57600080fd5b8301601f8101851362004d0c57600080fd5b62004d1d8582356020840162004c8c565b95602094909401359450505050565b60006020828403121562004d3f57600080fd5b5035919050565b6001600160801b03198116811462004ae357600080fd5b6000806040838503121562004d7157600080fd5b823562004d7e8162004acd565b9150602083013562004b198162004d46565b60006020828403121562004da357600080fd5b81356001600160401b0381111562004dba57600080fd5b8201601f8101841362004dcc57600080fd5b620016ac8482356020840162004c8c565b60008060006060848603121562004df357600080fd5b833562004e008162004acd565b9250602084013562004e128162004acd565b929592945050506040919091013590565b60006020828403121562004e3657600080fd5b8135620002f08162004acd565b6000806040838503121562004e5757600080fd5b82359150602083013562004b198162004d46565b634e487b7160e01b600052603260045260246000fd5b600181811c9082168062004e9657607f821691505b60208210810362000d9857634e487b7160e01b600052602260045260246000fd5b6001600160a01b0383168152604060208201819052600090620016ac9083018462004b57565b6020808252602c908201527f4e6f205250432d456e64706f696e7420617661696c61626c6520666f7220746860408201526b34b99031b430b4b716a4a21760a11b606082015260800190565b7f7b226a736f6e727063223a22322e30222c20226d6574686f64223a202265746881527f5f6765745472616e73616374696f6e427948617368222c2022706172616d73226020820152631d102d9160e11b60408201526000835162004f9681604485016020880162004b24565b690112e96101134b2111d160b51b6044939091019283015250604e810191909152607d60f81b606e820152606f01919050565b634e487b7160e01b600052601160045260246000fd5b60006001820162004ff45762004ff462004fc9565b5060010190565b828152604060208201526000620016ac604083018462004b57565b6020808252602a908201527f4e6f2062696464696e6720616464726573732072656c6174656420746f20746860408201526934b99039b2b73232b91760b11b606082015260800190565b60008282101562005075576200507562004fc9565b500390565b600281106200509957634e487b7160e01b600052602160045260246000fd5b9052565b60208101620002f382846200507a565b60008251620050c181846020870162004b24565b9190910192915050565b600082601f830112620050dd57600080fd5b8151620050ee62004c9d8262004c62565b8181528460208386010111156200510457600080fd5b620016ac82602083016020870162004b24565b6000602082840312156200512a57600080fd5b81516001600160401b038111156200514157600080fd5b620016ac84828501620050cb565b600081518084526020808501945080840160005b838110156200518a5781516001600160a01b03168752958201959082019060010162005163565b509495945050505050565b6001600160401b0385168152608060208201526000620051b960808301866200514f565b8281036040840152620051cd81866200514f565b90508281036060840152620017b3818562004b57565b8051620051f08162004d46565b919050565b80516001600160401b0381168114620051f057600080fd5b60006001600160401b0382111562005229576200522962004bc9565b5060051b60200190565b600082601f8301126200524557600080fd5b815160206200525862004c9d836200520d565b82815260059290921b840181019181810190868411156200527857600080fd5b8286015b84811015620052a0578051620052928162004acd565b83529183019183016200527c565b509695505050505050565b600060208284031215620052be57600080fd5b81516001600160401b0380821115620052d657600080fd5b9083019060c08286031215620052eb57600080fd5b620052f562004bdf565b6200530083620051e3565b81526200531060208401620051e3565b60208201526200532360408401620051f5565b60408201526060830151828111156200533b57600080fd5b620053498782860162005233565b6060830152506080830151828111156200536257600080fd5b620053708782860162005233565b60808301525060a0830151828111156200538957600080fd5b6200539787828601620050cb565b60a08301525095945050505050565b6001600160801b031984168152606060208201526000620053cb606083018562004b57565b828103604084015262000a5a818562004b57565b8051602080830151919081101562000d985760001960209190910360031b1b16919050565b600081600019048311821515161562005421576200542162004fc9565b500290565b600082198211156200543c576200543c62004fc9565b500190565b6001600160801b031983168152604060208201526000620016ac604083018462004b57565b600060208083850312156200547a57600080fd5b82516001600160401b03808211156200549257600080fd5b818501915085601f830112620054a757600080fd5b8151620054b862004c9d826200520d565b81815260059190911b83018401908481019088831115620054d857600080fd5b8585015b83811015620055e157805185811115620054f557600080fd5b86016060818c03601f190112156200550c57600080fd5b6200551662004c0a565b88820151620055258162004acd565b81526040820151878111156200553a57600080fd5b8201603f81018d136200554c57600080fd5b898101516200555f62004c9d826200520d565b81815260059190911b8201604001908b8101908f8311156200558057600080fd5b6040840193505b82841015620055a25783518252928c0192908c019062005587565b848d0152505050606082015187811115620055bc57600080fd5b620055cc8d8b83860101620050cb565b604083015250845250918601918601620054dc565b5098975050505050505050565b6000602082840312156200560157600080fd5b5051919050565b60006020808352835160c0828501526200562660e085018262004b57565b905081850151601f198086840301604087015262005645838362004b57565b60408801518782038301606089015280518083529194508501925084840190600581901b8501860160005b82811015620056a057848783030184526200568d82875162004b57565b9588019593880193915060010162005670565b5060608a01519650838982030160808a0152620056be818862004b57565b96505050505050506080840151620056da60a085018215159052565b5060a08401516001600160401b03811660c085015262001b6e565b7f7b226a736f6e727063223a22322e30222c20226d6574686f64223a202265746881527f5f73656e645261775472616e73616374696f6e222c2022706172616d73223a206020820152612d9160f11b6040820152600083516200576081604285016020880162004b24565b690112e96101134b2111d160b51b6042939091019283015250604c810191909152607d60f81b606c820152606d01919050565b604081526000620057a8604083018562004b57565b905060018060a01b03831660208301529392505050565b634e487b7160e01b600052601260045260246000fd5b600082620057e757620057e7620057bf565b500690565b600082620057fe57620057fe620057bf565b500490565b600060ff821660ff84168160ff048111821515161562005827576200582762004fc9565b029392505050565b600060ff821660ff84168060ff038211156200584f576200584f62004fc9565b019392505050565b60006001600160401b038083168185168183048111821515161562005880576200588062004fc9565b02949350505050565b60006001600160401b03808316818516808303821115620058ae57620058ae62004fc9565b01949350505050565b600060ff821660ff841680821015620058d457620058d462004fc9565b90039392505050565b606081526000620058f2606083018662004b57565b620053cb60208401866200507a565b600083516200591581846020880162004b24565b835190830190620058ae81836020880162004b24565b600181815b808511156200596c57816000190482111562005950576200595062004fc9565b808516156200595e57918102915b93841c939080029062005930565b509250929050565b6000826200598557506001620002f3565b816200599457506000620002f3565b8160018114620059ad5760028114620059b857620059d8565b6001915050620002f3565b60ff841115620059cc57620059cc62004fc9565b50506001821b620002f3565b5060208310610133831016604e8410600b8410161715620059fd575081810a620002f3565b62005a0983836200592b565b806000190482111562005827576200582762004fc9565b6000620002f083836200597456fe60806040523480156200001157600080fd5b50604051620021303803806200213083398101604081905262000034916200010d565b80516200004990600090602084019062000051565b505062000225565b8280546200005f90620001e9565b90600052602060002090601f016020900481019282620000835760008555620000ce565b82601f106200009e57805160ff1916838001178555620000ce565b82800160010185558215620000ce579182015b82811115620000ce578251825591602001919060010190620000b1565b50620000dc929150620000e0565b5090565b5b80821115620000dc5760008155600101620000e1565b634e487b7160e01b600052604160045260246000fd5b600060208083850312156200012157600080fd5b82516001600160401b03808211156200013957600080fd5b818501915085601f8301126200014e57600080fd5b815181811115620001635762000163620000f7565b604051601f8201601f19908116603f011681019083821181831017156200018e576200018e620000f7565b816040528281528886848701011115620001a757600080fd5b600093505b82841015620001cb5784840186015181850187015292850192620001ac565b82841115620001dd5760008684830101525b98975050505050505050565b600181811c90821680620001fe57607f821691505b6020821081036200021f57634e487b7160e01b600052602260045260246000fd5b50919050565b611efb80620002356000396000f3fe608060405234801561001057600080fd5b50600436106100575760003560e01c80631b8b921d1461005c57806370ae92d2146100855780637c52407c146100a6578063c672f9d6146100b9578063e3d670d7146100db575b600080fd5b61006f61006a36600461166d565b6100ee565b60405161007c9190611717565b60405180910390f35b61009861009336600461172a565b61015a565b60405190815260200161007c565b61006f6100b4366004611745565b6101b8565b6100cc6100c7366004611883565b610304565b6040519051815260200161007c565b6100986100e936600461172a565b610552565b606060006100fb8461056e565b61010484610617565b604051602001610115929190611914565b6040516020818303038152906040529050600061013182610304565b9050600061014e6101496101448461063b565b61064a565b61072c565b93505050505b92915050565b6000806101668361056e565b6040516020016101769190611982565b6040516020818303038152906040529050600061019282610304565b905060006101af6101aa6101a58461063b565b61084d565b6109d7565b95945050505050565b606060006101c58561056e565b6101ce85610617565b6040516020016101df929190611a0a565b604051602081830303815290604052905060005b83518110156102b6578161022385838151811061021257610212611a71565b60200260200101516000015161056e565b61024986848151811061023857610238611a71565b602002602001015160200151610617565b60405160200161025b93929190611a87565b60405160208183030381529060405291506001845161027a9190611b17565b8110156102a457816040516020016102929190611b2e565b60405160208183030381529060405291505b806102ae81611b53565b9150506101f3565b50806040516020016102c89190611b6c565b604051602081830303815290604052905060006102e482610304565b905060006102f76101496101448461063b565b93505050505b9392505050565b6040805160208101909152600081526103586040518060c0016040528060608152602001606081526020016060815260200160608152602001600015158152602001600067ffffffffffffffff1681525090565b604051806040016040528060048152602001631413d4d560e21b81525081602001819052506000805461038a90611b9a565b80601f01602080910402602001604051908101604052809291908181526020018280546103b690611b9a565b80156104035780601f106103d857610100808354040283529160200191610403565b820191906000526020600020905b8154815290600101906020018083116103e657829003601f168201915b505050918352505060408051600180825281830190925290816020015b606081526020019060019003908161042057505060408281019182528051808201909152601e81527f436f6e74656e742d547970653a206170706c69636174696f6e2f6a736f6e000060208201529051805160009061048157610481611a71565b602090810291909101015260608101839052600061049e82610a62565b905060006104ab82610b29565b905060006104e1604051806040016040528060078152602001661132b93937b91160c91b81525083610b4290919063ffffffff16565b90506104ef81516007161590565b61051e576104fc8161063b565b60405162461bcd60e51b81526004016105159190611717565b60405180910390fd5b604080518082019091526008815267113932b9bab63a1160c11b6020820152610548908390610b42565b9695505050505050565b60008061055e8361056e565b6040516020016101769190611bce565b606061057982610ba9565b6028602282019081209192507f4040404040404040404040404040404040404040404040404040404040404040917f888888888888888888888888888888888888888888888888888888888888888016601160f31b60005b82811a8202818001526001810190601219016105d157505050818151166000511660011c8151188152602081019050818151166020511660011c81511881525050919050565b606061062282610bb4565b8051613078825260020160011990910190815292915050565b606060006102fd836000610c1a565b606060008290506000600482516106619190611b17565b67ffffffffffffffff81111561067957610679611577565b6040519080825280601f01601f1916602001820160405280156106a3576020820181803683370190505b50905060035b600183516106b79190611b17565b811015610724578281815181106106d0576106d0611a71565b01602001516001600160f81b031916826106eb600384611b17565b815181106106fb576106fb611a71565b60200101906001600160f81b031916908160001a9053508061071c81611b53565b9150506106a9565b509392505050565b8051606090829061073f90600290611c65565b1561074957600080fd5b6000600282516107599190611c79565b67ffffffffffffffff81111561077157610771611577565b6040519080825280601f01601f19166020018201604052801561079b576020820181803683370190505b50905060005b600283516107af9190611c79565b811015610724576107ed836107c5836002611c8d565b6107d0906001611cac565b815181106107e0576107e0611a71565b016020015160f81c6113b6565b6107fc846107d0846002611c8d565b610807906010611cc4565b6108119190611ced565b60f81b82828151811061082657610826611a71565b60200101906001600160f81b031916908160001a90535061084681611b53565b90506107a1565b60606000829050600281511015801561088b57508060008151811061087457610874611a71565b6020910101516001600160f81b031916601160f91b145b80156108c8575080600182516108a19190611b17565b815181106108b1576108b1611a71565b6020910101516001600160f81b031916601160f91b145b6109045760405162461bcd60e51b815260206004820152600d60248201526c125b9d985b1a59081a5b9c1d5d609a1b6044820152606401610515565b6000600282516109149190611b17565b67ffffffffffffffff81111561092c5761092c611577565b6040519080825280601f01601f191660200182016040528015610956576020820181803683370190505b50905060015b6001835161096a9190611b17565b8110156107245782818151811061098357610983611a71565b01602001516001600160f81b0319168261099e600184611b17565b815181106109ae576109ae611a71565b60200101906001600160f81b031916908160001a905350806109cf81611b53565b91505061095c565b600081516001811160208085015160f01c17613078141660011b5b6001810190507403010a071000000b0104040208000c05090d060e0f6d03e4088843e41bac00000000000060ff83870151161c601f161a8360fc1c8115171583029250600181038460041b019350508181106109f2575080610a5c5763101827966000526004601cfd5b50919050565b606060008063432000026001600160a01b031684604051602001610a869190611d12565b60408051601f1981840301815290829052610aa091611df4565b6000604051808303816000865af19150503d8060008114610add576040519150601f19603f3d011682016040523d82523d6000602084013e610ae2565b606091505b509150915081610b0d576343200002816040516375fff46760e01b8152600401610515929190611e10565b80806020019051810190610b219190611e34565b949350505050565b60408051600080825291819052906102fd8360ff610c1a565b60408051600081529052815160609060071660020361015457815160208301206000610b6d856114c3565b805190915060051b5b8015610ba057818101519550601f190182610b90876114d2565b8051906020012003610b76578593505b50505092915050565b6060610622826114f1565b8051604051818001600282019081526f30313233343536373839616263646566600f52918301906022015b818414610c0a57600184019350600f845116516001820153600f845160041c16518153600201610bdf565b6000815260200160405250919050565b600061130c565b63101827966000526004601cfd5b805b6001640100002600610c44835160001a90565b1c161561015457600101610c31565b63ffffffff83113d3d3e63ffffffff821b191691901b1790565b604051610c8f8486036078610c8a601f1986890301605888610c53565b610c53565b959095178552505050602082016040525090565b600080610cb4846018600051610c53565b610cbe8787610c2f565b9150868210610ccd5750610df3565b815160001a60228103610cff5782610ce789858589611003565b9350610cf760048583868a610c6d565b945050610de4565b605b8103610d1c57610d1388848488610dfc565b93509350610de4565b607b8103610d3057610d1388848488610ec5565b6703ff200000000000811c60011615610d4f57610d13888484886110d7565b876004840111610da95782835160e01c63747275658103610d8757600485019450610d7e60058684878b610c6d565b95505050610de4565b636e756c6c8103610da657600485019450610d7e60068684878b610c6d565b50505b876005840111610ddc5782835160d81c6466616c73658103610dd957600585019450610d7e60058684878b610c6d565b50505b610de4610c21565b5050610df08682610c2f565b90505b94509492505050565b600060018401815b868210610e1357610e13610c21565b82610e3757610e228783610c2f565b9150605d610e31835160001a90565b14610e9a575b610e4387838587610ca3565b925092508215610e8b57610e5d8160988551604017610c53565b8352600101610e6d825160001a90565b605d8103610e7b5750610e9a565b602c8103610e895750610e8f565b505b8691505b600182019150610e04565b50600101610eaa82603886610c53565b9350610eba600182878787610c6d565b915094509492505050565b6000600184015b858110610edb57610edb610c21565b81610eff57610eea8682610c2f565b9050607d610ef9825160001a90565b14610fa3575b610f098682610c2f565b905080610f1887838587611003565b610f228882610c2f565b9250603a610f31845160001a90565b03610f9557610f4588600185018688610ca3565b935093508315610f9557610f6c6020860183036098610c8a85850360b88951608017610c53565b8452825160001a607d8103610f8357505050610fa3565b602c8103610f9357505050610f9b565b505b50508590505b600101610ecc565b600101610fb282603886610c53565b9350610eba600282878787610c6d565b6001667e0000007e03ff6030610fdb8585015160001a90565b031c16610fea57610fea610c21565b60058214610fff57610fff6001830182610fc2565b5050565b5050600082821061101657611016610c21565b50600181015b805160001a6022810361102f575061108d565b605c8114611040575060010161101c565b600182015160001a905060016a0510110400000000002001602283031c161561106c575060020161101c565b607581036110885761107f600283610fc2565b5060060161101c565b508290505b82811061109c5761109c610c21565b60010192915050565b805b600a60306110b6835160001a90565b0310156110c5576001016110a7565b8082148416156102fd576102fd610c21565b600083602d6110e7825160001a90565b036110f0576001015b600a60306110ff835160001a90565b031061110d5761110d610c21565b805160001a6001820191506030811461112f5761112c600088846110a5565b91505b50602e61113d825160001a90565b0361115457611151600187600184016110a5565b90505b805160658160001a60201703611183576111806001886001850162010001600e8660011a031a016110a5565b91505b50610eba600382878787610c6d565b60405190820190601f19601f850181165b83810151838201528101806111a35750508381526000846020830101528360408201016040529392505050565b8483611192565b805160609060028160071611610a5c578215811517610a5c57602081161561120b57603881901c63ffffffff169150610a5c565b604051915060208201603882901c63ffffffff165b8015611252578082528051601881901c63ffffffff1661124287601884610c53565b9092525060209190910190611220565b50601f1983820381018060051c85528260405261127185603886610c53565b9350836020178652604081106112a4576020850192508085015b8351815185528152602090930192820180841061128b57505b50505050919050565b80516060908215811517156112c25750610b21565b80841c63ffffffff1691508086166113035760d881901c63ffffffff166112f082871c63ffffffff166111d0565b9250506112fe828583610c53565b861783525b50949350505050565b81801561137e576001811461139457600381146113a357602084018451810180821461136457805160001a6022825361134b8760d8601160f91b610c53565b60005261135b828460008a610ca3565b93509450808253505b8315818310171561137757611377610c21565b50506113af565b61138d601060786058876112ad565b91506113af565b61138d600860b86098876112ad565b6113ac846111d7565b91505b5092915050565b6000600360fc1b60f883901b6001600160f81b031916108015906113ec5750603960f81b60f883901b6001600160f81b03191611155b156113fc57610154603083611ea2565b606160f81b60f883901b6001600160f81b031916108015906114305750603360f91b60f883901b6001600160f81b03191611155b1561144c57606161144283600a611ced565b6101549190611ea2565b604160f81b60f883901b6001600160f81b031916108015906114805750602360f91b60f883901b6001600160f81b03191611155b1561149257604161144283600a611ced565b60405162461bcd60e51b81526004016105159060208082526004908201526319985a5b60e21b604082015260600190565b606060006102fd836003610c1a565b8051606090608016156114ec5760006102fd836001610c1a565b919050565b60606040519050608081016040526f30313233343536373839616263646566600f526002810190506028815260208101600060288201528260601b925060005b808101820184821a600f81165160018301538060041c5182535050600181019060121901611531575050919050565b80356001600160a01b03811681146114ec57600080fd5b634e487b7160e01b600052604160045260246000fd5b6040805190810167ffffffffffffffff811182821017156115b0576115b0611577565b60405290565b604051601f8201601f1916810167ffffffffffffffff811182821017156115df576115df611577565b604052919050565b600067ffffffffffffffff82111561160157611601611577565b50601f01601f191660200190565b600061162261161d846115e7565b6115b6565b905082815283838301111561163657600080fd5b828260208301376000602084830101529392505050565b600082601f83011261165e57600080fd5b6102fd8383356020850161160f565b6000806040838503121561168057600080fd5b61168983611560565b9150602083013567ffffffffffffffff8111156116a557600080fd5b6116b18582860161164d565b9150509250929050565b60005b838110156116d65781810151838201526020016116be565b838111156116e5576000848401525b50505050565b600081518084526117038160208601602086016116bb565b601f01601f19169290920160200192915050565b6020815260006102fd60208301846116eb565b60006020828403121561173c57600080fd5b6102fd82611560565b60008060006060848603121561175a57600080fd5b61176384611560565b925060208085013567ffffffffffffffff8082111561178157600080fd5b61178d8883890161164d565b945060408701359150808211156117a357600080fd5b818701915087601f8301126117b757600080fd5b8135818111156117c9576117c9611577565b8060051b6117d88582016115b6565b918252838101850191858101908b8411156117f257600080fd5b86860192505b83831015611872578235858111156118105760008081fd5b86016040818e03601f190112156118275760008081fd5b61182f61158d565b61183a898301611560565b815260408201358781111561184f5760008081fd5b61185d8f8b8386010161164d565b828b01525083525091860191908601906117f8565b809750505050505050509250925092565b60006020828403121561189557600080fd5b813567ffffffffffffffff8111156118ac57600080fd5b8201601f810184136118bd57600080fd5b6113ac8482356020840161160f565b7f7b226a736f6e727063223a22322e30222c226d6574686f64223a226574685f6381527530b6361116113830b930b6b9911d2dbd913a37911d1160511b602082015260360190565b600061191f826118cc565b845161192f8183602089016116bb565b691116113230ba30911d1160b11b9101908152835161195581600a8401602088016116bb565b73227d2c226c6174657374225d2c226964223a317d60601b600a9290910191820152601e01949350505050565b7f7b226a736f6e727063223a22322e30222c226d6574686f64223a226574685f6781527f65745472616e73616374696f6e436f756e74222c22706172616d73223a5b22006020820152600082516119e081603f8501602087016116bb565b72222c226c6174657374225d2c226964223a317d60681b603f939091019283015250605201919050565b6000611a15826118cc565b8451611a258183602089016116bb565b691116113230ba30911d1160b11b91019081528351611a4b81600a8401602088016116bb565b6c227d2c226c6174657374222c7b60981b600a9290910191820152601701949350505050565b634e487b7160e01b600052603260045260246000fd5b60008451611a998184602089016116bb565b601160f91b9083019081528451611ab78160018401602089016116bb565b6c111d103d9131b7b232911d101160991b600192909101918201528351611ae581600e8401602088016116bb565b61227d60f01b600e929091019182015260100195945050505050565b634e487b7160e01b600052601160045260246000fd5b600082821015611b2957611b29611b01565b500390565b60008251611b408184602087016116bb565b600b60fa1b920191825250600101919050565b600060018201611b6557611b65611b01565b5060010190565b60008251611b7e8184602087016116bb565b697d5d2c226964223a317d60b01b920191825250600a01919050565b600181811c90821680611bae57607f821691505b602082108103610a5c57634e487b7160e01b600052602260045260246000fd5b7f7b226a736f6e727063223a22322e30222c226d6574686f64223a226574685f6781527532ba2130b630b731b29116113830b930b6b9911d2d9160511b602082015260008251611c258160368501602087016116bb565b72222c226c6174657374225d2c226964223a317d60681b6036939091019283015250604901919050565b634e487b7160e01b600052601260045260246000fd5b600082611c7457611c74611c4f565b500690565b600082611c8857611c88611c4f565b500490565b6000816000190483118215151615611ca757611ca7611b01565b500290565b60008219821115611cbf57611cbf611b01565b500190565b600060ff821660ff84168160ff0481118215151615611ce557611ce5611b01565b029392505050565b600060ff821660ff84168060ff03821115611d0a57611d0a611b01565b019392505050565b60006020808352835160c082850152611d2e60e08501826116eb565b905081850151601f1980868403016040870152611d4b83836116eb565b60408801518782038301606089015280518083529194508501925084840190600581901b8501860160005b82811015611da25784878303018452611d908287516116eb565b95880195938801939150600101611d76565b5060608a01519650838982030160808a0152611dbe81886116eb565b96505050505050506080840151611dd960a085018215159052565b5060a084015167ffffffffffffffff811660c0850152610724565b60008251611e068184602087016116bb565b9190910192915050565b6001600160a01b0383168152604060208201819052600090610b21908301846116eb565b600060208284031215611e4657600080fd5b815167ffffffffffffffff811115611e5d57600080fd5b8201601f81018413611e6e57600080fd5b8051611e7c61161d826115e7565b818152856020838501011115611e9157600080fd5b6101af8260208301602086016116bb565b600060ff821660ff841680821015611ebc57611ebc611b01565b9003939250505056fea26469706673582212206b1b4a0614a4ee7ddecf2bfa1cabd2094d131d51ec53710e61e799db434af6b164736f6c634300080d0033608060405234801561001057600080fd5b5060405161253138038061253183398101604081905261002f91610107565b8160405161003c90610098565b61004691906101c6565b604051809103906000f080158015610062573d6000803e3d6000fd5b50600080546001600160a01b039283166001600160a01b03199182161790915560018054939092169216919091179055506101f9565b6121308061040183390190565b634e487b7160e01b600052604160045260246000fd5b60005b838110156100d65781810151838201526020016100be565b838111156100e5576000848401525b50505050565b80516001600160a01b038116811461010257600080fd5b919050565b6000806040838503121561011a57600080fd5b82516001600160401b038082111561013157600080fd5b818501915085601f83011261014557600080fd5b815181811115610157576101576100a5565b604051601f8201601f19908116603f0116810190838211818310171561017f5761017f6100a5565b8160405282815288602084870101111561019857600080fd5b6101a98360208301602088016100bb565b80965050505050506101bd602084016100eb565b90509250929050565b60208152600082518060208401526101e58160408501602087016100bb565b601f01601f19169190910160400192915050565b6101f9806102086000396000f3fe608060405234801561001057600080fd5b5060008054600154604051631b8b921d60e01b81526001600160a01b0392831692631b8b921d9261004a929116908590369060040161009d565b6000604051808303816000875af1158015610069573d6000803e3d6000fd5b505050506040513d6000823e601f3d908101601f1916820160405261009191908101906100f3565b90508081518060208301f35b6001600160a01b03841681526040602082018190528101829052818360608301376000818301606090810191909152601f909201601f1916010192915050565b634e487b7160e01b600052604160045260246000fd5b6000602080838503121561010657600080fd5b825167ffffffffffffffff8082111561011e57600080fd5b818501915085601f83011261013257600080fd5b815181811115610144576101446100dd565b604051601f8201601f19908116603f0116810190838211818310171561016c5761016c6100dd565b81604052828152888684870101111561018457600080fd5b600093505b828410156101a65784840186015181850187015292850192610189565b828411156101b75760008684830101525b9897505050505050505056fea2646970667358221220712150db78acd79a3821a9430562d65107f88eb38a11820cf2160900b21c666364736f6c634300080d003360806040523480156200001157600080fd5b50604051620021303803806200213083398101604081905262000034916200010d565b80516200004990600090602084019062000051565b505062000225565b8280546200005f90620001e9565b90600052602060002090601f016020900481019282620000835760008555620000ce565b82601f106200009e57805160ff1916838001178555620000ce565b82800160010185558215620000ce579182015b82811115620000ce578251825591602001919060010190620000b1565b50620000dc929150620000e0565b5090565b5b80821115620000dc5760008155600101620000e1565b634e487b7160e01b600052604160045260246000fd5b600060208083850312156200012157600080fd5b82516001600160401b03808211156200013957600080fd5b818501915085601f8301126200014e57600080fd5b815181811115620001635762000163620000f7565b604051601f8201601f19908116603f011681019083821181831017156200018e576200018e620000f7565b816040528281528886848701011115620001a757600080fd5b600093505b82841015620001cb5784840186015181850187015292850192620001ac565b82841115620001dd5760008684830101525b98975050505050505050565b600181811c90821680620001fe57607f821691505b6020821081036200021f57634e487b7160e01b600052602260045260246000fd5b50919050565b611efb80620002356000396000f3fe608060405234801561001057600080fd5b50600436106100575760003560e01c80631b8b921d1461005c57806370ae92d2146100855780637c52407c146100a6578063c672f9d6146100b9578063e3d670d7146100db575b600080fd5b61006f61006a36600461166d565b6100ee565b60405161007c9190611717565b60405180910390f35b61009861009336600461172a565b61015a565b60405190815260200161007c565b61006f6100b4366004611745565b6101b8565b6100cc6100c7366004611883565b610304565b6040519051815260200161007c565b6100986100e936600461172a565b610552565b606060006100fb8461056e565b61010484610617565b604051602001610115929190611914565b6040516020818303038152906040529050600061013182610304565b9050600061014e6101496101448461063b565b61064a565b61072c565b93505050505b92915050565b6000806101668361056e565b6040516020016101769190611982565b6040516020818303038152906040529050600061019282610304565b905060006101af6101aa6101a58461063b565b61084d565b6109d7565b95945050505050565b606060006101c58561056e565b6101ce85610617565b6040516020016101df929190611a0a565b604051602081830303815290604052905060005b83518110156102b6578161022385838151811061021257610212611a71565b60200260200101516000015161056e565b61024986848151811061023857610238611a71565b602002602001015160200151610617565b60405160200161025b93929190611a87565b60405160208183030381529060405291506001845161027a9190611b17565b8110156102a457816040516020016102929190611b2e565b60405160208183030381529060405291505b806102ae81611b53565b9150506101f3565b50806040516020016102c89190611b6c565b604051602081830303815290604052905060006102e482610304565b905060006102f76101496101448461063b565b93505050505b9392505050565b6040805160208101909152600081526103586040518060c0016040528060608152602001606081526020016060815260200160608152602001600015158152602001600067ffffffffffffffff1681525090565b604051806040016040528060048152602001631413d4d560e21b81525081602001819052506000805461038a90611b9a565b80601f01602080910402602001604051908101604052809291908181526020018280546103b690611b9a565b80156104035780601f106103d857610100808354040283529160200191610403565b820191906000526020600020905b8154815290600101906020018083116103e657829003601f168201915b505050918352505060408051600180825281830190925290816020015b606081526020019060019003908161042057505060408281019182528051808201909152601e81527f436f6e74656e742d547970653a206170706c69636174696f6e2f6a736f6e000060208201529051805160009061048157610481611a71565b602090810291909101015260608101839052600061049e82610a62565b905060006104ab82610b29565b905060006104e1604051806040016040528060078152602001661132b93937b91160c91b81525083610b4290919063ffffffff16565b90506104ef81516007161590565b61051e576104fc8161063b565b60405162461bcd60e51b81526004016105159190611717565b60405180910390fd5b604080518082019091526008815267113932b9bab63a1160c11b6020820152610548908390610b42565b9695505050505050565b60008061055e8361056e565b6040516020016101769190611bce565b606061057982610ba9565b6028602282019081209192507f4040404040404040404040404040404040404040404040404040404040404040917f888888888888888888888888888888888888888888888888888888888888888016601160f31b60005b82811a8202818001526001810190601219016105d157505050818151166000511660011c8151188152602081019050818151166020511660011c81511881525050919050565b606061062282610bb4565b8051613078825260020160011990910190815292915050565b606060006102fd836000610c1a565b606060008290506000600482516106619190611b17565b67ffffffffffffffff81111561067957610679611577565b6040519080825280601f01601f1916602001820160405280156106a3576020820181803683370190505b50905060035b600183516106b79190611b17565b811015610724578281815181106106d0576106d0611a71565b01602001516001600160f81b031916826106eb600384611b17565b815181106106fb576106fb611a71565b60200101906001600160f81b031916908160001a9053508061071c81611b53565b9150506106a9565b509392505050565b8051606090829061073f90600290611c65565b1561074957600080fd5b6000600282516107599190611c79565b67ffffffffffffffff81111561077157610771611577565b6040519080825280601f01601f19166020018201604052801561079b576020820181803683370190505b50905060005b600283516107af9190611c79565b811015610724576107ed836107c5836002611c8d565b6107d0906001611cac565b815181106107e0576107e0611a71565b016020015160f81c6113b6565b6107fc846107d0846002611c8d565b610807906010611cc4565b6108119190611ced565b60f81b82828151811061082657610826611a71565b60200101906001600160f81b031916908160001a90535061084681611b53565b90506107a1565b60606000829050600281511015801561088b57508060008151811061087457610874611a71565b6020910101516001600160f81b031916601160f91b145b80156108c8575080600182516108a19190611b17565b815181106108b1576108b1611a71565b6020910101516001600160f81b031916601160f91b145b6109045760405162461bcd60e51b815260206004820152600d60248201526c125b9d985b1a59081a5b9c1d5d609a1b6044820152606401610515565b6000600282516109149190611b17565b67ffffffffffffffff81111561092c5761092c611577565b6040519080825280601f01601f191660200182016040528015610956576020820181803683370190505b50905060015b6001835161096a9190611b17565b8110156107245782818151811061098357610983611a71565b01602001516001600160f81b0319168261099e600184611b17565b815181106109ae576109ae611a71565b60200101906001600160f81b031916908160001a905350806109cf81611b53565b91505061095c565b600081516001811160208085015160f01c17613078141660011b5b6001810190507403010a071000000b0104040208000c05090d060e0f6d03e4088843e41bac00000000000060ff83870151161c601f161a8360fc1c8115171583029250600181038460041b019350508181106109f2575080610a5c5763101827966000526004601cfd5b50919050565b606060008063432000026001600160a01b031684604051602001610a869190611d12565b60408051601f1981840301815290829052610aa091611df4565b6000604051808303816000865af19150503d8060008114610add576040519150601f19603f3d011682016040523d82523d6000602084013e610ae2565b606091505b509150915081610b0d576343200002816040516375fff46760e01b8152600401610515929190611e10565b80806020019051810190610b219190611e34565b949350505050565b60408051600080825291819052906102fd8360ff610c1a565b60408051600081529052815160609060071660020361015457815160208301206000610b6d856114c3565b805190915060051b5b8015610ba057818101519550601f190182610b90876114d2565b8051906020012003610b76578593505b50505092915050565b6060610622826114f1565b8051604051818001600282019081526f30313233343536373839616263646566600f52918301906022015b818414610c0a57600184019350600f845116516001820153600f845160041c16518153600201610bdf565b6000815260200160405250919050565b600061130c565b63101827966000526004601cfd5b805b6001640100002600610c44835160001a90565b1c161561015457600101610c31565b63ffffffff83113d3d3e63ffffffff821b191691901b1790565b604051610c8f8486036078610c8a601f1986890301605888610c53565b610c53565b959095178552505050602082016040525090565b600080610cb4846018600051610c53565b610cbe8787610c2f565b9150868210610ccd5750610df3565b815160001a60228103610cff5782610ce789858589611003565b9350610cf760048583868a610c6d565b945050610de4565b605b8103610d1c57610d1388848488610dfc565b93509350610de4565b607b8103610d3057610d1388848488610ec5565b6703ff200000000000811c60011615610d4f57610d13888484886110d7565b876004840111610da95782835160e01c63747275658103610d8757600485019450610d7e60058684878b610c6d565b95505050610de4565b636e756c6c8103610da657600485019450610d7e60068684878b610c6d565b50505b876005840111610ddc5782835160d81c6466616c73658103610dd957600585019450610d7e60058684878b610c6d565b50505b610de4610c21565b5050610df08682610c2f565b90505b94509492505050565b600060018401815b868210610e1357610e13610c21565b82610e3757610e228783610c2f565b9150605d610e31835160001a90565b14610e9a575b610e4387838587610ca3565b925092508215610e8b57610e5d8160988551604017610c53565b8352600101610e6d825160001a90565b605d8103610e7b5750610e9a565b602c8103610e895750610e8f565b505b8691505b600182019150610e04565b50600101610eaa82603886610c53565b9350610eba600182878787610c6d565b915094509492505050565b6000600184015b858110610edb57610edb610c21565b81610eff57610eea8682610c2f565b9050607d610ef9825160001a90565b14610fa3575b610f098682610c2f565b905080610f1887838587611003565b610f228882610c2f565b9250603a610f31845160001a90565b03610f9557610f4588600185018688610ca3565b935093508315610f9557610f6c6020860183036098610c8a85850360b88951608017610c53565b8452825160001a607d8103610f8357505050610fa3565b602c8103610f9357505050610f9b565b505b50508590505b600101610ecc565b600101610fb282603886610c53565b9350610eba600282878787610c6d565b6001667e0000007e03ff6030610fdb8585015160001a90565b031c16610fea57610fea610c21565b60058214610fff57610fff6001830182610fc2565b5050565b5050600082821061101657611016610c21565b50600181015b805160001a6022810361102f575061108d565b605c8114611040575060010161101c565b600182015160001a905060016a0510110400000000002001602283031c161561106c575060020161101c565b607581036110885761107f600283610fc2565b5060060161101c565b508290505b82811061109c5761109c610c21565b60010192915050565b805b600a60306110b6835160001a90565b0310156110c5576001016110a7565b8082148416156102fd576102fd610c21565b600083602d6110e7825160001a90565b036110f0576001015b600a60306110ff835160001a90565b031061110d5761110d610c21565b805160001a6001820191506030811461112f5761112c600088846110a5565b91505b50602e61113d825160001a90565b0361115457611151600187600184016110a5565b90505b805160658160001a60201703611183576111806001886001850162010001600e8660011a031a016110a5565b91505b50610eba600382878787610c6d565b60405190820190601f19601f850181165b83810151838201528101806111a35750508381526000846020830101528360408201016040529392505050565b8483611192565b805160609060028160071611610a5c578215811517610a5c57602081161561120b57603881901c63ffffffff169150610a5c565b604051915060208201603882901c63ffffffff165b8015611252578082528051601881901c63ffffffff1661124287601884610c53565b9092525060209190910190611220565b50601f1983820381018060051c85528260405261127185603886610c53565b9350836020178652604081106112a4576020850192508085015b8351815185528152602090930192820180841061128b57505b50505050919050565b80516060908215811517156112c25750610b21565b80841c63ffffffff1691508086166113035760d881901c63ffffffff166112f082871c63ffffffff166111d0565b9250506112fe828583610c53565b861783525b50949350505050565b81801561137e576001811461139457600381146113a357602084018451810180821461136457805160001a6022825361134b8760d8601160f91b610c53565b60005261135b828460008a610ca3565b93509450808253505b8315818310171561137757611377610c21565b50506113af565b61138d601060786058876112ad565b91506113af565b61138d600860b86098876112ad565b6113ac846111d7565b91505b5092915050565b6000600360fc1b60f883901b6001600160f81b031916108015906113ec5750603960f81b60f883901b6001600160f81b03191611155b156113fc57610154603083611ea2565b606160f81b60f883901b6001600160f81b031916108015906114305750603360f91b60f883901b6001600160f81b03191611155b1561144c57606161144283600a611ced565b6101549190611ea2565b604160f81b60f883901b6001600160f81b031916108015906114805750602360f91b60f883901b6001600160f81b03191611155b1561149257604161144283600a611ced565b60405162461bcd60e51b81526004016105159060208082526004908201526319985a5b60e21b604082015260600190565b606060006102fd836003610c1a565b8051606090608016156114ec5760006102fd836001610c1a565b919050565b60606040519050608081016040526f30313233343536373839616263646566600f526002810190506028815260208101600060288201528260601b925060005b808101820184821a600f81165160018301538060041c5182535050600181019060121901611531575050919050565b80356001600160a01b03811681146114ec57600080fd5b634e487b7160e01b600052604160045260246000fd5b6040805190810167ffffffffffffffff811182821017156115b0576115b0611577565b60405290565b604051601f8201601f1916810167ffffffffffffffff811182821017156115df576115df611577565b604052919050565b600067ffffffffffffffff82111561160157611601611577565b50601f01601f191660200190565b600061162261161d846115e7565b6115b6565b905082815283838301111561163657600080fd5b828260208301376000602084830101529392505050565b600082601f83011261165e57600080fd5b6102fd8383356020850161160f565b6000806040838503121561168057600080fd5b61168983611560565b9150602083013567ffffffffffffffff8111156116a557600080fd5b6116b18582860161164d565b9150509250929050565b60005b838110156116d65781810151838201526020016116be565b838111156116e5576000848401525b50505050565b600081518084526117038160208601602086016116bb565b601f01601f19169290920160200192915050565b6020815260006102fd60208301846116eb565b60006020828403121561173c57600080fd5b6102fd82611560565b60008060006060848603121561175a57600080fd5b61176384611560565b925060208085013567ffffffffffffffff8082111561178157600080fd5b61178d8883890161164d565b945060408701359150808211156117a357600080fd5b818701915087601f8301126117b757600080fd5b8135818111156117c9576117c9611577565b8060051b6117d88582016115b6565b918252838101850191858101908b8411156117f257600080fd5b86860192505b83831015611872578235858111156118105760008081fd5b86016040818e03601f190112156118275760008081fd5b61182f61158d565b61183a898301611560565b815260408201358781111561184f5760008081fd5b61185d8f8b8386010161164d565b828b01525083525091860191908601906117f8565b809750505050505050509250925092565b60006020828403121561189557600080fd5b813567ffffffffffffffff8111156118ac57600080fd5b8201601f810184136118bd57600080fd5b6113ac8482356020840161160f565b7f7b226a736f6e727063223a22322e30222c226d6574686f64223a226574685f6381527530b6361116113830b930b6b9911d2dbd913a37911d1160511b602082015260360190565b600061191f826118cc565b845161192f8183602089016116bb565b691116113230ba30911d1160b11b9101908152835161195581600a8401602088016116bb565b73227d2c226c6174657374225d2c226964223a317d60601b600a9290910191820152601e01949350505050565b7f7b226a736f6e727063223a22322e30222c226d6574686f64223a226574685f6781527f65745472616e73616374696f6e436f756e74222c22706172616d73223a5b22006020820152600082516119e081603f8501602087016116bb565b72222c226c6174657374225d2c226964223a317d60681b603f939091019283015250605201919050565b6000611a15826118cc565b8451611a258183602089016116bb565b691116113230ba30911d1160b11b91019081528351611a4b81600a8401602088016116bb565b6c227d2c226c6174657374222c7b60981b600a9290910191820152601701949350505050565b634e487b7160e01b600052603260045260246000fd5b60008451611a998184602089016116bb565b601160f91b9083019081528451611ab78160018401602089016116bb565b6c111d103d9131b7b232911d101160991b600192909101918201528351611ae581600e8401602088016116bb565b61227d60f01b600e929091019182015260100195945050505050565b634e487b7160e01b600052601160045260246000fd5b600082821015611b2957611b29611b01565b500390565b60008251611b408184602087016116bb565b600b60fa1b920191825250600101919050565b600060018201611b6557611b65611b01565b5060010190565b60008251611b7e8184602087016116bb565b697d5d2c226964223a317d60b01b920191825250600a01919050565b600181811c90821680611bae57607f821691505b602082108103610a5c57634e487b7160e01b600052602260045260246000fd5b7f7b226a736f6e727063223a22322e30222c226d6574686f64223a226574685f6781527532ba2130b630b731b29116113830b930b6b9911d2d9160511b602082015260008251611c258160368501602087016116bb565b72222c226c6174657374225d2c226964223a317d60681b6036939091019283015250604901919050565b634e487b7160e01b600052601260045260246000fd5b600082611c7457611c74611c4f565b500690565b600082611c8857611c88611c4f565b500490565b6000816000190483118215151615611ca757611ca7611b01565b500290565b60008219821115611cbf57611cbf611b01565b500190565b600060ff821660ff84168160ff0481118215151615611ce557611ce5611b01565b029392505050565b600060ff821660ff84168060ff03821115611d0a57611d0a611b01565b019392505050565b60006020808352835160c082850152611d2e60e08501826116eb565b905081850151601f1980868403016040870152611d4b83836116eb565b60408801518782038301606089015280518083529194508501925084840190600581901b8501860160005b82811015611da25784878303018452611d908287516116eb565b95880195938801939150600101611d76565b5060608a01519650838982030160808a0152611dbe81886116eb565b96505050505050506080840151611dd960a085018215159052565b5060a084015167ffffffffffffffff811660c0850152610724565b60008251611e068184602087016116bb565b9190910192915050565b6001600160a01b0383168152604060208201819052600090610b21908301846116eb565b600060208284031215611e4657600080fd5b815167ffffffffffffffff811115611e5d57600080fd5b8201601f81018413611e6e57600080fd5b8051611e7c61161d826115e7565b818152856020838501011115611e9157600080fd5b6101af8260208301602086016116bb565b600060ff821660ff841680821015611ebc57611ebc611b01565b9003939250505056fea26469706673582212206b1b4a0614a4ee7ddecf2bfa1cabd2094d131d51ec53710e61e799db434af6b164736f6c634300080d0033a26469706673582212205799bfa6c26cf4702c20b8e9a98cc87f9df3b2ee08eba2be64ecf6230e4e076364736f6c634300080d0033",
    "linkReferences": {}
  },
  "methodIdentifiers": {
    "PRIVATE_KEYS()": "ece3e1bc",
    "RPC()": "4a370573",
    "endAuction()": "fe67a54b",
    "getBiddingAddress()": "36021534",
    "getTxByHash(string,uint256)": "6e4bb38c",
    "onchainCallback()": "4a525054",
    "placeBid()": "ecfc7ecc",
    "printBalance(address)": "eb1292ea",
    "printBalance(address,uint256)": "b6ccab85",
    "printERC20Balance(address,address)": "04ad5c29",
    "printERC20Balance(address,address,uint256)": "e1580684",
    "printInfo()": "4148f1f8",
    "printNonce(address)": "efdd74c3",
    "printNonce(address,uint256)": "564e4110",
    "printRPCEndpoint(uint256)": "ce6d3cdb",
    "reclaimBid()": "d5c79af2",
    "registerRPCOffchain(uint256)": "8111fe79",
    "relayTransaction(bytes)": "dd242fad",
    "revealBidders()": "eae04747",
    "updatePrivateKeyOnchain(address,bytes16)": "c9219f8c",
    "updateRPCOnchain(uint256,bytes16)": "f7bddfcb"
  },
  "id": 16
}