{
  "abi": [
    {
      "type": "constructor",
      "inputs": [
        {
          "name": "beneficiaryAddress",
          "type": "address",
          "internalType": "address"
        },
        {
          "name": "nftContractAddress",
          "type": "address",
          "internalType": "address"
        },
        {
          "name": "nftTokenId",
          "type": "uint256",
          "internalType": "uint256"
        },
        {
          "name": "auctionTimeInDays",
          "type": "uint256",
          "internalType": "uint256"
        },
        {
          "name": "minimalBiddingAmount",
          "type": "uint256",
          "internalType": "uint256"
        }
      ],
      "stateMutability": "nonpayable"
    },
    {
      "type": "function",
      "name": "PRIVATE_KEYS",
      "inputs": [],
      "outputs": [
        {
          "name": "",
          "type": "string",
          "internalType": "string"
        }
      ],
      "stateMutability": "view"
    },
    {
      "type": "function",
      "name": "RETURN_ADDRESS",
      "inputs": [],
      "outputs": [
        {
          "name": "",
          "type": "string",
          "internalType": "string"
        }
      ],
      "stateMutability": "view"
    },
    {
      "type": "function",
      "name": "RPC",
      "inputs": [],
      "outputs": [
        {
          "name": "",
          "type": "string",
          "internalType": "string"
        }
      ],
      "stateMutability": "view"
    },
    {
      "type": "function",
      "name": "auctionEndTime",
      "inputs": [],
      "outputs": [
        {
          "name": "",
          "type": "uint256",
          "internalType": "uint256"
        }
      ],
      "stateMutability": "view"
    },
    {
      "type": "function",
      "name": "auctionHasStarted",
      "inputs": [],
      "outputs": [
        {
          "name": "",
          "type": "bool",
          "internalType": "bool"
        }
      ],
      "stateMutability": "view"
    },
    {
      "type": "function",
      "name": "auctionTimeSpan",
      "inputs": [],
      "outputs": [
        {
          "name": "",
          "type": "uint256",
          "internalType": "uint256"
        }
      ],
      "stateMutability": "view"
    },
    {
      "type": "function",
      "name": "auctioneerL1",
      "inputs": [],
      "outputs": [
        {
          "name": "",
          "type": "address",
          "internalType": "address"
        }
      ],
      "stateMutability": "view"
    },
    {
      "type": "function",
      "name": "auctioneerSUAVE",
      "inputs": [],
      "outputs": [
        {
          "name": "",
          "type": "address",
          "internalType": "address"
        }
      ],
      "stateMutability": "view"
    },
    {
      "type": "function",
      "name": "bidderAmount",
      "inputs": [],
      "outputs": [
        {
          "name": "",
          "type": "uint256",
          "internalType": "uint256"
        }
      ],
      "stateMutability": "view"
    },
    {
      "type": "function",
      "name": "endAuction",
      "inputs": [],
      "outputs": [
        {
          "name": "",
          "type": "bytes",
          "internalType": "bytes"
        }
      ],
      "stateMutability": "nonpayable"
    },
    {
      "type": "function",
      "name": "getBiddingAddress",
      "inputs": [],
      "outputs": [
        {
          "name": "",
          "type": "bytes",
          "internalType": "bytes"
        }
      ],
      "stateMutability": "nonpayable"
    },
    {
      "type": "function",
      "name": "getNFTOwnedBy",
      "inputs": [
        {
          "name": "_nftContract",
          "type": "address",
          "internalType": "address"
        },
        {
          "name": "_tokenId",
          "type": "uint256",
          "internalType": "uint256"
        },
        {
          "name": "_chainId",
          "type": "uint256",
          "internalType": "uint256"
        }
      ],
      "outputs": [
        {
          "name": "",
          "type": "address",
          "internalType": "address"
        }
      ],
      "stateMutability": "nonpayable"
    },
    {
      "type": "function",
      "name": "getTxByHash",
      "inputs": [
        {
          "name": "txHash",
          "type": "string",
          "internalType": "string"
        },
        {
          "name": "chainId",
          "type": "uint256",
          "internalType": "uint256"
        }
      ],
      "outputs": [
        {
          "name": "",
          "type": "bytes",
          "internalType": "bytes"
        }
      ],
      "stateMutability": "nonpayable"
    },
    {
      "type": "function",
      "name": "minimalBid",
      "inputs": [],
      "outputs": [
        {
          "name": "",
          "type": "uint256",
          "internalType": "uint256"
        }
      ],
      "stateMutability": "view"
    },
    {
      "type": "function",
      "name": "nftContract",
      "inputs": [],
      "outputs": [
        {
          "name": "",
          "type": "address",
          "internalType": "address"
        }
      ],
      "stateMutability": "view"
    },
    {
      "type": "function",
      "name": "onchainCallback",
      "inputs": [],
      "outputs": [],
      "stateMutability": "nonpayable"
    },
    {
      "type": "function",
      "name": "placeBid",
      "inputs": [],
      "outputs": [
        {
          "name": "",
          "type": "bytes",
          "internalType": "bytes"
        }
      ],
      "stateMutability": "nonpayable"
    },
    {
      "type": "function",
      "name": "placeBidCallback",
      "inputs": [
        {
          "name": "owner",
          "type": "address",
          "internalType": "address"
        },
        {
          "name": "returnAddress",
          "type": "bytes16",
          "internalType": "Suave.DataId"
        }
      ],
      "outputs": [],
      "stateMutability": "nonpayable"
    },
    {
      "type": "function",
      "name": "printBalance",
      "inputs": [
        {
          "name": "account",
          "type": "address",
          "internalType": "address"
        },
        {
          "name": "chainId",
          "type": "uint256",
          "internalType": "uint256"
        }
      ],
      "outputs": [
        {
          "name": "",
          "type": "bytes",
          "internalType": "bytes"
        }
      ],
      "stateMutability": "nonpayable"
    },
    {
      "type": "function",
      "name": "printBalance",
      "inputs": [
        {
          "name": "account",
          "type": "address",
          "internalType": "address"
        }
      ],
      "outputs": [
        {
          "name": "",
          "type": "bytes",
          "internalType": "bytes"
        }
      ],
      "stateMutability": "nonpayable"
    },
    {
      "type": "function",
      "name": "printERC20Balance",
      "inputs": [
        {
          "name": "coinAddr",
          "type": "address",
          "internalType": "address"
        },
        {
          "name": "account",
          "type": "address",
          "internalType": "address"
        }
      ],
      "outputs": [
        {
          "name": "",
          "type": "bytes",
          "internalType": "bytes"
        }
      ],
      "stateMutability": "nonpayable"
    },
    {
      "type": "function",
      "name": "printERC20Balance",
      "inputs": [
        {
          "name": "coinAddr",
          "type": "address",
          "internalType": "address"
        },
        {
          "name": "account",
          "type": "address",
          "internalType": "address"
        },
        {
          "name": "chainId",
          "type": "uint256",
          "internalType": "uint256"
        }
      ],
      "outputs": [
        {
          "name": "",
          "type": "bytes",
          "internalType": "bytes"
        }
      ],
      "stateMutability": "nonpayable"
    },
    {
      "type": "function",
      "name": "printInfo",
      "inputs": [],
      "outputs": [
        {
          "name": "",
          "type": "bytes",
          "internalType": "bytes"
        }
      ],
      "stateMutability": "nonpayable"
    },
    {
      "type": "function",
      "name": "printNonce",
      "inputs": [
        {
          "name": "account",
          "type": "address",
          "internalType": "address"
        },
        {
          "name": "chainId",
          "type": "uint256",
          "internalType": "uint256"
        }
      ],
      "outputs": [
        {
          "name": "",
          "type": "bytes",
          "internalType": "bytes"
        }
      ],
      "stateMutability": "nonpayable"
    },
    {
      "type": "function",
      "name": "printNonce",
      "inputs": [
        {
          "name": "account",
          "type": "address",
          "internalType": "address"
        }
      ],
      "outputs": [
        {
          "name": "",
          "type": "bytes",
          "internalType": "bytes"
        }
      ],
      "stateMutability": "nonpayable"
    },
    {
      "type": "function",
      "name": "printRPCEndpoint",
      "inputs": [
        {
          "name": "chainId",
          "type": "uint256",
          "internalType": "uint256"
        }
      ],
      "outputs": [
        {
          "name": "",
          "type": "bytes",
          "internalType": "bytes"
        }
      ],
      "stateMutability": "nonpayable"
    },
    {
      "type": "function",
      "name": "reclaimBid",
      "inputs": [],
      "outputs": [
        {
          "name": "",
          "type": "bytes",
          "internalType": "bytes"
        }
      ],
      "stateMutability": "nonpayable"
    },
    {
      "type": "function",
      "name": "registerRPCOffchain",
      "inputs": [
        {
          "name": "chainId",
          "type": "uint256",
          "internalType": "uint256"
        }
      ],
      "outputs": [
        {
          "name": "",
          "type": "bytes",
          "internalType": "bytes"
        }
      ],
      "stateMutability": "nonpayable"
    },
    {
      "type": "function",
      "name": "relayTransaction",
      "inputs": [
        {
          "name": "rlpEncodedTxn",
          "type": "bytes",
          "internalType": "bytes"
        }
      ],
      "outputs": [],
      "stateMutability": "nonpayable"
    },
    {
      "type": "function",
      "name": "revealBidders",
      "inputs": [],
      "outputs": [
        {
          "name": "",
          "type": "bytes",
          "internalType": "bytes"
        }
      ],
      "stateMutability": "nonpayable"
    },
    {
      "type": "function",
      "name": "startAuction",
      "inputs": [],
      "outputs": [
        {
          "name": "",
          "type": "bytes",
          "internalType": "bytes"
        }
      ],
      "stateMutability": "nonpayable"
    },
    {
      "type": "function",
      "name": "startAuctionCallback",
      "inputs": [],
      "outputs": [],
      "stateMutability": "nonpayable"
    },
    {
      "type": "function",
      "name": "tokenId",
      "inputs": [],
      "outputs": [
        {
          "name": "",
          "type": "uint256",
          "internalType": "uint256"
        }
      ],
      "stateMutability": "view"
    },
    {
      "type": "function",
      "name": "updatePrivateKeyCallback",
      "inputs": [
        {
          "name": "owner",
          "type": "address",
          "internalType": "address"
        },
        {
          "name": "keyRecord",
          "type": "bytes16",
          "internalType": "Suave.DataId"
        }
      ],
      "outputs": [],
      "stateMutability": "nonpayable"
    },
    {
      "type": "function",
      "name": "updateRPCCallback",
      "inputs": [
        {
          "name": "chainId",
          "type": "uint256",
          "internalType": "uint256"
        },
        {
          "name": "_rpcRecord",
          "type": "bytes16",
          "internalType": "Suave.DataId"
        }
      ],
      "outputs": [],
      "stateMutability": "nonpayable"
    },
    {
      "type": "event",
      "name": "AuctionEndedAmbigious",
      "inputs": [
        {
          "name": "numberMaxBidders",
          "type": "uint256",
          "indexed": false,
          "internalType": "uint256"
        },
        {
          "name": "bidAmount",
          "type": "uint256",
          "indexed": false,
          "internalType": "uint256"
        }
      ],
      "anonymous": false
    },
    {
      "type": "event",
      "name": "AuctionInfo",
      "inputs": [
        {
          "name": "auctioneerL1",
          "type": "address",
          "indexed": false,
          "internalType": "address"
        },
        {
          "name": "auctioneerSUAVE",
          "type": "address",
          "indexed": false,
          "internalType": "address"
        },
        {
          "name": "nftHoldingAddress",
          "type": "address",
          "indexed": false,
          "internalType": "address"
        },
        {
          "name": "nftContract",
          "type": "address",
          "indexed": false,
          "internalType": "address"
        },
        {
          "name": "tokenId",
          "type": "uint256",
          "indexed": false,
          "internalType": "uint256"
        },
        {
          "name": "auctionTimeSpan",
          "type": "uint256",
          "indexed": false,
          "internalType": "uint256"
        },
        {
          "name": "auctionEndTime",
          "type": "uint256",
          "indexed": false,
          "internalType": "uint256"
        },
        {
          "name": "minimalBid",
          "type": "uint256",
          "indexed": false,
          "internalType": "uint256"
        },
        {
          "name": "auctionHasStarted",
          "type": "bool",
          "indexed": false,
          "internalType": "bool"
        }
      ],
      "anonymous": false
    },
    {
      "type": "event",
      "name": "AuctionOpened",
      "inputs": [
        {
          "name": "contractAddr",
          "type": "address",
          "indexed": false,
          "internalType": "address"
        },
        {
          "name": "nftContractAddress",
          "type": "address",
          "indexed": false,
          "internalType": "address"
        },
        {
          "name": "nftTokenId",
          "type": "uint256",
          "indexed": false,
          "internalType": "uint256"
        },
        {
          "name": "endTimestamp",
          "type": "uint256",
          "indexed": false,
          "internalType": "uint256"
        },
        {
          "name": "minimalBiddingAmount",
          "type": "uint256",
          "indexed": false,
          "internalType": "uint256"
        }
      ],
      "anonymous": false
    },
    {
      "type": "event",
      "name": "Balance",
      "inputs": [
        {
          "name": "owner",
          "type": "address",
          "indexed": false,
          "internalType": "address"
        },
        {
          "name": "value",
          "type": "uint256",
          "indexed": false,
          "internalType": "uint256"
        }
      ],
      "anonymous": false
    },
    {
      "type": "event",
      "name": "ERC20Balance",
      "inputs": [
        {
          "name": "coinAddr",
          "type": "address",
          "indexed": false,
          "internalType": "address"
        },
        {
          "name": "owner",
          "type": "address",
          "indexed": false,
          "internalType": "address"
        },
        {
          "name": "value",
          "type": "uint256",
          "indexed": false,
          "internalType": "uint256"
        }
      ],
      "anonymous": false
    },
    {
      "type": "event",
      "name": "EncBiddingAddress",
      "inputs": [
        {
          "name": "owner",
          "type": "address",
          "indexed": false,
          "internalType": "address"
        },
        {
          "name": "encryptedL1Address",
          "type": "string",
          "indexed": false,
          "internalType": "string"
        }
      ],
      "anonymous": false
    },
    {
      "type": "event",
      "name": "FundsTooLessToPayout",
      "inputs": [
        {
          "name": "addr",
          "type": "address",
          "indexed": false,
          "internalType": "address"
        }
      ],
      "anonymous": false
    },
    {
      "type": "event",
      "name": "HttpResponse",
      "inputs": [
        {
          "name": "response",
          "type": "string",
          "indexed": false,
          "internalType": "string"
        }
      ],
      "anonymous": false
    },
    {
      "type": "event",
      "name": "NoBidder",
      "inputs": [],
      "anonymous": false
    },
    {
      "type": "event",
      "name": "NonceCounter",
      "inputs": [
        {
          "name": "owner",
          "type": "address",
          "indexed": false,
          "internalType": "address"
        },
        {
          "name": "value",
          "type": "uint256",
          "indexed": false,
          "internalType": "uint256"
        }
      ],
      "anonymous": false
    },
    {
      "type": "event",
      "name": "RPCEndpoint",
      "inputs": [
        {
          "name": "chainId",
          "type": "uint256",
          "indexed": false,
          "internalType": "uint256"
        },
        {
          "name": "endpointURL",
          "type": "string",
          "indexed": false,
          "internalType": "string"
        }
      ],
      "anonymous": false
    },
    {
      "type": "event",
      "name": "RPCEndpointUpdated",
      "inputs": [
        {
          "name": "chainId",
          "type": "uint256",
          "indexed": false,
          "internalType": "uint256"
        }
      ],
      "anonymous": false
    },
    {
      "type": "event",
      "name": "RevealBiddingAddress",
      "inputs": [
        {
          "name": "bidder",
          "type": "address",
          "indexed": false,
          "internalType": "address"
        }
      ],
      "anonymous": false
    },
    {
      "type": "event",
      "name": "TxnSignature",
      "inputs": [
        {
          "name": "r",
          "type": "bytes32",
          "indexed": false,
          "internalType": "bytes32"
        },
        {
          "name": "s",
          "type": "bytes32",
          "indexed": false,
          "internalType": "bytes32"
        }
      ],
      "anonymous": false
    },
    {
      "type": "event",
      "name": "WinnerAddress",
      "inputs": [
        {
          "name": "winner",
          "type": "address",
          "indexed": false,
          "internalType": "address"
        },
        {
          "name": "amount",
          "type": "uint256",
          "indexed": false,
          "internalType": "uint256"
        }
      ],
      "anonymous": false
    },
    {
      "type": "error",
      "name": "PeekerReverted",
      "inputs": [
        {
          "name": "",
          "type": "address",
          "internalType": "address"
        },
        {
          "name": "",
          "type": "bytes",
          "internalType": "bytes"
        }
      ]
    }
  ],
  "bytecode": {
    "object": "0x600280546001600160a01b03191673a1050b14e8d8e821f4b0f792084f6098b82ebdbb1790556008805460ff1916905560c060405260036080819052624b455960e81b60a09081526200005691600991906200015e565b506040805180820190915260048082526320a2222960e11b60209092019182526200008491600a916200015e565b506000600e556040805180820190915260038082526252504360e81b6020909201918252620000b6916010916200015e565b50348015620000c457600080fd5b506040516200bc653803806200bc65833981016040819052620000e79162000221565b60018054336001600160a01b0319918216179091556000805482166001600160a01b03888116919091179091556003805490921690861617905560048390556200013382601862000274565b6200014090603c62000274565b6200014d90603c62000274565b60055560075550620002de92505050565b8280546200016c90620002a2565b90600052602060002090601f016020900481019282620001905760008555620001db565b82601f10620001ab57805160ff1916838001178555620001db565b82800160010185558215620001db579182015b82811115620001db578251825591602001919060010190620001be565b50620001e9929150620001ed565b5090565b5b80821115620001e95760008155600101620001ee565b80516001600160a01b03811681146200021c57600080fd5b919050565b600080600080600060a086880312156200023a57600080fd5b620002458662000204565b9450620002556020870162000204565b6040870151606088015160809098015196999198509695945092505050565b60008160001904831182151516156200029d57634e487b7160e01b600052601160045260246000fd5b500290565b600181811c90821680620002b757607f821691505b602082108103620002d857634e487b7160e01b600052602260045260246000fd5b50919050565b61b97780620002ee6000396000f3fe60806040523480156200001157600080fd5b50600436106200023d5760003560e01c80638111fe79116200013d578063e158068411620000bb578063ecfc7ecc1162000086578063ecfc7ecc14620004a3578063efdd74c314620004ad578063f31cc01814620004c4578063fe67a54b14620004db578063ff0c034614620004e557600080fd5b8063e15806841462000461578063eae047471462000478578063eb1292ea1462000482578063ece3e1bc146200049957600080fd5b8063ce6d3cdb1162000108578063ce6d3cdb146200040b578063d56d229d1462000422578063d5c79af21462000436578063d864134b1462000440578063dd242fad146200044a57600080fd5b80638111fe7914620003c95780639c33da8c14620003e0578063b6ccab8514620003ea578063ce093cf7146200040157600080fd5b80634a37057311620001cb578063564e41101162000196578063564e4110146200036857806361e2f02f146200037f57806365843c12146200039e5780636b64c76914620003a85780636e4bb38c14620003b257600080fd5b80634a37057314620003335780634a525054146200033d5780634abc157c14620003475780634b449cba146200035e57600080fd5b806328b5471b116200020c57806328b5471b14620002d0578063297268ad146200031557806336021534146200031f5780634148f1f8146200032957600080fd5b806304ad5c2914620002425780630e258b49146200027157806317d70f7c146200029e5780631999cfd814620002b7575b600080fd5b620002596200025336600462006229565b620004f9565b604051620002689190620062c8565b60405180910390f35b60015462000285906001600160a01b031681565b6040516001600160a01b03909116815260200162000268565b620002a860045481565b60405190815260200162000268565b620002ce620002c8366004620062f4565b62000514565b005b620002ce620002e1366004620062f4565b6001600160a01b03919091166000908152600c6020526040902080546001600160801b03191660809290921c919091179055565b620002ce620005e9565b62000259620006b1565b6200025962000a81565b6200025962000b4c565b620002ce62000be2565b620002ce6200035836600462006327565b62000c26565b620002a860065481565b62000259620003793660046200634f565b62000c92565b6008546200038d9060ff1681565b604051901515815260200162000268565b620002a860075481565b6200025962000d59565b62000259620003c336600462006484565b62000e93565b62000259620003da366004620064e1565b62001002565b620002596200110f565b62000259620003fb3660046200634f565b6200111e565b620002a860055481565b620002596200041c366004620064e1565b620011a5565b60035462000285906001600160a01b031681565b6200025962001276565b620002a8600e5481565b620002ce6200045b366004620064fb565b62001483565b620002596200047236600462006548565b62001526565b62000259620015ed565b62000259620004933660046200658e565b620016d3565b62000259620016e4565b62000259620016f3565b62000259620004be3660046200658e565b62001b0a565b62000285620004d5366004620065ae565b62001b1b565b6200025962001d59565b60005462000285906001600160a01b031681565b60606200050b838362aa36a762001526565b90505b92915050565b620005566000368080601f01602080910402602001604051908101604052809392919081815260200183838082843760009201919091525062001fa792505050565b6001600160a01b0382166000908152600b6020908152604080832080546001600160801b031916608086901c179055600d9091528120805460ff19166001179055600e80548492600f9290919082620005af83620065fc565b91905055815260200190815260200160002060006101000a8154816001600160a01b0302191690836001600160a01b031602179055505050565b6200062b6000368080601f01602080910402602001604051908101604052809392919081815260200183838082843760009201919091525062001fa792505050565b6008805460ff1916600117905560055462000647904262006618565b6006819055600354600454600754604080513081526001600160a01b039094166020850152830191909152606082019290925260808101919091527f2c979327dd777fa19be3cb8535b745ce42fd03d20d828d866cc8263780cca15a9060a00160405180910390a1565b336000908152600d602052604081205460609160ff9091161515900362000939576000620006e0600062002105565b60408051600180825281830190925291925082916000916020808301908036833701905050905030816000815181106200071e576200071e62006633565b60200260200101906001600160a01b031690816001600160a01b0316815250506000620007e16000838460098054620007579062006649565b80601f0160208091040260200160405190810160405280929190818152602001828054620007859062006649565b8015620007d65780601f10620007aa57610100808354040283529160200191620007d6565b820191906000526020600020905b815481529060010190602001808311620007b857829003601f168201915b5050505050620021d7565b905062000886816000015160098054620007fb9062006649565b80601f0160208091040260200160405190810160405280929190818152602001828054620008299062006649565b80156200087a5780601f106200084e576101008083540402835291602001916200087a565b820191906000526020600020905b8154815290600101906020018083116200085c57829003601f168201915b505050505085620022e1565b6000620008938562002397565b90507f8b82170850b35c03b85bedda1bd37a66d415d250f540bbf69ba185bc9fbc267233620008cd620008c7338562002416565b62002449565b604051620008dd9291906200667f565b60405180910390a15051604080513360248201526001600160801b031990921660448084019190915281518084039091018152606490920190526020810180516001600160e01b031663033339fb60e31b179052949350505050565b336000908152600b602052604081205460098054620009ec9260801b9190620009629062006649565b80601f0160208091040260200160405190810160405280929190818152602001828054620009909062006649565b8015620009e15780601f10620009b557610100808354040283529160200191620009e1565b820191906000526020600020905b815481529060010190602001808311620009c357829003601f168201915b50505050506200268d565b9050600062000a05620009ff8362002743565b62002397565b90507f8b82170850b35c03b85bedda1bd37a66d415d250f540bbf69ba185bc9fbc26723362000a39620008c7338562002416565b60405162000a499291906200667f565b60405180910390a150506040805160048152602481019091526020810180516001600160e01b0316631294941560e21b179052919050565b600054600154600254600354600454600554600654600754600854604080516001600160a01b039a8b168152988a1660208a01529689168888015297909416606080880191909152608087019390935260a086019190915260c085015260e084019190915260ff9093161515610100830152517f94c5b2eacfefd412f6eab0de6ccc46730b75fd861a97c885ef6be3d9f9022dab918190036101200190a1506040805160048152602481019091526020810180516001600160e01b0316631294941560e21b17905290565b6010805462000b5b9062006649565b80601f016020809104026020016040519081016040528092919081815260200182805462000b899062006649565b801562000bda5780601f1062000bae5761010080835404028352916020019162000bda565b820191906000526020600020905b81548152906001019060200180831162000bbc57829003601f168201915b505050505081565b62000c246000368080601f01602080910402602001604051908101604052809392919081815260200183838082843760009201919091525062001fa792505050565b565b600082815260116020908152604080832080546001600160801b031916608086901c1790556012825291829020805460ff1916600117905590518381527f75f21ca04fec38f3a9c5d47e1e2a6f75c114170867b1335a94e53d128992902c910160405180910390a15050565b600081815260126020526040902054606090829060ff1662000cd15760405162461bcd60e51b815260040162000cc890620066a5565b60405180910390fd5b600062000cdf858562002800565b604080516001600160a01b0388168152602081018390529192507f3b24b105d571ada2c5ff343f2d44669f73eb6919590174de6e8146ca28159ab791015b60405180910390a1506040805160048152602481019091526020810180516001600160e01b0316631294941560e21b17905291505b5092915050565b6001546060906001600160a01b0316331462000d7457600080fd5b60085460ff161562000dc95760405162461bcd60e51b815260206004820152601b60248201527f41756374696f6e2068617320616c726561647920737461727465640000000000604482015260640162000cc8565b60035460045460009162000ded916001600160a01b039091169062aa36a762001b1b565b6002549091506001600160a01b0380831691161462000e655760405162461bcd60e51b815260206004820152602d60248201527f5472616e7366657220746865204e4654206265666f7265207374617274696e6760448201526c103a34329030bab1ba34b7b71760991b606482015260840162000cc8565b50506040805160048152602481019091526020810180516001600160e01b031663297268ad60e01b17905290565b600081815260126020526040902054606090829060ff1662000ec95760405162461bcd60e51b815260040162000cc890620066a5565b604080516001808252818301909252600091816020015b606081526020019060019003908162000ee05790505090506040518060400160405280601e81526020016000805160206200b9228339815191528152508160008151811062000f335762000f3362006633565b602002602001018190525060006040518060c0016040528062000f8962000f83601160008a815260200190815260200160002060009054906101000a900460801b60108054620009629062006649565b62002743565b8152602001604051806040016040528060048152602001631413d4d560e21b8152508152602001838152602001878760405160200162000fcb929190620066f1565b60408051601f1981840301815291815290825260006020830152611b58910152905062000ff88162002913565b9695505050505050565b6060600062001010620029c7565b604080516001808252818301909252919250600091906020808301908036833701905050905030816000815181106200104d576200104d62006633565b60200260200101906001600160a01b031690816001600160a01b0316815250506000620010a2600083846040518060400160405280600c81526020016b1c9c18d7d95b991c1bda5b9d60a21b815250620021d7565b9050620010bc816000015160108054620007fb9062006649565b516040805160248101969096526001600160801b031990911660448087019190915281518087039091018152606490950190525050506020810180516001600160e01b03166312af055f60e21b17905290565b600a805462000b5b9062006649565b600081815260126020526040902054606090829060ff16620011545760405162461bcd60e51b815260040162000cc890620066a5565b600062001162858562002a03565b604080516001600160a01b0388168152602081018390529192507f134e340554ff8a7d64280a2a28b982df554e2595e5bf45cd39368f31099172a6910162000d1d565b600081815260126020526040902054606090829060ff16620011db5760405162461bcd60e51b815260040162000cc890620066a5565b600083815260116020526040902054601080547f8ade15e69c108c4dfe55277d2959a4d55a0a0b68fc8bf37c19b3410fb96efc539286926200122c9262000f839260801b9190620009629062006649565b6040516200123c92919062006791565b60405180910390a16040805160048152602481019091526020810180516001600160e01b0316631294941560e21b17905291505b50919050565b60085460609060ff166200129e5760405162461bcd60e51b815260040162000cc890620067ac565b600654421115620012e95760405162461bcd60e51b815260206004820152601460248201527320bab1ba34b7b7103a34b6b29034b99037bb32b960611b604482015260640162000cc8565b336000818152600d602052604090205460ff166200131b5760405162461bcd60e51b815260040162000cc890620067e3565b336000908152600c6020526040812054600a8054620013449260801b9190620009629062006649565b6200134f906200682d565b336000908152600b60205260408120546009805460609490941c94509192620013859260809290921b9190620009629062006649565b9050600062001398620009ff8362002743565b90506000620013a78262002ad5565b90506000620013b562002ae6565b620013c290600262006865565b9050620013d28161520862006865565b82106200141b5762001414338683620013ee8161520862006865565b620013fa908762006887565b6040518060200160405280600081525062aa36a762002af6565b506200144f565b6040513381527fd692b103ef89b808053c5972eee16682770a6e1aa473b5ce8d8b4d2b30807e609060200160405180910390a15b50506040805160048152602481019091526020810180516001600160e01b0316631294941560e21b17905294505050505090565b6000620014908262002d6e565b60c081015160009081526012602052604090205490915060ff16620014c95760405162461bcd60e51b815260040162000cc890620066a5565b60c081015160009081526011602052604081205460108054620014fd9262000f839260809190911b91620009629062006649565b905060006200151282858560c0015162002fbc565b90506200151f8162002913565b5050505050565b600081815260126020526040902054606090829060ff166200155c5760405162461bcd60e51b815260040162000cc890620066a5565b60006200156b8686866200312b565b604080516001600160a01b03808a168252881660208201529081018290529091507f5b4d96e9dd904741ef64e77c434f173074692a9347f17f49e183c334f2cfd1f59060600160405180910390a1506040805160048152602481019091526020810180516001600160e01b0316631294941560e21b1790529150509392505050565b606060005b600e54811015620016a5576000818152600f60209081526040808320546001600160a01b03168352600b909152812054600980546200163b9260801b9190620009629062006649565b905060006200164e620009ff8362002743565b6040516001600160a01b03821681529091507f45cebfb0355f4c3506802d84e454c517d169fcef2fb9ac4c245a69159950eb9d9060200160405180910390a1505080806200169c90620065fc565b915050620015f2565b50506040805160048152602481019091526020810180516001600160e01b0316631294941560e21b17905290565b60606200050e8262aa36a76200111e565b6009805462000b5b9062006649565b60085460609060ff166200171b5760405162461bcd60e51b815260040162000cc890620067ac565b600654421115620017665760405162461bcd60e51b815260206004820152601460248201527320bab1ba34b7b7103a34b6b29034b99037bb32b960611b604482015260640162000cc8565b336000818152600d602052604090205460ff16620017985760405162461bcd60e51b815260040162000cc890620067e3565b620017a26200324a565b620017f05760405162461bcd60e51b815260206004820152601d60248201527f6d7573742062652063616c6c656420636f6e666964656e7469616c6c79000000604482015260640162000cc8565b6000620017fc620029c7565b905060006200180b8262002d6e565b336000908152600b60205260408120546009805493945091926200183c9260809290921b9190620009629062006649565b905060006200184f620009ff8362002743565b9050806001600160a01b031683600001516001600160a01b031614620018ae5760405162461bcd60e51b81526020600482015260136024820152722ab735b737bbb7103a379030b2323932b9b99760691b604482015260640162000cc8565b60c083015160009081526012602052604090205460ff16620019135760405162461bcd60e51b815260206004820152601f60248201527f426c6f636b636861696e206e6f7420287965742920737570706f727465642e00604482015260640162000cc8565b600754836060015110156200196b5760405162461bcd60e51b815260206004820152601c60248201527f56616c7565206c657373207468616e206d696e696d616c206269642e00000000604482015260640162000cc8565b620019768462001483565b604080516001808252818301909252600091602080830190803683370190505090503081600081518110620019af57620019af62006633565b60200260200101906001600160a01b031690816001600160a01b0316815250506000620019e860008384600a8054620007579062006649565b905062001aba8160000151600a805462001a029062006649565b80601f016020809104026020016040519081016040528092919081815260200182805462001a309062006649565b801562001a815780601f1062001a555761010080835404028352916020019162001a81565b820191906000526020600020905b81548152906001019060200180831162001a6357829003601f168201915b50508a51604080516001600160a01b03909216602083015201925062001aa5915050565b604051602081830303815290604052620022e1565b51604080516001600160801b031990921660248084019190915281518084039091018152604490920190526020810180516001600160e01b03166328b5471b60e01b179052979650505050505050565b60606200050e8262aa36a762000c92565b600081815260126020526040812054829060ff1662001b4e5760405162461bcd60e51b815260040162000cc890620066a5565b604080516001808252818301909252600091816020015b606081526020019060019003908162001b655790505090506040518060400160405280601e81526020016000805160206200b9228339815191528152508160008151811062001bb85762001bb862006633565b6020026020010181905250600062001bfd62000f836011600088815260200190815260200160002060009054906101000a900460801b60108054620009629062006649565b6040516001600160601b031960608a901b16602082015290915060009062001c379060340160405160208183030381529060405262002449565b60408051602081018a90520160408051601f198184030181529082905262001c639291602001620068a1565b60408051601f1981840301815260c08301909152915060009062001d00908062001c92868660e084016200691e565b60405160208183030381529060405281526020016040518060400160405280600381526020016211d15560ea1b8152508152602001868152602001604051806020016040528060008152508152602001600015158152602001611b586001600160401b031681525062002913565b905062001d4c62001d4662001d4062001d3884604051806040016040528060068152602001656f776e65727360d01b815250620032d0565b60006200338b565b620033d1565b620033e2565b9998505050505050505050565b60085460609060ff1662001d815760405162461bcd60e51b815260040162000cc890620067ac565b600654421162001dd05760405162461bcd60e51b8152602060048201526019602482015278105d58dd1a5bdb881d1a5b59481b9bdd081bdd995c881e595d603a1b604482015260640162000cc8565b600e546001546000906001600160a01b031681805b600e5481101562001eb0576000818152600f60209081526040808320546001600160a01b03168352600b9091528120546009805462001e2e9260801b9190620009629062006649565b9050600062001e41620009ff8362002743565b9050600062001e508262002ad5565b9050600754811062001e97578462001e6881620065fc565b95505086810362001e83578762001e7f81620065fc565b9850505b8681111562001e9757600197508096508195505b505050808062001ea790620065fc565b91505062001de5565b508060000362001ee9576040517f6a7e024745b98e5599d5c2489727e69a73acf26521d5f186212f8fc1059e1bea90600090a162001f75565b600184111562001f325760408051858152602081018590527f0e9acdc46560b652db1c511cc3a2b21f1b5392bfc3966c60f60d5c9d0a518b91910160405180910390a162001f75565b604080516001600160a01b0384168152602081018590527f6c697ec02807065f22b7d0c97c8650256a1ba65ccdc72d65d73b54a36d83f642910160405180910390a15b50506040805160048152602481019091526020810180516001600160e01b0316631294941560e21b1790529250505090565b600062001fb48262003469565b90508151810362001fc3575050565b600081835162001fd4919062006887565b90506000816001600160401b0381111562001ff35762001ff36200637e565b6040519080825280601f01601f1916602001820160405280156200201e576020820181803683370190505b50905060005b828110156200209957846200203a828662006618565b815181106200204d576200204d62006633565b602001015160f81c60f81b8282815181106200206d576200206d62006633565b60200101906001600160f81b031916908160001a905350806200209081620065fc565b91505062002024565b50600081806020019051810190620020b29190620069c3565b905060005b8151811015620020fd57620020e8828281518110620020da57620020da62006633565b6020026020010151620035e9565b80620020f481620065fc565b915050620020b7565b505050505050565b606060008063532000036001600160a01b0316846040516020016200212b919062006b6e565b60408051601f1981840301815290829052620021479162006b7e565b6000604051808303816000865af19150503d806000811462002186576040519150601f19603f3d011682016040523d82523d6000602084013e6200218b565b606091505b509150915081620021b9576353200003816040516375fff46760e01b815260040162000cc89291906200667f565b80806020019051810190620021cf919062006b9c565b949350505050565b6040805160c0810182526000808252602082018190529181019190915260608082018190526080820181905260a082015260008063420300006001600160a01b03168787878760405160200162002232949392919062006c1a565b60408051601f19818403018152908290526200224e9162006b7e565b6000604051808303816000865af19150503d80600081146200228d576040519150601f19603f3d011682016040523d82523d6000602084013e62002292565b606091505b509150915081620022c0576342030000816040516375fff46760e01b815260040162000cc89291906200667f565b80806020019051810190620022d6919062006d05565b979650505050505050565b60008063420200006001600160a01b0316858585604051602001620023099392919062006e00565b60408051601f1981840301815290829052620023259162006b7e565b6000604051808303816000865af19150503d806000811462002364576040519150601f19603f3d011682016040523d82523d6000602084013e62002369565b606091505b5091509150816200151f576342020000816040516375fff46760e01b815260040162000cc89291906200667f565b600080620023a583620037fe565b90508051602014620023fa5760405162461bcd60e51b815260206004820152601a60248201527f496e76616c69642070726976617465206b6579206c656e677468000000000000604482015260640162000cc8565b6200240f620024098262006e39565b62003940565b9392505050565b604051606082811b6001600160601b0319166020830152906034015b604051602081830303815290604052905092915050565b60408051808201909152601081526f181899199a1a9b1b9c1cb0b131b232b360811b60208201528151606091906000906200248690600262006865565b6200249390600262006618565b6001600160401b03811115620024ad57620024ad6200637e565b6040519080825280601f01601f191660200182016040528015620024d8576020820181803683370190505b509050600360fc1b81600081518110620024f657620024f662006633565b60200101906001600160f81b031916908160001a905350600f60fb1b8160018151811062002528576200252862006633565b60200101906001600160f81b031916908160001a90535060005b8451811015620026855782600486838151811062002564576200256462006633565b016020015182516001600160f81b031990911690911c60f81c9081106200258f576200258f62006633565b01602001516001600160f81b03191682620025ac83600262006865565b620025b990600262006618565b81518110620025cc57620025cc62006633565b60200101906001600160f81b031916908160001a90535082858281518110620025f957620025f962006633565b602091010151815160f89190911c600f169081106200261c576200261c62006633565b01602001516001600160f81b031916826200263983600262006865565b6200264690600362006618565b8151811062002659576200265962006633565b60200101906001600160f81b031916908160001a905350806200267c81620065fc565b91505062002542565b509392505050565b606060008063420200016001600160a01b03168585604051602001620026b592919062006e5e565b60408051601f1981840301815290829052620026d19162006b7e565b6000604051808303816000865af19150503d806000811462002710576040519150601f19603f3d011682016040523d82523d6000602084013e62002715565b606091505b509150915081620021cf576342020001816040516375fff46760e01b815260040162000cc89291906200667f565b80516060906000816001600160401b038111156200276557620027656200637e565b6040519080825280601f01601f19166020018201604052801562002790576020820181803683370190505b50905060005b828110156200268557848181518110620027b457620027b462006633565b602001015160f81c60f81b828281518110620027d457620027d462006633565b60200101906001600160f81b031916908160001a90535080620027f781620065fc565b91505062002796565b600081815260126020526040812054829060ff16620028335760405162461bcd60e51b815260040162000cc890620066a5565b60008381526011602052604081205460108054620028629262000f839260809190911b91620009629062006649565b9050600081604051620028759062006174565b620028819190620062c8565b604051809103906000f0801580156200289e573d6000803e3d6000fd5b50604051633857496960e11b81526001600160a01b038881166004830152919250908216906370ae92d2906024015b6020604051808303816000875af1158015620028ed573d6000803e3d6000fd5b505050506040513d601f19601f8201168201806040525081019062000ff8919062006e83565b606060008063432000026001600160a01b03168460405160200162002939919062006e9d565b60408051601f1981840301815290829052620029559162006b7e565b6000604051808303816000865af19150503d806000811462002994576040519150601f19603f3d011682016040523d82523d6000602084013e62002999565b606091505b509150915081620021b9576343200002816040516375fff46760e01b815260040162000cc89291906200667f565b6060620029fe60405180604001604052806012815260200171636f6e666964656e7469616c496e7075747360701b81525062003981565b905090565b600081815260126020526040812054829060ff1662002a365760405162461bcd60e51b815260040162000cc890620066a5565b6000838152601160205260408120546010805462002a659262000f839260809190911b91620009629062006649565b905060008160405162002a789062006174565b62002a849190620062c8565b604051809103906000f08015801562002aa1573d6000803e3d6000fd5b5060405163e3d670d760e01b81526001600160a01b0388811660048301529192509082169063e3d670d790602401620028cd565b60006200050e826212d59162002a03565b6000620029fe62aa36a762003a35565b60085460609060ff1662002b1e5760405162461bcd60e51b815260040162000cc890620067ac565b600654421162002b6d5760405162461bcd60e51b8152602060048201526019602482015278105d58dd1a5bdb881d1a5b59481b9bdd081bdd995c881e595d603a1b604482015260640162000cc8565b600082815260126020526040902054829060ff1662002ba05760405162461bcd60e51b815260040162000cc890620066a5565b6001600160a01b0388166000908152600d6020526040902054889060ff1662002bdd5760405162461bcd60e51b815260040162000cc890620067e3565b6001600160a01b0389166000908152600b60205260408120546009805462002c0f9260801b9190620009629062006649565b9050600062002c22620009ff8362002743565b9050600062002c32828862002800565b905060006040518060e001604052808d6001600160a01b0316815260200161520881526020018c81526020018b81526020018381526020018a8152602001898152509050600062002c84828662003c23565b90507f28a2e2a5c2315d907bc7072899ce62d772c98f261cf931d82943dd6e76e8db738160e0015182610100015160405162002cca929190918252602082015260400190565b60405180910390a1600062002cdf8262003d4f565b60008b81526011602052604081205460108054939450919262002d109262000f839260801b91620009629062006649565b9050600062002d2182848e62002fbc565b905062002d2e8162002913565b50506040805160048152602481019091526020810180516001600160e01b0316631294941560e21b17905299505050505050505050509695505050505050565b62002d7862006182565b62002d8262006182565b600062002dc062002dba8560408051808201825260008082526020918201528151808301909252825182529182019181019190915290565b62003fc0565b9050805160091462002e0b5760405162461bcd60e51b815260206004820152601360248201527234b73b30b634b2103a3930b739b0b1ba34b7b760691b604482015260640162000cc8565b62002e338160008151811062002e255762002e2562006633565b6020026020010151620040ee565b6080830152805162002e55908290600190811062002e255762002e2562006633565b6040830152805162002e77908290600290811062002e255762002e2562006633565b6020830152805162002ea7908290600390811062002e995762002e9962006633565b602002602001015162004140565b5160010362002eba576000825262002eee565b62002ee28160038151811062002ed45762002ed462006633565b6020026020010151620041be565b6001600160a01b031682525b62002f088160048151811062002e255762002e2562006633565b6060830152805162002f38908290600590811062002f2a5762002f2a62006633565b6020026020010151620041db565b8260a0018190525062002f5a8160068151811062002e255762002e2562006633565b8261012001818152505062002f8862002f828260078151811062002f2a5762002f2a62006633565b62004261565b8260e001818152505062002faf62002f828260088151811062002f2a5762002f2a62006633565b6101008301525092915050565b620030016040518060c001604052806060815260200160608152602001606081526020016060815260200160001515815260200160006001600160401b031681525090565b600082815260126020526040902054829060ff16620030345760405162461bcd60e51b815260040162000cc890620066a5565b604080516001808252818301909252600091816020015b60608152602001906001900390816200304b5790505090506040518060400160405280601e81526020016000805160206200b922833981519152815250816000815181106200309e576200309e62006633565b60200260200101819052506040518060c00160405280878152602001604051806040016040528060048152602001631413d4d560e21b8152508152602001828152602001620030ed8762002449565b866040516020016200310192919062006f8a565b60408051808303601f1901815291815290825260006020830152611b589101529695505050505050565b600081815260126020526040812054829060ff166200315e5760405162461bcd60e51b815260040162000cc890620066a5565b600083815260116020526040812054601080546200318d9262000f839260809190911b91620009629062006649565b905060008187604051620031a190620061e4565b620031ae92919062007028565b604051809103906000f080158015620031cb573d6000803e3d6000fd5b506040516370a0823160e01b81526001600160a01b03888116600483015291925082918216906370a0823190602401602060405180830381865afa15801562003218573d6000803e3d6000fd5b505050506040513d601f19601f820116820180604052508101906200323e919062006e83565b98975050505050505050565b604051600090819081906342010000908281818181865af19150503d806000811462003293576040519150601f19603f3d011682016040523d82523d6000602084013e62003298565b606091505b509150915081620032c6576342010000816040516375fff46760e01b815260040162000cc89291906200667f565b6020015192915050565b6040805160208101909152600081526000620032ec84620042ca565b905060006200331b82604051806040016040528060078152602001661132b93937b91160c91b815250620042e5565b90506200332a81516007161590565b62003355576200333a81620033d1565b60405162461bcd60e51b815260040162000cc89190620062c8565b6200338282856040516020016200336d919062007054565b604051602081830303815290604052620042e5565b95945050505050565b6040805160008082529181905290620033a7845b600362004353565b90508260051b60208201015191506001600785511614815184101662000d52575060609392505050565b606060006200240f83600062004353565b600081516001811160208085015160f01c17613078141660011b5b6001810190507403010a071000000b0104040208000c05090d060e0f6d03e4088843e41bac00000000000060ff83870151161c601f161a8360fc1c8115171583029250600181038460041b01935050818110620033fd575080620012705763101827966000526004601cfd5b6000805b8251811015620035e35760408051808201909152600381526254354360e81b6020909101528251601560fa1b90849083908110620034af57620034af62006633565b01602001516001600160f81b03191603620035ce576001805b6040518060400160405280600381526020016254354360e81b815250518110156200359a578451620034fb828562006618565b1015806200357557506040518060400160405280600381526020016254354360e81b815250818151811062003534576200353462006633565b01602001516001600160f81b0319168562003550838662006618565b8151811062003563576200356362006633565b01602001516001600160f81b03191614155b156200358557600091506200359a565b806200359181620065fc565b915050620034c8565b508015620035cc576040518060400160405280600381526020016254354360e81b8152505182620021cf919062006618565b505b80620035da81620065fc565b9150506200346d565b50505190565b6040810151805160208301515160000362003609578060208301a0505050565b8260200151516001036200364a576000836020015160008151811062003633576200363362006633565b60200260200101519050808260208501a150505050565b826020015151600203620036b3576000836020015160008151811062003674576200367462006633565b60200260200101519050600084602001516001815181106200369a576200369a62006633565b6020026020010151905080828460208701a25050505050565b826020015151600303620037445760008360200151600081518110620036dd57620036dd62006633565b602002602001015190506000846020015160018151811062003703576200370362006633565b602002602001015190506000856020015160028151811062003729576200372962006633565b602002602001015190508082848660208901a3505050505050565b826020015151600403620037f957600083602001516000815181106200376e576200376e62006633565b602002602001015190506000846020015160018151811062003794576200379462006633565b6020026020010151905060008560200151600281518110620037ba57620037ba62006633565b6020026020010151905060008660200151600381518110620037e057620037e062006633565b60200260200101519050808284868860208b01a4505050505b505050565b8051606090829062003813906002906200709a565b156200381e57600080fd5b600060028251620038309190620070b1565b6001600160401b038111156200384a576200384a6200637e565b6040519080825280601f01601f19166020018201604052801562003875576020820181803683370190505b50905060005b600283516200388b9190620070b1565b8110156200268557620038d383620038a583600262006865565b620038b290600162006618565b81518110620038c557620038c562006633565b016020015160f81c62004b9f565b620038e584620038b284600262006865565b620038f2906010620070c8565b620038fe9190620070f4565b60f81b82828151811062003916576200391662006633565b60200101906001600160f81b031916908160001a9053506200393881620065fc565b90506200387b565b6000806000620039508462004cbb565b6040805160208082019490945280820192909252805180830382018152606090920190528051910120949350505050565b606060008063533000036001600160a01b031684604051602001620039a79190620062c8565b60408051601f1981840301815290829052620039c39162006b7e565b6000604051808303816000865af19150503d806000811462003a02576040519150601f19603f3d011682016040523d82523d6000602084013e62003a07565b606091505b509150915081620021b9576353300003816040516375fff46760e01b815260040162000cc89291906200667f565b600081815260126020526040812054829060ff1662003a685760405162461bcd60e51b815260040162000cc890620066a5565b6000838152601160205260408120546010805462003a979262000f839260809190911b91620009629062006649565b60408051600180825281830190925291925060009190816020015b606081526020019060019003908162003ab25790505090506040518060400160405280601e81526020016000805160206200b9228339815191528152508160008151811062003b055762003b0562006633565b6020026020010181905250600062003be36040518060c00160405280858152602001604051806040016040528060048152602001631413d4d560e21b81525081526020018481526020018860405160200162003bbd91907f7b226a736f6e727063223a22322e30222c20226d6574686f64223a202265746881527f5f6761735072696365222c2022706172616d73223a205b5d2c20226964223a2060208201526040810191909152607d60f81b606082015260610190565b60408051601f1981840301815291815290825260006020830152611b5891015262002913565b90506000620022d662001d4662003c1d62001d4085604051806040016040528060068152602001651c995cdd5b1d60d21b815250620032d0565b62004d1e565b62003c2d62006182565b600062003c3a8462004e0b565b90506000818051906020012060405160200162003c5991815260200190565b6040516020818303038152906040529050600062003c7a8260008762005035565b905060008660c00151600262003c9191906200711c565b9050600080600062003cb6856020810151604082015160609092015160001a92909190565b91945092509050600062003ccf60ff851660236200714e565b905062003cdd85826200714e565b8b516001600160a01b03168a526020808d0151908b01526040808d0151908b01526060808d0151908b01526080808d0151908b015260a0808d0151908b015260c0808d0151908b01526001600160401b03166101208a01525060e0880191909152610100870152505050505092915050565b604080516009808252610140820190925260609160009190816020015b606081526020019060019003908162003d6c57905050905062003d93836080015162005117565b8160008151811062003da95762003da962006633565b602002602001018190525062003dc3836040015162005117565b8160018151811062003dd95762003dd962006633565b602002602001018190525062003df3836020015162005117565b8160028151811062003e095762003e0962006633565b602090810291909101015282516001600160a01b031662003e655762003e3e6040518060200160405280600081525062005128565b8160038151811062003e545762003e5462006633565b602002602001018190525062003e94565b825162003e72906200518a565b8160038151811062003e885762003e8862006633565b60200260200101819052505b62003ea3836060015162005117565b8160048151811062003eb95762003eb962006633565b602002602001018190525062003ed38360a0015162005128565b8160058151811062003ee95762003ee962006633565b602002602001018190525062003f0483610120015162005117565b8160068151811062003f1a5762003f1a62006633565b602002602001018190525062003f568360e0015160405160200162003f4191815260200190565b60405160208183030381529060405262005128565b8160078151811062003f6c5762003f6c62006633565b602002602001018190525062003f9483610100015160405160200162003f4191815260200190565b8160088151811062003faa5762003faa62006633565b60200260200101819052506200240f81620051b0565b606062003fcd82620051fa565b62003fd757600080fd5b600062003fe48362005237565b90506000816001600160401b038111156200400357620040036200637e565b6040519080825280602002602001820160405280156200404a57816020015b6040805180820190915260008082526020820152815260200190600190039081620040225790505b50905060006200405e8560200151620052cb565b85602001516200406f919062006618565b90506000805b84811015620040e357620040898362005353565b9150604051806040016040528083815260200184815250848281518110620040b557620040b562006633565b6020908102919091010152620040cc828462006618565b925080620040da81620065fc565b91505062004075565b509195945050505050565b8051600090158015906200410457508151602110155b6200410e57600080fd5b6000806200411c84620053fc565b815191935091506020821015620021cf5760208290036101000a9004949350505050565b6060600082600001516001600160401b038111156200416357620041636200637e565b6040519080825280601f01601f1916602001820160405280156200418e576020820181803683370190505b5090508051600003620041a15792915050565b600081602001905062000d52846020015182866000015162005449565b8051600090601514620041d057600080fd5b6200050e82620040ee565b8051606090620041ea57600080fd5b600080620041f884620053fc565b915091506000816001600160401b038111156200421957620042196200637e565b6040519080825280601f01601f19166020018201604052801562004244576020820181803683370190505b509050602081016200425884828562005449565b50949350505050565b60008151602014620042c25760405162461bcd60e51b8152602060048201526024808201527f6279746573546f427974657333323a20696e76616c696420696e707574206c656044820152630dccee8d60e31b606482015260840162000cc8565b506020015190565b60408051600080825291819052906200240f8360ff62004353565b6040805160008152905281516060906007166002036200050e578151602083012060006200431385620054db565b805190915060051b5b80156200434a57818101519550601f1901826200433987620054ea565b80519060200120036200431c578593505b50505092915050565b600062004aec565b63101827966000526004601cfd5b805b60016401000026006200437f835160001a90565b1c16156200050e576001016200436b565b63ffffffff83113d3d3e63ffffffff821b191691901b1790565b604051620043d08486036078620043ca601f198689030160588862004390565b62004390565b959095178552505050602082016040525090565b600080620043f784601860005162004390565b62004403878762004369565b91508682106200441457506200455a565b815160001a602281036200444c57826200443189858589620047a7565b93506200444360048583868a620043aa565b94505062004549565b605b81036200446d57620044638884848862004563565b9350935062004549565b607b81036200448457620044638884848862004643565b6703ff200000000000811c60011615620044a657620044638884848862004891565b876004840111620045085782835160e01c63747275658103620044e357600485019450620044d960058684878b620043aa565b9550505062004549565b636e756c6c81036200450557600485019450620044d960068684878b620043aa565b50505b8760058401116200453f5782835160d81c6466616c736581036200453c57600585019450620044d960058684878b620043aa565b50505b620045496200435b565b505062004557868262004369565b90505b94509492505050565b600060018401815b8682106200457d576200457d6200435b565b82620045a6576200458f878362004369565b9150605d6200459f835160001a90565b1462004614575b620045b487838587620043e4565b9250925082156200460457620045d1816098855160401762004390565b8352600101620045e2825160001a90565b605d8103620045f2575062004614565b602c810362004602575062004608565b505b8691505b6001820191506200456b565b50600101620046268260388662004390565b935062004638600182878787620043aa565b915094509492505050565b6000600184015b8581106200465c576200465c6200435b565b8162004685576200466e868262004369565b9050607d6200467e825160001a90565b146200473c575b62004691868262004369565b905080620046a287838587620047a7565b620046ae888262004369565b9250603a620046be845160001a90565b036200472d57620046d588600185018688620043e4565b9350935083156200472d57620047006020860183036098620043ca85850360b8895160801762004390565b8452825160001a607d810362004719575050506200473c565b602c81036200472b5750505062004733565b505b50508590505b6001016200464a565b6001016200474d8260388662004390565b935062004638600282878787620043aa565b6001667e0000007e03ff6030620047798585015160001a90565b031c166200478b576200478b6200435b565b60058214620047a357620047a360018301826200475f565b5050565b50506000828210620047bd57620047bd6200435b565b50600181015b805160001a60228103620047d857506200483e565b605c8114620047eb5750600101620047c3565b600182015160001a905060016a0510110400000000002001602283031c1615620048195750600201620047c3565b6075810362004839576200482f6002836200475f565b50600601620047c3565b508290505b8281106200485057620048506200435b565b60010192915050565b805b600a60306200486b835160001a90565b0310156200487c576001016200485b565b8082148416156200240f576200240f6200435b565b600083602d620048a2825160001a90565b03620048ac576001015b600a6030620048bc835160001a90565b0310620048cd57620048cd6200435b565b805160001a60018201915060308114620048f257620048ef6000888462004859565b91505b50602e62004901825160001a90565b036200491b57620049186001876001840162004859565b90505b805160658160001a602017036200494d576200494a6001886001850162010001600e8660011a031a0162004859565b91505b5062004638600382878787620043aa565b60405190820190601f19601f850181165b83810151838201528101806200496f5750508381526000846020830101528360408201016040529392505050565b84836200495e565b8051606090600281600716116200127057821581151762001270576020811615620049dd57603881901c63ffffffff16915062001270565b604051915060208201603882901c63ffffffff165b801562004a28578082528051601881901c63ffffffff1662004a178760188462004390565b9092525060209190910190620049f2565b50601f1983820381018060051c85528260405262004a498560388662004390565b93508360201786526040811062004a7e576020850192508085015b8351815185528152602090930192820180841062004a6457505b50505050919050565b805160609082158115171562004a9e5750620021cf565b80841c63ffffffff169150808616620042585760d881901c63ffffffff1662004acf82871c63ffffffff166200499d565b92505062004adf82858362004390565b8617835250949350505050565b81801562004b6a576001811462004b83576003811462004b9457602084018451810180821462004b4c57805160001a6022825362004b318760d8601160f91b62004390565b60005262004b43828460008a620043e4565b93509450808253505b8315818310171562004b625762004b626200435b565b505062000d52565b62004b7b6010607860588762004a87565b915062000d52565b62004b7b600860b860988762004a87565b620021cf84620049a5565b6000600360fc1b60f883901b6001600160f81b0319161080159062004bd65750603960f81b60f883901b6001600160f81b03191611155b1562004be9576200050e60308362007173565b606160f81b60f883901b6001600160f81b0319161080159062004c1e5750603360f91b60f883901b6001600160f81b03191611155b1562004c3f57606162004c3383600a620070f4565b6200050e919062007173565b604160f81b60f883901b6001600160f81b0319161080159062004c745750602360f91b60f883901b6001600160f81b03191611155b1562004c8957604162004c3383600a620070f4565b60405162461bcd60e51b815260040162000cc89060208082526004908201526319985a5b60e21b604082015260600190565b60008062004d14837f79be667ef9dcbbac55a06295ce870b07029bfcdb2dce28d959f2815b16f817987f483ada7726a3c4655da4fbfc0e1108a8fd17b448a68554199c47d08ffb10d4b860006401000003d0196200550c565b9094909350915050565b6060600082905060006002825162004d37919062006887565b6001600160401b0381111562004d515762004d516200637e565b6040519080825280601f01601f19166020018201604052801562004d7c576020820181803683370190505b50905060015b6001835162004d92919062006887565b811015620026855782818151811062004daf5762004daf62006633565b01602001516001600160f81b0319168262004dcc60018462006887565b8151811062004ddf5762004ddf62006633565b60200101906001600160f81b031916908160001a9053508062004e0281620065fc565b91505062004d82565b604080516009808252610140820190925260609160009190816020015b606081526020019060019003908162004e2857905050905062004e4f836080015162005117565b8160008151811062004e655762004e6562006633565b602002602001018190525062004e7f836040015162005117565b8160018151811062004e955762004e9562006633565b602002602001018190525062004eaf836020015162005117565b8160028151811062004ec55762004ec562006633565b602090810291909101015282516001600160a01b031662004f215762004efa6040518060200160405280600081525062005128565b8160038151811062004f105762004f1062006633565b602002602001018190525062004f50565b825162004f2e906200518a565b8160038151811062004f445762004f4462006633565b60200260200101819052505b62004f5f836060015162005117565b8160048151811062004f755762004f7562006633565b602002602001018190525062004f8f8360a0015162005128565b8160058151811062004fa55762004fa562006633565b602002602001018190525062004fbf8360c0015162005117565b8160068151811062004fd55762004fd562006633565b602002602001018190525062004ffa6040518060200160405280600081525062005128565b8160078151811062005010576200501062006633565b602002602001018190525062003f946040518060200160405280600081525062005128565b6060620050416200324a565b6200504b57600080fd5b60008063401000036001600160a01b0316868686604051602001620050739392919062007199565b60408051601f19818403018152908290526200508f9162006b7e565b6000604051808303816000865af19150503d8060008114620050ce576040519150601f19603f3d011682016040523d82523d6000602084013e620050d3565b606091505b50915091508162005101576340100003816040516375fff46760e01b815260040162000cc89291906200667f565b8080602001905181019062000ff8919062006b9c565b60606200050e62005128836200554a565b606080825160011480156200515a575060808360008151811062005150576200515062006633565b016020015160f81c105b15620051685750816200050e565b620051768351608062005693565b83604051602001620024329291906200691e565b604051606082811b6001600160601b0319166020830152906200050e9060340162003f41565b60606000620051bf836200586b565b9050620051cf815160c062005693565b81604051602001620051e39291906200691e565b604051602081830303815290604052915050919050565b805160009081036200520e57506000919050565b6020820151805160001a9060c08210156200522d575060009392505050565b5060019392505050565b805160009081036200524b57506000919050565b6000806200525d8460200151620052cb565b84602001516200526e919062006618565b905060008460000151856020015162005288919062006618565b90505b80821015620052c2576200529f8262005353565b620052ab908362006618565b915082620052b981620065fc565b9350506200528b565b50909392505050565b8051600090811a6080811015620052e55750600092915050565b60b881108062005302575060c0811080159062005302575060f881105b15620053115750600192915050565b60c0811015620053455762005329600160b862007173565b620053389060ff168262006887565b6200240f90600162006618565b62005329600160f862007173565b80516000908190811a608081101562005370576001915062000d52565b60b881101562005394576200538760808262006887565b62004b7b90600162006618565b60c0811015620053c35760b78103600185019450806020036101000a8551046001820181019350505062000d52565b60f8811015620053da576200538760c08262006887565b60019390930151602084900360f7016101000a900490920160f5190192915050565b6000806000620054108460200151620052cb565b9050600081856020015162005426919062006618565b905060008286600001516200543c919062006887565b9196919550909350505050565b806000036200545757505050565b602081106200549757825182526200547160208462006618565b92506200548060208362006618565b91506200548f60208262006887565b905062005457565b8015620037f95760006001620054af83602062006887565b620054bd90610100620072b2565b620054c9919062006887565b84518451821691191617835250505050565b606060006200240f836200339f565b805160609060801615620055075760006200240f83600162004353565b919050565b6000806000806000620055258a8a8a60018b8b620059b8565b925092509250620055398383838962005a45565b945094505050509550959350505050565b60606000826040516020016200556291815260200190565b604051602081830303815290604052905060005b6020811015620055c15781818151811062005595576200559562006633565b01602001516001600160f81b031916600003620055c15780620055b881620065fc565b91505062005576565b6000620055d082602062006887565b6001600160401b03811115620055ea57620055ea6200637e565b6040519080825280601f01601f19166020018201604052801562005615576020820181803683370190505b50905060005b8151811015620042585783836200563281620065fc565b94508151811062005647576200564762006633565b602001015160f81c60f81b82828151811062005667576200566762006633565b60200101906001600160f81b031916908160001a905350806200568a81620065fc565b9150506200561b565b6060806038841015620057015760408051600180825281830190925290602082018180368337019050509050620056cb8385620070f4565b60f81b81600081518110620056e457620056e462006633565b60200101906001600160f81b031916908160001a9053506200050b565b600060015b620057128187620070b1565b156200573e57816200572481620065fc565b92506200573690506101008262006865565b905062005706565b6200574b82600162006618565b6001600160401b038111156200576557620057656200637e565b6040519080825280601f01601f19166020018201604052801562005790576020820181803683370190505b5092506200579f8583620070f4565b620057ac906037620070f4565b60f81b83600081518110620057c557620057c562006633565b60200101906001600160f81b031916908160001a905350600190505b8181116200586257610100620057f8828462006887565b6200580690610100620072b2565b620058129088620070b1565b6200581e91906200709a565b60f81b83828151811062005836576200583662006633565b60200101906001600160f81b031916908160001a905350806200585981620065fc565b915050620057e1565b50509392505050565b606081516000036200588e57604080516000808252602082019092529062000d52565b6000805b8351811015620058de57838181518110620058b157620058b162006633565b60200260200101515182620058c7919062006618565b915080620058d581620065fc565b91505062005892565b6000826001600160401b03811115620058fb57620058fb6200637e565b6040519080825280601f01601f19166020018201604052801562005926576020820181803683370190505b50600092509050602081015b85518310156200425857600086848151811062005953576200595362006633565b602002602001015190506000602082019050620059738382845162005ac2565b87858151811062005988576200598862006633565b602002602001015151836200599e919062006618565b925050508280620059af90620065fc565b93505062005932565b600080600088600003620059d457508691508590508462005a39565b8860008060015b831562005a3057600184161562005a0557620059fd8383838f8f8f8e62005b27565b919450925090505b62005a12600285620070b1565b935062005a238c8c8c8c8c62005ebb565b919d509b509950620059db565b91955093509150505b96509650969350505050565b600080600062005a5685856200609f565b90506000848062005a6b5762005a6b62007084565b82830990506000858062005a835762005a8362007084565b828a0990506000868062005a9b5762005a9b62007084565b878062005aac5762005aac62007084565b8486098a09919a91995090975050505050505050565b8282825b6020811062005b06578151835262005ae060208462006618565b925062005aef60208362006618565b915062005afe60208262006887565b905062005ac6565b905182516020929092036101000a6000190180199091169116179052505050565b600080808915801562005b38575088155b1562005b4c57508591508490508362005eae565b8615801562005b59575085155b1562005b6d57508891508790508662005eae565b62005b77620061f2565b848062005b885762005b8862007084565b898a098152848062005b9e5762005b9e62007084565b81518a096020820152848062005bb85762005bb862007084565b8687096040820152848062005bd15762005bd162007084565b604082015187096060820152604080516080810190915280868062005bfa5762005bfa62007084565b60408401518e098152602001868062005c175762005c1762007084565b60608401518d098152602001868062005c345762005c3462007084565b83518b098152602001868062005c4e5762005c4e62007084565b60208401518a0990526040810151815191925014158062005c7757506060810151602082015114155b62005cc55760405162461bcd60e51b815260206004820152601e60248201527f557365206a6163446f75626c652066756e6374696f6e20696e73746561640000604482015260640162000cc8565b62005ccf620061f2565b858062005ce05762005ce062007084565b825162005cee908862006887565b6040840151088152858062005d075762005d0762007084565b602083015162005d18908862006887565b6060840151086020820152858062005d345762005d3462007084565b815180096040820152858062005d4e5762005d4e62007084565b815160408301510960608201526000868062005d6e5762005d6e62007084565b606083015162005d7f908962006887565b888062005d905762005d9062007084565b60208501518009089050868062005dab5762005dab62007084565b878062005dbc5762005dbc62007084565b888062005dcd5762005dcd62007084565b604085015186510960020962005de4908962006887565b820890506000878062005dfb5762005dfb62007084565b888062005e0c5762005e0c62007084565b62005e18848b62006887565b8a8062005e295762005e2962007084565b6040870151885109086020850151099050878062005e4b5762005e4b62007084565b888062005e5c5762005e5c62007084565b606085015160208701510962005e73908a62006887565b820890506000888062005e8a5762005e8a62007084565b898062005e9b5762005e9b62007084565b8b8f098551099297509095509093505050505b9750975097945050505050565b60008060008560000362005ed757508691508590508462006094565b6000848062005eea5762005eea62007084565b898a0990506000858062005f025762005f0262007084565b898a0990506000868062005f1a5762005f1a62007084565b898a0990506000878062005f325762005f3262007084565b888062005f435762005f4362007084565b848e0960040990506000888062005f5e5762005f5e62007084565b898062005f6f5762005f6f62007084565b8a8062005f805762005f8062007084565b8586098c098a8062005f965762005f9662007084565b87600309089050888062005fae5762005fae62007084565b898062005fbf5762005fbf62007084565b83840862005fce908b62006887565b8a8062005fdf5762005fdf62007084565b838409089450888062005ff65762005ff662007084565b898062006007576200600762007084565b8a8062006018576200601862007084565b8687096008096200602a908b62006887565b8a806200603b576200603b62007084565b8b806200604c576200604c62007084565b62006058898e62006887565b86088409089350888062006070576200607062007084565b898062006081576200608162007084565b8c8e096002099497509295509293505050505b955095509592505050565b60008215801590620060b15750818314155b8015620060bd57508115155b620060fc5760405162461bcd60e51b815260206004820152600e60248201526d24b73b30b634b210373ab6b132b960911b604482015260640162000cc8565b6000600183825b8615620040e357620061168783620070b1565b90508286806200612a576200612a62007084565b87806200613b576200613b62007084565b8584096200614a908962006887565b86089094509250866200615e818362006865565b6200616a908462006887565b9750915062006103565b61213080620072c183390190565b60405180610140016040528060006001600160a01b031681526020016000815260200160008152602001600081526020016000815260200160608152602001600081526020016000801916815260200160008019168152602001600081525090565b61253180620093f183390190565b60405180608001604052806004906020820280368337509192915050565b6001600160a01b03811681146200622657600080fd5b50565b600080604083850312156200623d57600080fd5b82356200624a8162006210565b915060208301356200625c8162006210565b809150509250929050565b60005b83811015620062845781810151838201526020016200626a565b8381111562006294576000848401525b50505050565b60008151808452620062b481602086016020860162006267565b601f01601f19169290920160200192915050565b6020815260006200050b60208301846200629a565b6001600160801b0319811681146200622657600080fd5b600080604083850312156200630857600080fd5b8235620063158162006210565b915060208301356200625c81620062dd565b600080604083850312156200633b57600080fd5b8235915060208301356200625c81620062dd565b600080604083850312156200636357600080fd5b8235620063708162006210565b946020939093013593505050565b634e487b7160e01b600052604160045260246000fd5b604051606081016001600160401b0381118282101715620063b957620063b96200637e565b60405290565b60405160c081016001600160401b0381118282101715620063b957620063b96200637e565b604051601f8201601f191681016001600160401b03811182821017156200640f576200640f6200637e565b604052919050565b60006001600160401b038211156200643357620064336200637e565b50601f01601f191660200190565b600062006458620064528462006417565b620063e4565b90508281528383830111156200646d57600080fd5b828260208301376000602084830101529392505050565b600080604083850312156200649857600080fd5b82356001600160401b03811115620064af57600080fd5b8301601f81018513620064c157600080fd5b620064d28582356020840162006441565b95602094909401359450505050565b600060208284031215620064f457600080fd5b5035919050565b6000602082840312156200650e57600080fd5b81356001600160401b038111156200652557600080fd5b8201601f810184136200653757600080fd5b620021cf8482356020840162006441565b6000806000606084860312156200655e57600080fd5b83356200656b8162006210565b925060208401356200657d8162006210565b929592945050506040919091013590565b600060208284031215620065a157600080fd5b81356200050b8162006210565b600080600060608486031215620065c457600080fd5b8335620065d18162006210565b95602085013595506040909401359392505050565b634e487b7160e01b600052601160045260246000fd5b600060018201620066115762006611620065e6565b5060010190565b600082198211156200662e576200662e620065e6565b500190565b634e487b7160e01b600052603260045260246000fd5b600181811c908216806200665e57607f821691505b6020821081036200127057634e487b7160e01b600052602260045260246000fd5b6001600160a01b0383168152604060208201819052600090620021cf908301846200629a565b6020808252602c908201527f4e6f205250432d456e64706f696e7420617661696c61626c6520666f7220746860408201526b34b99031b430b4b716a4a21760a11b606082015260800190565b7f7b226a736f6e727063223a22322e30222c20226d6574686f64223a202265746881527f5f6765745472616e73616374696f6e427948617368222c2022706172616d73226020820152631d102d9160e11b6040820152600083516200675e81604485016020880162006267565b690112e96101134b2111d160b51b6044939091019283015250604e810191909152607d60f81b606e820152606f01919050565b828152604060208201526000620021cf60408301846200629a565b60208082526017908201527f41756374696f6e206e6f74207965742073746172746564000000000000000000604082015260600190565b6020808252602a908201527f4e6f2062696464696e6720616464726573732072656c6174656420746f20746860408201526934b99039b2b73232b91760b11b606082015260800190565b805160208201516001600160601b031980821692919060148310156200685d5780818460140360031b1b83161693505b505050919050565b6000816000190483118215151615620068825762006882620065e6565b500290565b6000828210156200689c576200689c620065e6565b500390565b7f2f6765744f776e657273466f72546f6b656e3f636f6e7472616374416464726581526273733d60e81b602082015260008351620068e781602385016020880162006267565b6826746f6b656e49643d60b81b60239184019182015283516200691281602c84016020880162006267565b01602c01949350505050565b600083516200693281846020880162006267565b8351908301906200694881836020880162006267565b01949350505050565b60006001600160401b038211156200696d576200696d6200637e565b5060051b60200190565b600082601f8301126200698957600080fd5b81516200699a620064528262006417565b818152846020838601011115620069b057600080fd5b620021cf82602083016020870162006267565b60006020808385031215620069d757600080fd5b82516001600160401b0380821115620069ef57600080fd5b818501915085601f83011262006a0457600080fd5b815162006a15620064528262006951565b81815260059190911b8301840190848101908883111562006a3557600080fd5b8585015b8381101562006b3e5780518581111562006a5257600080fd5b86016060818c03601f1901121562006a6957600080fd5b62006a7362006394565b8882015162006a828162006210565b815260408201518781111562006a9757600080fd5b8201603f81018d1362006aa957600080fd5b8981015162006abc620064528262006951565b81815260059190911b8201604001908b8101908f83111562006add57600080fd5b6040840193505b8284101562006aff5783518252928c0192908c019062006ae4565b848d015250505060608201518781111562006b1957600080fd5b62006b298d8b8386010162006977565b60408301525084525091860191860162006a39565b5098975050505050505050565b6002811062006b6a57634e487b7160e01b600052602160045260246000fd5b9052565b602081016200050e828462006b4b565b6000825162006b9281846020870162006267565b9190910192915050565b60006020828403121562006baf57600080fd5b81516001600160401b0381111562006bc657600080fd5b620021cf8482850162006977565b600081518084526020808501945080840160005b8381101562006c0f5781516001600160a01b03168752958201959082019060010162006be8565b509495945050505050565b6001600160401b038516815260806020820152600062006c3e608083018662006bd4565b828103604084015262006c52818662006bd4565b90508281036060840152620022d681856200629a565b80516200550781620062dd565b80516001600160401b03811681146200550757600080fd5b600082601f83011262006c9f57600080fd5b8151602062006cb2620064528362006951565b82815260059290921b8401810191818101908684111562006cd257600080fd5b8286015b8481101562006cfa57805162006cec8162006210565b835291830191830162006cd6565b509695505050505050565b60006020828403121562006d1857600080fd5b81516001600160401b038082111562006d3057600080fd5b9083019060c0828603121562006d4557600080fd5b62006d4f620063bf565b62006d5a8362006c68565b815262006d6a6020840162006c68565b602082015262006d7d6040840162006c75565b604082015260608301518281111562006d9557600080fd5b62006da38782860162006c8d565b60608301525060808301518281111562006dbc57600080fd5b62006dca8782860162006c8d565b60808301525060a08301518281111562006de357600080fd5b62006df18782860162006977565b60a08301525095945050505050565b6001600160801b03198416815260606020820152600062006e2560608301856200629a565b828103604084015262000ff881856200629a565b80516020808301519190811015620012705760001960209190910360031b1b16919050565b6001600160801b031983168152604060208201526000620021cf60408301846200629a565b60006020828403121562006e9657600080fd5b5051919050565b60006020808352835160c08285015262006ebb60e08501826200629a565b905081850151601f198086840301604087015262006eda83836200629a565b60408801518782038301606089015280518083529194508501925084840190600581901b8501860160005b8281101562006f35578487830301845262006f228287516200629a565b9588019593880193915060010162006f05565b5060608a01519650838982030160808a015262006f5381886200629a565b9650505050505050608084015162006f6f60a085018215159052565b5060a08401516001600160401b03811660c085015262002685565b7f7b226a736f6e727063223a22322e30222c20226d6574686f64223a202265746881527f5f73656e645261775472616e73616374696f6e222c2022706172616d73223a206020820152612d9160f11b60408201526000835162006ff581604285016020880162006267565b690112e96101134b2111d160b51b6042939091019283015250604c810191909152607d60f81b606c820152606d01919050565b6040815260006200703d60408301856200629a565b905060018060a01b03831660208301529392505050565b6000601160f91b80835283516200707381600186016020880162006267565b600193019283015250600201919050565b634e487b7160e01b600052601260045260246000fd5b600082620070ac57620070ac62007084565b500690565b600082620070c357620070c362007084565b500490565b600060ff821660ff84168160ff0481118215151615620070ec57620070ec620065e6565b029392505050565b600060ff821660ff84168060ff03821115620071145762007114620065e6565b019392505050565b60006001600160401b0380831681851681830481118215151615620071455762007145620065e6565b02949350505050565b60006001600160401b03808316818516808303821115620069485762006948620065e6565b600060ff821660ff841680821015620071905762007190620065e6565b90039392505050565b606081526000620071ae60608301866200629a565b62006e25602084018662006b4b565b600181815b80851115620071fe578160001904821115620071e257620071e2620065e6565b80851615620071f057918102915b93841c9390800290620071c2565b509250929050565b60008262007217575060016200050e565b8162007226575060006200050e565b81600181146200723f57600281146200724a576200726a565b60019150506200050e565b60ff8411156200725e576200725e620065e6565b50506001821b6200050e565b5060208310610133831016604e8410600b84101617156200728f575081810a6200050e565b6200729b8383620071bd565b8060001904821115620070ec57620070ec620065e6565b60006200050b83836200720656fe60806040523480156200001157600080fd5b50604051620021303803806200213083398101604081905262000034916200010d565b80516200004990600090602084019062000051565b505062000225565b8280546200005f90620001e9565b90600052602060002090601f016020900481019282620000835760008555620000ce565b82601f106200009e57805160ff1916838001178555620000ce565b82800160010185558215620000ce579182015b82811115620000ce578251825591602001919060010190620000b1565b50620000dc929150620000e0565b5090565b5b80821115620000dc5760008155600101620000e1565b634e487b7160e01b600052604160045260246000fd5b600060208083850312156200012157600080fd5b82516001600160401b03808211156200013957600080fd5b818501915085601f8301126200014e57600080fd5b815181811115620001635762000163620000f7565b604051601f8201601f19908116603f011681019083821181831017156200018e576200018e620000f7565b816040528281528886848701011115620001a757600080fd5b600093505b82841015620001cb5784840186015181850187015292850192620001ac565b82841115620001dd5760008684830101525b98975050505050505050565b600181811c90821680620001fe57607f821691505b6020821081036200021f57634e487b7160e01b600052602260045260246000fd5b50919050565b611efb80620002356000396000f3fe608060405234801561001057600080fd5b50600436106100575760003560e01c80631b8b921d1461005c57806370ae92d2146100855780637c52407c146100a6578063c672f9d6146100b9578063e3d670d7146100db575b600080fd5b61006f61006a36600461166d565b6100ee565b60405161007c9190611717565b60405180910390f35b61009861009336600461172a565b61015a565b60405190815260200161007c565b61006f6100b4366004611745565b6101b8565b6100cc6100c7366004611883565b610304565b6040519051815260200161007c565b6100986100e936600461172a565b610552565b606060006100fb8461056e565b61010484610617565b604051602001610115929190611914565b6040516020818303038152906040529050600061013182610304565b9050600061014e6101496101448461063b565b61064a565b61072c565b93505050505b92915050565b6000806101668361056e565b6040516020016101769190611982565b6040516020818303038152906040529050600061019282610304565b905060006101af6101aa6101a58461063b565b61084d565b6109d7565b95945050505050565b606060006101c58561056e565b6101ce85610617565b6040516020016101df929190611a0a565b604051602081830303815290604052905060005b83518110156102b6578161022385838151811061021257610212611a71565b60200260200101516000015161056e565b61024986848151811061023857610238611a71565b602002602001015160200151610617565b60405160200161025b93929190611a87565b60405160208183030381529060405291506001845161027a9190611b17565b8110156102a457816040516020016102929190611b2e565b60405160208183030381529060405291505b806102ae81611b53565b9150506101f3565b50806040516020016102c89190611b6c565b604051602081830303815290604052905060006102e482610304565b905060006102f76101496101448461063b565b93505050505b9392505050565b6040805160208101909152600081526103586040518060c0016040528060608152602001606081526020016060815260200160608152602001600015158152602001600067ffffffffffffffff1681525090565b604051806040016040528060048152602001631413d4d560e21b81525081602001819052506000805461038a90611b9a565b80601f01602080910402602001604051908101604052809291908181526020018280546103b690611b9a565b80156104035780601f106103d857610100808354040283529160200191610403565b820191906000526020600020905b8154815290600101906020018083116103e657829003601f168201915b505050918352505060408051600180825281830190925290816020015b606081526020019060019003908161042057505060408281019182528051808201909152601e81527f436f6e74656e742d547970653a206170706c69636174696f6e2f6a736f6e000060208201529051805160009061048157610481611a71565b602090810291909101015260608101839052600061049e82610a62565b905060006104ab82610b29565b905060006104e1604051806040016040528060078152602001661132b93937b91160c91b81525083610b4290919063ffffffff16565b90506104ef81516007161590565b61051e576104fc8161063b565b60405162461bcd60e51b81526004016105159190611717565b60405180910390fd5b604080518082019091526008815267113932b9bab63a1160c11b6020820152610548908390610b42565b9695505050505050565b60008061055e8361056e565b6040516020016101769190611bce565b606061057982610ba9565b6028602282019081209192507f4040404040404040404040404040404040404040404040404040404040404040917f888888888888888888888888888888888888888888888888888888888888888016601160f31b60005b82811a8202818001526001810190601219016105d157505050818151166000511660011c8151188152602081019050818151166020511660011c81511881525050919050565b606061062282610bb4565b8051613078825260020160011990910190815292915050565b606060006102fd836000610c1a565b606060008290506000600482516106619190611b17565b67ffffffffffffffff81111561067957610679611577565b6040519080825280601f01601f1916602001820160405280156106a3576020820181803683370190505b50905060035b600183516106b79190611b17565b811015610724578281815181106106d0576106d0611a71565b01602001516001600160f81b031916826106eb600384611b17565b815181106106fb576106fb611a71565b60200101906001600160f81b031916908160001a9053508061071c81611b53565b9150506106a9565b509392505050565b8051606090829061073f90600290611c65565b1561074957600080fd5b6000600282516107599190611c79565b67ffffffffffffffff81111561077157610771611577565b6040519080825280601f01601f19166020018201604052801561079b576020820181803683370190505b50905060005b600283516107af9190611c79565b811015610724576107ed836107c5836002611c8d565b6107d0906001611cac565b815181106107e0576107e0611a71565b016020015160f81c6113b6565b6107fc846107d0846002611c8d565b610807906010611cc4565b6108119190611ced565b60f81b82828151811061082657610826611a71565b60200101906001600160f81b031916908160001a90535061084681611b53565b90506107a1565b60606000829050600281511015801561088b57508060008151811061087457610874611a71565b6020910101516001600160f81b031916601160f91b145b80156108c8575080600182516108a19190611b17565b815181106108b1576108b1611a71565b6020910101516001600160f81b031916601160f91b145b6109045760405162461bcd60e51b815260206004820152600d60248201526c125b9d985b1a59081a5b9c1d5d609a1b6044820152606401610515565b6000600282516109149190611b17565b67ffffffffffffffff81111561092c5761092c611577565b6040519080825280601f01601f191660200182016040528015610956576020820181803683370190505b50905060015b6001835161096a9190611b17565b8110156107245782818151811061098357610983611a71565b01602001516001600160f81b0319168261099e600184611b17565b815181106109ae576109ae611a71565b60200101906001600160f81b031916908160001a905350806109cf81611b53565b91505061095c565b600081516001811160208085015160f01c17613078141660011b5b6001810190507403010a071000000b0104040208000c05090d060e0f6d03e4088843e41bac00000000000060ff83870151161c601f161a8360fc1c8115171583029250600181038460041b019350508181106109f2575080610a5c5763101827966000526004601cfd5b50919050565b606060008063432000026001600160a01b031684604051602001610a869190611d12565b60408051601f1981840301815290829052610aa091611df4565b6000604051808303816000865af19150503d8060008114610add576040519150601f19603f3d011682016040523d82523d6000602084013e610ae2565b606091505b509150915081610b0d576343200002816040516375fff46760e01b8152600401610515929190611e10565b80806020019051810190610b219190611e34565b949350505050565b60408051600080825291819052906102fd8360ff610c1a565b60408051600081529052815160609060071660020361015457815160208301206000610b6d856114c3565b805190915060051b5b8015610ba057818101519550601f190182610b90876114d2565b8051906020012003610b76578593505b50505092915050565b6060610622826114f1565b8051604051818001600282019081526f30313233343536373839616263646566600f52918301906022015b818414610c0a57600184019350600f845116516001820153600f845160041c16518153600201610bdf565b6000815260200160405250919050565b600061130c565b63101827966000526004601cfd5b805b6001640100002600610c44835160001a90565b1c161561015457600101610c31565b63ffffffff83113d3d3e63ffffffff821b191691901b1790565b604051610c8f8486036078610c8a601f1986890301605888610c53565b610c53565b959095178552505050602082016040525090565b600080610cb4846018600051610c53565b610cbe8787610c2f565b9150868210610ccd5750610df3565b815160001a60228103610cff5782610ce789858589611003565b9350610cf760048583868a610c6d565b945050610de4565b605b8103610d1c57610d1388848488610dfc565b93509350610de4565b607b8103610d3057610d1388848488610ec5565b6703ff200000000000811c60011615610d4f57610d13888484886110d7565b876004840111610da95782835160e01c63747275658103610d8757600485019450610d7e60058684878b610c6d565b95505050610de4565b636e756c6c8103610da657600485019450610d7e60068684878b610c6d565b50505b876005840111610ddc5782835160d81c6466616c73658103610dd957600585019450610d7e60058684878b610c6d565b50505b610de4610c21565b5050610df08682610c2f565b90505b94509492505050565b600060018401815b868210610e1357610e13610c21565b82610e3757610e228783610c2f565b9150605d610e31835160001a90565b14610e9a575b610e4387838587610ca3565b925092508215610e8b57610e5d8160988551604017610c53565b8352600101610e6d825160001a90565b605d8103610e7b5750610e9a565b602c8103610e895750610e8f565b505b8691505b600182019150610e04565b50600101610eaa82603886610c53565b9350610eba600182878787610c6d565b915094509492505050565b6000600184015b858110610edb57610edb610c21565b81610eff57610eea8682610c2f565b9050607d610ef9825160001a90565b14610fa3575b610f098682610c2f565b905080610f1887838587611003565b610f228882610c2f565b9250603a610f31845160001a90565b03610f9557610f4588600185018688610ca3565b935093508315610f9557610f6c6020860183036098610c8a85850360b88951608017610c53565b8452825160001a607d8103610f8357505050610fa3565b602c8103610f9357505050610f9b565b505b50508590505b600101610ecc565b600101610fb282603886610c53565b9350610eba600282878787610c6d565b6001667e0000007e03ff6030610fdb8585015160001a90565b031c16610fea57610fea610c21565b60058214610fff57610fff6001830182610fc2565b5050565b5050600082821061101657611016610c21565b50600181015b805160001a6022810361102f575061108d565b605c8114611040575060010161101c565b600182015160001a905060016a0510110400000000002001602283031c161561106c575060020161101c565b607581036110885761107f600283610fc2565b5060060161101c565b508290505b82811061109c5761109c610c21565b60010192915050565b805b600a60306110b6835160001a90565b0310156110c5576001016110a7565b8082148416156102fd576102fd610c21565b600083602d6110e7825160001a90565b036110f0576001015b600a60306110ff835160001a90565b031061110d5761110d610c21565b805160001a6001820191506030811461112f5761112c600088846110a5565b91505b50602e61113d825160001a90565b0361115457611151600187600184016110a5565b90505b805160658160001a60201703611183576111806001886001850162010001600e8660011a031a016110a5565b91505b50610eba600382878787610c6d565b60405190820190601f19601f850181165b83810151838201528101806111a35750508381526000846020830101528360408201016040529392505050565b8483611192565b805160609060028160071611610a5c578215811517610a5c57602081161561120b57603881901c63ffffffff169150610a5c565b604051915060208201603882901c63ffffffff165b8015611252578082528051601881901c63ffffffff1661124287601884610c53565b9092525060209190910190611220565b50601f1983820381018060051c85528260405261127185603886610c53565b9350836020178652604081106112a4576020850192508085015b8351815185528152602090930192820180841061128b57505b50505050919050565b80516060908215811517156112c25750610b21565b80841c63ffffffff1691508086166113035760d881901c63ffffffff166112f082871c63ffffffff166111d0565b9250506112fe828583610c53565b861783525b50949350505050565b81801561137e576001811461139457600381146113a357602084018451810180821461136457805160001a6022825361134b8760d8601160f91b610c53565b60005261135b828460008a610ca3565b93509450808253505b8315818310171561137757611377610c21565b50506113af565b61138d601060786058876112ad565b91506113af565b61138d600860b86098876112ad565b6113ac846111d7565b91505b5092915050565b6000600360fc1b60f883901b6001600160f81b031916108015906113ec5750603960f81b60f883901b6001600160f81b03191611155b156113fc57610154603083611ea2565b606160f81b60f883901b6001600160f81b031916108015906114305750603360f91b60f883901b6001600160f81b03191611155b1561144c57606161144283600a611ced565b6101549190611ea2565b604160f81b60f883901b6001600160f81b031916108015906114805750602360f91b60f883901b6001600160f81b03191611155b1561149257604161144283600a611ced565b60405162461bcd60e51b81526004016105159060208082526004908201526319985a5b60e21b604082015260600190565b606060006102fd836003610c1a565b8051606090608016156114ec5760006102fd836001610c1a565b919050565b60606040519050608081016040526f30313233343536373839616263646566600f526002810190506028815260208101600060288201528260601b925060005b808101820184821a600f81165160018301538060041c5182535050600181019060121901611531575050919050565b80356001600160a01b03811681146114ec57600080fd5b634e487b7160e01b600052604160045260246000fd5b6040805190810167ffffffffffffffff811182821017156115b0576115b0611577565b60405290565b604051601f8201601f1916810167ffffffffffffffff811182821017156115df576115df611577565b604052919050565b600067ffffffffffffffff82111561160157611601611577565b50601f01601f191660200190565b600061162261161d846115e7565b6115b6565b905082815283838301111561163657600080fd5b828260208301376000602084830101529392505050565b600082601f83011261165e57600080fd5b6102fd8383356020850161160f565b6000806040838503121561168057600080fd5b61168983611560565b9150602083013567ffffffffffffffff8111156116a557600080fd5b6116b18582860161164d565b9150509250929050565b60005b838110156116d65781810151838201526020016116be565b838111156116e5576000848401525b50505050565b600081518084526117038160208601602086016116bb565b601f01601f19169290920160200192915050565b6020815260006102fd60208301846116eb565b60006020828403121561173c57600080fd5b6102fd82611560565b60008060006060848603121561175a57600080fd5b61176384611560565b925060208085013567ffffffffffffffff8082111561178157600080fd5b61178d8883890161164d565b945060408701359150808211156117a357600080fd5b818701915087601f8301126117b757600080fd5b8135818111156117c9576117c9611577565b8060051b6117d88582016115b6565b918252838101850191858101908b8411156117f257600080fd5b86860192505b83831015611872578235858111156118105760008081fd5b86016040818e03601f190112156118275760008081fd5b61182f61158d565b61183a898301611560565b815260408201358781111561184f5760008081fd5b61185d8f8b8386010161164d565b828b01525083525091860191908601906117f8565b809750505050505050509250925092565b60006020828403121561189557600080fd5b813567ffffffffffffffff8111156118ac57600080fd5b8201601f810184136118bd57600080fd5b6113ac8482356020840161160f565b7f7b226a736f6e727063223a22322e30222c226d6574686f64223a226574685f6381527530b6361116113830b930b6b9911d2dbd913a37911d1160511b602082015260360190565b600061191f826118cc565b845161192f8183602089016116bb565b691116113230ba30911d1160b11b9101908152835161195581600a8401602088016116bb565b73227d2c226c6174657374225d2c226964223a317d60601b600a9290910191820152601e01949350505050565b7f7b226a736f6e727063223a22322e30222c226d6574686f64223a226574685f6781527f65745472616e73616374696f6e436f756e74222c22706172616d73223a5b22006020820152600082516119e081603f8501602087016116bb565b72222c226c6174657374225d2c226964223a317d60681b603f939091019283015250605201919050565b6000611a15826118cc565b8451611a258183602089016116bb565b691116113230ba30911d1160b11b91019081528351611a4b81600a8401602088016116bb565b6c227d2c226c6174657374222c7b60981b600a9290910191820152601701949350505050565b634e487b7160e01b600052603260045260246000fd5b60008451611a998184602089016116bb565b601160f91b9083019081528451611ab78160018401602089016116bb565b6c111d103d9131b7b232911d101160991b600192909101918201528351611ae581600e8401602088016116bb565b61227d60f01b600e929091019182015260100195945050505050565b634e487b7160e01b600052601160045260246000fd5b600082821015611b2957611b29611b01565b500390565b60008251611b408184602087016116bb565b600b60fa1b920191825250600101919050565b600060018201611b6557611b65611b01565b5060010190565b60008251611b7e8184602087016116bb565b697d5d2c226964223a317d60b01b920191825250600a01919050565b600181811c90821680611bae57607f821691505b602082108103610a5c57634e487b7160e01b600052602260045260246000fd5b7f7b226a736f6e727063223a22322e30222c226d6574686f64223a226574685f6781527532ba2130b630b731b29116113830b930b6b9911d2d9160511b602082015260008251611c258160368501602087016116bb565b72222c226c6174657374225d2c226964223a317d60681b6036939091019283015250604901919050565b634e487b7160e01b600052601260045260246000fd5b600082611c7457611c74611c4f565b500690565b600082611c8857611c88611c4f565b500490565b6000816000190483118215151615611ca757611ca7611b01565b500290565b60008219821115611cbf57611cbf611b01565b500190565b600060ff821660ff84168160ff0481118215151615611ce557611ce5611b01565b029392505050565b600060ff821660ff84168060ff03821115611d0a57611d0a611b01565b019392505050565b60006020808352835160c082850152611d2e60e08501826116eb565b905081850151601f1980868403016040870152611d4b83836116eb565b60408801518782038301606089015280518083529194508501925084840190600581901b8501860160005b82811015611da25784878303018452611d908287516116eb565b95880195938801939150600101611d76565b5060608a01519650838982030160808a0152611dbe81886116eb565b96505050505050506080840151611dd960a085018215159052565b5060a084015167ffffffffffffffff811660c0850152610724565b60008251611e068184602087016116bb565b9190910192915050565b6001600160a01b0383168152604060208201819052600090610b21908301846116eb565b600060208284031215611e4657600080fd5b815167ffffffffffffffff811115611e5d57600080fd5b8201601f81018413611e6e57600080fd5b8051611e7c61161d826115e7565b818152856020838501011115611e9157600080fd5b6101af8260208301602086016116bb565b600060ff821660ff841680821015611ebc57611ebc611b01565b9003939250505056fea26469706673582212206b1b4a0614a4ee7ddecf2bfa1cabd2094d131d51ec53710e61e799db434af6b164736f6c634300080d0033608060405234801561001057600080fd5b5060405161253138038061253183398101604081905261002f91610107565b8160405161003c90610098565b61004691906101c6565b604051809103906000f080158015610062573d6000803e3d6000fd5b50600080546001600160a01b039283166001600160a01b03199182161790915560018054939092169216919091179055506101f9565b6121308061040183390190565b634e487b7160e01b600052604160045260246000fd5b60005b838110156100d65781810151838201526020016100be565b838111156100e5576000848401525b50505050565b80516001600160a01b038116811461010257600080fd5b919050565b6000806040838503121561011a57600080fd5b82516001600160401b038082111561013157600080fd5b818501915085601f83011261014557600080fd5b815181811115610157576101576100a5565b604051601f8201601f19908116603f0116810190838211818310171561017f5761017f6100a5565b8160405282815288602084870101111561019857600080fd5b6101a98360208301602088016100bb565b80965050505050506101bd602084016100eb565b90509250929050565b60208152600082518060208401526101e58160408501602087016100bb565b601f01601f19169190910160400192915050565b6101f9806102086000396000f3fe608060405234801561001057600080fd5b5060008054600154604051631b8b921d60e01b81526001600160a01b0392831692631b8b921d9261004a929116908590369060040161009d565b6000604051808303816000875af1158015610069573d6000803e3d6000fd5b505050506040513d6000823e601f3d908101601f1916820160405261009191908101906100f3565b90508081518060208301f35b6001600160a01b03841681526040602082018190528101829052818360608301376000818301606090810191909152601f909201601f1916010192915050565b634e487b7160e01b600052604160045260246000fd5b6000602080838503121561010657600080fd5b825167ffffffffffffffff8082111561011e57600080fd5b818501915085601f83011261013257600080fd5b815181811115610144576101446100dd565b604051601f8201601f19908116603f0116810190838211818310171561016c5761016c6100dd565b81604052828152888684870101111561018457600080fd5b600093505b828410156101a65784840186015181850187015292850192610189565b828411156101b75760008684830101525b9897505050505050505056fea2646970667358221220712150db78acd79a3821a9430562d65107f88eb38a11820cf2160900b21c666364736f6c634300080d003360806040523480156200001157600080fd5b50604051620021303803806200213083398101604081905262000034916200010d565b80516200004990600090602084019062000051565b505062000225565b8280546200005f90620001e9565b90600052602060002090601f016020900481019282620000835760008555620000ce565b82601f106200009e57805160ff1916838001178555620000ce565b82800160010185558215620000ce579182015b82811115620000ce578251825591602001919060010190620000b1565b50620000dc929150620000e0565b5090565b5b80821115620000dc5760008155600101620000e1565b634e487b7160e01b600052604160045260246000fd5b600060208083850312156200012157600080fd5b82516001600160401b03808211156200013957600080fd5b818501915085601f8301126200014e57600080fd5b815181811115620001635762000163620000f7565b604051601f8201601f19908116603f011681019083821181831017156200018e576200018e620000f7565b816040528281528886848701011115620001a757600080fd5b600093505b82841015620001cb5784840186015181850187015292850192620001ac565b82841115620001dd5760008684830101525b98975050505050505050565b600181811c90821680620001fe57607f821691505b6020821081036200021f57634e487b7160e01b600052602260045260246000fd5b50919050565b611efb80620002356000396000f3fe608060405234801561001057600080fd5b50600436106100575760003560e01c80631b8b921d1461005c57806370ae92d2146100855780637c52407c146100a6578063c672f9d6146100b9578063e3d670d7146100db575b600080fd5b61006f61006a36600461166d565b6100ee565b60405161007c9190611717565b60405180910390f35b61009861009336600461172a565b61015a565b60405190815260200161007c565b61006f6100b4366004611745565b6101b8565b6100cc6100c7366004611883565b610304565b6040519051815260200161007c565b6100986100e936600461172a565b610552565b606060006100fb8461056e565b61010484610617565b604051602001610115929190611914565b6040516020818303038152906040529050600061013182610304565b9050600061014e6101496101448461063b565b61064a565b61072c565b93505050505b92915050565b6000806101668361056e565b6040516020016101769190611982565b6040516020818303038152906040529050600061019282610304565b905060006101af6101aa6101a58461063b565b61084d565b6109d7565b95945050505050565b606060006101c58561056e565b6101ce85610617565b6040516020016101df929190611a0a565b604051602081830303815290604052905060005b83518110156102b6578161022385838151811061021257610212611a71565b60200260200101516000015161056e565b61024986848151811061023857610238611a71565b602002602001015160200151610617565b60405160200161025b93929190611a87565b60405160208183030381529060405291506001845161027a9190611b17565b8110156102a457816040516020016102929190611b2e565b60405160208183030381529060405291505b806102ae81611b53565b9150506101f3565b50806040516020016102c89190611b6c565b604051602081830303815290604052905060006102e482610304565b905060006102f76101496101448461063b565b93505050505b9392505050565b6040805160208101909152600081526103586040518060c0016040528060608152602001606081526020016060815260200160608152602001600015158152602001600067ffffffffffffffff1681525090565b604051806040016040528060048152602001631413d4d560e21b81525081602001819052506000805461038a90611b9a565b80601f01602080910402602001604051908101604052809291908181526020018280546103b690611b9a565b80156104035780601f106103d857610100808354040283529160200191610403565b820191906000526020600020905b8154815290600101906020018083116103e657829003601f168201915b505050918352505060408051600180825281830190925290816020015b606081526020019060019003908161042057505060408281019182528051808201909152601e81527f436f6e74656e742d547970653a206170706c69636174696f6e2f6a736f6e000060208201529051805160009061048157610481611a71565b602090810291909101015260608101839052600061049e82610a62565b905060006104ab82610b29565b905060006104e1604051806040016040528060078152602001661132b93937b91160c91b81525083610b4290919063ffffffff16565b90506104ef81516007161590565b61051e576104fc8161063b565b60405162461bcd60e51b81526004016105159190611717565b60405180910390fd5b604080518082019091526008815267113932b9bab63a1160c11b6020820152610548908390610b42565b9695505050505050565b60008061055e8361056e565b6040516020016101769190611bce565b606061057982610ba9565b6028602282019081209192507f4040404040404040404040404040404040404040404040404040404040404040917f888888888888888888888888888888888888888888888888888888888888888016601160f31b60005b82811a8202818001526001810190601219016105d157505050818151166000511660011c8151188152602081019050818151166020511660011c81511881525050919050565b606061062282610bb4565b8051613078825260020160011990910190815292915050565b606060006102fd836000610c1a565b606060008290506000600482516106619190611b17565b67ffffffffffffffff81111561067957610679611577565b6040519080825280601f01601f1916602001820160405280156106a3576020820181803683370190505b50905060035b600183516106b79190611b17565b811015610724578281815181106106d0576106d0611a71565b01602001516001600160f81b031916826106eb600384611b17565b815181106106fb576106fb611a71565b60200101906001600160f81b031916908160001a9053508061071c81611b53565b9150506106a9565b509392505050565b8051606090829061073f90600290611c65565b1561074957600080fd5b6000600282516107599190611c79565b67ffffffffffffffff81111561077157610771611577565b6040519080825280601f01601f19166020018201604052801561079b576020820181803683370190505b50905060005b600283516107af9190611c79565b811015610724576107ed836107c5836002611c8d565b6107d0906001611cac565b815181106107e0576107e0611a71565b016020015160f81c6113b6565b6107fc846107d0846002611c8d565b610807906010611cc4565b6108119190611ced565b60f81b82828151811061082657610826611a71565b60200101906001600160f81b031916908160001a90535061084681611b53565b90506107a1565b60606000829050600281511015801561088b57508060008151811061087457610874611a71565b6020910101516001600160f81b031916601160f91b145b80156108c8575080600182516108a19190611b17565b815181106108b1576108b1611a71565b6020910101516001600160f81b031916601160f91b145b6109045760405162461bcd60e51b815260206004820152600d60248201526c125b9d985b1a59081a5b9c1d5d609a1b6044820152606401610515565b6000600282516109149190611b17565b67ffffffffffffffff81111561092c5761092c611577565b6040519080825280601f01601f191660200182016040528015610956576020820181803683370190505b50905060015b6001835161096a9190611b17565b8110156107245782818151811061098357610983611a71565b01602001516001600160f81b0319168261099e600184611b17565b815181106109ae576109ae611a71565b60200101906001600160f81b031916908160001a905350806109cf81611b53565b91505061095c565b600081516001811160208085015160f01c17613078141660011b5b6001810190507403010a071000000b0104040208000c05090d060e0f6d03e4088843e41bac00000000000060ff83870151161c601f161a8360fc1c8115171583029250600181038460041b019350508181106109f2575080610a5c5763101827966000526004601cfd5b50919050565b606060008063432000026001600160a01b031684604051602001610a869190611d12565b60408051601f1981840301815290829052610aa091611df4565b6000604051808303816000865af19150503d8060008114610add576040519150601f19603f3d011682016040523d82523d6000602084013e610ae2565b606091505b509150915081610b0d576343200002816040516375fff46760e01b8152600401610515929190611e10565b80806020019051810190610b219190611e34565b949350505050565b60408051600080825291819052906102fd8360ff610c1a565b60408051600081529052815160609060071660020361015457815160208301206000610b6d856114c3565b805190915060051b5b8015610ba057818101519550601f190182610b90876114d2565b8051906020012003610b76578593505b50505092915050565b6060610622826114f1565b8051604051818001600282019081526f30313233343536373839616263646566600f52918301906022015b818414610c0a57600184019350600f845116516001820153600f845160041c16518153600201610bdf565b6000815260200160405250919050565b600061130c565b63101827966000526004601cfd5b805b6001640100002600610c44835160001a90565b1c161561015457600101610c31565b63ffffffff83113d3d3e63ffffffff821b191691901b1790565b604051610c8f8486036078610c8a601f1986890301605888610c53565b610c53565b959095178552505050602082016040525090565b600080610cb4846018600051610c53565b610cbe8787610c2f565b9150868210610ccd5750610df3565b815160001a60228103610cff5782610ce789858589611003565b9350610cf760048583868a610c6d565b945050610de4565b605b8103610d1c57610d1388848488610dfc565b93509350610de4565b607b8103610d3057610d1388848488610ec5565b6703ff200000000000811c60011615610d4f57610d13888484886110d7565b876004840111610da95782835160e01c63747275658103610d8757600485019450610d7e60058684878b610c6d565b95505050610de4565b636e756c6c8103610da657600485019450610d7e60068684878b610c6d565b50505b876005840111610ddc5782835160d81c6466616c73658103610dd957600585019450610d7e60058684878b610c6d565b50505b610de4610c21565b5050610df08682610c2f565b90505b94509492505050565b600060018401815b868210610e1357610e13610c21565b82610e3757610e228783610c2f565b9150605d610e31835160001a90565b14610e9a575b610e4387838587610ca3565b925092508215610e8b57610e5d8160988551604017610c53565b8352600101610e6d825160001a90565b605d8103610e7b5750610e9a565b602c8103610e895750610e8f565b505b8691505b600182019150610e04565b50600101610eaa82603886610c53565b9350610eba600182878787610c6d565b915094509492505050565b6000600184015b858110610edb57610edb610c21565b81610eff57610eea8682610c2f565b9050607d610ef9825160001a90565b14610fa3575b610f098682610c2f565b905080610f1887838587611003565b610f228882610c2f565b9250603a610f31845160001a90565b03610f9557610f4588600185018688610ca3565b935093508315610f9557610f6c6020860183036098610c8a85850360b88951608017610c53565b8452825160001a607d8103610f8357505050610fa3565b602c8103610f9357505050610f9b565b505b50508590505b600101610ecc565b600101610fb282603886610c53565b9350610eba600282878787610c6d565b6001667e0000007e03ff6030610fdb8585015160001a90565b031c16610fea57610fea610c21565b60058214610fff57610fff6001830182610fc2565b5050565b5050600082821061101657611016610c21565b50600181015b805160001a6022810361102f575061108d565b605c8114611040575060010161101c565b600182015160001a905060016a0510110400000000002001602283031c161561106c575060020161101c565b607581036110885761107f600283610fc2565b5060060161101c565b508290505b82811061109c5761109c610c21565b60010192915050565b805b600a60306110b6835160001a90565b0310156110c5576001016110a7565b8082148416156102fd576102fd610c21565b600083602d6110e7825160001a90565b036110f0576001015b600a60306110ff835160001a90565b031061110d5761110d610c21565b805160001a6001820191506030811461112f5761112c600088846110a5565b91505b50602e61113d825160001a90565b0361115457611151600187600184016110a5565b90505b805160658160001a60201703611183576111806001886001850162010001600e8660011a031a016110a5565b91505b50610eba600382878787610c6d565b60405190820190601f19601f850181165b83810151838201528101806111a35750508381526000846020830101528360408201016040529392505050565b8483611192565b805160609060028160071611610a5c578215811517610a5c57602081161561120b57603881901c63ffffffff169150610a5c565b604051915060208201603882901c63ffffffff165b8015611252578082528051601881901c63ffffffff1661124287601884610c53565b9092525060209190910190611220565b50601f1983820381018060051c85528260405261127185603886610c53565b9350836020178652604081106112a4576020850192508085015b8351815185528152602090930192820180841061128b57505b50505050919050565b80516060908215811517156112c25750610b21565b80841c63ffffffff1691508086166113035760d881901c63ffffffff166112f082871c63ffffffff166111d0565b9250506112fe828583610c53565b861783525b50949350505050565b81801561137e576001811461139457600381146113a357602084018451810180821461136457805160001a6022825361134b8760d8601160f91b610c53565b60005261135b828460008a610ca3565b93509450808253505b8315818310171561137757611377610c21565b50506113af565b61138d601060786058876112ad565b91506113af565b61138d600860b86098876112ad565b6113ac846111d7565b91505b5092915050565b6000600360fc1b60f883901b6001600160f81b031916108015906113ec5750603960f81b60f883901b6001600160f81b03191611155b156113fc57610154603083611ea2565b606160f81b60f883901b6001600160f81b031916108015906114305750603360f91b60f883901b6001600160f81b03191611155b1561144c57606161144283600a611ced565b6101549190611ea2565b604160f81b60f883901b6001600160f81b031916108015906114805750602360f91b60f883901b6001600160f81b03191611155b1561149257604161144283600a611ced565b60405162461bcd60e51b81526004016105159060208082526004908201526319985a5b60e21b604082015260600190565b606060006102fd836003610c1a565b8051606090608016156114ec5760006102fd836001610c1a565b919050565b60606040519050608081016040526f30313233343536373839616263646566600f526002810190506028815260208101600060288201528260601b925060005b808101820184821a600f81165160018301538060041c5182535050600181019060121901611531575050919050565b80356001600160a01b03811681146114ec57600080fd5b634e487b7160e01b600052604160045260246000fd5b6040805190810167ffffffffffffffff811182821017156115b0576115b0611577565b60405290565b604051601f8201601f1916810167ffffffffffffffff811182821017156115df576115df611577565b604052919050565b600067ffffffffffffffff82111561160157611601611577565b50601f01601f191660200190565b600061162261161d846115e7565b6115b6565b905082815283838301111561163657600080fd5b828260208301376000602084830101529392505050565b600082601f83011261165e57600080fd5b6102fd8383356020850161160f565b6000806040838503121561168057600080fd5b61168983611560565b9150602083013567ffffffffffffffff8111156116a557600080fd5b6116b18582860161164d565b9150509250929050565b60005b838110156116d65781810151838201526020016116be565b838111156116e5576000848401525b50505050565b600081518084526117038160208601602086016116bb565b601f01601f19169290920160200192915050565b6020815260006102fd60208301846116eb565b60006020828403121561173c57600080fd5b6102fd82611560565b60008060006060848603121561175a57600080fd5b61176384611560565b925060208085013567ffffffffffffffff8082111561178157600080fd5b61178d8883890161164d565b945060408701359150808211156117a357600080fd5b818701915087601f8301126117b757600080fd5b8135818111156117c9576117c9611577565b8060051b6117d88582016115b6565b918252838101850191858101908b8411156117f257600080fd5b86860192505b83831015611872578235858111156118105760008081fd5b86016040818e03601f190112156118275760008081fd5b61182f61158d565b61183a898301611560565b815260408201358781111561184f5760008081fd5b61185d8f8b8386010161164d565b828b01525083525091860191908601906117f8565b809750505050505050509250925092565b60006020828403121561189557600080fd5b813567ffffffffffffffff8111156118ac57600080fd5b8201601f810184136118bd57600080fd5b6113ac8482356020840161160f565b7f7b226a736f6e727063223a22322e30222c226d6574686f64223a226574685f6381527530b6361116113830b930b6b9911d2dbd913a37911d1160511b602082015260360190565b600061191f826118cc565b845161192f8183602089016116bb565b691116113230ba30911d1160b11b9101908152835161195581600a8401602088016116bb565b73227d2c226c6174657374225d2c226964223a317d60601b600a9290910191820152601e01949350505050565b7f7b226a736f6e727063223a22322e30222c226d6574686f64223a226574685f6781527f65745472616e73616374696f6e436f756e74222c22706172616d73223a5b22006020820152600082516119e081603f8501602087016116bb565b72222c226c6174657374225d2c226964223a317d60681b603f939091019283015250605201919050565b6000611a15826118cc565b8451611a258183602089016116bb565b691116113230ba30911d1160b11b91019081528351611a4b81600a8401602088016116bb565b6c227d2c226c6174657374222c7b60981b600a9290910191820152601701949350505050565b634e487b7160e01b600052603260045260246000fd5b60008451611a998184602089016116bb565b601160f91b9083019081528451611ab78160018401602089016116bb565b6c111d103d9131b7b232911d101160991b600192909101918201528351611ae581600e8401602088016116bb565b61227d60f01b600e929091019182015260100195945050505050565b634e487b7160e01b600052601160045260246000fd5b600082821015611b2957611b29611b01565b500390565b60008251611b408184602087016116bb565b600b60fa1b920191825250600101919050565b600060018201611b6557611b65611b01565b5060010190565b60008251611b7e8184602087016116bb565b697d5d2c226964223a317d60b01b920191825250600a01919050565b600181811c90821680611bae57607f821691505b602082108103610a5c57634e487b7160e01b600052602260045260246000fd5b7f7b226a736f6e727063223a22322e30222c226d6574686f64223a226574685f6781527532ba2130b630b731b29116113830b930b6b9911d2d9160511b602082015260008251611c258160368501602087016116bb565b72222c226c6174657374225d2c226964223a317d60681b6036939091019283015250604901919050565b634e487b7160e01b600052601260045260246000fd5b600082611c7457611c74611c4f565b500690565b600082611c8857611c88611c4f565b500490565b6000816000190483118215151615611ca757611ca7611b01565b500290565b60008219821115611cbf57611cbf611b01565b500190565b600060ff821660ff84168160ff0481118215151615611ce557611ce5611b01565b029392505050565b600060ff821660ff84168060ff03821115611d0a57611d0a611b01565b019392505050565b60006020808352835160c082850152611d2e60e08501826116eb565b905081850151601f1980868403016040870152611d4b83836116eb565b60408801518782038301606089015280518083529194508501925084840190600581901b8501860160005b82811015611da25784878303018452611d908287516116eb565b95880195938801939150600101611d76565b5060608a01519650838982030160808a0152611dbe81886116eb565b96505050505050506080840151611dd960a085018215159052565b5060a084015167ffffffffffffffff811660c0850152610724565b60008251611e068184602087016116bb565b9190910192915050565b6001600160a01b0383168152604060208201819052600090610b21908301846116eb565b600060208284031215611e4657600080fd5b815167ffffffffffffffff811115611e5d57600080fd5b8201601f81018413611e6e57600080fd5b8051611e7c61161d826115e7565b818152856020838501011115611e9157600080fd5b6101af8260208301602086016116bb565b600060ff821660ff841680821015611ebc57611ebc611b01565b9003939250505056fea26469706673582212206b1b4a0614a4ee7ddecf2bfa1cabd2094d131d51ec53710e61e799db434af6b164736f6c634300080d0033436f6e74656e742d547970653a206170706c69636174696f6e2f6a736f6e0000a26469706673582212209b9845c9786e52a937aa12f9e1d5ba23e47674203ae41af462063ab17d36e21364736f6c634300080d0033",
    "linkReferences": {}
  },
  "methodIdentifiers": {
    "PRIVATE_KEYS()": "ece3e1bc",
    "RETURN_ADDRESS()": "9c33da8c",
    "RPC()": "4a370573",
    "auctionEndTime()": "4b449cba",
    "auctionHasStarted()": "61e2f02f",
    "auctionTimeSpan()": "ce093cf7",
    "auctioneerL1()": "ff0c0346",
    "auctioneerSUAVE()": "0e258b49",
    "bidderAmount()": "d864134b",
    "endAuction()": "fe67a54b",
    "getBiddingAddress()": "36021534",
    "getNFTOwnedBy(address,uint256,uint256)": "f31cc018",
    "getTxByHash(string,uint256)": "6e4bb38c",
    "minimalBid()": "65843c12",
    "nftContract()": "d56d229d",
    "onchainCallback()": "4a525054",
    "placeBid()": "ecfc7ecc",
    "placeBidCallback(address,bytes16)": "28b5471b",
    "printBalance(address)": "eb1292ea",
    "printBalance(address,uint256)": "b6ccab85",
    "printERC20Balance(address,address)": "04ad5c29",
    "printERC20Balance(address,address,uint256)": "e1580684",
    "printInfo()": "4148f1f8",
    "printNonce(address)": "efdd74c3",
    "printNonce(address,uint256)": "564e4110",
    "printRPCEndpoint(uint256)": "ce6d3cdb",
    "reclaimBid()": "d5c79af2",
    "registerRPCOffchain(uint256)": "8111fe79",
    "relayTransaction(bytes)": "dd242fad",
    "revealBidders()": "eae04747",
    "startAuction()": "6b64c769",
    "startAuctionCallback()": "297268ad",
    "tokenId()": "17d70f7c",
    "updatePrivateKeyCallback(address,bytes16)": "1999cfd8",
    "updateRPCCallback(uint256,bytes16)": "4abc157c"
  },
  "id": 16
}