{
  "abi": [
    {
      "type": "constructor",
      "inputs": [
        {
          "name": "beneficiaryAddress",
          "type": "address",
          "internalType": "address"
        },
        {
          "name": "nftContractAddress",
          "type": "address",
          "internalType": "address"
        },
        {
          "name": "nftTokenId",
          "type": "uint256",
          "internalType": "uint256"
        },
        {
          "name": "auctionTimeInDays",
          "type": "uint256",
          "internalType": "uint256"
        },
        {
          "name": "minimalBiddingAmount",
          "type": "uint256",
          "internalType": "uint256"
        }
      ],
      "stateMutability": "nonpayable"
    },
    {
      "type": "function",
      "name": "PRIVATE_KEYS",
      "inputs": [],
      "outputs": [
        {
          "name": "",
          "type": "string",
          "internalType": "string"
        }
      ],
      "stateMutability": "view"
    },
    {
      "type": "function",
      "name": "RETURN_ADDRESS",
      "inputs": [],
      "outputs": [
        {
          "name": "",
          "type": "string",
          "internalType": "string"
        }
      ],
      "stateMutability": "view"
    },
    {
      "type": "function",
      "name": "RPC",
      "inputs": [],
      "outputs": [
        {
          "name": "",
          "type": "string",
          "internalType": "string"
        }
      ],
      "stateMutability": "view"
    },
    {
      "type": "function",
      "name": "auctionEndTime",
      "inputs": [],
      "outputs": [
        {
          "name": "",
          "type": "uint256",
          "internalType": "uint256"
        }
      ],
      "stateMutability": "view"
    },
    {
      "type": "function",
      "name": "auctionHasStarted",
      "inputs": [],
      "outputs": [
        {
          "name": "",
          "type": "bool",
          "internalType": "bool"
        }
      ],
      "stateMutability": "view"
    },
    {
      "type": "function",
      "name": "auctionTimeSpan",
      "inputs": [],
      "outputs": [
        {
          "name": "",
          "type": "uint256",
          "internalType": "uint256"
        }
      ],
      "stateMutability": "view"
    },
    {
      "type": "function",
      "name": "auctioneerL1",
      "inputs": [],
      "outputs": [
        {
          "name": "",
          "type": "address",
          "internalType": "address"
        }
      ],
      "stateMutability": "view"
    },
    {
      "type": "function",
      "name": "auctioneerSUAVE",
      "inputs": [],
      "outputs": [
        {
          "name": "",
          "type": "address",
          "internalType": "address"
        }
      ],
      "stateMutability": "view"
    },
    {
      "type": "function",
      "name": "bidderAmount",
      "inputs": [],
      "outputs": [
        {
          "name": "",
          "type": "uint256",
          "internalType": "uint256"
        }
      ],
      "stateMutability": "view"
    },
    {
      "type": "function",
      "name": "endAuction",
      "inputs": [],
      "outputs": [
        {
          "name": "",
          "type": "bytes",
          "internalType": "bytes"
        }
      ],
      "stateMutability": "nonpayable"
    },
    {
      "type": "function",
      "name": "getBiddingAddress",
      "inputs": [],
      "outputs": [
        {
          "name": "",
          "type": "bytes",
          "internalType": "bytes"
        }
      ],
      "stateMutability": "nonpayable"
    },
    {
      "type": "function",
      "name": "getNFTOwnedBy",
      "inputs": [
        {
          "name": "_nftContract",
          "type": "address",
          "internalType": "address"
        },
        {
          "name": "_tokenId",
          "type": "uint256",
          "internalType": "uint256"
        },
        {
          "name": "_chainId",
          "type": "uint256",
          "internalType": "uint256"
        }
      ],
      "outputs": [
        {
          "name": "",
          "type": "address",
          "internalType": "address"
        }
      ],
      "stateMutability": "nonpayable"
    },
    {
      "type": "function",
      "name": "getTxByHash",
      "inputs": [
        {
          "name": "txHash",
          "type": "string",
          "internalType": "string"
        },
        {
          "name": "chainId",
          "type": "uint256",
          "internalType": "uint256"
        }
      ],
      "outputs": [
        {
          "name": "",
          "type": "bytes",
          "internalType": "bytes"
        }
      ],
      "stateMutability": "nonpayable"
    },
    {
      "type": "function",
      "name": "minimalBid",
      "inputs": [],
      "outputs": [
        {
          "name": "",
          "type": "uint256",
          "internalType": "uint256"
        }
      ],
      "stateMutability": "view"
    },
    {
      "type": "function",
      "name": "nftContract",
      "inputs": [],
      "outputs": [
        {
          "name": "",
          "type": "address",
          "internalType": "address"
        }
      ],
      "stateMutability": "view"
    },
    {
      "type": "function",
      "name": "onchainCallback",
      "inputs": [],
      "outputs": [],
      "stateMutability": "nonpayable"
    },
    {
      "type": "function",
      "name": "placeBid",
      "inputs": [],
      "outputs": [
        {
          "name": "",
          "type": "bytes",
          "internalType": "bytes"
        }
      ],
      "stateMutability": "nonpayable"
    },
    {
      "type": "function",
      "name": "placeBidCallback",
      "inputs": [
        {
          "name": "owner",
          "type": "address",
          "internalType": "address"
        },
        {
          "name": "returnAddress",
          "type": "bytes16",
          "internalType": "Suave.DataId"
        }
      ],
      "outputs": [],
      "stateMutability": "nonpayable"
    },
    {
      "type": "function",
      "name": "printBalance",
      "inputs": [
        {
          "name": "account",
          "type": "address",
          "internalType": "address"
        },
        {
          "name": "chainId",
          "type": "uint256",
          "internalType": "uint256"
        }
      ],
      "outputs": [
        {
          "name": "",
          "type": "bytes",
          "internalType": "bytes"
        }
      ],
      "stateMutability": "nonpayable"
    },
    {
      "type": "function",
      "name": "printBalance",
      "inputs": [
        {
          "name": "account",
          "type": "address",
          "internalType": "address"
        }
      ],
      "outputs": [
        {
          "name": "",
          "type": "bytes",
          "internalType": "bytes"
        }
      ],
      "stateMutability": "nonpayable"
    },
    {
      "type": "function",
      "name": "printERC20Balance",
      "inputs": [
        {
          "name": "coinAddr",
          "type": "address",
          "internalType": "address"
        },
        {
          "name": "account",
          "type": "address",
          "internalType": "address"
        }
      ],
      "outputs": [
        {
          "name": "",
          "type": "bytes",
          "internalType": "bytes"
        }
      ],
      "stateMutability": "nonpayable"
    },
    {
      "type": "function",
      "name": "printERC20Balance",
      "inputs": [
        {
          "name": "coinAddr",
          "type": "address",
          "internalType": "address"
        },
        {
          "name": "account",
          "type": "address",
          "internalType": "address"
        },
        {
          "name": "chainId",
          "type": "uint256",
          "internalType": "uint256"
        }
      ],
      "outputs": [
        {
          "name": "",
          "type": "bytes",
          "internalType": "bytes"
        }
      ],
      "stateMutability": "nonpayable"
    },
    {
      "type": "function",
      "name": "printInfo",
      "inputs": [],
      "outputs": [
        {
          "name": "",
          "type": "bytes",
          "internalType": "bytes"
        }
      ],
      "stateMutability": "nonpayable"
    },
    {
      "type": "function",
      "name": "printNonce",
      "inputs": [
        {
          "name": "account",
          "type": "address",
          "internalType": "address"
        },
        {
          "name": "chainId",
          "type": "uint256",
          "internalType": "uint256"
        }
      ],
      "outputs": [
        {
          "name": "",
          "type": "bytes",
          "internalType": "bytes"
        }
      ],
      "stateMutability": "nonpayable"
    },
    {
      "type": "function",
      "name": "printNonce",
      "inputs": [
        {
          "name": "account",
          "type": "address",
          "internalType": "address"
        }
      ],
      "outputs": [
        {
          "name": "",
          "type": "bytes",
          "internalType": "bytes"
        }
      ],
      "stateMutability": "nonpayable"
    },
    {
      "type": "function",
      "name": "printRPCEndpoint",
      "inputs": [
        {
          "name": "chainId",
          "type": "uint256",
          "internalType": "uint256"
        }
      ],
      "outputs": [
        {
          "name": "",
          "type": "bytes",
          "internalType": "bytes"
        }
      ],
      "stateMutability": "nonpayable"
    },
    {
      "type": "function",
      "name": "reclaimBid",
      "inputs": [],
      "outputs": [
        {
          "name": "",
          "type": "bytes",
          "internalType": "bytes"
        }
      ],
      "stateMutability": "nonpayable"
    },
    {
      "type": "function",
      "name": "registerRPCOffchain",
      "inputs": [
        {
          "name": "chainId",
          "type": "uint256",
          "internalType": "uint256"
        }
      ],
      "outputs": [
        {
          "name": "",
          "type": "bytes",
          "internalType": "bytes"
        }
      ],
      "stateMutability": "nonpayable"
    },
    {
      "type": "function",
      "name": "relayTransaction",
      "inputs": [
        {
          "name": "rlpEncodedTxn",
          "type": "bytes",
          "internalType": "bytes"
        }
      ],
      "outputs": [],
      "stateMutability": "nonpayable"
    },
    {
      "type": "function",
      "name": "revealBidders",
      "inputs": [],
      "outputs": [
        {
          "name": "",
          "type": "bytes",
          "internalType": "bytes"
        }
      ],
      "stateMutability": "nonpayable"
    },
    {
      "type": "function",
      "name": "startAuction",
      "inputs": [],
      "outputs": [
        {
          "name": "",
          "type": "bytes",
          "internalType": "bytes"
        }
      ],
      "stateMutability": "nonpayable"
    },
    {
      "type": "function",
      "name": "startAuctionCallback",
      "inputs": [],
      "outputs": [],
      "stateMutability": "nonpayable"
    },
    {
      "type": "function",
      "name": "tokenId",
      "inputs": [],
      "outputs": [
        {
          "name": "",
          "type": "uint256",
          "internalType": "uint256"
        }
      ],
      "stateMutability": "view"
    },
    {
      "type": "function",
      "name": "updatePrivateKeyCallback",
      "inputs": [
        {
          "name": "owner",
          "type": "address",
          "internalType": "address"
        },
        {
          "name": "keyRecord",
          "type": "bytes16",
          "internalType": "Suave.DataId"
        }
      ],
      "outputs": [],
      "stateMutability": "nonpayable"
    },
    {
      "type": "function",
      "name": "updateRPCCallback",
      "inputs": [
        {
          "name": "chainId",
          "type": "uint256",
          "internalType": "uint256"
        },
        {
          "name": "_rpcRecord",
          "type": "bytes16",
          "internalType": "Suave.DataId"
        }
      ],
      "outputs": [],
      "stateMutability": "nonpayable"
    },
    {
      "type": "event",
      "name": "AuctionEndedAmbigious",
      "inputs": [
        {
          "name": "numberMaxBidders",
          "type": "uint256",
          "indexed": false,
          "internalType": "uint256"
        },
        {
          "name": "bidAmount",
          "type": "uint256",
          "indexed": false,
          "internalType": "uint256"
        }
      ],
      "anonymous": false
    },
    {
      "type": "event",
      "name": "AuctionInfo",
      "inputs": [
        {
          "name": "auctioneerL1",
          "type": "address",
          "indexed": false,
          "internalType": "address"
        },
        {
          "name": "auctioneerSUAVE",
          "type": "address",
          "indexed": false,
          "internalType": "address"
        },
        {
          "name": "nftHoldingAddress",
          "type": "address",
          "indexed": false,
          "internalType": "address"
        },
        {
          "name": "nftContract",
          "type": "address",
          "indexed": false,
          "internalType": "address"
        },
        {
          "name": "tokenId",
          "type": "uint256",
          "indexed": false,
          "internalType": "uint256"
        },
        {
          "name": "auctionTimeSpan",
          "type": "uint256",
          "indexed": false,
          "internalType": "uint256"
        },
        {
          "name": "auctionEndTime",
          "type": "uint256",
          "indexed": false,
          "internalType": "uint256"
        },
        {
          "name": "minimalBid",
          "type": "uint256",
          "indexed": false,
          "internalType": "uint256"
        },
        {
          "name": "auctionHasStarted",
          "type": "bool",
          "indexed": false,
          "internalType": "bool"
        }
      ],
      "anonymous": false
    },
    {
      "type": "event",
      "name": "AuctionOpened",
      "inputs": [
        {
          "name": "contractAddr",
          "type": "address",
          "indexed": false,
          "internalType": "address"
        },
        {
          "name": "nftContractAddress",
          "type": "address",
          "indexed": false,
          "internalType": "address"
        },
        {
          "name": "nftTokenId",
          "type": "uint256",
          "indexed": false,
          "internalType": "uint256"
        },
        {
          "name": "endTimestamp",
          "type": "uint256",
          "indexed": false,
          "internalType": "uint256"
        },
        {
          "name": "minimalBiddingAmount",
          "type": "uint256",
          "indexed": false,
          "internalType": "uint256"
        }
      ],
      "anonymous": false
    },
    {
      "type": "event",
      "name": "Balance",
      "inputs": [
        {
          "name": "owner",
          "type": "address",
          "indexed": false,
          "internalType": "address"
        },
        {
          "name": "value",
          "type": "uint256",
          "indexed": false,
          "internalType": "uint256"
        }
      ],
      "anonymous": false
    },
    {
      "type": "event",
      "name": "ERC20Balance",
      "inputs": [
        {
          "name": "coinAddr",
          "type": "address",
          "indexed": false,
          "internalType": "address"
        },
        {
          "name": "owner",
          "type": "address",
          "indexed": false,
          "internalType": "address"
        },
        {
          "name": "value",
          "type": "uint256",
          "indexed": false,
          "internalType": "uint256"
        }
      ],
      "anonymous": false
    },
    {
      "type": "event",
      "name": "EncBiddingAddress",
      "inputs": [
        {
          "name": "owner",
          "type": "address",
          "indexed": false,
          "internalType": "address"
        },
        {
          "name": "encryptedL1Address",
          "type": "string",
          "indexed": false,
          "internalType": "string"
        }
      ],
      "anonymous": false
    },
    {
      "type": "event",
      "name": "FundsTooLessToPayout",
      "inputs": [
        {
          "name": "addr",
          "type": "address",
          "indexed": false,
          "internalType": "address"
        }
      ],
      "anonymous": false
    },
    {
      "type": "event",
      "name": "HttpResponse",
      "inputs": [
        {
          "name": "response",
          "type": "string",
          "indexed": false,
          "internalType": "string"
        }
      ],
      "anonymous": false
    },
    {
      "type": "event",
      "name": "NoBidder",
      "inputs": [],
      "anonymous": false
    },
    {
      "type": "event",
      "name": "NonceCounter",
      "inputs": [
        {
          "name": "owner",
          "type": "address",
          "indexed": false,
          "internalType": "address"
        },
        {
          "name": "value",
          "type": "uint256",
          "indexed": false,
          "internalType": "uint256"
        }
      ],
      "anonymous": false
    },
    {
      "type": "event",
      "name": "RPCEndpoint",
      "inputs": [
        {
          "name": "chainId",
          "type": "uint256",
          "indexed": false,
          "internalType": "uint256"
        },
        {
          "name": "endpointURL",
          "type": "string",
          "indexed": false,
          "internalType": "string"
        }
      ],
      "anonymous": false
    },
    {
      "type": "event",
      "name": "RPCEndpointUpdated",
      "inputs": [
        {
          "name": "chainId",
          "type": "uint256",
          "indexed": false,
          "internalType": "uint256"
        }
      ],
      "anonymous": false
    },
    {
      "type": "event",
      "name": "RevealBiddingAddress",
      "inputs": [
        {
          "name": "bidder",
          "type": "address",
          "indexed": false,
          "internalType": "address"
        }
      ],
      "anonymous": false
    },
    {
      "type": "event",
      "name": "TxnSignature",
      "inputs": [
        {
          "name": "r",
          "type": "bytes32",
          "indexed": false,
          "internalType": "bytes32"
        },
        {
          "name": "s",
          "type": "bytes32",
          "indexed": false,
          "internalType": "bytes32"
        }
      ],
      "anonymous": false
    },
    {
      "type": "event",
      "name": "WinnerAddress",
      "inputs": [
        {
          "name": "winner",
          "type": "address",
          "indexed": false,
          "internalType": "address"
        },
        {
          "name": "amount",
          "type": "uint256",
          "indexed": false,
          "internalType": "uint256"
        }
      ],
      "anonymous": false
    },
    {
      "type": "error",
      "name": "PeekerReverted",
      "inputs": [
        {
          "name": "",
          "type": "address",
          "internalType": "address"
        },
        {
          "name": "",
          "type": "bytes",
          "internalType": "bytes"
        }
      ]
    }
  ],
  "bytecode": {
    "object": "0x600280546001600160a01b031916733a5611e9a0dcb0d7590d408d63c9f691e669e29d1790556008805460ff1916905560c060405260036080819052624b455960e81b60a09081526200005691600991906200015e565b506040805180820190915260048082526320a2222960e11b60209092019182526200008491600a916200015e565b506000600e556040805180820190915260038082526252504360e81b6020909201918252620000b6916010916200015e565b50348015620000c457600080fd5b506040516200bbc83803806200bbc8833981016040819052620000e79162000221565b60018054336001600160a01b0319918216179091556000805482166001600160a01b03888116919091179091556003805490921690861617905560048390556200013382601862000274565b6200014090603c62000274565b6200014d90603c62000274565b60055560075550620002de92505050565b8280546200016c90620002a2565b90600052602060002090601f016020900481019282620001905760008555620001db565b82601f10620001ab57805160ff1916838001178555620001db565b82800160010185558215620001db579182015b82811115620001db578251825591602001919060010190620001be565b50620001e9929150620001ed565b5090565b5b80821115620001e95760008155600101620001ee565b80516001600160a01b03811681146200021c57600080fd5b919050565b600080600080600060a086880312156200023a57600080fd5b620002458662000204565b9450620002556020870162000204565b6040870151606088015160809098015196999198509695945092505050565b60008160001904831182151516156200029d57634e487b7160e01b600052601160045260246000fd5b500290565b600181811c90821680620002b757607f821691505b602082108103620002d857634e487b7160e01b600052602260045260246000fd5b50919050565b61b8da80620002ee6000396000f3fe60806040523480156200001157600080fd5b50600436106200023d5760003560e01c80638111fe79116200013d578063e158068411620000bb578063ecfc7ecc1162000086578063ecfc7ecc14620004a3578063efdd74c314620004ad578063f31cc01814620004c4578063fe67a54b14620004db578063ff0c034614620004e557600080fd5b8063e15806841462000461578063eae047471462000478578063eb1292ea1462000482578063ece3e1bc146200049957600080fd5b8063ce6d3cdb1162000108578063ce6d3cdb146200040b578063d56d229d1462000422578063d5c79af21462000436578063d864134b1462000440578063dd242fad146200044a57600080fd5b80638111fe7914620003c95780639c33da8c14620003e0578063b6ccab8514620003ea578063ce093cf7146200040157600080fd5b80634a37057311620001cb578063564e41101162000196578063564e4110146200036857806361e2f02f146200037f57806365843c12146200039e5780636b64c76914620003a85780636e4bb38c14620003b257600080fd5b80634a37057314620003335780634a525054146200033d5780634abc157c14620003475780634b449cba146200035e57600080fd5b806328b5471b116200020c57806328b5471b14620002d0578063297268ad146200031557806336021534146200031f5780634148f1f8146200032957600080fd5b806304ad5c2914620002425780630e258b49146200027157806317d70f7c146200029e5780631999cfd814620002b7575b600080fd5b62000259620002533660046200618c565b620004f9565b6040516200026891906200622b565b60405180910390f35b60015462000285906001600160a01b031681565b6040516001600160a01b03909116815260200162000268565b620002a860045481565b60405190815260200162000268565b620002ce620002c836600462006257565b62000514565b005b620002ce620002e136600462006257565b6001600160a01b03919091166000908152600c6020526040902080546001600160801b03191660809290921c919091179055565b620002ce620005e9565b62000259620006b1565b6200025962000a81565b6200025962000b4c565b620002ce62000be2565b620002ce620003583660046200628a565b62000c26565b620002a860065481565b6200025962000379366004620062b2565b62000c92565b6008546200038d9060ff1681565b604051901515815260200162000268565b620002a860075481565b6200025962000d59565b62000259620003c3366004620063e7565b62000df6565b62000259620003da36600462006444565b62000f65565b6200025962001072565b62000259620003fb366004620062b2565b62001081565b620002a860055481565b620002596200041c36600462006444565b62001108565b60035462000285906001600160a01b031681565b62000259620011d9565b620002a8600e5481565b620002ce6200045b3660046200645e565b620013e6565b6200025962000472366004620064ab565b62001489565b6200025962001550565b6200025962000493366004620064f1565b62001636565b6200025962001647565b6200025962001656565b62000259620004be366004620064f1565b62001a6d565b62000285620004d536600462006511565b62001a7e565b6200025962001cbc565b60005462000285906001600160a01b031681565b60606200050b838362aa36a762001489565b90505b92915050565b620005566000368080601f01602080910402602001604051908101604052809392919081815260200183838082843760009201919091525062001f0a92505050565b6001600160a01b0382166000908152600b6020908152604080832080546001600160801b031916608086901c179055600d9091528120805460ff19166001179055600e80548492600f9290919082620005af836200655f565b91905055815260200190815260200160002060006101000a8154816001600160a01b0302191690836001600160a01b031602179055505050565b6200062b6000368080601f01602080910402602001604051908101604052809392919081815260200183838082843760009201919091525062001f0a92505050565b6008805460ff191660011790556005546200064790426200657b565b6006819055600354600454600754604080513081526001600160a01b039094166020850152830191909152606082019290925260808101919091527f2c979327dd777fa19be3cb8535b745ce42fd03d20d828d866cc8263780cca15a9060a00160405180910390a1565b336000908152600d602052604081205460609160ff9091161515900362000939576000620006e0600062002068565b60408051600180825281830190925291925082916000916020808301908036833701905050905030816000815181106200071e576200071e62006596565b60200260200101906001600160a01b031690816001600160a01b0316815250506000620007e160008384600980546200075790620065ac565b80601f01602080910402602001604051908101604052809291908181526020018280546200078590620065ac565b8015620007d65780601f10620007aa57610100808354040283529160200191620007d6565b820191906000526020600020905b815481529060010190602001808311620007b857829003601f168201915b50505050506200213a565b905062000886816000015160098054620007fb90620065ac565b80601f01602080910402602001604051908101604052809291908181526020018280546200082990620065ac565b80156200087a5780601f106200084e576101008083540402835291602001916200087a565b820191906000526020600020905b8154815290600101906020018083116200085c57829003601f168201915b50505050508562002244565b60006200089385620022fa565b90507f8b82170850b35c03b85bedda1bd37a66d415d250f540bbf69ba185bc9fbc267233620008cd620008c7338562002379565b620023ac565b604051620008dd929190620065e2565b60405180910390a15051604080513360248201526001600160801b031990921660448084019190915281518084039091018152606490920190526020810180516001600160e01b031663033339fb60e31b179052949350505050565b336000908152600b602052604081205460098054620009ec9260801b91906200096290620065ac565b80601f01602080910402602001604051908101604052809291908181526020018280546200099090620065ac565b8015620009e15780601f10620009b557610100808354040283529160200191620009e1565b820191906000526020600020905b815481529060010190602001808311620009c357829003601f168201915b5050505050620025f0565b9050600062000a05620009ff83620026a6565b620022fa565b90507f8b82170850b35c03b85bedda1bd37a66d415d250f540bbf69ba185bc9fbc26723362000a39620008c7338562002379565b60405162000a49929190620065e2565b60405180910390a150506040805160048152602481019091526020810180516001600160e01b0316631294941560e21b179052919050565b600054600154600254600354600454600554600654600754600854604080516001600160a01b039a8b168152988a1660208a01529689168888015297909416606080880191909152608087019390935260a086019190915260c085015260e084019190915260ff9093161515610100830152517f94c5b2eacfefd412f6eab0de6ccc46730b75fd861a97c885ef6be3d9f9022dab918190036101200190a1506040805160048152602481019091526020810180516001600160e01b0316631294941560e21b17905290565b6010805462000b5b90620065ac565b80601f016020809104026020016040519081016040528092919081815260200182805462000b8990620065ac565b801562000bda5780601f1062000bae5761010080835404028352916020019162000bda565b820191906000526020600020905b81548152906001019060200180831162000bbc57829003601f168201915b505050505081565b62000c246000368080601f01602080910402602001604051908101604052809392919081815260200183838082843760009201919091525062001f0a92505050565b565b600082815260116020908152604080832080546001600160801b031916608086901c1790556012825291829020805460ff1916600117905590518381527f75f21ca04fec38f3a9c5d47e1e2a6f75c114170867b1335a94e53d128992902c910160405180910390a15050565b600081815260126020526040902054606090829060ff1662000cd15760405162461bcd60e51b815260040162000cc89062006608565b60405180910390fd5b600062000cdf858562002763565b604080516001600160a01b0388168152602081018390529192507f3b24b105d571ada2c5ff343f2d44669f73eb6919590174de6e8146ca28159ab791015b60405180910390a1506040805160048152602481019091526020810180516001600160e01b0316631294941560e21b17905291505b5092915050565b6001546060906001600160a01b0316331462000d7457600080fd5b60085460ff161562000dc95760405162461bcd60e51b815260206004820152601b60248201527f41756374696f6e2068617320616c726561647920737461727465640000000000604482015260640162000cc8565b506040805160048152602481019091526020810180516001600160e01b031663297268ad60e01b17905290565b600081815260126020526040902054606090829060ff1662000e2c5760405162461bcd60e51b815260040162000cc89062006608565b604080516001808252818301909252600091816020015b606081526020019060019003908162000e435790505090506040518060400160405280601e81526020016000805160206200b8858339815191528152508160008151811062000e965762000e9662006596565b602002602001018190525060006040518060c0016040528062000eec62000ee6601160008a815260200190815260200160002060009054906101000a900460801b601080546200096290620065ac565b620026a6565b8152602001604051806040016040528060048152602001631413d4d560e21b8152508152602001838152602001878760405160200162000f2e92919062006654565b60408051601f1981840301815291815290825260006020830152611b58910152905062000f5b8162002876565b9695505050505050565b6060600062000f736200292a565b6040805160018082528183019092529192506000919060208083019080368337019050509050308160008151811062000fb05762000fb062006596565b60200260200101906001600160a01b031690816001600160a01b031681525050600062001005600083846040518060400160405280600c81526020016b1c9c18d7d95b991c1bda5b9d60a21b8152506200213a565b90506200101f816000015160108054620007fb90620065ac565b516040805160248101969096526001600160801b031990911660448087019190915281518087039091018152606490950190525050506020810180516001600160e01b03166312af055f60e21b17905290565b600a805462000b5b90620065ac565b600081815260126020526040902054606090829060ff16620010b75760405162461bcd60e51b815260040162000cc89062006608565b6000620010c5858562002966565b604080516001600160a01b0388168152602081018390529192507f134e340554ff8a7d64280a2a28b982df554e2595e5bf45cd39368f31099172a6910162000d1d565b600081815260126020526040902054606090829060ff166200113e5760405162461bcd60e51b815260040162000cc89062006608565b600083815260116020526040902054601080547f8ade15e69c108c4dfe55277d2959a4d55a0a0b68fc8bf37c19b3410fb96efc539286926200118f9262000ee69260801b91906200096290620065ac565b6040516200119f929190620066f4565b60405180910390a16040805160048152602481019091526020810180516001600160e01b0316631294941560e21b17905291505b50919050565b60085460609060ff16620012015760405162461bcd60e51b815260040162000cc8906200670f565b6006544211156200124c5760405162461bcd60e51b815260206004820152601460248201527320bab1ba34b7b7103a34b6b29034b99037bb32b960611b604482015260640162000cc8565b336000818152600d602052604090205460ff166200127e5760405162461bcd60e51b815260040162000cc89062006746565b336000908152600c6020526040812054600a8054620012a79260801b91906200096290620065ac565b620012b29062006790565b336000908152600b60205260408120546009805460609490941c94509192620012e89260809290921b91906200096290620065ac565b90506000620012fb620009ff83620026a6565b905060006200130a8262002a38565b905060006200131862002a49565b62001325906002620067c8565b90506200133581615208620067c8565b82106200137e57620013773386836200135181615208620067c8565b6200135d9087620067ea565b6040518060200160405280600081525062aa36a762002a59565b50620013b2565b6040513381527fd692b103ef89b808053c5972eee16682770a6e1aa473b5ce8d8b4d2b30807e609060200160405180910390a15b50506040805160048152602481019091526020810180516001600160e01b0316631294941560e21b17905294505050505090565b6000620013f38262002cd1565b60c081015160009081526012602052604090205490915060ff166200142c5760405162461bcd60e51b815260040162000cc89062006608565b60c081015160009081526011602052604081205460108054620014609262000ee69260809190911b916200096290620065ac565b905060006200147582858560c0015162002f1f565b9050620014828162002876565b5050505050565b600081815260126020526040902054606090829060ff16620014bf5760405162461bcd60e51b815260040162000cc89062006608565b6000620014ce8686866200308e565b604080516001600160a01b03808a168252881660208201529081018290529091507f5b4d96e9dd904741ef64e77c434f173074692a9347f17f49e183c334f2cfd1f59060600160405180910390a1506040805160048152602481019091526020810180516001600160e01b0316631294941560e21b1790529150509392505050565b606060005b600e5481101562001608576000818152600f60209081526040808320546001600160a01b03168352600b909152812054600980546200159e9260801b91906200096290620065ac565b90506000620015b1620009ff83620026a6565b6040516001600160a01b03821681529091507f45cebfb0355f4c3506802d84e454c517d169fcef2fb9ac4c245a69159950eb9d9060200160405180910390a150508080620015ff906200655f565b91505062001555565b50506040805160048152602481019091526020810180516001600160e01b0316631294941560e21b17905290565b60606200050e8262aa36a762001081565b6009805462000b5b90620065ac565b60085460609060ff166200167e5760405162461bcd60e51b815260040162000cc8906200670f565b600654421115620016c95760405162461bcd60e51b815260206004820152601460248201527320bab1ba34b7b7103a34b6b29034b99037bb32b960611b604482015260640162000cc8565b336000818152600d602052604090205460ff16620016fb5760405162461bcd60e51b815260040162000cc89062006746565b62001705620031ad565b620017535760405162461bcd60e51b815260206004820152601d60248201527f6d7573742062652063616c6c656420636f6e666964656e7469616c6c79000000604482015260640162000cc8565b60006200175f6200292a565b905060006200176e8262002cd1565b336000908152600b60205260408120546009805493945091926200179f9260809290921b91906200096290620065ac565b90506000620017b2620009ff83620026a6565b9050806001600160a01b031683600001516001600160a01b031614620018115760405162461bcd60e51b81526020600482015260136024820152722ab735b737bbb7103a379030b2323932b9b99760691b604482015260640162000cc8565b60c083015160009081526012602052604090205460ff16620018765760405162461bcd60e51b815260206004820152601f60248201527f426c6f636b636861696e206e6f7420287965742920737570706f727465642e00604482015260640162000cc8565b60075483606001511015620018ce5760405162461bcd60e51b815260206004820152601c60248201527f56616c7565206c657373207468616e206d696e696d616c206269642e00000000604482015260640162000cc8565b620018d984620013e6565b60408051600180825281830190925260009160208083019080368337019050509050308160008151811062001912576200191262006596565b60200260200101906001600160a01b031690816001600160a01b03168152505060006200194b60008384600a80546200075790620065ac565b905062001a1d8160000151600a80546200196590620065ac565b80601f01602080910402602001604051908101604052809291908181526020018280546200199390620065ac565b8015620019e45780601f10620019b857610100808354040283529160200191620019e4565b820191906000526020600020905b815481529060010190602001808311620019c657829003601f168201915b50508a51604080516001600160a01b03909216602083015201925062001a08915050565b60405160208183030381529060405262002244565b51604080516001600160801b031990921660248084019190915281518084039091018152604490920190526020810180516001600160e01b03166328b5471b60e01b179052979650505050505050565b60606200050e8262aa36a762000c92565b600081815260126020526040812054829060ff1662001ab15760405162461bcd60e51b815260040162000cc89062006608565b604080516001808252818301909252600091816020015b606081526020019060019003908162001ac85790505090506040518060400160405280601e81526020016000805160206200b8858339815191528152508160008151811062001b1b5762001b1b62006596565b6020026020010181905250600062001b6062000ee66011600088815260200190815260200160002060009054906101000a900460801b601080546200096290620065ac565b6040516001600160601b031960608a901b16602082015290915060009062001b9a90603401604051602081830303815290604052620023ac565b60408051602081018a90520160408051601f198184030181529082905262001bc6929160200162006804565b60408051601f1981840301815260c08301909152915060009062001c63908062001bf5868660e0840162006881565b60405160208183030381529060405281526020016040518060400160405280600381526020016211d15560ea1b8152508152602001868152602001604051806020016040528060008152508152602001600015158152602001611b586001600160401b031681525062002876565b905062001caf62001ca962001ca362001c9b84604051806040016040528060068152602001656f776e65727360d01b81525062003233565b6000620032ee565b62003334565b62003345565b9998505050505050505050565b60085460609060ff1662001ce45760405162461bcd60e51b815260040162000cc8906200670f565b600654421162001d335760405162461bcd60e51b8152602060048201526019602482015278105d58dd1a5bdb881d1a5b59481b9bdd081bdd995c881e595d603a1b604482015260640162000cc8565b600e546001546000906001600160a01b031681805b600e5481101562001e13576000818152600f60209081526040808320546001600160a01b03168352600b9091528120546009805462001d919260801b91906200096290620065ac565b9050600062001da4620009ff83620026a6565b9050600062001db38262002a38565b9050600754811062001dfa578462001dcb816200655f565b95505086810362001de6578762001de2816200655f565b9850505b8681111562001dfa57600197508096508195505b505050808062001e0a906200655f565b91505062001d48565b508060000362001e4c576040517f6a7e024745b98e5599d5c2489727e69a73acf26521d5f186212f8fc1059e1bea90600090a162001ed8565b600184111562001e955760408051858152602081018590527f0e9acdc46560b652db1c511cc3a2b21f1b5392bfc3966c60f60d5c9d0a518b91910160405180910390a162001ed8565b604080516001600160a01b0384168152602081018590527f6c697ec02807065f22b7d0c97c8650256a1ba65ccdc72d65d73b54a36d83f642910160405180910390a15b50506040805160048152602481019091526020810180516001600160e01b0316631294941560e21b1790529250505090565b600062001f1782620033cc565b90508151810362001f26575050565b600081835162001f379190620067ea565b90506000816001600160401b0381111562001f565762001f56620062e1565b6040519080825280601f01601f19166020018201604052801562001f81576020820181803683370190505b50905060005b8281101562001ffc578462001f9d82866200657b565b8151811062001fb05762001fb062006596565b602001015160f81c60f81b82828151811062001fd05762001fd062006596565b60200101906001600160f81b031916908160001a9053508062001ff3816200655f565b91505062001f87565b5060008180602001905181019062002015919062006926565b905060005b815181101562002060576200204b8282815181106200203d576200203d62006596565b60200260200101516200354c565b8062002057816200655f565b9150506200201a565b505050505050565b606060008063532000036001600160a01b0316846040516020016200208e919062006ad1565b60408051601f1981840301815290829052620020aa9162006ae1565b6000604051808303816000865af19150503d8060008114620020e9576040519150601f19603f3d011682016040523d82523d6000602084013e620020ee565b606091505b5091509150816200211c576353200003816040516375fff46760e01b815260040162000cc8929190620065e2565b8080602001905181019062002132919062006aff565b949350505050565b6040805160c0810182526000808252602082018190529181019190915260608082018190526080820181905260a082015260008063420300006001600160a01b03168787878760405160200162002195949392919062006b7d565b60408051601f1981840301815290829052620021b19162006ae1565b6000604051808303816000865af19150503d8060008114620021f0576040519150601f19603f3d011682016040523d82523d6000602084013e620021f5565b606091505b50915091508162002223576342030000816040516375fff46760e01b815260040162000cc8929190620065e2565b8080602001905181019062002239919062006c68565b979650505050505050565b60008063420200006001600160a01b03168585856040516020016200226c9392919062006d63565b60408051601f1981840301815290829052620022889162006ae1565b6000604051808303816000865af19150503d8060008114620022c7576040519150601f19603f3d011682016040523d82523d6000602084013e620022cc565b606091505b50915091508162001482576342020000816040516375fff46760e01b815260040162000cc8929190620065e2565b600080620023088362003761565b905080516020146200235d5760405162461bcd60e51b815260206004820152601a60248201527f496e76616c69642070726976617465206b6579206c656e677468000000000000604482015260640162000cc8565b620023726200236c8262006d9c565b620038a3565b9392505050565b604051606082811b6001600160601b0319166020830152906034015b604051602081830303815290604052905092915050565b60408051808201909152601081526f181899199a1a9b1b9c1cb0b131b232b360811b6020820152815160609190600090620023e9906002620067c8565b620023f69060026200657b565b6001600160401b03811115620024105762002410620062e1565b6040519080825280601f01601f1916602001820160405280156200243b576020820181803683370190505b509050600360fc1b8160008151811062002459576200245962006596565b60200101906001600160f81b031916908160001a905350600f60fb1b816001815181106200248b576200248b62006596565b60200101906001600160f81b031916908160001a90535060005b8451811015620025e857826004868381518110620024c757620024c762006596565b016020015182516001600160f81b031990911690911c60f81c908110620024f257620024f262006596565b01602001516001600160f81b031916826200250f836002620067c8565b6200251c9060026200657b565b815181106200252f576200252f62006596565b60200101906001600160f81b031916908160001a905350828582815181106200255c576200255c62006596565b602091010151815160f89190911c600f169081106200257f576200257f62006596565b01602001516001600160f81b031916826200259c836002620067c8565b620025a99060036200657b565b81518110620025bc57620025bc62006596565b60200101906001600160f81b031916908160001a90535080620025df816200655f565b915050620024a5565b509392505050565b606060008063420200016001600160a01b031685856040516020016200261892919062006dc1565b60408051601f1981840301815290829052620026349162006ae1565b6000604051808303816000865af19150503d806000811462002673576040519150601f19603f3d011682016040523d82523d6000602084013e62002678565b606091505b50915091508162002132576342020001816040516375fff46760e01b815260040162000cc8929190620065e2565b80516060906000816001600160401b03811115620026c857620026c8620062e1565b6040519080825280601f01601f191660200182016040528015620026f3576020820181803683370190505b50905060005b82811015620025e85784818151811062002717576200271762006596565b602001015160f81c60f81b82828151811062002737576200273762006596565b60200101906001600160f81b031916908160001a905350806200275a816200655f565b915050620026f9565b600081815260126020526040812054829060ff16620027965760405162461bcd60e51b815260040162000cc89062006608565b60008381526011602052604081205460108054620027c59262000ee69260809190911b916200096290620065ac565b9050600081604051620027d890620060d7565b620027e491906200622b565b604051809103906000f08015801562002801573d6000803e3d6000fd5b50604051633857496960e11b81526001600160a01b038881166004830152919250908216906370ae92d2906024015b6020604051808303816000875af115801562002850573d6000803e3d6000fd5b505050506040513d601f19601f8201168201806040525081019062000f5b919062006de6565b606060008063432000026001600160a01b0316846040516020016200289c919062006e00565b60408051601f1981840301815290829052620028b89162006ae1565b6000604051808303816000865af19150503d8060008114620028f7576040519150601f19603f3d011682016040523d82523d6000602084013e620028fc565b606091505b5091509150816200211c576343200002816040516375fff46760e01b815260040162000cc8929190620065e2565b60606200296160405180604001604052806012815260200171636f6e666964656e7469616c496e7075747360701b815250620038e4565b905090565b600081815260126020526040812054829060ff16620029995760405162461bcd60e51b815260040162000cc89062006608565b60008381526011602052604081205460108054620029c89262000ee69260809190911b916200096290620065ac565b9050600081604051620029db90620060d7565b620029e791906200622b565b604051809103906000f08015801562002a04573d6000803e3d6000fd5b5060405163e3d670d760e01b81526001600160a01b0388811660048301529192509082169063e3d670d79060240162002830565b60006200050e826212d59162002966565b60006200296162aa36a762003998565b60085460609060ff1662002a815760405162461bcd60e51b815260040162000cc8906200670f565b600654421162002ad05760405162461bcd60e51b8152602060048201526019602482015278105d58dd1a5bdb881d1a5b59481b9bdd081bdd995c881e595d603a1b604482015260640162000cc8565b600082815260126020526040902054829060ff1662002b035760405162461bcd60e51b815260040162000cc89062006608565b6001600160a01b0388166000908152600d6020526040902054889060ff1662002b405760405162461bcd60e51b815260040162000cc89062006746565b6001600160a01b0389166000908152600b60205260408120546009805462002b729260801b91906200096290620065ac565b9050600062002b85620009ff83620026a6565b9050600062002b95828862002763565b905060006040518060e001604052808d6001600160a01b0316815260200161520881526020018c81526020018b81526020018381526020018a8152602001898152509050600062002be7828662003b86565b90507f28a2e2a5c2315d907bc7072899ce62d772c98f261cf931d82943dd6e76e8db738160e0015182610100015160405162002c2d929190918252602082015260400190565b60405180910390a1600062002c428262003cb2565b60008b81526011602052604081205460108054939450919262002c739262000ee69260801b916200096290620065ac565b9050600062002c8482848e62002f1f565b905062002c918162002876565b50506040805160048152602481019091526020810180516001600160e01b0316631294941560e21b17905299505050505050505050509695505050505050565b62002cdb620060e5565b62002ce5620060e5565b600062002d2362002d1d8560408051808201825260008082526020918201528151808301909252825182529182019181019190915290565b62003f23565b9050805160091462002d6e5760405162461bcd60e51b815260206004820152601360248201527234b73b30b634b2103a3930b739b0b1ba34b7b760691b604482015260640162000cc8565b62002d968160008151811062002d885762002d8862006596565b602002602001015162004051565b6080830152805162002db8908290600190811062002d885762002d8862006596565b6040830152805162002dda908290600290811062002d885762002d8862006596565b6020830152805162002e0a908290600390811062002dfc5762002dfc62006596565b6020026020010151620040a3565b5160010362002e1d576000825262002e51565b62002e458160038151811062002e375762002e3762006596565b602002602001015162004121565b6001600160a01b031682525b62002e6b8160048151811062002d885762002d8862006596565b6060830152805162002e9b908290600590811062002e8d5762002e8d62006596565b60200260200101516200413e565b8260a0018190525062002ebd8160068151811062002d885762002d8862006596565b8261012001818152505062002eeb62002ee58260078151811062002e8d5762002e8d62006596565b620041c4565b8260e001818152505062002f1262002ee58260088151811062002e8d5762002e8d62006596565b6101008301525092915050565b62002f646040518060c001604052806060815260200160608152602001606081526020016060815260200160001515815260200160006001600160401b031681525090565b600082815260126020526040902054829060ff1662002f975760405162461bcd60e51b815260040162000cc89062006608565b604080516001808252818301909252600091816020015b606081526020019060019003908162002fae5790505090506040518060400160405280601e81526020016000805160206200b8858339815191528152508160008151811062003001576200300162006596565b60200260200101819052506040518060c00160405280878152602001604051806040016040528060048152602001631413d4d560e21b81525081526020018281526020016200305087620023ac565b866040516020016200306492919062006eed565b60408051808303601f1901815291815290825260006020830152611b589101529695505050505050565b600081815260126020526040812054829060ff16620030c15760405162461bcd60e51b815260040162000cc89062006608565b60008381526011602052604081205460108054620030f09262000ee69260809190911b916200096290620065ac565b905060008187604051620031049062006147565b6200311192919062006f8b565b604051809103906000f0801580156200312e573d6000803e3d6000fd5b506040516370a0823160e01b81526001600160a01b03888116600483015291925082918216906370a0823190602401602060405180830381865afa1580156200317b573d6000803e3d6000fd5b505050506040513d601f19601f82011682018060405250810190620031a1919062006de6565b98975050505050505050565b604051600090819081906342010000908281818181865af19150503d8060008114620031f6576040519150601f19603f3d011682016040523d82523d6000602084013e620031fb565b606091505b50915091508162003229576342010000816040516375fff46760e01b815260040162000cc8929190620065e2565b6020015192915050565b60408051602081019091526000815260006200324f846200422d565b905060006200327e82604051806040016040528060078152602001661132b93937b91160c91b81525062004248565b90506200328d81516007161590565b620032b8576200329d8162003334565b60405162461bcd60e51b815260040162000cc891906200622b565b620032e58285604051602001620032d0919062006fb7565b60405160208183030381529060405262004248565b95945050505050565b60408051600080825291819052906200330a845b6003620042b6565b90508260051b60208201015191506001600785511614815184101662000d52575060609392505050565b6060600062002372836000620042b6565b600081516001811160208085015160f01c17613078141660011b5b6001810190507403010a071000000b0104040208000c05090d060e0f6d03e4088843e41bac00000000000060ff83870151161c601f161a8360fc1c8115171583029250600181038460041b0193505081811062003360575080620011d35763101827966000526004601cfd5b6000805b8251811015620035465760408051808201909152600381526254354360e81b6020909101528251601560fa1b9084908390811062003412576200341262006596565b01602001516001600160f81b0319160362003531576001805b6040518060400160405280600381526020016254354360e81b81525051811015620034fd5784516200345e82856200657b565b101580620034d857506040518060400160405280600381526020016254354360e81b815250818151811062003497576200349762006596565b01602001516001600160f81b03191685620034b383866200657b565b81518110620034c657620034c662006596565b01602001516001600160f81b03191614155b15620034e85760009150620034fd565b80620034f4816200655f565b9150506200342b565b5080156200352f576040518060400160405280600381526020016254354360e81b81525051826200213291906200657b565b505b806200353d816200655f565b915050620033d0565b50505190565b604081015180516020830151516000036200356c578060208301a0505050565b826020015151600103620035ad576000836020015160008151811062003596576200359662006596565b60200260200101519050808260208501a150505050565b826020015151600203620036165760008360200151600081518110620035d757620035d762006596565b6020026020010151905060008460200151600181518110620035fd57620035fd62006596565b6020026020010151905080828460208701a25050505050565b826020015151600303620036a7576000836020015160008151811062003640576200364062006596565b602002602001015190506000846020015160018151811062003666576200366662006596565b60200260200101519050600085602001516002815181106200368c576200368c62006596565b602002602001015190508082848660208901a3505050505050565b8260200151516004036200375c5760008360200151600081518110620036d157620036d162006596565b6020026020010151905060008460200151600181518110620036f757620036f762006596565b60200260200101519050600085602001516002815181106200371d576200371d62006596565b602002602001015190506000866020015160038151811062003743576200374362006596565b60200260200101519050808284868860208b01a4505050505b505050565b80516060908290620037769060029062006ffd565b156200378157600080fd5b60006002825162003793919062007014565b6001600160401b03811115620037ad57620037ad620062e1565b6040519080825280601f01601f191660200182016040528015620037d8576020820181803683370190505b50905060005b60028351620037ee919062007014565b811015620025e857620038368362003808836002620067c8565b620038159060016200657b565b8151811062003828576200382862006596565b016020015160f81c62004b02565b620038488462003815846002620067c8565b620038559060106200702b565b62003861919062007057565b60f81b82828151811062003879576200387962006596565b60200101906001600160f81b031916908160001a9053506200389b816200655f565b9050620037de565b6000806000620038b38462004c1e565b6040805160208082019490945280820192909252805180830382018152606090920190528051910120949350505050565b606060008063533000036001600160a01b0316846040516020016200390a91906200622b565b60408051601f1981840301815290829052620039269162006ae1565b6000604051808303816000865af19150503d806000811462003965576040519150601f19603f3d011682016040523d82523d6000602084013e6200396a565b606091505b5091509150816200211c576353300003816040516375fff46760e01b815260040162000cc8929190620065e2565b600081815260126020526040812054829060ff16620039cb5760405162461bcd60e51b815260040162000cc89062006608565b60008381526011602052604081205460108054620039fa9262000ee69260809190911b916200096290620065ac565b60408051600180825281830190925291925060009190816020015b606081526020019060019003908162003a155790505090506040518060400160405280601e81526020016000805160206200b8858339815191528152508160008151811062003a685762003a6862006596565b6020026020010181905250600062003b466040518060c00160405280858152602001604051806040016040528060048152602001631413d4d560e21b81525081526020018481526020018860405160200162003b2091907f7b226a736f6e727063223a22322e30222c20226d6574686f64223a202265746881527f5f6761735072696365222c2022706172616d73223a205b5d2c20226964223a2060208201526040810191909152607d60f81b606082015260610190565b60408051601f1981840301815291815290825260006020830152611b5891015262002876565b905060006200223962001ca962003b8062001ca385604051806040016040528060068152602001651c995cdd5b1d60d21b81525062003233565b62004c81565b62003b90620060e5565b600062003b9d8462004d6e565b90506000818051906020012060405160200162003bbc91815260200190565b6040516020818303038152906040529050600062003bdd8260008762004f98565b905060008660c00151600262003bf491906200707f565b9050600080600062003c19856020810151604082015160609092015160001a92909190565b91945092509050600062003c3260ff85166023620070b1565b905062003c408582620070b1565b8b516001600160a01b03168a526020808d0151908b01526040808d0151908b01526060808d0151908b01526080808d0151908b015260a0808d0151908b015260c0808d0151908b01526001600160401b03166101208a01525060e0880191909152610100870152505050505092915050565b604080516009808252610140820190925260609160009190816020015b606081526020019060019003908162003ccf57905050905062003cf683608001516200507a565b8160008151811062003d0c5762003d0c62006596565b602002602001018190525062003d2683604001516200507a565b8160018151811062003d3c5762003d3c62006596565b602002602001018190525062003d5683602001516200507a565b8160028151811062003d6c5762003d6c62006596565b602090810291909101015282516001600160a01b031662003dc85762003da1604051806020016040528060008152506200508b565b8160038151811062003db75762003db762006596565b602002602001018190525062003df7565b825162003dd590620050ed565b8160038151811062003deb5762003deb62006596565b60200260200101819052505b62003e0683606001516200507a565b8160048151811062003e1c5762003e1c62006596565b602002602001018190525062003e368360a001516200508b565b8160058151811062003e4c5762003e4c62006596565b602002602001018190525062003e678361012001516200507a565b8160068151811062003e7d5762003e7d62006596565b602002602001018190525062003eb98360e0015160405160200162003ea491815260200190565b6040516020818303038152906040526200508b565b8160078151811062003ecf5762003ecf62006596565b602002602001018190525062003ef783610100015160405160200162003ea491815260200190565b8160088151811062003f0d5762003f0d62006596565b6020026020010181905250620023728162005113565b606062003f30826200515d565b62003f3a57600080fd5b600062003f47836200519a565b90506000816001600160401b0381111562003f665762003f66620062e1565b60405190808252806020026020018201604052801562003fad57816020015b604080518082019091526000808252602082015281526020019060019003908162003f855790505b509050600062003fc185602001516200522e565b856020015162003fd291906200657b565b90506000805b84811015620040465762003fec83620052b6565b915060405180604001604052808381526020018481525084828151811062004018576200401862006596565b60209081029190910101526200402f82846200657b565b9250806200403d816200655f565b91505062003fd8565b509195945050505050565b8051600090158015906200406757508151602110155b6200407157600080fd5b6000806200407f846200535f565b815191935091506020821015620021325760208290036101000a9004949350505050565b6060600082600001516001600160401b03811115620040c657620040c6620062e1565b6040519080825280601f01601f191660200182016040528015620040f1576020820181803683370190505b5090508051600003620041045792915050565b600081602001905062000d528460200151828660000151620053ac565b80516000906015146200413357600080fd5b6200050e8262004051565b80516060906200414d57600080fd5b6000806200415b846200535f565b915091506000816001600160401b038111156200417c576200417c620062e1565b6040519080825280601f01601f191660200182016040528015620041a7576020820181803683370190505b50905060208101620041bb848285620053ac565b50949350505050565b60008151602014620042255760405162461bcd60e51b8152602060048201526024808201527f6279746573546f427974657333323a20696e76616c696420696e707574206c656044820152630dccee8d60e31b606482015260840162000cc8565b506020015190565b6040805160008082529181905290620023728360ff620042b6565b6040805160008152905281516060906007166002036200050e5781516020830120600062004276856200543e565b805190915060051b5b8015620042ad57818101519550601f1901826200429c876200544d565b80519060200120036200427f578593505b50505092915050565b600062004a4f565b63101827966000526004601cfd5b805b6001640100002600620042e2835160001a90565b1c16156200050e57600101620042ce565b63ffffffff83113d3d3e63ffffffff821b191691901b1790565b6040516200433384860360786200432d601f1986890301605888620042f3565b620042f3565b959095178552505050602082016040525090565b6000806200435a846018600051620042f3565b620043668787620042cc565b9150868210620043775750620044bd565b815160001a60228103620043af578262004394898585896200470a565b9350620043a660048583868a6200430d565b945050620044ac565b605b8103620043d057620043c688848488620044c6565b93509350620044ac565b607b8103620043e757620043c688848488620045a6565b6703ff200000000000811c600116156200440957620043c688848488620047f4565b8760048401116200446b5782835160e01c6374727565810362004446576004850194506200443c60058684878b6200430d565b95505050620044ac565b636e756c6c810362004468576004850194506200443c60068684878b6200430d565b50505b876005840111620044a25782835160d81c6466616c736581036200449f576005850194506200443c60058684878b6200430d565b50505b620044ac620042be565b5050620044ba8682620042cc565b90505b94509492505050565b600060018401815b868210620044e057620044e0620042be565b826200450957620044f28783620042cc565b9150605d62004502835160001a90565b1462004577575b620045178783858762004347565b9250925082156200456757620045348160988551604017620042f3565b835260010162004545825160001a90565b605d810362004555575062004577565b602c81036200456557506200456b565b505b8691505b600182019150620044ce565b506001016200458982603886620042f3565b93506200459b6001828787876200430d565b915094509492505050565b6000600184015b858110620045bf57620045bf620042be565b81620045e857620045d18682620042cc565b9050607d620045e1825160001a90565b146200469f575b620045f48682620042cc565b90508062004605878385876200470a565b620046118882620042cc565b9250603a62004621845160001a90565b036200469057620046388860018501868862004347565b93509350831562004690576200466360208601830360986200432d85850360b88951608017620042f3565b8452825160001a607d81036200467c575050506200469f565b602c81036200468e5750505062004696565b505b50508590505b600101620045ad565b600101620046b082603886620042f3565b93506200459b6002828787876200430d565b6001667e0000007e03ff6030620046dc8585015160001a90565b031c16620046ee57620046ee620042be565b600582146200470657620047066001830182620046c2565b5050565b50506000828210620047205762004720620042be565b50600181015b805160001a602281036200473b5750620047a1565b605c81146200474e575060010162004726565b600182015160001a905060016a0510110400000000002001602283031c16156200477c575060020162004726565b607581036200479c5762004792600283620046c2565b5060060162004726565b508290505b828110620047b357620047b3620042be565b60010192915050565b805b600a6030620047ce835160001a90565b031015620047df57600101620047be565b808214841615620023725762002372620042be565b600083602d62004805825160001a90565b036200480f576001015b600a60306200481f835160001a90565b0310620048305762004830620042be565b805160001a6001820191506030811462004855576200485260008884620047bc565b91505b50602e62004864825160001a90565b036200487e576200487b60018760018401620047bc565b90505b805160658160001a60201703620048b057620048ad6001886001850162010001600e8660011a031a01620047bc565b91505b506200459b6003828787876200430d565b60405190820190601f19601f850181165b8381015183820152810180620048d25750508381526000846020830101528360408201016040529392505050565b8483620048c1565b805160609060028160071611620011d3578215811517620011d35760208116156200494057603881901c63ffffffff169150620011d3565b604051915060208201603882901c63ffffffff165b80156200498b578082528051601881901c63ffffffff166200497a87601884620042f3565b909252506020919091019062004955565b50601f1983820381018060051c855282604052620049ac85603886620042f3565b935083602017865260408110620049e1576020850192508085015b83518151855281526020909301928201808410620049c757505b50505050919050565b805160609082158115171562004a01575062002132565b80841c63ffffffff169150808616620041bb5760d881901c63ffffffff1662004a3282871c63ffffffff1662004900565b92505062004a42828583620042f3565b8617835250949350505050565b81801562004acd576001811462004ae6576003811462004af757602084018451810180821462004aaf57805160001a6022825362004a948760d8601160f91b620042f3565b60005262004aa6828460008a62004347565b93509450808253505b8315818310171562004ac55762004ac5620042be565b505062000d52565b62004ade60106078605887620049ea565b915062000d52565b62004ade600860b8609887620049ea565b620021328462004908565b6000600360fc1b60f883901b6001600160f81b0319161080159062004b395750603960f81b60f883901b6001600160f81b03191611155b1562004b4c576200050e603083620070d6565b606160f81b60f883901b6001600160f81b0319161080159062004b815750603360f91b60f883901b6001600160f81b03191611155b1562004ba257606162004b9683600a62007057565b6200050e9190620070d6565b604160f81b60f883901b6001600160f81b0319161080159062004bd75750602360f91b60f883901b6001600160f81b03191611155b1562004bec57604162004b9683600a62007057565b60405162461bcd60e51b815260040162000cc89060208082526004908201526319985a5b60e21b604082015260600190565b60008062004c77837f79be667ef9dcbbac55a06295ce870b07029bfcdb2dce28d959f2815b16f817987f483ada7726a3c4655da4fbfc0e1108a8fd17b448a68554199c47d08ffb10d4b860006401000003d0196200546f565b9094909350915050565b6060600082905060006002825162004c9a9190620067ea565b6001600160401b0381111562004cb45762004cb4620062e1565b6040519080825280601f01601f19166020018201604052801562004cdf576020820181803683370190505b50905060015b6001835162004cf59190620067ea565b811015620025e85782818151811062004d125762004d1262006596565b01602001516001600160f81b0319168262004d2f600184620067ea565b8151811062004d425762004d4262006596565b60200101906001600160f81b031916908160001a9053508062004d65816200655f565b91505062004ce5565b604080516009808252610140820190925260609160009190816020015b606081526020019060019003908162004d8b57905050905062004db283608001516200507a565b8160008151811062004dc85762004dc862006596565b602002602001018190525062004de283604001516200507a565b8160018151811062004df85762004df862006596565b602002602001018190525062004e1283602001516200507a565b8160028151811062004e285762004e2862006596565b602090810291909101015282516001600160a01b031662004e845762004e5d604051806020016040528060008152506200508b565b8160038151811062004e735762004e7362006596565b602002602001018190525062004eb3565b825162004e9190620050ed565b8160038151811062004ea75762004ea762006596565b60200260200101819052505b62004ec283606001516200507a565b8160048151811062004ed85762004ed862006596565b602002602001018190525062004ef28360a001516200508b565b8160058151811062004f085762004f0862006596565b602002602001018190525062004f228360c001516200507a565b8160068151811062004f385762004f3862006596565b602002602001018190525062004f5d604051806020016040528060008152506200508b565b8160078151811062004f735762004f7362006596565b602002602001018190525062003ef7604051806020016040528060008152506200508b565b606062004fa4620031ad565b62004fae57600080fd5b60008063401000036001600160a01b031686868660405160200162004fd693929190620070fc565b60408051601f198184030181529082905262004ff29162006ae1565b6000604051808303816000865af19150503d806000811462005031576040519150601f19603f3d011682016040523d82523d6000602084013e62005036565b606091505b50915091508162005064576340100003816040516375fff46760e01b815260040162000cc8929190620065e2565b8080602001905181019062000f5b919062006aff565b60606200050e6200508b83620054ad565b60608082516001148015620050bd5750608083600081518110620050b357620050b362006596565b016020015160f81c105b15620050cb5750816200050e565b620050d983516080620055f6565b836040516020016200239592919062006881565b604051606082811b6001600160601b0319166020830152906200050e9060340162003ea4565b606060006200512283620057ce565b905062005132815160c0620055f6565b816040516020016200514692919062006881565b604051602081830303815290604052915050919050565b805160009081036200517157506000919050565b6020820151805160001a9060c082101562005190575060009392505050565b5060019392505050565b80516000908103620051ae57506000919050565b600080620051c084602001516200522e565b8460200151620051d191906200657b565b9050600084600001518560200151620051eb91906200657b565b90505b8082101562005225576200520282620052b6565b6200520e90836200657b565b9150826200521c816200655f565b935050620051ee565b50909392505050565b8051600090811a6080811015620052485750600092915050565b60b881108062005265575060c0811080159062005265575060f881105b15620052745750600192915050565b60c0811015620052a8576200528c600160b8620070d6565b6200529b9060ff1682620067ea565b620023729060016200657b565b6200528c600160f8620070d6565b80516000908190811a6080811015620052d3576001915062000d52565b60b8811015620052f757620052ea608082620067ea565b62004ade9060016200657b565b60c0811015620053265760b78103600185019450806020036101000a8551046001820181019350505062000d52565b60f88110156200533d57620052ea60c082620067ea565b60019390930151602084900360f7016101000a900490920160f5190192915050565b60008060006200537384602001516200522e565b905060008185602001516200538991906200657b565b905060008286600001516200539f9190620067ea565b9196919550909350505050565b80600003620053ba57505050565b60208110620053fa5782518252620053d46020846200657b565b9250620053e36020836200657b565b9150620053f2602082620067ea565b9050620053ba565b80156200375c576000600162005412836020620067ea565b620054209061010062007215565b6200542c9190620067ea565b84518451821691191617835250505050565b60606000620023728362003302565b8051606090608016156200546a57600062002372836001620042b6565b919050565b6000806000806000620054888a8a8a60018b8b6200591b565b9250925092506200549c83838389620059a8565b945094505050509550959350505050565b6060600082604051602001620054c591815260200190565b604051602081830303815290604052905060005b60208110156200552457818181518110620054f857620054f862006596565b01602001516001600160f81b0319166000036200552457806200551b816200655f565b915050620054d9565b600062005533826020620067ea565b6001600160401b038111156200554d576200554d620062e1565b6040519080825280601f01601f19166020018201604052801562005578576020820181803683370190505b50905060005b8151811015620041bb57838362005595816200655f565b945081518110620055aa57620055aa62006596565b602001015160f81c60f81b828281518110620055ca57620055ca62006596565b60200101906001600160f81b031916908160001a90535080620055ed816200655f565b9150506200557e565b60608060388410156200566457604080516001808252818301909252906020820181803683370190505090506200562e838562007057565b60f81b8160008151811062005647576200564762006596565b60200101906001600160f81b031916908160001a9053506200050b565b600060015b62005675818762007014565b15620056a1578162005687816200655f565b925062005699905061010082620067c8565b905062005669565b620056ae8260016200657b565b6001600160401b03811115620056c857620056c8620062e1565b6040519080825280601f01601f191660200182016040528015620056f3576020820181803683370190505b50925062005702858362007057565b6200570f90603762007057565b60f81b8360008151811062005728576200572862006596565b60200101906001600160f81b031916908160001a905350600190505b818111620057c5576101006200575b8284620067ea565b620057699061010062007215565b62005775908862007014565b62005781919062006ffd565b60f81b83828151811062005799576200579962006596565b60200101906001600160f81b031916908160001a90535080620057bc816200655f565b91505062005744565b50509392505050565b60608151600003620057f157604080516000808252602082019092529062000d52565b6000805b8351811015620058415783818151811062005814576200581462006596565b602002602001015151826200582a91906200657b565b91508062005838816200655f565b915050620057f5565b6000826001600160401b038111156200585e576200585e620062e1565b6040519080825280601f01601f19166020018201604052801562005889576020820181803683370190505b50600092509050602081015b8551831015620041bb576000868481518110620058b657620058b662006596565b602002602001015190506000602082019050620058d68382845162005a25565b878581518110620058eb57620058eb62006596565b602002602001015151836200590191906200657b565b92505050828062005912906200655f565b93505062005895565b600080600088600003620059375750869150859050846200599c565b8860008060015b8315620059935760018416156200596857620059608383838f8f8f8e62005a8a565b919450925090505b6200597560028562007014565b9350620059868c8c8c8c8c62005e1e565b919d509b5099506200593e565b91955093509150505b96509650969350505050565b6000806000620059b9858562006002565b905060008480620059ce57620059ce62006fe7565b828309905060008580620059e657620059e662006fe7565b828a09905060008680620059fe57620059fe62006fe7565b878062005a0f5762005a0f62006fe7565b8486098a09919a91995090975050505050505050565b8282825b6020811062005a69578151835262005a436020846200657b565b925062005a526020836200657b565b915062005a61602082620067ea565b905062005a29565b905182516020929092036101000a6000190180199091169116179052505050565b600080808915801562005a9b575088155b1562005aaf57508591508490508362005e11565b8615801562005abc575085155b1562005ad057508891508790508662005e11565b62005ada62006155565b848062005aeb5762005aeb62006fe7565b898a098152848062005b015762005b0162006fe7565b81518a096020820152848062005b1b5762005b1b62006fe7565b8687096040820152848062005b345762005b3462006fe7565b604082015187096060820152604080516080810190915280868062005b5d5762005b5d62006fe7565b60408401518e098152602001868062005b7a5762005b7a62006fe7565b60608401518d098152602001868062005b975762005b9762006fe7565b83518b098152602001868062005bb15762005bb162006fe7565b60208401518a0990526040810151815191925014158062005bda57506060810151602082015114155b62005c285760405162461bcd60e51b815260206004820152601e60248201527f557365206a6163446f75626c652066756e6374696f6e20696e73746561640000604482015260640162000cc8565b62005c3262006155565b858062005c435762005c4362006fe7565b825162005c519088620067ea565b6040840151088152858062005c6a5762005c6a62006fe7565b602083015162005c7b9088620067ea565b6060840151086020820152858062005c975762005c9762006fe7565b815180096040820152858062005cb15762005cb162006fe7565b815160408301510960608201526000868062005cd15762005cd162006fe7565b606083015162005ce29089620067ea565b888062005cf35762005cf362006fe7565b60208501518009089050868062005d0e5762005d0e62006fe7565b878062005d1f5762005d1f62006fe7565b888062005d305762005d3062006fe7565b604085015186510960020962005d479089620067ea565b820890506000878062005d5e5762005d5e62006fe7565b888062005d6f5762005d6f62006fe7565b62005d7b848b620067ea565b8a8062005d8c5762005d8c62006fe7565b6040870151885109086020850151099050878062005dae5762005dae62006fe7565b888062005dbf5762005dbf62006fe7565b606085015160208701510962005dd6908a620067ea565b820890506000888062005ded5762005ded62006fe7565b898062005dfe5762005dfe62006fe7565b8b8f098551099297509095509093505050505b9750975097945050505050565b60008060008560000362005e3a57508691508590508462005ff7565b6000848062005e4d5762005e4d62006fe7565b898a0990506000858062005e655762005e6562006fe7565b898a0990506000868062005e7d5762005e7d62006fe7565b898a0990506000878062005e955762005e9562006fe7565b888062005ea65762005ea662006fe7565b848e0960040990506000888062005ec15762005ec162006fe7565b898062005ed25762005ed262006fe7565b8a8062005ee35762005ee362006fe7565b8586098c098a8062005ef95762005ef962006fe7565b87600309089050888062005f115762005f1162006fe7565b898062005f225762005f2262006fe7565b83840862005f31908b620067ea565b8a8062005f425762005f4262006fe7565b838409089450888062005f595762005f5962006fe7565b898062005f6a5762005f6a62006fe7565b8a8062005f7b5762005f7b62006fe7565b86870960080962005f8d908b620067ea565b8a8062005f9e5762005f9e62006fe7565b8b8062005faf5762005faf62006fe7565b62005fbb898e620067ea565b86088409089350888062005fd35762005fd362006fe7565b898062005fe45762005fe462006fe7565b8c8e096002099497509295509293505050505b955095509592505050565b60008215801590620060145750818314155b80156200602057508115155b6200605f5760405162461bcd60e51b815260206004820152600e60248201526d24b73b30b634b210373ab6b132b960911b604482015260640162000cc8565b6000600183825b8615620040465762006079878362007014565b90508286806200608d576200608d62006fe7565b87806200609e576200609e62006fe7565b858409620060ad9089620067ea565b8608909450925086620060c18183620067c8565b620060cd9084620067ea565b9750915062006066565b612130806200722483390190565b60405180610140016040528060006001600160a01b031681526020016000815260200160008152602001600081526020016000815260200160608152602001600081526020016000801916815260200160008019168152602001600081525090565b612531806200935483390190565b60405180608001604052806004906020820280368337509192915050565b6001600160a01b03811681146200618957600080fd5b50565b60008060408385031215620061a057600080fd5b8235620061ad8162006173565b91506020830135620061bf8162006173565b809150509250929050565b60005b83811015620061e7578181015183820152602001620061cd565b83811115620061f7576000848401525b50505050565b6000815180845262006217816020860160208601620061ca565b601f01601f19169290920160200192915050565b6020815260006200050b6020830184620061fd565b6001600160801b0319811681146200618957600080fd5b600080604083850312156200626b57600080fd5b8235620062788162006173565b91506020830135620061bf8162006240565b600080604083850312156200629e57600080fd5b823591506020830135620061bf8162006240565b60008060408385031215620062c657600080fd5b8235620062d38162006173565b946020939093013593505050565b634e487b7160e01b600052604160045260246000fd5b604051606081016001600160401b03811182821017156200631c576200631c620062e1565b60405290565b60405160c081016001600160401b03811182821017156200631c576200631c620062e1565b604051601f8201601f191681016001600160401b0381118282101715620063725762006372620062e1565b604052919050565b60006001600160401b03821115620063965762006396620062e1565b50601f01601f191660200190565b6000620063bb620063b5846200637a565b62006347565b9050828152838383011115620063d057600080fd5b828260208301376000602084830101529392505050565b60008060408385031215620063fb57600080fd5b82356001600160401b038111156200641257600080fd5b8301601f810185136200642457600080fd5b6200643585823560208401620063a4565b95602094909401359450505050565b6000602082840312156200645757600080fd5b5035919050565b6000602082840312156200647157600080fd5b81356001600160401b038111156200648857600080fd5b8201601f810184136200649a57600080fd5b6200213284823560208401620063a4565b600080600060608486031215620064c157600080fd5b8335620064ce8162006173565b92506020840135620064e08162006173565b929592945050506040919091013590565b6000602082840312156200650457600080fd5b81356200050b8162006173565b6000806000606084860312156200652757600080fd5b8335620065348162006173565b95602085013595506040909401359392505050565b634e487b7160e01b600052601160045260246000fd5b60006001820162006574576200657462006549565b5060010190565b6000821982111562006591576200659162006549565b500190565b634e487b7160e01b600052603260045260246000fd5b600181811c90821680620065c157607f821691505b602082108103620011d357634e487b7160e01b600052602260045260246000fd5b6001600160a01b03831681526040602082018190526000906200213290830184620061fd565b6020808252602c908201527f4e6f205250432d456e64706f696e7420617661696c61626c6520666f7220746860408201526b34b99031b430b4b716a4a21760a11b606082015260800190565b7f7b226a736f6e727063223a22322e30222c20226d6574686f64223a202265746881527f5f6765745472616e73616374696f6e427948617368222c2022706172616d73226020820152631d102d9160e11b604082015260008351620066c1816044850160208801620061ca565b690112e96101134b2111d160b51b6044939091019283015250604e810191909152607d60f81b606e820152606f01919050565b828152604060208201526000620021326040830184620061fd565b60208082526017908201527f41756374696f6e206e6f74207965742073746172746564000000000000000000604082015260600190565b6020808252602a908201527f4e6f2062696464696e6720616464726573732072656c6174656420746f20746860408201526934b99039b2b73232b91760b11b606082015260800190565b805160208201516001600160601b03198082169291906014831015620067c05780818460140360031b1b83161693505b505050919050565b6000816000190483118215151615620067e557620067e562006549565b500290565b600082821015620067ff57620067ff62006549565b500390565b7f2f6765744f776e657273466f72546f6b656e3f636f6e7472616374416464726581526273733d60e81b6020820152600083516200684a816023850160208801620061ca565b6826746f6b656e49643d60b81b60239184019182015283516200687581602c840160208801620061ca565b01602c01949350505050565b6000835162006895818460208801620061ca565b835190830190620068ab818360208801620061ca565b01949350505050565b60006001600160401b03821115620068d057620068d0620062e1565b5060051b60200190565b600082601f830112620068ec57600080fd5b8151620068fd620063b5826200637a565b8181528460208386010111156200691357600080fd5b62002132826020830160208701620061ca565b600060208083850312156200693a57600080fd5b82516001600160401b03808211156200695257600080fd5b818501915085601f8301126200696757600080fd5b815162006978620063b582620068b4565b81815260059190911b830184019084810190888311156200699857600080fd5b8585015b8381101562006aa157805185811115620069b557600080fd5b86016060818c03601f19011215620069cc57600080fd5b620069d6620062f7565b88820151620069e58162006173565b8152604082015187811115620069fa57600080fd5b8201603f81018d1362006a0c57600080fd5b8981015162006a1f620063b582620068b4565b81815260059190911b8201604001908b8101908f83111562006a4057600080fd5b6040840193505b8284101562006a625783518252928c0192908c019062006a47565b848d015250505060608201518781111562006a7c57600080fd5b62006a8c8d8b83860101620068da565b6040830152508452509186019186016200699c565b5098975050505050505050565b6002811062006acd57634e487b7160e01b600052602160045260246000fd5b9052565b602081016200050e828462006aae565b6000825162006af5818460208701620061ca565b9190910192915050565b60006020828403121562006b1257600080fd5b81516001600160401b0381111562006b2957600080fd5b6200213284828501620068da565b600081518084526020808501945080840160005b8381101562006b725781516001600160a01b03168752958201959082019060010162006b4b565b509495945050505050565b6001600160401b038516815260806020820152600062006ba1608083018662006b37565b828103604084015262006bb5818662006b37565b90508281036060840152620022398185620061fd565b80516200546a8162006240565b80516001600160401b03811681146200546a57600080fd5b600082601f83011262006c0257600080fd5b8151602062006c15620063b583620068b4565b82815260059290921b8401810191818101908684111562006c3557600080fd5b8286015b8481101562006c5d57805162006c4f8162006173565b835291830191830162006c39565b509695505050505050565b60006020828403121562006c7b57600080fd5b81516001600160401b038082111562006c9357600080fd5b9083019060c0828603121562006ca857600080fd5b62006cb262006322565b62006cbd8362006bcb565b815262006ccd6020840162006bcb565b602082015262006ce06040840162006bd8565b604082015260608301518281111562006cf857600080fd5b62006d068782860162006bf0565b60608301525060808301518281111562006d1f57600080fd5b62006d2d8782860162006bf0565b60808301525060a08301518281111562006d4657600080fd5b62006d5487828601620068da565b60a08301525095945050505050565b6001600160801b03198416815260606020820152600062006d886060830185620061fd565b828103604084015262000f5b8185620061fd565b80516020808301519190811015620011d35760001960209190910360031b1b16919050565b6001600160801b031983168152604060208201526000620021326040830184620061fd565b60006020828403121562006df957600080fd5b5051919050565b60006020808352835160c08285015262006e1e60e0850182620061fd565b905081850151601f198086840301604087015262006e3d8383620061fd565b60408801518782038301606089015280518083529194508501925084840190600581901b8501860160005b8281101562006e98578487830301845262006e85828751620061fd565b9588019593880193915060010162006e68565b5060608a01519650838982030160808a015262006eb68188620061fd565b9650505050505050608084015162006ed260a085018215159052565b5060a08401516001600160401b03811660c0850152620025e8565b7f7b226a736f6e727063223a22322e30222c20226d6574686f64223a202265746881527f5f73656e645261775472616e73616374696f6e222c2022706172616d73223a206020820152612d9160f11b60408201526000835162006f58816042850160208801620061ca565b690112e96101134b2111d160b51b6042939091019283015250604c810191909152607d60f81b606c820152606d01919050565b60408152600062006fa06040830185620061fd565b905060018060a01b03831660208301529392505050565b6000601160f91b808352835162006fd6816001860160208801620061ca565b600193019283015250600201919050565b634e487b7160e01b600052601260045260246000fd5b6000826200700f576200700f62006fe7565b500690565b60008262007026576200702662006fe7565b500490565b600060ff821660ff84168160ff04811182151516156200704f576200704f62006549565b029392505050565b600060ff821660ff84168060ff0382111562007077576200707762006549565b019392505050565b60006001600160401b0380831681851681830481118215151615620070a857620070a862006549565b02949350505050565b60006001600160401b03808316818516808303821115620068ab57620068ab62006549565b600060ff821660ff841680821015620070f357620070f362006549565b90039392505050565b606081526000620071116060830186620061fd565b62006d88602084018662006aae565b600181815b808511156200716157816000190482111562007145576200714562006549565b808516156200715357918102915b93841c939080029062007125565b509250929050565b6000826200717a575060016200050e565b8162007189575060006200050e565b8160018114620071a25760028114620071ad57620071cd565b60019150506200050e565b60ff841115620071c157620071c162006549565b50506001821b6200050e565b5060208310610133831016604e8410600b8410161715620071f2575081810a6200050e565b620071fe838362007120565b80600019048211156200704f576200704f62006549565b60006200050b83836200716956fe60806040523480156200001157600080fd5b50604051620021303803806200213083398101604081905262000034916200010d565b80516200004990600090602084019062000051565b505062000225565b8280546200005f90620001e9565b90600052602060002090601f016020900481019282620000835760008555620000ce565b82601f106200009e57805160ff1916838001178555620000ce565b82800160010185558215620000ce579182015b82811115620000ce578251825591602001919060010190620000b1565b50620000dc929150620000e0565b5090565b5b80821115620000dc5760008155600101620000e1565b634e487b7160e01b600052604160045260246000fd5b600060208083850312156200012157600080fd5b82516001600160401b03808211156200013957600080fd5b818501915085601f8301126200014e57600080fd5b815181811115620001635762000163620000f7565b604051601f8201601f19908116603f011681019083821181831017156200018e576200018e620000f7565b816040528281528886848701011115620001a757600080fd5b600093505b82841015620001cb5784840186015181850187015292850192620001ac565b82841115620001dd5760008684830101525b98975050505050505050565b600181811c90821680620001fe57607f821691505b6020821081036200021f57634e487b7160e01b600052602260045260246000fd5b50919050565b611efb80620002356000396000f3fe608060405234801561001057600080fd5b50600436106100575760003560e01c80631b8b921d1461005c57806370ae92d2146100855780637c52407c146100a6578063c672f9d6146100b9578063e3d670d7146100db575b600080fd5b61006f61006a36600461166d565b6100ee565b60405161007c9190611717565b60405180910390f35b61009861009336600461172a565b61015a565b60405190815260200161007c565b61006f6100b4366004611745565b6101b8565b6100cc6100c7366004611883565b610304565b6040519051815260200161007c565b6100986100e936600461172a565b610552565b606060006100fb8461056e565b61010484610617565b604051602001610115929190611914565b6040516020818303038152906040529050600061013182610304565b9050600061014e6101496101448461063b565b61064a565b61072c565b93505050505b92915050565b6000806101668361056e565b6040516020016101769190611982565b6040516020818303038152906040529050600061019282610304565b905060006101af6101aa6101a58461063b565b61084d565b6109d7565b95945050505050565b606060006101c58561056e565b6101ce85610617565b6040516020016101df929190611a0a565b604051602081830303815290604052905060005b83518110156102b6578161022385838151811061021257610212611a71565b60200260200101516000015161056e565b61024986848151811061023857610238611a71565b602002602001015160200151610617565b60405160200161025b93929190611a87565b60405160208183030381529060405291506001845161027a9190611b17565b8110156102a457816040516020016102929190611b2e565b60405160208183030381529060405291505b806102ae81611b53565b9150506101f3565b50806040516020016102c89190611b6c565b604051602081830303815290604052905060006102e482610304565b905060006102f76101496101448461063b565b93505050505b9392505050565b6040805160208101909152600081526103586040518060c0016040528060608152602001606081526020016060815260200160608152602001600015158152602001600067ffffffffffffffff1681525090565b604051806040016040528060048152602001631413d4d560e21b81525081602001819052506000805461038a90611b9a565b80601f01602080910402602001604051908101604052809291908181526020018280546103b690611b9a565b80156104035780601f106103d857610100808354040283529160200191610403565b820191906000526020600020905b8154815290600101906020018083116103e657829003601f168201915b505050918352505060408051600180825281830190925290816020015b606081526020019060019003908161042057505060408281019182528051808201909152601e81527f436f6e74656e742d547970653a206170706c69636174696f6e2f6a736f6e000060208201529051805160009061048157610481611a71565b602090810291909101015260608101839052600061049e82610a62565b905060006104ab82610b29565b905060006104e1604051806040016040528060078152602001661132b93937b91160c91b81525083610b4290919063ffffffff16565b90506104ef81516007161590565b61051e576104fc8161063b565b60405162461bcd60e51b81526004016105159190611717565b60405180910390fd5b604080518082019091526008815267113932b9bab63a1160c11b6020820152610548908390610b42565b9695505050505050565b60008061055e8361056e565b6040516020016101769190611bce565b606061057982610ba9565b6028602282019081209192507f4040404040404040404040404040404040404040404040404040404040404040917f888888888888888888888888888888888888888888888888888888888888888016601160f31b60005b82811a8202818001526001810190601219016105d157505050818151166000511660011c8151188152602081019050818151166020511660011c81511881525050919050565b606061062282610bb4565b8051613078825260020160011990910190815292915050565b606060006102fd836000610c1a565b606060008290506000600482516106619190611b17565b67ffffffffffffffff81111561067957610679611577565b6040519080825280601f01601f1916602001820160405280156106a3576020820181803683370190505b50905060035b600183516106b79190611b17565b811015610724578281815181106106d0576106d0611a71565b01602001516001600160f81b031916826106eb600384611b17565b815181106106fb576106fb611a71565b60200101906001600160f81b031916908160001a9053508061071c81611b53565b9150506106a9565b509392505050565b8051606090829061073f90600290611c65565b1561074957600080fd5b6000600282516107599190611c79565b67ffffffffffffffff81111561077157610771611577565b6040519080825280601f01601f19166020018201604052801561079b576020820181803683370190505b50905060005b600283516107af9190611c79565b811015610724576107ed836107c5836002611c8d565b6107d0906001611cac565b815181106107e0576107e0611a71565b016020015160f81c6113b6565b6107fc846107d0846002611c8d565b610807906010611cc4565b6108119190611ced565b60f81b82828151811061082657610826611a71565b60200101906001600160f81b031916908160001a90535061084681611b53565b90506107a1565b60606000829050600281511015801561088b57508060008151811061087457610874611a71565b6020910101516001600160f81b031916601160f91b145b80156108c8575080600182516108a19190611b17565b815181106108b1576108b1611a71565b6020910101516001600160f81b031916601160f91b145b6109045760405162461bcd60e51b815260206004820152600d60248201526c125b9d985b1a59081a5b9c1d5d609a1b6044820152606401610515565b6000600282516109149190611b17565b67ffffffffffffffff81111561092c5761092c611577565b6040519080825280601f01601f191660200182016040528015610956576020820181803683370190505b50905060015b6001835161096a9190611b17565b8110156107245782818151811061098357610983611a71565b01602001516001600160f81b0319168261099e600184611b17565b815181106109ae576109ae611a71565b60200101906001600160f81b031916908160001a905350806109cf81611b53565b91505061095c565b600081516001811160208085015160f01c17613078141660011b5b6001810190507403010a071000000b0104040208000c05090d060e0f6d03e4088843e41bac00000000000060ff83870151161c601f161a8360fc1c8115171583029250600181038460041b019350508181106109f2575080610a5c5763101827966000526004601cfd5b50919050565b606060008063432000026001600160a01b031684604051602001610a869190611d12565b60408051601f1981840301815290829052610aa091611df4565b6000604051808303816000865af19150503d8060008114610add576040519150601f19603f3d011682016040523d82523d6000602084013e610ae2565b606091505b509150915081610b0d576343200002816040516375fff46760e01b8152600401610515929190611e10565b80806020019051810190610b219190611e34565b949350505050565b60408051600080825291819052906102fd8360ff610c1a565b60408051600081529052815160609060071660020361015457815160208301206000610b6d856114c3565b805190915060051b5b8015610ba057818101519550601f190182610b90876114d2565b8051906020012003610b76578593505b50505092915050565b6060610622826114f1565b8051604051818001600282019081526f30313233343536373839616263646566600f52918301906022015b818414610c0a57600184019350600f845116516001820153600f845160041c16518153600201610bdf565b6000815260200160405250919050565b600061130c565b63101827966000526004601cfd5b805b6001640100002600610c44835160001a90565b1c161561015457600101610c31565b63ffffffff83113d3d3e63ffffffff821b191691901b1790565b604051610c8f8486036078610c8a601f1986890301605888610c53565b610c53565b959095178552505050602082016040525090565b600080610cb4846018600051610c53565b610cbe8787610c2f565b9150868210610ccd5750610df3565b815160001a60228103610cff5782610ce789858589611003565b9350610cf760048583868a610c6d565b945050610de4565b605b8103610d1c57610d1388848488610dfc565b93509350610de4565b607b8103610d3057610d1388848488610ec5565b6703ff200000000000811c60011615610d4f57610d13888484886110d7565b876004840111610da95782835160e01c63747275658103610d8757600485019450610d7e60058684878b610c6d565b95505050610de4565b636e756c6c8103610da657600485019450610d7e60068684878b610c6d565b50505b876005840111610ddc5782835160d81c6466616c73658103610dd957600585019450610d7e60058684878b610c6d565b50505b610de4610c21565b5050610df08682610c2f565b90505b94509492505050565b600060018401815b868210610e1357610e13610c21565b82610e3757610e228783610c2f565b9150605d610e31835160001a90565b14610e9a575b610e4387838587610ca3565b925092508215610e8b57610e5d8160988551604017610c53565b8352600101610e6d825160001a90565b605d8103610e7b5750610e9a565b602c8103610e895750610e8f565b505b8691505b600182019150610e04565b50600101610eaa82603886610c53565b9350610eba600182878787610c6d565b915094509492505050565b6000600184015b858110610edb57610edb610c21565b81610eff57610eea8682610c2f565b9050607d610ef9825160001a90565b14610fa3575b610f098682610c2f565b905080610f1887838587611003565b610f228882610c2f565b9250603a610f31845160001a90565b03610f9557610f4588600185018688610ca3565b935093508315610f9557610f6c6020860183036098610c8a85850360b88951608017610c53565b8452825160001a607d8103610f8357505050610fa3565b602c8103610f9357505050610f9b565b505b50508590505b600101610ecc565b600101610fb282603886610c53565b9350610eba600282878787610c6d565b6001667e0000007e03ff6030610fdb8585015160001a90565b031c16610fea57610fea610c21565b60058214610fff57610fff6001830182610fc2565b5050565b5050600082821061101657611016610c21565b50600181015b805160001a6022810361102f575061108d565b605c8114611040575060010161101c565b600182015160001a905060016a0510110400000000002001602283031c161561106c575060020161101c565b607581036110885761107f600283610fc2565b5060060161101c565b508290505b82811061109c5761109c610c21565b60010192915050565b805b600a60306110b6835160001a90565b0310156110c5576001016110a7565b8082148416156102fd576102fd610c21565b600083602d6110e7825160001a90565b036110f0576001015b600a60306110ff835160001a90565b031061110d5761110d610c21565b805160001a6001820191506030811461112f5761112c600088846110a5565b91505b50602e61113d825160001a90565b0361115457611151600187600184016110a5565b90505b805160658160001a60201703611183576111806001886001850162010001600e8660011a031a016110a5565b91505b50610eba600382878787610c6d565b60405190820190601f19601f850181165b83810151838201528101806111a35750508381526000846020830101528360408201016040529392505050565b8483611192565b805160609060028160071611610a5c578215811517610a5c57602081161561120b57603881901c63ffffffff169150610a5c565b604051915060208201603882901c63ffffffff165b8015611252578082528051601881901c63ffffffff1661124287601884610c53565b9092525060209190910190611220565b50601f1983820381018060051c85528260405261127185603886610c53565b9350836020178652604081106112a4576020850192508085015b8351815185528152602090930192820180841061128b57505b50505050919050565b80516060908215811517156112c25750610b21565b80841c63ffffffff1691508086166113035760d881901c63ffffffff166112f082871c63ffffffff166111d0565b9250506112fe828583610c53565b861783525b50949350505050565b81801561137e576001811461139457600381146113a357602084018451810180821461136457805160001a6022825361134b8760d8601160f91b610c53565b60005261135b828460008a610ca3565b93509450808253505b8315818310171561137757611377610c21565b50506113af565b61138d601060786058876112ad565b91506113af565b61138d600860b86098876112ad565b6113ac846111d7565b91505b5092915050565b6000600360fc1b60f883901b6001600160f81b031916108015906113ec5750603960f81b60f883901b6001600160f81b03191611155b156113fc57610154603083611ea2565b606160f81b60f883901b6001600160f81b031916108015906114305750603360f91b60f883901b6001600160f81b03191611155b1561144c57606161144283600a611ced565b6101549190611ea2565b604160f81b60f883901b6001600160f81b031916108015906114805750602360f91b60f883901b6001600160f81b03191611155b1561149257604161144283600a611ced565b60405162461bcd60e51b81526004016105159060208082526004908201526319985a5b60e21b604082015260600190565b606060006102fd836003610c1a565b8051606090608016156114ec5760006102fd836001610c1a565b919050565b60606040519050608081016040526f30313233343536373839616263646566600f526002810190506028815260208101600060288201528260601b925060005b808101820184821a600f81165160018301538060041c5182535050600181019060121901611531575050919050565b80356001600160a01b03811681146114ec57600080fd5b634e487b7160e01b600052604160045260246000fd5b6040805190810167ffffffffffffffff811182821017156115b0576115b0611577565b60405290565b604051601f8201601f1916810167ffffffffffffffff811182821017156115df576115df611577565b604052919050565b600067ffffffffffffffff82111561160157611601611577565b50601f01601f191660200190565b600061162261161d846115e7565b6115b6565b905082815283838301111561163657600080fd5b828260208301376000602084830101529392505050565b600082601f83011261165e57600080fd5b6102fd8383356020850161160f565b6000806040838503121561168057600080fd5b61168983611560565b9150602083013567ffffffffffffffff8111156116a557600080fd5b6116b18582860161164d565b9150509250929050565b60005b838110156116d65781810151838201526020016116be565b838111156116e5576000848401525b50505050565b600081518084526117038160208601602086016116bb565b601f01601f19169290920160200192915050565b6020815260006102fd60208301846116eb565b60006020828403121561173c57600080fd5b6102fd82611560565b60008060006060848603121561175a57600080fd5b61176384611560565b925060208085013567ffffffffffffffff8082111561178157600080fd5b61178d8883890161164d565b945060408701359150808211156117a357600080fd5b818701915087601f8301126117b757600080fd5b8135818111156117c9576117c9611577565b8060051b6117d88582016115b6565b918252838101850191858101908b8411156117f257600080fd5b86860192505b83831015611872578235858111156118105760008081fd5b86016040818e03601f190112156118275760008081fd5b61182f61158d565b61183a898301611560565b815260408201358781111561184f5760008081fd5b61185d8f8b8386010161164d565b828b01525083525091860191908601906117f8565b809750505050505050509250925092565b60006020828403121561189557600080fd5b813567ffffffffffffffff8111156118ac57600080fd5b8201601f810184136118bd57600080fd5b6113ac8482356020840161160f565b7f7b226a736f6e727063223a22322e30222c226d6574686f64223a226574685f6381527530b6361116113830b930b6b9911d2dbd913a37911d1160511b602082015260360190565b600061191f826118cc565b845161192f8183602089016116bb565b691116113230ba30911d1160b11b9101908152835161195581600a8401602088016116bb565b73227d2c226c6174657374225d2c226964223a317d60601b600a9290910191820152601e01949350505050565b7f7b226a736f6e727063223a22322e30222c226d6574686f64223a226574685f6781527f65745472616e73616374696f6e436f756e74222c22706172616d73223a5b22006020820152600082516119e081603f8501602087016116bb565b72222c226c6174657374225d2c226964223a317d60681b603f939091019283015250605201919050565b6000611a15826118cc565b8451611a258183602089016116bb565b691116113230ba30911d1160b11b91019081528351611a4b81600a8401602088016116bb565b6c227d2c226c6174657374222c7b60981b600a9290910191820152601701949350505050565b634e487b7160e01b600052603260045260246000fd5b60008451611a998184602089016116bb565b601160f91b9083019081528451611ab78160018401602089016116bb565b6c111d103d9131b7b232911d101160991b600192909101918201528351611ae581600e8401602088016116bb565b61227d60f01b600e929091019182015260100195945050505050565b634e487b7160e01b600052601160045260246000fd5b600082821015611b2957611b29611b01565b500390565b60008251611b408184602087016116bb565b600b60fa1b920191825250600101919050565b600060018201611b6557611b65611b01565b5060010190565b60008251611b7e8184602087016116bb565b697d5d2c226964223a317d60b01b920191825250600a01919050565b600181811c90821680611bae57607f821691505b602082108103610a5c57634e487b7160e01b600052602260045260246000fd5b7f7b226a736f6e727063223a22322e30222c226d6574686f64223a226574685f6781527532ba2130b630b731b29116113830b930b6b9911d2d9160511b602082015260008251611c258160368501602087016116bb565b72222c226c6174657374225d2c226964223a317d60681b6036939091019283015250604901919050565b634e487b7160e01b600052601260045260246000fd5b600082611c7457611c74611c4f565b500690565b600082611c8857611c88611c4f565b500490565b6000816000190483118215151615611ca757611ca7611b01565b500290565b60008219821115611cbf57611cbf611b01565b500190565b600060ff821660ff84168160ff0481118215151615611ce557611ce5611b01565b029392505050565b600060ff821660ff84168060ff03821115611d0a57611d0a611b01565b019392505050565b60006020808352835160c082850152611d2e60e08501826116eb565b905081850151601f1980868403016040870152611d4b83836116eb565b60408801518782038301606089015280518083529194508501925084840190600581901b8501860160005b82811015611da25784878303018452611d908287516116eb565b95880195938801939150600101611d76565b5060608a01519650838982030160808a0152611dbe81886116eb565b96505050505050506080840151611dd960a085018215159052565b5060a084015167ffffffffffffffff811660c0850152610724565b60008251611e068184602087016116bb565b9190910192915050565b6001600160a01b0383168152604060208201819052600090610b21908301846116eb565b600060208284031215611e4657600080fd5b815167ffffffffffffffff811115611e5d57600080fd5b8201601f81018413611e6e57600080fd5b8051611e7c61161d826115e7565b818152856020838501011115611e9157600080fd5b6101af8260208301602086016116bb565b600060ff821660ff841680821015611ebc57611ebc611b01565b9003939250505056fea26469706673582212206b1b4a0614a4ee7ddecf2bfa1cabd2094d131d51ec53710e61e799db434af6b164736f6c634300080d0033608060405234801561001057600080fd5b5060405161253138038061253183398101604081905261002f91610107565b8160405161003c90610098565b61004691906101c6565b604051809103906000f080158015610062573d6000803e3d6000fd5b50600080546001600160a01b039283166001600160a01b03199182161790915560018054939092169216919091179055506101f9565b6121308061040183390190565b634e487b7160e01b600052604160045260246000fd5b60005b838110156100d65781810151838201526020016100be565b838111156100e5576000848401525b50505050565b80516001600160a01b038116811461010257600080fd5b919050565b6000806040838503121561011a57600080fd5b82516001600160401b038082111561013157600080fd5b818501915085601f83011261014557600080fd5b815181811115610157576101576100a5565b604051601f8201601f19908116603f0116810190838211818310171561017f5761017f6100a5565b8160405282815288602084870101111561019857600080fd5b6101a98360208301602088016100bb565b80965050505050506101bd602084016100eb565b90509250929050565b60208152600082518060208401526101e58160408501602087016100bb565b601f01601f19169190910160400192915050565b6101f9806102086000396000f3fe608060405234801561001057600080fd5b5060008054600154604051631b8b921d60e01b81526001600160a01b0392831692631b8b921d9261004a929116908590369060040161009d565b6000604051808303816000875af1158015610069573d6000803e3d6000fd5b505050506040513d6000823e601f3d908101601f1916820160405261009191908101906100f3565b90508081518060208301f35b6001600160a01b03841681526040602082018190528101829052818360608301376000818301606090810191909152601f909201601f1916010192915050565b634e487b7160e01b600052604160045260246000fd5b6000602080838503121561010657600080fd5b825167ffffffffffffffff8082111561011e57600080fd5b818501915085601f83011261013257600080fd5b815181811115610144576101446100dd565b604051601f8201601f19908116603f0116810190838211818310171561016c5761016c6100dd565b81604052828152888684870101111561018457600080fd5b600093505b828410156101a65784840186015181850187015292850192610189565b828411156101b75760008684830101525b9897505050505050505056fea2646970667358221220712150db78acd79a3821a9430562d65107f88eb38a11820cf2160900b21c666364736f6c634300080d003360806040523480156200001157600080fd5b50604051620021303803806200213083398101604081905262000034916200010d565b80516200004990600090602084019062000051565b505062000225565b8280546200005f90620001e9565b90600052602060002090601f016020900481019282620000835760008555620000ce565b82601f106200009e57805160ff1916838001178555620000ce565b82800160010185558215620000ce579182015b82811115620000ce578251825591602001919060010190620000b1565b50620000dc929150620000e0565b5090565b5b80821115620000dc5760008155600101620000e1565b634e487b7160e01b600052604160045260246000fd5b600060208083850312156200012157600080fd5b82516001600160401b03808211156200013957600080fd5b818501915085601f8301126200014e57600080fd5b815181811115620001635762000163620000f7565b604051601f8201601f19908116603f011681019083821181831017156200018e576200018e620000f7565b816040528281528886848701011115620001a757600080fd5b600093505b82841015620001cb5784840186015181850187015292850192620001ac565b82841115620001dd5760008684830101525b98975050505050505050565b600181811c90821680620001fe57607f821691505b6020821081036200021f57634e487b7160e01b600052602260045260246000fd5b50919050565b611efb80620002356000396000f3fe608060405234801561001057600080fd5b50600436106100575760003560e01c80631b8b921d1461005c57806370ae92d2146100855780637c52407c146100a6578063c672f9d6146100b9578063e3d670d7146100db575b600080fd5b61006f61006a36600461166d565b6100ee565b60405161007c9190611717565b60405180910390f35b61009861009336600461172a565b61015a565b60405190815260200161007c565b61006f6100b4366004611745565b6101b8565b6100cc6100c7366004611883565b610304565b6040519051815260200161007c565b6100986100e936600461172a565b610552565b606060006100fb8461056e565b61010484610617565b604051602001610115929190611914565b6040516020818303038152906040529050600061013182610304565b9050600061014e6101496101448461063b565b61064a565b61072c565b93505050505b92915050565b6000806101668361056e565b6040516020016101769190611982565b6040516020818303038152906040529050600061019282610304565b905060006101af6101aa6101a58461063b565b61084d565b6109d7565b95945050505050565b606060006101c58561056e565b6101ce85610617565b6040516020016101df929190611a0a565b604051602081830303815290604052905060005b83518110156102b6578161022385838151811061021257610212611a71565b60200260200101516000015161056e565b61024986848151811061023857610238611a71565b602002602001015160200151610617565b60405160200161025b93929190611a87565b60405160208183030381529060405291506001845161027a9190611b17565b8110156102a457816040516020016102929190611b2e565b60405160208183030381529060405291505b806102ae81611b53565b9150506101f3565b50806040516020016102c89190611b6c565b604051602081830303815290604052905060006102e482610304565b905060006102f76101496101448461063b565b93505050505b9392505050565b6040805160208101909152600081526103586040518060c0016040528060608152602001606081526020016060815260200160608152602001600015158152602001600067ffffffffffffffff1681525090565b604051806040016040528060048152602001631413d4d560e21b81525081602001819052506000805461038a90611b9a565b80601f01602080910402602001604051908101604052809291908181526020018280546103b690611b9a565b80156104035780601f106103d857610100808354040283529160200191610403565b820191906000526020600020905b8154815290600101906020018083116103e657829003601f168201915b505050918352505060408051600180825281830190925290816020015b606081526020019060019003908161042057505060408281019182528051808201909152601e81527f436f6e74656e742d547970653a206170706c69636174696f6e2f6a736f6e000060208201529051805160009061048157610481611a71565b602090810291909101015260608101839052600061049e82610a62565b905060006104ab82610b29565b905060006104e1604051806040016040528060078152602001661132b93937b91160c91b81525083610b4290919063ffffffff16565b90506104ef81516007161590565b61051e576104fc8161063b565b60405162461bcd60e51b81526004016105159190611717565b60405180910390fd5b604080518082019091526008815267113932b9bab63a1160c11b6020820152610548908390610b42565b9695505050505050565b60008061055e8361056e565b6040516020016101769190611bce565b606061057982610ba9565b6028602282019081209192507f4040404040404040404040404040404040404040404040404040404040404040917f888888888888888888888888888888888888888888888888888888888888888016601160f31b60005b82811a8202818001526001810190601219016105d157505050818151166000511660011c8151188152602081019050818151166020511660011c81511881525050919050565b606061062282610bb4565b8051613078825260020160011990910190815292915050565b606060006102fd836000610c1a565b606060008290506000600482516106619190611b17565b67ffffffffffffffff81111561067957610679611577565b6040519080825280601f01601f1916602001820160405280156106a3576020820181803683370190505b50905060035b600183516106b79190611b17565b811015610724578281815181106106d0576106d0611a71565b01602001516001600160f81b031916826106eb600384611b17565b815181106106fb576106fb611a71565b60200101906001600160f81b031916908160001a9053508061071c81611b53565b9150506106a9565b509392505050565b8051606090829061073f90600290611c65565b1561074957600080fd5b6000600282516107599190611c79565b67ffffffffffffffff81111561077157610771611577565b6040519080825280601f01601f19166020018201604052801561079b576020820181803683370190505b50905060005b600283516107af9190611c79565b811015610724576107ed836107c5836002611c8d565b6107d0906001611cac565b815181106107e0576107e0611a71565b016020015160f81c6113b6565b6107fc846107d0846002611c8d565b610807906010611cc4565b6108119190611ced565b60f81b82828151811061082657610826611a71565b60200101906001600160f81b031916908160001a90535061084681611b53565b90506107a1565b60606000829050600281511015801561088b57508060008151811061087457610874611a71565b6020910101516001600160f81b031916601160f91b145b80156108c8575080600182516108a19190611b17565b815181106108b1576108b1611a71565b6020910101516001600160f81b031916601160f91b145b6109045760405162461bcd60e51b815260206004820152600d60248201526c125b9d985b1a59081a5b9c1d5d609a1b6044820152606401610515565b6000600282516109149190611b17565b67ffffffffffffffff81111561092c5761092c611577565b6040519080825280601f01601f191660200182016040528015610956576020820181803683370190505b50905060015b6001835161096a9190611b17565b8110156107245782818151811061098357610983611a71565b01602001516001600160f81b0319168261099e600184611b17565b815181106109ae576109ae611a71565b60200101906001600160f81b031916908160001a905350806109cf81611b53565b91505061095c565b600081516001811160208085015160f01c17613078141660011b5b6001810190507403010a071000000b0104040208000c05090d060e0f6d03e4088843e41bac00000000000060ff83870151161c601f161a8360fc1c8115171583029250600181038460041b019350508181106109f2575080610a5c5763101827966000526004601cfd5b50919050565b606060008063432000026001600160a01b031684604051602001610a869190611d12565b60408051601f1981840301815290829052610aa091611df4565b6000604051808303816000865af19150503d8060008114610add576040519150601f19603f3d011682016040523d82523d6000602084013e610ae2565b606091505b509150915081610b0d576343200002816040516375fff46760e01b8152600401610515929190611e10565b80806020019051810190610b219190611e34565b949350505050565b60408051600080825291819052906102fd8360ff610c1a565b60408051600081529052815160609060071660020361015457815160208301206000610b6d856114c3565b805190915060051b5b8015610ba057818101519550601f190182610b90876114d2565b8051906020012003610b76578593505b50505092915050565b6060610622826114f1565b8051604051818001600282019081526f30313233343536373839616263646566600f52918301906022015b818414610c0a57600184019350600f845116516001820153600f845160041c16518153600201610bdf565b6000815260200160405250919050565b600061130c565b63101827966000526004601cfd5b805b6001640100002600610c44835160001a90565b1c161561015457600101610c31565b63ffffffff83113d3d3e63ffffffff821b191691901b1790565b604051610c8f8486036078610c8a601f1986890301605888610c53565b610c53565b959095178552505050602082016040525090565b600080610cb4846018600051610c53565b610cbe8787610c2f565b9150868210610ccd5750610df3565b815160001a60228103610cff5782610ce789858589611003565b9350610cf760048583868a610c6d565b945050610de4565b605b8103610d1c57610d1388848488610dfc565b93509350610de4565b607b8103610d3057610d1388848488610ec5565b6703ff200000000000811c60011615610d4f57610d13888484886110d7565b876004840111610da95782835160e01c63747275658103610d8757600485019450610d7e60058684878b610c6d565b95505050610de4565b636e756c6c8103610da657600485019450610d7e60068684878b610c6d565b50505b876005840111610ddc5782835160d81c6466616c73658103610dd957600585019450610d7e60058684878b610c6d565b50505b610de4610c21565b5050610df08682610c2f565b90505b94509492505050565b600060018401815b868210610e1357610e13610c21565b82610e3757610e228783610c2f565b9150605d610e31835160001a90565b14610e9a575b610e4387838587610ca3565b925092508215610e8b57610e5d8160988551604017610c53565b8352600101610e6d825160001a90565b605d8103610e7b5750610e9a565b602c8103610e895750610e8f565b505b8691505b600182019150610e04565b50600101610eaa82603886610c53565b9350610eba600182878787610c6d565b915094509492505050565b6000600184015b858110610edb57610edb610c21565b81610eff57610eea8682610c2f565b9050607d610ef9825160001a90565b14610fa3575b610f098682610c2f565b905080610f1887838587611003565b610f228882610c2f565b9250603a610f31845160001a90565b03610f9557610f4588600185018688610ca3565b935093508315610f9557610f6c6020860183036098610c8a85850360b88951608017610c53565b8452825160001a607d8103610f8357505050610fa3565b602c8103610f9357505050610f9b565b505b50508590505b600101610ecc565b600101610fb282603886610c53565b9350610eba600282878787610c6d565b6001667e0000007e03ff6030610fdb8585015160001a90565b031c16610fea57610fea610c21565b60058214610fff57610fff6001830182610fc2565b5050565b5050600082821061101657611016610c21565b50600181015b805160001a6022810361102f575061108d565b605c8114611040575060010161101c565b600182015160001a905060016a0510110400000000002001602283031c161561106c575060020161101c565b607581036110885761107f600283610fc2565b5060060161101c565b508290505b82811061109c5761109c610c21565b60010192915050565b805b600a60306110b6835160001a90565b0310156110c5576001016110a7565b8082148416156102fd576102fd610c21565b600083602d6110e7825160001a90565b036110f0576001015b600a60306110ff835160001a90565b031061110d5761110d610c21565b805160001a6001820191506030811461112f5761112c600088846110a5565b91505b50602e61113d825160001a90565b0361115457611151600187600184016110a5565b90505b805160658160001a60201703611183576111806001886001850162010001600e8660011a031a016110a5565b91505b50610eba600382878787610c6d565b60405190820190601f19601f850181165b83810151838201528101806111a35750508381526000846020830101528360408201016040529392505050565b8483611192565b805160609060028160071611610a5c578215811517610a5c57602081161561120b57603881901c63ffffffff169150610a5c565b604051915060208201603882901c63ffffffff165b8015611252578082528051601881901c63ffffffff1661124287601884610c53565b9092525060209190910190611220565b50601f1983820381018060051c85528260405261127185603886610c53565b9350836020178652604081106112a4576020850192508085015b8351815185528152602090930192820180841061128b57505b50505050919050565b80516060908215811517156112c25750610b21565b80841c63ffffffff1691508086166113035760d881901c63ffffffff166112f082871c63ffffffff166111d0565b9250506112fe828583610c53565b861783525b50949350505050565b81801561137e576001811461139457600381146113a357602084018451810180821461136457805160001a6022825361134b8760d8601160f91b610c53565b60005261135b828460008a610ca3565b93509450808253505b8315818310171561137757611377610c21565b50506113af565b61138d601060786058876112ad565b91506113af565b61138d600860b86098876112ad565b6113ac846111d7565b91505b5092915050565b6000600360fc1b60f883901b6001600160f81b031916108015906113ec5750603960f81b60f883901b6001600160f81b03191611155b156113fc57610154603083611ea2565b606160f81b60f883901b6001600160f81b031916108015906114305750603360f91b60f883901b6001600160f81b03191611155b1561144c57606161144283600a611ced565b6101549190611ea2565b604160f81b60f883901b6001600160f81b031916108015906114805750602360f91b60f883901b6001600160f81b03191611155b1561149257604161144283600a611ced565b60405162461bcd60e51b81526004016105159060208082526004908201526319985a5b60e21b604082015260600190565b606060006102fd836003610c1a565b8051606090608016156114ec5760006102fd836001610c1a565b919050565b60606040519050608081016040526f30313233343536373839616263646566600f526002810190506028815260208101600060288201528260601b925060005b808101820184821a600f81165160018301538060041c5182535050600181019060121901611531575050919050565b80356001600160a01b03811681146114ec57600080fd5b634e487b7160e01b600052604160045260246000fd5b6040805190810167ffffffffffffffff811182821017156115b0576115b0611577565b60405290565b604051601f8201601f1916810167ffffffffffffffff811182821017156115df576115df611577565b604052919050565b600067ffffffffffffffff82111561160157611601611577565b50601f01601f191660200190565b600061162261161d846115e7565b6115b6565b905082815283838301111561163657600080fd5b828260208301376000602084830101529392505050565b600082601f83011261165e57600080fd5b6102fd8383356020850161160f565b6000806040838503121561168057600080fd5b61168983611560565b9150602083013567ffffffffffffffff8111156116a557600080fd5b6116b18582860161164d565b9150509250929050565b60005b838110156116d65781810151838201526020016116be565b838111156116e5576000848401525b50505050565b600081518084526117038160208601602086016116bb565b601f01601f19169290920160200192915050565b6020815260006102fd60208301846116eb565b60006020828403121561173c57600080fd5b6102fd82611560565b60008060006060848603121561175a57600080fd5b61176384611560565b925060208085013567ffffffffffffffff8082111561178157600080fd5b61178d8883890161164d565b945060408701359150808211156117a357600080fd5b818701915087601f8301126117b757600080fd5b8135818111156117c9576117c9611577565b8060051b6117d88582016115b6565b918252838101850191858101908b8411156117f257600080fd5b86860192505b83831015611872578235858111156118105760008081fd5b86016040818e03601f190112156118275760008081fd5b61182f61158d565b61183a898301611560565b815260408201358781111561184f5760008081fd5b61185d8f8b8386010161164d565b828b01525083525091860191908601906117f8565b809750505050505050509250925092565b60006020828403121561189557600080fd5b813567ffffffffffffffff8111156118ac57600080fd5b8201601f810184136118bd57600080fd5b6113ac8482356020840161160f565b7f7b226a736f6e727063223a22322e30222c226d6574686f64223a226574685f6381527530b6361116113830b930b6b9911d2dbd913a37911d1160511b602082015260360190565b600061191f826118cc565b845161192f8183602089016116bb565b691116113230ba30911d1160b11b9101908152835161195581600a8401602088016116bb565b73227d2c226c6174657374225d2c226964223a317d60601b600a9290910191820152601e01949350505050565b7f7b226a736f6e727063223a22322e30222c226d6574686f64223a226574685f6781527f65745472616e73616374696f6e436f756e74222c22706172616d73223a5b22006020820152600082516119e081603f8501602087016116bb565b72222c226c6174657374225d2c226964223a317d60681b603f939091019283015250605201919050565b6000611a15826118cc565b8451611a258183602089016116bb565b691116113230ba30911d1160b11b91019081528351611a4b81600a8401602088016116bb565b6c227d2c226c6174657374222c7b60981b600a9290910191820152601701949350505050565b634e487b7160e01b600052603260045260246000fd5b60008451611a998184602089016116bb565b601160f91b9083019081528451611ab78160018401602089016116bb565b6c111d103d9131b7b232911d101160991b600192909101918201528351611ae581600e8401602088016116bb565b61227d60f01b600e929091019182015260100195945050505050565b634e487b7160e01b600052601160045260246000fd5b600082821015611b2957611b29611b01565b500390565b60008251611b408184602087016116bb565b600b60fa1b920191825250600101919050565b600060018201611b6557611b65611b01565b5060010190565b60008251611b7e8184602087016116bb565b697d5d2c226964223a317d60b01b920191825250600a01919050565b600181811c90821680611bae57607f821691505b602082108103610a5c57634e487b7160e01b600052602260045260246000fd5b7f7b226a736f6e727063223a22322e30222c226d6574686f64223a226574685f6781527532ba2130b630b731b29116113830b930b6b9911d2d9160511b602082015260008251611c258160368501602087016116bb565b72222c226c6174657374225d2c226964223a317d60681b6036939091019283015250604901919050565b634e487b7160e01b600052601260045260246000fd5b600082611c7457611c74611c4f565b500690565b600082611c8857611c88611c4f565b500490565b6000816000190483118215151615611ca757611ca7611b01565b500290565b60008219821115611cbf57611cbf611b01565b500190565b600060ff821660ff84168160ff0481118215151615611ce557611ce5611b01565b029392505050565b600060ff821660ff84168060ff03821115611d0a57611d0a611b01565b019392505050565b60006020808352835160c082850152611d2e60e08501826116eb565b905081850151601f1980868403016040870152611d4b83836116eb565b60408801518782038301606089015280518083529194508501925084840190600581901b8501860160005b82811015611da25784878303018452611d908287516116eb565b95880195938801939150600101611d76565b5060608a01519650838982030160808a0152611dbe81886116eb565b96505050505050506080840151611dd960a085018215159052565b5060a084015167ffffffffffffffff811660c0850152610724565b60008251611e068184602087016116bb565b9190910192915050565b6001600160a01b0383168152604060208201819052600090610b21908301846116eb565b600060208284031215611e4657600080fd5b815167ffffffffffffffff811115611e5d57600080fd5b8201601f81018413611e6e57600080fd5b8051611e7c61161d826115e7565b818152856020838501011115611e9157600080fd5b6101af8260208301602086016116bb565b600060ff821660ff841680821015611ebc57611ebc611b01565b9003939250505056fea26469706673582212206b1b4a0614a4ee7ddecf2bfa1cabd2094d131d51ec53710e61e799db434af6b164736f6c634300080d0033436f6e74656e742d547970653a206170706c69636174696f6e2f6a736f6e0000a26469706673582212202b7e7cd84941d5a1d76941dca85f753b4d0494508aea58c324c772987d292b7c64736f6c634300080d0033",
    "linkReferences": {}
  },
  "methodIdentifiers": {
    "PRIVATE_KEYS()": "ece3e1bc",
    "RETURN_ADDRESS()": "9c33da8c",
    "RPC()": "4a370573",
    "auctionEndTime()": "4b449cba",
    "auctionHasStarted()": "61e2f02f",
    "auctionTimeSpan()": "ce093cf7",
    "auctioneerL1()": "ff0c0346",
    "auctioneerSUAVE()": "0e258b49",
    "bidderAmount()": "d864134b",
    "endAuction()": "fe67a54b",
    "getBiddingAddress()": "36021534",
    "getNFTOwnedBy(address,uint256,uint256)": "f31cc018",
    "getTxByHash(string,uint256)": "6e4bb38c",
    "minimalBid()": "65843c12",
    "nftContract()": "d56d229d",
    "onchainCallback()": "4a525054",
    "placeBid()": "ecfc7ecc",
    "placeBidCallback(address,bytes16)": "28b5471b",
    "printBalance(address)": "eb1292ea",
    "printBalance(address,uint256)": "b6ccab85",
    "printERC20Balance(address,address)": "04ad5c29",
    "printERC20Balance(address,address,uint256)": "e1580684",
    "printInfo()": "4148f1f8",
    "printNonce(address)": "efdd74c3",
    "printNonce(address,uint256)": "564e4110",
    "printRPCEndpoint(uint256)": "ce6d3cdb",
    "reclaimBid()": "d5c79af2",
    "registerRPCOffchain(uint256)": "8111fe79",
    "relayTransaction(bytes)": "dd242fad",
    "revealBidders()": "eae04747",
    "startAuction()": "6b64c769",
    "startAuctionCallback()": "297268ad",
    "tokenId()": "17d70f7c",
    "updatePrivateKeyCallback(address,bytes16)": "1999cfd8",
    "updateRPCCallback(uint256,bytes16)": "4abc157c"
  },
  "id": 15
}