{
  "abi": [
    {
      "type": "constructor",
      "inputs": [
        {
          "name": "nftContractAddress",
          "type": "address",
          "internalType": "address"
        },
        {
          "name": "nftTokenId",
          "type": "uint256",
          "internalType": "uint256"
        },
        {
          "name": "_auctionEndTime",
          "type": "uint256",
          "internalType": "uint256"
        },
        {
          "name": "minimalBiddingAmount",
          "type": "uint256",
          "internalType": "uint256"
        },
        {
          "name": "oracleAddress",
          "type": "address",
          "internalType": "address"
        }
      ],
      "stateMutability": "nonpayable"
    },
    {
      "type": "function",
      "name": "PRIVATE_KEYS",
      "inputs": [],
      "outputs": [
        {
          "name": "",
          "type": "string",
          "internalType": "string"
        }
      ],
      "stateMutability": "view"
    },
    {
      "type": "function",
      "name": "auctionEndTime",
      "inputs": [],
      "outputs": [
        {
          "name": "",
          "type": "uint256",
          "internalType": "uint256"
        }
      ],
      "stateMutability": "view"
    },
    {
      "type": "function",
      "name": "auctionHasStarted",
      "inputs": [],
      "outputs": [
        {
          "name": "",
          "type": "bool",
          "internalType": "bool"
        }
      ],
      "stateMutability": "view"
    },
    {
      "type": "function",
      "name": "auctionWinnerL1",
      "inputs": [],
      "outputs": [
        {
          "name": "",
          "type": "address",
          "internalType": "address"
        }
      ],
      "stateMutability": "view"
    },
    {
      "type": "function",
      "name": "auctionWinnerSuave",
      "inputs": [],
      "outputs": [
        {
          "name": "",
          "type": "address",
          "internalType": "address"
        }
      ],
      "stateMutability": "view"
    },
    {
      "type": "function",
      "name": "auctioneerSUAVE",
      "inputs": [],
      "outputs": [
        {
          "name": "",
          "type": "address",
          "internalType": "address"
        }
      ],
      "stateMutability": "view"
    },
    {
      "type": "function",
      "name": "backOutBid",
      "inputs": [
        {
          "name": "returnAddressL1",
          "type": "address",
          "internalType": "address"
        }
      ],
      "outputs": [
        {
          "name": "",
          "type": "bytes",
          "internalType": "bytes"
        }
      ],
      "stateMutability": "nonpayable"
    },
    {
      "type": "function",
      "name": "bidderAmount",
      "inputs": [],
      "outputs": [
        {
          "name": "",
          "type": "uint256",
          "internalType": "uint256"
        }
      ],
      "stateMutability": "view"
    },
    {
      "type": "function",
      "name": "claim",
      "inputs": [
        {
          "name": "returnAddressL1",
          "type": "address",
          "internalType": "address"
        }
      ],
      "outputs": [
        {
          "name": "",
          "type": "bytes",
          "internalType": "bytes"
        }
      ],
      "stateMutability": "nonpayable"
    },
    {
      "type": "function",
      "name": "endAuction",
      "inputs": [],
      "outputs": [
        {
          "name": "",
          "type": "bytes",
          "internalType": "bytes"
        }
      ],
      "stateMutability": "nonpayable"
    },
    {
      "type": "function",
      "name": "endAuctionCallback",
      "inputs": [
        {
          "name": "_winner",
          "type": "address",
          "internalType": "address"
        },
        {
          "name": "_winningBid",
          "type": "uint256",
          "internalType": "uint256"
        },
        {
          "name": "_l1Addresses",
          "type": "address[]",
          "internalType": "address[]"
        }
      ],
      "outputs": [
        {
          "name": "",
          "type": "bytes",
          "internalType": "bytes"
        }
      ],
      "stateMutability": "nonpayable"
    },
    {
      "type": "function",
      "name": "endAuctionOnchain",
      "inputs": [
        {
          "name": "_winnerL1",
          "type": "address",
          "internalType": "address"
        },
        {
          "name": "_winnerSUAVE",
          "type": "address",
          "internalType": "address"
        },
        {
          "name": "_winningBid",
          "type": "uint256",
          "internalType": "uint256"
        },
        {
          "name": "_l1Addresses",
          "type": "address[]",
          "internalType": "address[]"
        }
      ],
      "outputs": [],
      "stateMutability": "nonpayable"
    },
    {
      "type": "function",
      "name": "getBiddingAddress",
      "inputs": [],
      "outputs": [
        {
          "name": "",
          "type": "bytes",
          "internalType": "bytes"
        }
      ],
      "stateMutability": "nonpayable"
    },
    {
      "type": "function",
      "name": "getBiddingAddressOnchain",
      "inputs": [
        {
          "name": "owner",
          "type": "address",
          "internalType": "address"
        },
        {
          "name": "keyRecord",
          "type": "bytes16",
          "internalType": "Suave.DataId"
        }
      ],
      "outputs": [],
      "stateMutability": "nonpayable"
    },
    {
      "type": "function",
      "name": "getNftHoldingAddressPrivateKey",
      "inputs": [],
      "outputs": [],
      "stateMutability": "nonpayable"
    },
    {
      "type": "function",
      "name": "minimalBid",
      "inputs": [],
      "outputs": [
        {
          "name": "",
          "type": "uint256",
          "internalType": "uint256"
        }
      ],
      "stateMutability": "view"
    },
    {
      "type": "function",
      "name": "moveNFTDebug",
      "inputs": [
        {
          "name": "to",
          "type": "address",
          "internalType": "address"
        }
      ],
      "outputs": [],
      "stateMutability": "nonpayable"
    },
    {
      "type": "function",
      "name": "nftContract",
      "inputs": [],
      "outputs": [
        {
          "name": "",
          "type": "address",
          "internalType": "address"
        }
      ],
      "stateMutability": "view"
    },
    {
      "type": "function",
      "name": "nftHoldingAddress",
      "inputs": [],
      "outputs": [
        {
          "name": "",
          "type": "address",
          "internalType": "address"
        }
      ],
      "stateMutability": "view"
    },
    {
      "type": "function",
      "name": "onchainCallback",
      "inputs": [],
      "outputs": [],
      "stateMutability": "nonpayable"
    },
    {
      "type": "function",
      "name": "oracle",
      "inputs": [],
      "outputs": [
        {
          "name": "",
          "type": "address",
          "internalType": "address"
        }
      ],
      "stateMutability": "view"
    },
    {
      "type": "function",
      "name": "printInfo",
      "inputs": [],
      "outputs": [
        {
          "name": "",
          "type": "bytes",
          "internalType": "bytes"
        }
      ],
      "stateMutability": "nonpayable"
    },
    {
      "type": "function",
      "name": "refundNFT",
      "inputs": [
        {
          "name": "returnAddressL1",
          "type": "address",
          "internalType": "address"
        }
      ],
      "outputs": [
        {
          "name": "",
          "type": "bytes",
          "internalType": "bytes"
        }
      ],
      "stateMutability": "nonpayable"
    },
    {
      "type": "function",
      "name": "revealedL1Addresses",
      "inputs": [
        {
          "name": "",
          "type": "uint256",
          "internalType": "uint256"
        }
      ],
      "outputs": [
        {
          "name": "",
          "type": "address",
          "internalType": "address"
        }
      ],
      "stateMutability": "view"
    },
    {
      "type": "function",
      "name": "setUpAuction",
      "inputs": [],
      "outputs": [
        {
          "name": "",
          "type": "bytes",
          "internalType": "bytes"
        }
      ],
      "stateMutability": "nonpayable"
    },
    {
      "type": "function",
      "name": "setUpAuctionOnchain",
      "inputs": [
        {
          "name": "_nftHoldingAddress",
          "type": "address",
          "internalType": "address"
        },
        {
          "name": "keyRecord",
          "type": "bytes16",
          "internalType": "Suave.DataId"
        }
      ],
      "outputs": [],
      "stateMutability": "nonpayable"
    },
    {
      "type": "function",
      "name": "startAuction",
      "inputs": [],
      "outputs": [
        {
          "name": "",
          "type": "bytes",
          "internalType": "bytes"
        }
      ],
      "stateMutability": "nonpayable"
    },
    {
      "type": "function",
      "name": "startAuctionOnchain",
      "inputs": [],
      "outputs": [],
      "stateMutability": "nonpayable"
    },
    {
      "type": "function",
      "name": "startAuctionTest",
      "inputs": [],
      "outputs": [
        {
          "name": "",
          "type": "bytes",
          "internalType": "bytes"
        }
      ],
      "stateMutability": "pure"
    },
    {
      "type": "function",
      "name": "tokenId",
      "inputs": [],
      "outputs": [
        {
          "name": "",
          "type": "uint256",
          "internalType": "uint256"
        }
      ],
      "stateMutability": "view"
    },
    {
      "type": "function",
      "name": "winningBid",
      "inputs": [],
      "outputs": [
        {
          "name": "",
          "type": "uint256",
          "internalType": "uint256"
        }
      ],
      "stateMutability": "view"
    },
    {
      "type": "event",
      "name": "AuctionInfo",
      "inputs": [
        {
          "name": "auctioneerSUAVE",
          "type": "address",
          "indexed": false,
          "internalType": "address"
        },
        {
          "name": "nftHoldingAddress",
          "type": "address",
          "indexed": false,
          "internalType": "address"
        },
        {
          "name": "nftContract",
          "type": "address",
          "indexed": false,
          "internalType": "address"
        },
        {
          "name": "tokenId",
          "type": "uint256",
          "indexed": false,
          "internalType": "uint256"
        },
        {
          "name": "auctionEndTime",
          "type": "uint256",
          "indexed": false,
          "internalType": "uint256"
        },
        {
          "name": "minimalBid",
          "type": "uint256",
          "indexed": false,
          "internalType": "uint256"
        },
        {
          "name": "auctionHasStarted",
          "type": "bool",
          "indexed": false,
          "internalType": "bool"
        },
        {
          "name": "auctionWinnerL1",
          "type": "address",
          "indexed": false,
          "internalType": "address"
        },
        {
          "name": "auctionWinnerSuave",
          "type": "address",
          "indexed": false,
          "internalType": "address"
        },
        {
          "name": "winningBid",
          "type": "uint256",
          "indexed": false,
          "internalType": "uint256"
        },
        {
          "name": "revealedL1Addresses",
          "type": "address[]",
          "indexed": false,
          "internalType": "address[]"
        }
      ],
      "anonymous": false
    },
    {
      "type": "event",
      "name": "AuctionOpened",
      "inputs": [
        {
          "name": "contractAddr",
          "type": "address",
          "indexed": false,
          "internalType": "address"
        },
        {
          "name": "nftContractAddress",
          "type": "address",
          "indexed": false,
          "internalType": "address"
        },
        {
          "name": "nftTokenId",
          "type": "uint256",
          "indexed": false,
          "internalType": "uint256"
        },
        {
          "name": "endTimestamp",
          "type": "uint256",
          "indexed": false,
          "internalType": "uint256"
        },
        {
          "name": "minimalBiddingAmount",
          "type": "uint256",
          "indexed": false,
          "internalType": "uint256"
        }
      ],
      "anonymous": false
    },
    {
      "type": "event",
      "name": "EncBiddingAddress",
      "inputs": [
        {
          "name": "owner",
          "type": "address",
          "indexed": false,
          "internalType": "address"
        },
        {
          "name": "encryptedL1Address",
          "type": "bytes",
          "indexed": false,
          "internalType": "bytes"
        }
      ],
      "anonymous": false
    },
    {
      "type": "event",
      "name": "NFTHoldingAddressEvent",
      "inputs": [
        {
          "name": "nftHoldingAddress",
          "type": "address",
          "indexed": false,
          "internalType": "address"
        }
      ],
      "anonymous": false
    },
    {
      "type": "event",
      "name": "NFTHoldingAddressPrivateKeyEvent",
      "inputs": [
        {
          "name": "privateKey",
          "type": "string",
          "indexed": false,
          "internalType": "string"
        }
      ],
      "anonymous": false
    },
    {
      "type": "event",
      "name": "RevealBiddingAddresses",
      "inputs": [
        {
          "name": "bidderL1",
          "type": "address[]",
          "indexed": false,
          "internalType": "address[]"
        }
      ],
      "anonymous": false
    },
    {
      "type": "event",
      "name": "testEvent",
      "inputs": [
        {
          "name": "test",
          "type": "string",
          "indexed": false,
          "internalType": "string"
        }
      ],
      "anonymous": false
    },
    {
      "type": "error",
      "name": "PeekerReverted",
      "inputs": [
        {
          "name": "",
          "type": "address",
          "internalType": "address"
        },
        {
          "name": "",
          "type": "bytes",
          "internalType": "bytes"
        }
      ]
    }
  ],
  "bytecode": {
    "object": "0x600180546001600160a01b03199081169091555f600255600380548216815560048054909216734067f49f752b33cb66aa4f12a66477d148426b2f17909155600a805460ff1916905560c06040526080908152624b455960e81b60a052600b906200006b90826200022a565b505f600e819055604080519182526020820190819052905162000091916010916200010c565b503480156200009e575f80fd5b506040516200469e3803806200469e833981016040819052620000c1916200030e565b5f80546001600160a01b03199081163317909155600680546001600160a01b03978816908316179055600794909455600892909255600955600480549190931691161790556200035f565b828054828255905f5260205f2090810192821562000162579160200282015b828111156200016257825182546001600160a01b0319166001600160a01b039091161782556020909201916001909101906200012b565b506200017092915062000174565b5090565b5b8082111562000170575f815560010162000175565b634e487b7160e01b5f52604160045260245ffd5b600181811c90821680620001b357607f821691505b602082108103620001d257634e487b7160e01b5f52602260045260245ffd5b50919050565b601f82111562000225575f81815260208120601f850160051c81016020861015620002005750805b601f850160051c820191505b8181101562000221578281556001016200020c565b5050505b505050565b81516001600160401b038111156200024657620002466200018a565b6200025e816200025784546200019e565b84620001d8565b602080601f83116001811462000294575f84156200027c5750858301515b5f19600386901b1c1916600185901b17855562000221565b5f85815260208120601f198616915b82811015620002c457888601518255948401946001909101908401620002a3565b5085821015620002e257878501515f19600388901b60f8161c191681555b5050505050600190811b01905550565b80516001600160a01b038116811462000309575f80fd5b919050565b5f805f805f60a0868803121562000323575f80fd5b6200032e86620002f2565b94506020860151935060408601519250606086015191506200035360808701620002f2565b90509295509295909350565b614331806200036d5f395ff3fe608060405234801561000f575f80fd5b50600436106101dc575f3560e01c806365843c1211610109578063b43e4e071161009e578063e755a2881161006e578063e755a288146103c1578063ece3e1bc14610418578063f080141b14610420578063fe67a54b14610433575f80fd5b8063b43e4e071461037f578063d56d229d14610392578063d864134b146103a5578063e68c5f04146103ae575f80fd5b80638cf80438116100d95780638cf804381461033d57806398554b7d146103465780639eb52da9146103595780639f73853d1461036c575f80fd5b806365843c12146103115780636b64c7691461031a5780637baf6cd2146103225780637dc0d1d01461032a575f80fd5b80632fef54b51161017f578063439541431161014f57806343954143146102d05780634a525054146102e35780634b449cba146102eb57806361e2f02f146102f4575f80fd5b80632fef54b5146102a557806336021534146102ad578063379a147c146102b55780634148f1f8146102c8575f80fd5b80630e258b49116101ba5780630e258b491461023a57806317d70f7c1461024c5780631e83409a146102635780632b9f49f014610276575f80fd5b806305dc24bf146101e05780630759b30f146102105780630b6b1a9b1461021a575b5f80fd5b6001546101f3906001600160a01b031681565b6040516001600160a01b0390911681526020015b60405180910390f35b61021861043b565b005b61022d610228366004613594565b61054a565b60405161020791906135fc565b5f546101f3906001600160a01b031681565b61025560075481565b604051908152602001610207565b61022d610271366004613594565b61074d565b61022d6040805160048152602481019091526020810180516001600160e01b0316633dd7b66960e11b17905290565b61022d6108ac565b61022d610c2e565b6102186102c3366004613594565b610f6d565b61022d610ffa565b6003546101f3906001600160a01b031681565b610218611072565b61025560085481565b600a546103019060ff1681565b6040519015158152602001610207565b61025560095481565b61022d6110b2565b6102186112ba565b6004546101f3906001600160a01b031681565b61025560025481565b61021861035436600461372f565b611367565b6005546101f3906001600160a01b031681565b61021861037a3660046137ab565b611434565b61022d61038d366004613594565b611500565b6006546101f3906001600160a01b031681565b610255600e5481565b61022d6103bc3660046137e2565b61165c565b6102186103cf3660046137ab565b600580546001600160a01b0319166001600160a01b039390931692909217909155305f908152600c6020526040902080546001600160801b03191660809290921c919091179055565b61022d6118bd565b6101f361042e366004613836565b611949565b61022d611971565b610443611dc3565b6104685760405162461bcd60e51b815260040161045f9061384d565b60405180910390fd5b305f908152600c6020526040812054600b805461050e9260801b919061048d90613884565b80601f01602080910402602001604051908101604052809291908181526020018280546104b990613884565b80156105045780601f106104db57610100808354040283529160200191610504565b820191905f5260205f20905b8154815290600101906020018083116104e757829003601f168201915b5050505050611e41565b90507f99c9da0ea5c2b8a4592d3cf87babe1becf862ec443dc748fb90fd5549836c7768160405161053f91906135fc565b60405180910390a150565b6060610554611dc3565b6105705760405162461bcd60e51b815260040161045f9061384d565b335f818152600d602090815260409182902054915160ff909216926105ad9261059992016138b6565b604051602081830303815290604052611ef3565b6040516020016105bd91906138d3565b604051602081830303815290604052906105ea5760405162461bcd60e51b815260040161045f91906135fc565b50600a5460ff1661063d5760405162461bcd60e51b815260206004820152601760248201527f41756374696f6e206e6f74207965742073746172746564000000000000000000604482015260640161045f565b5f61038460085461064e919061393e565b90508042111561065d42611efe565b61066683611efe565b604051602001610677929190613951565b604051602081830303815290604052906106a45760405162461bcd60e51b815260040161045f91906135fc565b5060048054335f908152600c602052604090819020549051630b77366360e21b81526001600160a01b03909216928392632ddcd98c926106ed92899260809290921b91016139e6565b5f604051808303815f87803b158015610704575f80fd5b505af1158015610716573d5f803e3d5ffd5b50506040805160048152602481019091526020810180516001600160e01b0316631294941560e21b17905294505050505b50919050565b6060610757611dc3565b6107735760405162461bcd60e51b815260040161045f9061384d565b6001546001600160a01b03166107c55760405162461bcd60e51b8152602060048201526017602482015276139bc8130c4b5dda5b9b995c881c9959da5cdd195c9959604a1b604482015260640161045f565b6003546001600160a01b031661081d5760405162461bcd60e51b815260206004820152601a60248201527f4e6f2053554156452d77696e6e65722072656769737465726564000000000000604482015260640161045f565b5f546001600160a01b0316330361085c575f546003546001600160a01b039182169116036108535761084e82611f09565b61087c565b61084e82611f93565b61086533612007565b156108735761084e82611f09565b61087c826120c8565b506040805160048152602481019091526020810180516001600160e01b0316631294941560e21b1790525b919050565b60606108b6611dc3565b6108d25760405162461bcd60e51b815260040161045f9061384d565b5f546001600160a01b031633146108fb5760405162461bcd60e51b815260040161045f90613a09565b6005546001600160a01b0316610bbf575f6109155f61218c565b60408051600180825281830190925291925082915f916020808301908036833701905050905030815f8151811061094e5761094e613a53565b6001600160a01b03929092166020928302919091018201526040805160028082526060820183525f93919290918301908036833701905050905030815f8151811061099b5761099b613a53565b6001600160a01b0392831660209182029290920101526004548251911690829060019081106109cc576109cc613a53565b60200260200101906001600160a01b031690816001600160a01b0316815250505f610a815f8385600b8054610a0090613884565b80601f0160208091040260200160405190810160405280929190818152602001828054610a2c90613884565b8015610a775780601f10610a4e57610100808354040283529160200191610a77565b820191905f5260205f20905b815481529060010190602001808311610a5a57829003601f168201915b505050505061224e565b9050610b19815f0151600b8054610a9790613884565b80601f0160208091040260200160405190810160405280929190818152602001828054610ac390613884565b8015610b0e5780601f10610ae557610100808354040283529160200191610b0e565b820191905f5260205f20905b815481529060010190602001808311610af157829003601f168201915b505050505086612347565b5f610b23866123ef565b6040516001600160a01b03821681529091507f6626a17a136b1d4b10944e84f813d8fb1dd2c376313ac76a7120284534d934649060200160405180910390a18151604051631ceab45160e31b91610b7f918491906024016139e6565b60408051601f198184030181529190526020810180516001600160e01b03166001600160e01b0319909316929092179091529650610c2b95505050505050565b6005546040516001600160a01b0390911681527f6626a17a136b1d4b10944e84f813d8fb1dd2c376313ac76a7120284534d93464906020015b60405180910390a1506040805160048152602481019091526020810180516001600160e01b0316631294941560e21b1790525b90565b6060610c38611dc3565b610c545760405162461bcd60e51b815260040161045f9061384d565b5f610c5d61245e565b90508051602014610cbb5760405162461bcd60e51b815260206004820152602260248201527f506c656173652070726f7669646520612076616c6964204145532d323536206b604482015261657960f01b606482015260840161045f565b335f908152600d602052604081205460ff1615159003610eb0575f610cdf5f61218c565b60408051600180825281830190925291925082915f916020808301908036833701905050905030815f81518110610d1857610d18613a53565b6001600160a01b03929092166020928302919091018201526040805160028082526060820183525f93919290918301908036833701905050905030815f81518110610d6557610d65613a53565b6001600160a01b039283166020918202929092010152600454825191169082906001908110610d9657610d96613a53565b60200260200101906001600160a01b031690816001600160a01b0316815250505f610dca5f8385600b8054610a0090613884565b9050610de0815f0151600b8054610a9790613884565b5f610dea866123ef565b90505f610e168883604051602001610e0291906138b6565b604051602081830303815290604052612498565b90507f32a1b16f81819a1ebaec08df267055df9d90ca751999cf31dca10d152aef5ceb3382604051610e49929190613a67565b60405180910390a18251604051639f73853d60e01b91610e6e913391906024016139e6565b60408051601f198184030181529190526020810180516001600160e01b03166001600160e01b0319909316929092179091529850610c2b975050505050505050565b335f908152600c6020526040812054600b8054610ed59260801b919061048d90613884565b90505f610ee1826123ef565b90505f610ef98483604051602001610e0291906138b6565b90507f32a1b16f81819a1ebaec08df267055df9d90ca751999cf31dca10d152aef5ceb3382604051610f2c929190613a67565b60405180910390a150506040805160048152602481019091526020810180516001600160e01b0316631294941560e21b1790529250610c2b915050565b5090565b60048054600554600654600754305f908152600c60205260409081902054905163095c646960e01b81526001600160a01b0395861696879663095c646996610fc996908216958b959190921693919260809190911b9101613a8a565b5f604051808303815f87803b158015610fe0575f80fd5b505af1158015610ff2573d5f803e3d5ffd5b505050505050565b5f54600554600654600754600854600954600a5460015460035460025460405160609a7fd5dad090ef8069fd35d51faeab32f2cf861bb5b9ffed51fcf0c34b55101d26a89a610bf89a6001600160a01b039283169a918316999083169891979096919560ff9091169491831693921691601090613b0c565b6110b05f368080601f0160208091040260200160405190810160405280939291908181526020018383808284375f920191909152506124c392505050565b565b5f546060906001600160a01b031633146110de5760405162461bcd60e51b815260040161045f90613a09565b600a5460ff16156111315760405162461bcd60e51b815260206004820152601b60248201527f41756374696f6e2068617320616c726561647920737461727465640000000000604482015260640161045f565b611139611dc3565b6111555760405162461bcd60e51b815260040161045f9061384d565b600854421061116342611efe565b61116e600854611efe565b60405160200161117f929190613b84565b604051602081830303815290604052906111ac5760405162461bcd60e51b815260040161045f91906135fc565b50600480546006546007546040516373b072f160e01b81526001600160a01b0392831694810194909452602484015216905f9082906373b072f1906044016020604051808303815f875af1158015611206573d5f803e3d5ffd5b505050506040513d601f19601f8201168201806040525081019061122a9190613c2a565b6005549091506001600160a01b0380831691161461128a5760405162461bcd60e51b815260206004820152601f60248201527f546865204e465420776173206e6f74207472616e736665727265642079657400604482015260640161045f565b50506040805160048152602481019091526020810180516001600160e01b0316633dd7b66960e11b179052905090565b6112f85f368080601f0160208091040260200160405190810160405280939291908181526020018383808284375f920191909152506124c392505050565b600a805460ff19166001179055600654600754600854600954604080513081526001600160a01b039095166020860152840192909252606083015260808201527f2c979327dd777fa19be3cb8535b745ce42fd03d20d828d866cc8263780cca15a9060a00160405180910390a1565b6113a55f368080601f0160208091040260200160405190810160405280939291908181526020018383808284375f920191909152506124c392505050565b6009548210156113e4575f8054600180546001600160a01b039092166001600160a01b031992831681179091556003805490921617905560025561141a565b600180546001600160a01b038087166001600160a01b031992831617909255600380549286169290911691909117905560028290555b805161142d9060109060208401906134ec565b5050505050565b6114725f368080601f0160208091040260200160405190810160405280939291908181526020018383808284375f920191909152506124c392505050565b6001600160a01b0382165f908152600c6020908152604080832080546001600160801b031916608086901c179055600d9091528120805460ff19166001179055600e80548492600f92909190826114c883613c45565b9190505581526020019081526020015f205f6101000a8154816001600160a01b0302191690836001600160a01b031602179055505050565b606061150a611dc3565b6115265760405162461bcd60e51b815260040161045f9061384d565b5f546001600160a01b0316331461154f5760405162461bcd60e51b815260040161045f90613a09565b600a5460ff16156115a25760405162461bcd60e51b815260206004820152601b60248201527f41756374696f6e2068617320616c726561647920737461727465640000000000604482015260640161045f565b60048054600554600654600754305f908152600c60205260409081902054905163095c646960e01b81526001600160a01b0395861696879663095c6469966115fe96908216958c959190921693919260809190911b9101613a8a565b5f604051808303815f87803b158015611615575f80fd5b505af1158015611627573d5f803e3d5ffd5b50506040805160048152602481019091526020810180516001600160e01b0316631294941560e21b1790529350505050919050565b6060611666611dc3565b6116825760405162461bcd60e51b815260040161045f9061384d565b6004546001600160a01b031633146116ef5760405162461bcd60e51b815260206004820152602a60248201527f4f6e6c7920746865206f7261636c652063616e20706572666f726d20746869736044820152691037b832b930ba34b7b760b11b606482015260840161045f565b5f5b600e5481101561186b575f818152600f60209081526040808320546001600160a01b03168352600c909152812054600b80546117359260801b919061048d90613884565b90505f611741826123ef565b9050866001600160a01b0316816001600160a01b03160361185657600480546005545f868152600f60209081526040808320546001600160a01b039081168452600c909252918290205491516313c8f3b360e31b815293811694639e479d98946117b3949092169260801b91016139e6565b5f604051808303815f87803b1580156117ca575f80fd5b505af11580156117dc573d5f803e3d5ffd5b5050505f848152600f6020526040908190205490516398554b7d60e01b9250611819918a916001600160a01b03909116908a908a90602401613c94565b60408051601f198184030181529190526020810180516001600160e01b03166001600160e01b03199093169290921790915293506118b692505050565b5050808061186390613c45565b9150506116f1565b506118808460405160200161059991906138b6565b6040516020016118909190613cd0565b60408051601f198184030181529082905262461bcd60e51b825261045f916004016135fc565b9392505050565b600b80546118ca90613884565b80601f01602080910402602001604051908101604052809291908181526020018280546118f690613884565b80156119415780601f1061191857610100808354040283529160200191611941565b820191905f5260205f20905b81548152906001019060200180831161192457829003601f168201915b505050505081565b60108181548110611958575f80fd5b5f918252602090912001546001600160a01b0316905081565b606061197b611dc3565b6119975760405162461bcd60e51b815260040161045f9061384d565b600e5415611d58576010545f03611d2857600454600e546001600160a01b03909116905f906001600160401b038111156119d3576119d361360e565b6040519080825280602002602001820160405280156119fc578160200160208202803683370190505b5090505f5b600e54811015611a9b575f818152600f60209081526040808320546001600160a01b03168352600c909152812054600b8054611a459260801b919061048d90613884565b90505f611a51826123ef565b905080848481518110611a6657611a66613a53565b60200260200101906001600160a01b031690816001600160a01b03168152505050508080611a9390613c45565b915050611a01565b507fda06ffd3cb14c640154f8ef76d0a6000c551e89b2af1b1ca066f638dbf4fd5af81604051611acb9190613d2b565b60405180910390a1600854604051633244aaf960e01b81525f9182916001600160a01b03861691633244aaf991611b06918791600401613d3d565b60408051808303815f875af1158015611b21573d5f803e3d5ffd5b505050506040513d601f19601f82011682018060405250810190611b459190613d5e565b915091505f5b600e54811015611cc9575f818152600f60209081526040808320546001600160a01b03168352600c909152812054600b8054611b8f9260801b919061048d90613884565b90505f611b9b826123ef565b9050836001600160a01b0316816001600160a01b031603611cb457600480546005545f868152600f60209081526040808320546001600160a01b039081168452600c909252918290205491516313c8f3b360e31b815293811694639e479d9894611c0d949092169260801b91016139e6565b5f604051808303815f87803b158015611c24575f80fd5b505af1158015611c36573d5f803e3d5ffd5b5050505f848152600f6020526040908190205490516398554b7d60e01b9250611c739187916001600160a01b039091169089908b90602401613c94565b60408051601f198184030181529190526020810180516001600160e01b03166001600160e01b0319909316929092179091529750610c2b9650505050505050565b50508080611cc190613c45565b915050611b4b565b506040516398554b7d60e01b90611cea908390819086908890602401613c94565b60408051601f198184030181529190526020810180516001600160e01b03166001600160e01b0319909316929092179091529450610c2b9350505050565b7fda06ffd3cb14c640154f8ef76d0a6000c551e89b2af1b1ca066f638dbf4fd5af6010604051610bf89190613d81565b5f805460408051838152602081019091526398554b7d60e01b92611d8c926001600160a01b03169182919060448101613d93565b60408051601f198184030181529190526020810180516001600160e01b03166001600160e01b031990931692909217909152905090565b6040515f90819081906342010000908281818181865af19150503d805f8114611e07576040519150601f19603f3d011682016040523d82523d5f602084013e611e0c565b606091505b509150915081611e37576342010000816040516375fff46760e01b815260040161045f929190613a67565b6020015192915050565b60605f8063420200016001600160a01b03168585604051602001611e66929190613dc7565b60408051601f1981840301815290829052611e8091613de9565b5f604051808303815f865af19150503d805f8114611eb9576040519150601f19603f3d011682016040523d82523d5f602084013e611ebe565b606091505b509150915081611ee9576342020001816040516375fff46760e01b815260040161045f929190613a67565b9150505b92915050565b6060611eed826125f2565b6060611eed82612616565b611f1233612007565b610f6d5760405162461bcd60e51b815260206004820152604660248201527f596f7520617265207468652077696e6e6572206f66207468652061756374696f60448201527f6e20616e642063616e207468657265666f7265206e6f7420646f20746869732060648201526530b1ba34b7b760d11b608482015260a40161045f565b5f546001600160a01b03163314611fbc5760405162461bcd60e51b815260040161045f90613a09565b600480546003546001600160a01b039081165f908152600c602052604090819020549051630b77366360e21b815291909216928392632ddcd98c92610fc992879260801b91016139e6565b6001545f906001600160a01b031661205b5760405162461bcd60e51b8152602060048201526017602482015276139bc8130c4b5dda5b9b995c881c9959da5cdd195c9959604a1b604482015260640161045f565b6003546001600160a01b03166120b35760405162461bcd60e51b815260206004820152601a60248201527f4e6f2053554156452d77696e6e65722072656769737465726564000000000000604482015260640161045f565b506003546001600160a01b0390811691161490565b6120d133612007565b156121445760405162461bcd60e51b815260206004820152603f60248201527f596f752063616e6e6f7420726566756e6420796f75722062696420617320796f60448201527f7520617265207468652077696e6e6572206f66207468652061756374696f6e00606482015260840161045f565b60048054335f908152600c602052604090819020549051630b77366360e21b81526001600160a01b03909216928392632ddcd98c92610fc992879260809290921b91016139e6565b60605f8063532000036001600160a01b0316846040516020016121af9190613e04565b60408051601f19818403018152908290526121c991613de9565b5f604051808303815f865af19150503d805f8114612202576040519150601f19603f3d011682016040523d82523d5f602084013e612207565b606091505b509150915081612232576353200003816040516375fff46760e01b815260040161045f929190613a67565b808060200190518101906122469190613e8a565b949350505050565b6040805160c0810182525f808252602082018190529181019190915260608082018190526080820181905260a08201525f8063420300006001600160a01b0316878787876040516020016122a59493929190613ebb565b60408051601f19818403018152908290526122bf91613de9565b5f604051808303815f865af19150503d805f81146122f8576040519150601f19603f3d011682016040523d82523d5f602084013e6122fd565b606091505b509150915081612328576342030000816040516375fff46760e01b815260040161045f929190613a67565b8080602001905181019061233c9190613f84565b979650505050505050565b5f8063420200006001600160a01b031685858560405160200161236c93929190614064565b60408051601f198184030181529082905261238691613de9565b5f604051808303815f865af19150503d805f81146123bf576040519150601f19603f3d011682016040523d82523d5f602084013e6123c4565b606091505b50915091508161142d576342020000816040516375fff46760e01b815260040161045f929190613a67565b5f806123fa83612658565b9050805160201461244d5760405162461bcd60e51b815260206004820152601a60248201527f496e76616c69642070726976617465206b6579206c656e677468000000000000604482015260640161045f565b6118b661245982614098565b61277c565b606061249360405180604001604052806012815260200171636f6e666964656e7469616c496e7075747360701b8152506127b9565b905090565b60606118b683836040516020016124af9190613de9565b60405160208183030381529060405261285f565b5f6124cd82612924565b9050815181036124db575050565b5f8183516124e9919061393e565b90505f816001600160401b038111156125045761250461360e565b6040519080825280601f01601f19166020018201604052801561252e576020820181803683370190505b5090505f5b8281101561259b578461254682866140bb565b8151811061255657612556613a53565b602001015160f81c60f81b82828151811061257357612573613a53565b60200101906001600160f81b03191690815f1a9053508061259381613c45565b915050612533565b505f818060200190518101906125b191906140ce565b90505f5b8151811015610ff2576125e08282815181106125d3576125d3613a53565b6020026020010151612a86565b806125ea81613c45565b9150506125b5565b60606125fd82612c69565b8051613078825260020160011990910190815292915050565b60606080604051019050602081016040525f8152805f19835b928101926030600a8206018453600a90048061262f575050819003601f19909101908152919050565b8051606090829061266b90600290614245565b15612674575f80fd5b5f600282516126839190614258565b6001600160401b0381111561269a5761269a61360e565b6040519080825280601f01601f1916602001820160405280156126c4576020820181803683370190505b5090505f5b600283516126d79190614258565b81101561277457612715836126ed83600261426b565b6126f89060016140bb565b8151811061270857612708613a53565b016020015160f81c612cce565b612724846126f884600261426b565b61272f906010614282565b61273991906142a5565b60f81b82828151811061274e5761274e613a53565b60200101906001600160f81b03191690815f1a90535061276d81613c45565b90506126c9565b509392505050565b5f805f61278884612dda565b6040805160208082019490945280820192909252805180830382018152606090920190528051910120949350505050565b60605f8063533000036001600160a01b0316846040516020016127dc91906135fc565b60408051601f19818403018152908290526127f691613de9565b5f604051808303815f865af19150503d805f811461282f576040519150601f19603f3d011682016040523d82523d5f602084013e612834565b606091505b509150915081612232576353300003816040516375fff46760e01b815260040161045f929190613a67565b60605f80635670000e6001600160a01b031685856040516020016128849291906142be565b60408051601f198184030181529082905261289e91613de9565b5f604051808303815f865af19150503d805f81146128d7576040519150601f19603f3d011682016040523d82523d5f602084013e6128dc565b606091505b50915091508161290757635670000e816040516375fff46760e01b815260040161045f929190613a67565b8080602001905181019061291b9190613e8a565b95945050505050565b5f805b8251811015612a805760408051808201909152600381526254354360e81b6020909101528251601560fa1b9084908390811061296557612965613a53565b01602001516001600160f81b03191603612a6e576001805b6040518060400160405280600381526020016254354360e81b81525051811015612a3d5784516129ad82856140bb565b101580612a1e57506040518060400160405280600381526020016254354360e81b81525081815181106129e2576129e2613a53565b01602001516001600160f81b031916856129fc83866140bb565b81518110612a0c57612a0c613a53565b01602001516001600160f81b03191614155b15612a2b575f9150612a3d565b80612a3581613c45565b91505061297d565b508015612a6c576040518060400160405280600381526020016254354360e81b815250518261224691906140bb565b505b80612a7881613c45565b915050612927565b50505190565b604081015180516020830151515f03612aa4578060208301a0505050565b826020015151600103612adf575f83602001515f81518110612ac857612ac8613a53565b60200260200101519050808260208501a150505050565b826020015151600203612b3e575f83602001515f81518110612b0357612b03613a53565b602002602001015190505f8460200151600181518110612b2557612b25613a53565b6020026020010151905080828460208701a25050505050565b826020015151600303612bc1575f83602001515f81518110612b6257612b62613a53565b602002602001015190505f8460200151600181518110612b8457612b84613a53565b602002602001015190505f8560200151600281518110612ba657612ba6613a53565b602002602001015190508082848660208901a3505050505050565b826020015151600403612c64575f83602001515f81518110612be557612be5613a53565b602002602001015190505f8460200151600181518110612c0757612c07613a53565b602002602001015190505f8560200151600281518110612c2957612c29613a53565b602002602001015190505f8660200151600381518110612c4b57612c4b613a53565b60200260200101519050808284868860208b01a4505050505b505050565b8051604051818001600282019081526f30313233343536373839616263646566600f52918301906022015b818414612cbf57600184019350600f845116516001820153600f845160041c16518153600201612c94565b5f815260200160405250919050565b5f600360fc1b60f883901b6001600160f81b03191610801590612d035750603960f81b60f883901b6001600160f81b03191611155b15612d1357611eed6030836142e2565b606160f81b60f883901b6001600160f81b03191610801590612d475750603360f91b60f883901b6001600160f81b03191611155b15612d63576061612d5983600a6142a5565b611eed91906142e2565b604160f81b60f883901b6001600160f81b03191610801590612d975750602360f91b60f883901b6001600160f81b03191611155b15612da9576041612d5983600a6142a5565b60405162461bcd60e51b815260040161045f9060208082526004908201526319985a5b60e21b604082015260600190565b5f80612e2f837f79be667ef9dcbbac55a06295ce870b07029bfcdb2dce28d959f2815b16f817987f483ada7726a3c4655da4fbfc0e1108a8fd17b448a68554199c47d08ffb10d4b85f6401000003d019612e39565b9094909350915050565b5f805f805f612e4d8a8a8a60018b8b612e70565b925092509250612e5f83838389612eee565b945094505050509550959350505050565b5f805f885f03612e87575086915085905084612ee2565b885f8060015b8315612ed9576001841615612eb357612eab8383838f8f8f8e612f58565b919450925090505b612ebe600285614258565b9350612ecd8c8c8c8c8c613287565b919d509b509950612e8d565b91955093509150505b96509650969350505050565b5f805f612efb8585613422565b90505f8480612f0c57612f0c614231565b82830990505f8580612f2057612f20614231565b828a0990505f8680612f3457612f34614231565b8780612f4257612f42614231565b8486098a09919a91995090975050505050505050565b5f808089158015612f67575088155b15612f7957508591508490508361327a565b86158015612f85575085155b15612f9757508891508790508661327a565b612f9f61354b565b8480612fad57612fad614231565b898a0981528480612fc057612fc0614231565b81518a0960208201528480612fd757612fd7614231565b86870960408201528480612fed57612fed614231565b604082015187096060820152604080516080810190915280868061301357613013614231565b60408401518e098152602001868061302d5761302d614231565b60608401518d098152602001868061304757613047614231565b83518b098152602001868061305e5761305e614231565b60208401518a0990526040810151815191925014158061308657506060810151602082015114155b6130d25760405162461bcd60e51b815260206004820152601e60248201527f557365206a6163446f75626c652066756e6374696f6e20696e73746561640000604482015260640161045f565b6130da61354b565b85806130e8576130e8614231565b82516130f4908861393e565b6040840151088152858061310a5761310a614231565b6020830151613119908861393e565b6060840151086020820152858061313257613132614231565b815180096040820152858061314957613149614231565b815160408301510960608201525f868061316557613165614231565b6060830151613174908961393e565b888061318257613182614231565b60208501518009089050868061319a5761319a614231565b87806131a8576131a8614231565b88806131b6576131b6614231565b60408501518651096002096131cb908961393e565b820890505f87806131de576131de614231565b88806131ec576131ec614231565b6131f6848b61393e565b8a8061320457613204614231565b6040870151885109086020850151099050878061322357613223614231565b888061323157613231614231565b6060850151602087015109613246908a61393e565b820890505f888061325957613259614231565b898061326757613267614231565b8b8f098551099297509095509093505050505b9750975097945050505050565b5f805f855f0361329e575086915085905084613417565b5f84806132ad576132ad614231565b898a0990505f85806132c1576132c1614231565b898a0990505f86806132d5576132d5614231565b898a0990505f87806132e9576132e9614231565b88806132f7576132f7614231565b848e0960040990505f888061330e5761330e614231565b898061331c5761331c614231565b8a8061332a5761332a614231565b8586098c098a8061333d5761333d614231565b87600309089050888061335257613352614231565b898061336057613360614231565b83840861336d908b61393e565b8a8061337b5761337b614231565b838409089450888061338f5761338f614231565b898061339d5761339d614231565b8a806133ab576133ab614231565b8687096008096133bb908b61393e565b8a806133c9576133c9614231565b8b806133d7576133d7614231565b6133e1898e61393e565b8608840908935088806133f6576133f6614231565b898061340457613404614231565b8c8e096002099497509295509293505050505b955095509592505050565b5f82158015906134325750818314155b801561343d57508115155b61347a5760405162461bcd60e51b815260206004820152600e60248201526d24b73b30b634b210373ab6b132b960911b604482015260640161045f565b5f600183825b86156134e1576134908783614258565b90508286806134a1576134a1614231565b87806134af576134af614231565b8584096134bc908961393e565b86089094509250866134ce818361426b565b6134d8908461393e565b97509150613480565b509195945050505050565b828054828255905f5260205f2090810192821561353f579160200282015b8281111561353f57825182546001600160a01b0319166001600160a01b0390911617825560209092019160019091019061350a565b50610f69929150613569565b60405180608001604052806004906020820280368337509192915050565b5b80821115610f69575f815560010161356a565b6001600160a01b0381168114613591575f80fd5b50565b5f602082840312156135a4575f80fd5b81356118b68161357d565b5f5b838110156135c95781810151838201526020016135b1565b50505f910152565b5f81518084526135e88160208601602086016135af565b601f01601f19169290920160200192915050565b602081525f6118b660208301846135d1565b634e487b7160e01b5f52604160045260245ffd5b60405160c081016001600160401b03811182821017156136445761364461360e565b60405290565b604051606081016001600160401b03811182821017156136445761364461360e565b604051601f8201601f191681016001600160401b03811182821017156136945761369461360e565b604052919050565b5f6001600160401b038211156136b4576136b461360e565b5060051b60200190565b5f82601f8301126136cd575f80fd5b813560206136e26136dd8361369c565b61366c565b82815260059290921b84018101918181019086841115613700575f80fd5b8286015b848110156137245780356137178161357d565b8352918301918301613704565b509695505050505050565b5f805f8060808587031215613742575f80fd5b843561374d8161357d565b9350602085013561375d8161357d565b92506040850135915060608501356001600160401b0381111561377e575f80fd5b61378a878288016136be565b91505092959194509250565b6001600160801b031981168114613591575f80fd5b5f80604083850312156137bc575f80fd5b82356137c78161357d565b915060208301356137d781613796565b809150509250929050565b5f805f606084860312156137f4575f80fd5b83356137ff8161357d565b92506020840135915060408401356001600160401b03811115613820575f80fd5b61382c868287016136be565b9150509250925092565b5f60208284031215613846575f80fd5b5035919050565b6020808252601d908201527f6d7573742062652063616c6c656420636f6e666964656e7469616c6c79000000604082015260600190565b600181811c9082168061389857607f821691505b60208210810361074757634e487b7160e01b5f52602260045260245ffd5b60609190911b6bffffffffffffffffffffffff1916815260140190565b7f4e6f2062696464696e6720616464726573732072656c6174656420746f206d738152690339739b2b73232b91d160b51b60208201525f825161391d81602a8501602087016135af565b91909101602a0192915050565b634e487b7160e01b5f52601160045260245ffd5b81810381811115611eed57611eed61392a565b7f41756374696f6e20656e64696e6720746f6f20736f6f6e212043757272656e7481526b0103a34b6b2b9ba30b6b81d160a51b60208201525f835161399d81602c8501602088016135af565b7f203e206261636b206f757420756e74696c2074696d657374616d703a20000000602c9184019182015283516139da8160498401602088016135af565b01604901949350505050565b6001600160a01b039290921682526001600160801b031916602082015260400190565b6020808252602a908201527f596f7520617265206e6f74207468652061756374696f6e656572206f6620746860408201526934b99030bab1ba34b7b760b11b606082015260800190565b634e487b7160e01b5f52603260045260245ffd5b6001600160a01b03831681526040602082018190525f90612246908301846135d1565b6001600160a01b039586168152938516602085015291909316604083015260608201929092526001600160801b0319909116608082015260a00190565b5f815480845260208085019450835f52805f205f5b83811015613b015781546001600160a01b031687529582019560019182019101613adc565b509495945050505050565b5f61016060018060a01b03808f168452808e166020850152808d1660408501528b60608501528a60808501528960a085015288151560c085015280881660e0850152808716610100850152508461012084015280610140840152613b7281840185613ac7565b9e9d5050505050505050505050505050565b7f41756374696f6e20656e64696e672074696d65206973206f76657220616c726581527f616479212043757272656e742074696d657374616d703a20000000000000000060208201525f8351613be18160388501602088016135af565b7f203e2061756374696f6e20656e64696e2074696d657374616d703a20000000006038918401918201528351613c1e8160548401602088016135af565b01605401949350505050565b5f60208284031215613c3a575f80fd5b81516118b68161357d565b5f60018201613c5657613c5661392a565b5060010190565b5f8151808452602080850194508084015f5b83811015613b015781516001600160a01b031687529582019590820190600101613c6f565b6001600160a01b03858116825284166020820152604081018390526080606082018190525f90613cc690830184613c5d565b9695505050505050565b7f57696e6e6572204c312061646472657373206973206e6f742070617274206f6681526d0103a34329030bab1ba34b7b71d160951b60208201525f8251613d1e81602e8501602087016135af565b91909101602e0192915050565b602081525f6118b66020830184613c5d565b604081525f613d4f6040830185613c5d565b90508260208301529392505050565b5f8060408385031215613d6f575f80fd5b8251915060208301516137d78161357d565b602081525f6118b66020830184613ac7565b6001600160a01b0385811682528416602082015260ff831660408201526080606082018190525f90613cc690830184613c5d565b6001600160801b031983168152604060208201525f61224660408301846135d1565b5f8251613dfa8184602087016135af565b9190910192915050565b6020810160028310613e2457634e487b7160e01b5f52602160045260245ffd5b91905290565b5f82601f830112613e39575f80fd5b81516001600160401b03811115613e5257613e5261360e565b613e65601f8201601f191660200161366c565b818152846020838601011115613e79575f80fd5b611ee98260208301602087016135af565b5f60208284031215613e9a575f80fd5b81516001600160401b03811115613eaf575f80fd5b61224684828501613e2a565b6001600160401b0385168152608060208201525f613edc6080830186613c5d565b8281036040840152613eee8186613c5d565b9050828103606084015261233c81856135d1565b80516108a781613796565b80516001600160401b03811681146108a7575f80fd5b5f82601f830112613f32575f80fd5b81516020613f426136dd8361369c565b82815260059290921b84018101918181019086841115613f60575f80fd5b8286015b84811015613724578051613f778161357d565b8352918301918301613f64565b5f60208284031215613f94575f80fd5b81516001600160401b0380821115613faa575f80fd5b9083019060c08286031215613fbd575f80fd5b613fc5613622565b613fce83613f02565b8152613fdc60208401613f02565b6020820152613fed60408401613f0d565b6040820152606083015182811115614003575f80fd5b61400f87828601613f23565b606083015250608083015182811115614026575f80fd5b61403287828601613f23565b60808301525060a083015182811115614049575f80fd5b61405587828601613e2a565b60a08301525095945050505050565b6001600160801b031984168152606060208201525f61408660608301856135d1565b8281036040840152613cc681856135d1565b80516020808301519190811015610747575f1960209190910360031b1b16919050565b80820180821115611eed57611eed61392a565b5f60208083850312156140df575f80fd5b82516001600160401b03808211156140f5575f80fd5b818501915085601f830112614108575f80fd5b81516141166136dd8261369c565b81815260059190911b83018401908481019088831115614134575f80fd5b8585015b838110156142245780518581111561414e575f80fd5b86016060818c03601f19011215614163575f80fd5b61416b61364a565b888201516141788161357d565b815260408201518781111561418b575f80fd5b8201603f81018d1361419b575f80fd5b898101516141ab6136dd8261369c565b81815260059190911b8201604001908b8101908f8311156141ca575f80fd5b6040840193505b828410156141ea5783518252928c0192908c01906141d1565b848d0152505050606082015187811115614202575f80fd5b6142108d8b83860101613e2a565b604083015250845250918601918601614138565b5098975050505050505050565b634e487b7160e01b5f52601260045260245ffd5b5f8261425357614253614231565b500690565b5f8261426657614266614231565b500490565b8082028115828204841417611eed57611eed61392a565b60ff818116838216029081169081811461429e5761429e61392a565b5092915050565b60ff8181168382160190811115611eed57611eed61392a565b604081525f6142d060408301856135d1565b828103602084015261291b81856135d1565b60ff8281168282160390811115611eed57611eed61392a56fea2646970667358221220267c376a7ab1ed34a1b894be908391dfe93e87c84c9c84280846b67a73c2b90064736f6c63430008140033",
    "linkReferences": {}
  },
  "methodIdentifiers": {
    "PRIVATE_KEYS()": "ece3e1bc",
    "auctionEndTime()": "4b449cba",
    "auctionHasStarted()": "61e2f02f",
    "auctionWinnerL1()": "05dc24bf",
    "auctionWinnerSuave()": "43954143",
    "auctioneerSUAVE()": "0e258b49",
    "backOutBid(address)": "0b6b1a9b",
    "bidderAmount()": "d864134b",
    "claim(address)": "1e83409a",
    "endAuction()": "fe67a54b",
    "endAuctionCallback(address,uint256,address[])": "e68c5f04",
    "endAuctionOnchain(address,address,uint256,address[])": "98554b7d",
    "getBiddingAddress()": "36021534",
    "getBiddingAddressOnchain(address,bytes16)": "9f73853d",
    "getNftHoldingAddressPrivateKey()": "0759b30f",
    "minimalBid()": "65843c12",
    "moveNFTDebug(address)": "379a147c",
    "nftContract()": "d56d229d",
    "nftHoldingAddress()": "9eb52da9",
    "onchainCallback()": "4a525054",
    "oracle()": "7dc0d1d0",
    "printInfo()": "4148f1f8",
    "refundNFT(address)": "b43e4e07",
    "revealedL1Addresses(uint256)": "f080141b",
    "setUpAuction()": "2fef54b5",
    "setUpAuctionOnchain(address,bytes16)": "e755a288",
    "startAuction()": "6b64c769",
    "startAuctionOnchain()": "7baf6cd2",
    "startAuctionTest()": "2b9f49f0",
    "tokenId()": "17d70f7c",
    "winningBid()": "8cf80438"
  },
  "id": 16
}