{
  "abi": [
    {
      "type": "constructor",
      "inputs": [],
      "stateMutability": "nonpayable"
    },
    {
      "type": "function",
      "name": "RPC",
      "inputs": [],
      "outputs": [
        {
          "name": "",
          "type": "string",
          "internalType": "string"
        }
      ],
      "stateMutability": "view"
    },
    {
      "type": "function",
      "name": "SIGNING_KEY",
      "inputs": [],
      "outputs": [
        {
          "name": "",
          "type": "string",
          "internalType": "string"
        }
      ],
      "stateMutability": "view"
    },
    {
      "type": "function",
      "name": "onchainCallback",
      "inputs": [],
      "outputs": [],
      "stateMutability": "nonpayable"
    },
    {
      "type": "function",
      "name": "printBalance",
      "inputs": [
        {
          "name": "account",
          "type": "address",
          "internalType": "address"
        },
        {
          "name": "chainId",
          "type": "uint256",
          "internalType": "uint256"
        }
      ],
      "outputs": [
        {
          "name": "",
          "type": "bytes",
          "internalType": "bytes"
        }
      ],
      "stateMutability": "nonpayable"
    },
    {
      "type": "function",
      "name": "printBalance",
      "inputs": [
        {
          "name": "account",
          "type": "address",
          "internalType": "address"
        }
      ],
      "outputs": [
        {
          "name": "",
          "type": "bytes",
          "internalType": "bytes"
        }
      ],
      "stateMutability": "nonpayable"
    },
    {
      "type": "function",
      "name": "printERC20Balance",
      "inputs": [
        {
          "name": "coinAddr",
          "type": "address",
          "internalType": "address"
        },
        {
          "name": "account",
          "type": "address",
          "internalType": "address"
        }
      ],
      "outputs": [
        {
          "name": "",
          "type": "bytes",
          "internalType": "bytes"
        }
      ],
      "stateMutability": "nonpayable"
    },
    {
      "type": "function",
      "name": "printERC20Balance",
      "inputs": [
        {
          "name": "coinAddr",
          "type": "address",
          "internalType": "address"
        },
        {
          "name": "account",
          "type": "address",
          "internalType": "address"
        },
        {
          "name": "chainId",
          "type": "uint256",
          "internalType": "uint256"
        }
      ],
      "outputs": [
        {
          "name": "",
          "type": "bytes",
          "internalType": "bytes"
        }
      ],
      "stateMutability": "nonpayable"
    },
    {
      "type": "function",
      "name": "printNonce",
      "inputs": [
        {
          "name": "account",
          "type": "address",
          "internalType": "address"
        },
        {
          "name": "chainId",
          "type": "uint256",
          "internalType": "uint256"
        }
      ],
      "outputs": [
        {
          "name": "",
          "type": "bytes",
          "internalType": "bytes"
        }
      ],
      "stateMutability": "nonpayable"
    },
    {
      "type": "function",
      "name": "printNonce",
      "inputs": [
        {
          "name": "account",
          "type": "address",
          "internalType": "address"
        }
      ],
      "outputs": [
        {
          "name": "",
          "type": "bytes",
          "internalType": "bytes"
        }
      ],
      "stateMutability": "nonpayable"
    },
    {
      "type": "function",
      "name": "printRPCEndpoint",
      "inputs": [
        {
          "name": "chainId",
          "type": "uint256",
          "internalType": "uint256"
        }
      ],
      "outputs": [
        {
          "name": "",
          "type": "bytes",
          "internalType": "bytes"
        }
      ],
      "stateMutability": "nonpayable"
    },
    {
      "type": "function",
      "name": "printSigningKey",
      "inputs": [
        {
          "name": "owner",
          "type": "address",
          "internalType": "address"
        }
      ],
      "outputs": [
        {
          "name": "",
          "type": "bytes",
          "internalType": "bytes"
        }
      ],
      "stateMutability": "nonpayable"
    },
    {
      "type": "function",
      "name": "registerRPCOffchain",
      "inputs": [
        {
          "name": "chainId",
          "type": "uint256",
          "internalType": "uint256"
        },
        {
          "name": "endpointURL",
          "type": "string",
          "internalType": "string"
        }
      ],
      "outputs": [
        {
          "name": "",
          "type": "bytes",
          "internalType": "bytes"
        }
      ],
      "stateMutability": "nonpayable"
    },
    {
      "type": "function",
      "name": "registerRPCOffchain",
      "inputs": [
        {
          "name": "chainId",
          "type": "uint256",
          "internalType": "uint256"
        }
      ],
      "outputs": [
        {
          "name": "",
          "type": "bytes",
          "internalType": "bytes"
        }
      ],
      "stateMutability": "nonpayable"
    },
    {
      "type": "function",
      "name": "registerSigningKeyOffchain",
      "inputs": [],
      "outputs": [
        {
          "name": "",
          "type": "bytes",
          "internalType": "bytes"
        }
      ],
      "stateMutability": "nonpayable"
    },
    {
      "type": "function",
      "name": "relayTransaction",
      "inputs": [],
      "outputs": [
        {
          "name": "",
          "type": "bytes",
          "internalType": "bytes"
        }
      ],
      "stateMutability": "nonpayable"
    },
    {
      "type": "function",
      "name": "updateRPCOnchain",
      "inputs": [
        {
          "name": "chainId",
          "type": "uint256",
          "internalType": "uint256"
        },
        {
          "name": "_rpcRecord",
          "type": "bytes16",
          "internalType": "Suave.DataId"
        }
      ],
      "outputs": [],
      "stateMutability": "nonpayable"
    },
    {
      "type": "function",
      "name": "updateSigningKeyOnchain",
      "inputs": [
        {
          "name": "owner",
          "type": "address",
          "internalType": "address"
        },
        {
          "name": "signingKeyRecord",
          "type": "bytes16",
          "internalType": "Suave.DataId"
        }
      ],
      "outputs": [],
      "stateMutability": "nonpayable"
    },
    {
      "type": "event",
      "name": "Balance",
      "inputs": [
        {
          "name": "owner",
          "type": "address",
          "indexed": false,
          "internalType": "address"
        },
        {
          "name": "value",
          "type": "uint256",
          "indexed": false,
          "internalType": "uint256"
        }
      ],
      "anonymous": false
    },
    {
      "type": "event",
      "name": "ERC20Balance",
      "inputs": [
        {
          "name": "coinAddr",
          "type": "address",
          "indexed": false,
          "internalType": "address"
        },
        {
          "name": "owner",
          "type": "address",
          "indexed": false,
          "internalType": "address"
        },
        {
          "name": "value",
          "type": "uint256",
          "indexed": false,
          "internalType": "uint256"
        }
      ],
      "anonymous": false
    },
    {
      "type": "event",
      "name": "HttpResponse",
      "inputs": [
        {
          "name": "response",
          "type": "string",
          "indexed": false,
          "internalType": "string"
        }
      ],
      "anonymous": false
    },
    {
      "type": "event",
      "name": "KeyUpdatedEvent",
      "inputs": [
        {
          "name": "addr",
          "type": "address",
          "indexed": false,
          "internalType": "address"
        }
      ],
      "anonymous": false
    },
    {
      "type": "event",
      "name": "NonceCounter",
      "inputs": [
        {
          "name": "owner",
          "type": "address",
          "indexed": false,
          "internalType": "address"
        },
        {
          "name": "value",
          "type": "uint256",
          "indexed": false,
          "internalType": "uint256"
        }
      ],
      "anonymous": false
    },
    {
      "type": "event",
      "name": "OffchainStatusEvent",
      "inputs": [
        {
          "name": "code",
          "type": "uint256",
          "indexed": false,
          "internalType": "uint256"
        },
        {
          "name": "text",
          "type": "string",
          "indexed": false,
          "internalType": "string"
        }
      ],
      "anonymous": false
    },
    {
      "type": "event",
      "name": "PrintSigningKeyEvent",
      "inputs": [
        {
          "name": "signing_key",
          "type": "string",
          "indexed": false,
          "internalType": "string"
        }
      ],
      "anonymous": false
    },
    {
      "type": "event",
      "name": "RPCEndpoint",
      "inputs": [
        {
          "name": "chainId",
          "type": "uint256",
          "indexed": false,
          "internalType": "uint256"
        },
        {
          "name": "endpointURL",
          "type": "string",
          "indexed": false,
          "internalType": "string"
        }
      ],
      "anonymous": false
    },
    {
      "type": "event",
      "name": "RPCEndpointUpdated",
      "inputs": [
        {
          "name": "chainId",
          "type": "uint256",
          "indexed": false,
          "internalType": "uint256"
        }
      ],
      "anonymous": false
    },
    {
      "type": "event",
      "name": "TxnRetrievalEvent",
      "inputs": [
        {
          "name": "txn",
          "type": "tuple",
          "indexed": false,
          "internalType": "struct Transactions.EIP155",
          "components": [
            {
              "name": "to",
              "type": "address",
              "internalType": "address"
            },
            {
              "name": "gas",
              "type": "uint256",
              "internalType": "uint256"
            },
            {
              "name": "gasPrice",
              "type": "uint256",
              "internalType": "uint256"
            },
            {
              "name": "value",
              "type": "uint256",
              "internalType": "uint256"
            },
            {
              "name": "nonce",
              "type": "uint256",
              "internalType": "uint256"
            },
            {
              "name": "data",
              "type": "bytes",
              "internalType": "bytes"
            },
            {
              "name": "chainId",
              "type": "uint256",
              "internalType": "uint256"
            },
            {
              "name": "r",
              "type": "bytes32",
              "internalType": "bytes32"
            },
            {
              "name": "s",
              "type": "bytes32",
              "internalType": "bytes32"
            },
            {
              "name": "v",
              "type": "uint256",
              "internalType": "uint256"
            }
          ]
        }
      ],
      "anonymous": false
    },
    {
      "type": "event",
      "name": "TxnSignature",
      "inputs": [
        {
          "name": "r",
          "type": "bytes32",
          "indexed": false,
          "internalType": "bytes32"
        },
        {
          "name": "s",
          "type": "bytes32",
          "indexed": false,
          "internalType": "bytes32"
        }
      ],
      "anonymous": false
    },
    {
      "type": "error",
      "name": "PeekerReverted",
      "inputs": [
        {
          "name": "",
          "type": "address",
          "internalType": "address"
        },
        {
          "name": "",
          "type": "bytes",
          "internalType": "bytes"
        }
      ]
    }
  ],
  "bytecode": {
    "object": "0x60c060405260036080908152624b455960e81b60a052600190610022908261010e565b5060408051808201909152600381526252504360e81b602082015260049061004a908261010e565b5034801561005757600080fd5b50600080546001600160a01b031916331790556101cc565b634e487b7160e01b600052604160045260246000fd5b600181811c9082168061009957607f821691505b6020821081036100b957634e487b7160e01b600052602260045260246000fd5b50919050565b601f82111561010957806000526020600020601f840160051c810160208510156100e65750805b601f840160051c820191505b8181101561010657600081556001016100f2565b50505b505050565b81516001600160401b038111156101275761012761006f565b61013b816101358454610085565b846100bf565b6020601f82116001811461016f57600083156101575750848201515b600019600385901b1c1916600184901b178455610106565b600084815260208120601f198516915b8281101561019f578785015182556020948501946001909201910161017f565b50848210156101bd5786840151600019600387901b60f8161c191681555b50505050600190811b01905550565b617741806101db6000396000f3fe608060405234801561001057600080fd5b506004361061010b5760003560e01c8063aa48cfd9116100a2578063dae77bf311610071578063dae77bf3146101d5578063e1580684146101e8578063eb1292ea146101fb578063efdd74c31461020e578063f7bddfcb1461022157600080fd5b8063aa48cfd91461019f578063b6ccab85146101a7578063cba5fc8f146101ba578063ce6d3cdb146101c257600080fd5b8063564e4110116100de578063564e4110146101535780636693f57d146101665780638111fe79146101795780638e5fde2a1461018c57600080fd5b806304ad5c29146101105780632abb3ddc146101395780634a370573146101415780634a52505414610149575b600080fd5b61012361011e36600461253c565b610234565b60405161013091906125c5565b60405180910390f35b61012361024d565b6101236102db565b6101516102e8565b005b6101236101613660046125d8565b61032a565b6101236101743660046126bb565b6103eb565b610123610187366004612744565b610566565b61015161019a366004612773565b61069a565b610123610711565b6101236101b53660046125d8565b610812565b610123610893565b6101236101d0366004612744565b610a8e565b6101236101e33660046127a1565b610b56565b6101236101f63660046127be565b610c4a565b6101236102093660046127a1565b610d0c565b61012361021c3660046127a1565b610d1b565b61015161022f3660046127ff565b610d2a565b6060610244838362aa36a7610c4a565b90505b92915050565b6001805461025a90612824565b80601f016020809104026020016040519081016040528092919081815260200182805461028690612824565b80156102d35780601f106102a8576101008083540402835291602001916102d3565b820191906000526020600020905b8154815290600101906020018083116102b657829003601f168201915b505050505081565b6004805461025a90612824565b6103286000368080601f016020809104026020016040519081016040528093929190818152602001838380828437600092019190915250610d8f92505050565b565b600081815260066020526040902054606090829060ff166103665760405162461bcd60e51b815260040161035d90612858565b60405180910390fd5b60006103728585610eb9565b604080516001600160a01b0388168152602081018390529192507f3b24b105d571ada2c5ff343f2d44669f73eb6919590174de6e8146ca28159ab791015b60405180910390a1506040805160048152602481019091526020810180516001600160e01b0316631294941560e21b17905291505092915050565b60408051600180825281830190925260609160009190602080830190803683370190505090503081600081518110610425576104256128a4565b60200260200101906001600160a01b031690816001600160a01b0316815250506000610478600083846040518060400160405280600c81526020016b1c9c18d7d95b991c1bda5b9d60a21b815250610fc7565b905061051381600001516004805461048f90612824565b80601f01602080910402602001604051908101604052809291908181526020018280546104bb90612824565b80156105085780601f106104dd57610100808354040283529160200191610508565b820191906000526020600020905b8154815290600101906020018083116104eb57829003601f168201915b5050505050866110c6565b516040805160248101969096526001600160801b031990911660448087019190915281518087039091018152606490950190525050506020810180516001600160e01b031663f7bddfcb60e01b17905290565b6060600061057261117a565b604080516001808252818301909252919250600091906020808301908036833701905050905030816000815181106105ac576105ac6128a4565b60200260200101906001600160a01b031690816001600160a01b03168152505060006105ff600083846040518060400160405280600c81526020016b1c9c18d7d95b991c1bda5b9d60a21b815250610fc7565b905061051381600001516004805461061690612824565b80601f016020809104026020016040519081016040528092919081815260200182805461064290612824565b801561068f5780601f106106645761010080835404028352916020019161068f565b820191906000526020600020905b81548152906001019060200180831161067257829003601f168201915b5050505050856110c6565b6001600160a01b038216600081815260026020908152604080832080546001600160801b031916608087901c1790556003825291829020805460ff1916600117905590519182527f92e11401e7f1a191975b13bbd87466dc7f6258e4cad9a425469fbcd5f6132a4591015b60405180910390a15050565b6060600061071d61117a565b60408051600180825281830190925291925060009190602080830190803683370190505090503081600081518110610757576107576128a4565b60200260200101906001600160a01b031690816001600160a01b03168152505060006107a9600083846040518060400160405280600b81526020016a5349474e494e475f4b455960a81b815250610fc7565b90506107c081600001516001805461061690612824565b51604080513360248201526001600160801b031990921660448084019190915281518084039091018152606490920190526020810180516001600160e01b031663472fef1560e11b1790529392505050565b600081815260066020526040902054606090829060ff166108455760405162461bcd60e51b815260040161035d90612858565b600061085185856111b4565b604080516001600160a01b0388168152602081018390529192507f134e340554ff8a7d64280a2a28b982df554e2595e5bf45cd39368f31099172a691016103b0565b6060600061089f61117a565b905060006108ac82611279565b90508060c0015162aa36a7146109045760405162461bcd60e51b815260206004820152601f60248201527f426c6f636b636861696e206e6f7420287965742920737570706f727465642e00604482015260640161035d565b60018160600151101561094a5760405162461bcd60e51b815260206004820152600e60248201526d2b30b63ab2903a37b7903637bb9760911b604482015260640161035d565b60c081015160009081526005602052604081205460048054610a02926109fd9260809190911b9161097a90612824565b80601f01602080910402602001604051908101604052809291908181526020018280546109a690612824565b80156109f35780601f106109c8576101008083540402835291602001916109f3565b820191906000526020600020905b8154815290600101906020018083116109d657829003601f168201915b505050505061148d565b611542565b90506000610a1582858560c001516115ef565b90506000610a2282611763565b90507f327e01b2020161b6558b2331cb98237046f3b84dad406f6b362adaf08141bdee81604051610a5391906125c5565b60405180910390a150506040805160048152602481019091526020810180516001600160e01b0316631294941560e21b179052949350505050565b600081815260066020526040902054606090829060ff16610ac15760405162461bcd60e51b815260040161035d90612858565b600083815260056020526040902054600480547f8ade15e69c108c4dfe55277d2959a4d55a0a0b68fc8bf37c19b3410fb96efc53928692610b0e926109fd9260801b919061097a90612824565b604051610b1c9291906128ba565b60405180910390a16040805160048152602481019091526020810180516001600160e01b0316631294941560e21b17905291505b50919050565b6000546060906001600160a01b03163314610b7057600080fd5b6001600160a01b038216600090815260036020526040902054829060ff16610bea5760405162461bcd60e51b815260206004820152602760248201527f4e6f207369676e696e67206b65792073746f72656420666f722074686973206160448201526632323932b9b99760c91b606482015260840161035d565b6001600160a01b038316600090815260026020526040902054600180547f3f570260c76c463f3e28f9296aa1b140236a0f654bdd683053df98776fb1b1dc92610c3d9260809190911b9161097a90612824565b604051610b1c91906125c5565b600081815260066020526040902054606090829060ff16610c7d5760405162461bcd60e51b815260040161035d90612858565b6000610c8a868686611822565b604080516001600160a01b03808a168252881660208201529081018290529091507f5b4d96e9dd904741ef64e77c434f173074692a9347f17f49e183c334f2cfd1f59060600160405180910390a1506040805160048152602481019091526020810180516001600160e01b0316631294941560e21b1790529150509392505050565b60606102478262aa36a7610812565b60606102478262aa36a761032a565b600082815260056020908152604080832080546001600160801b031916608086901c1790556006825291829020805460ff1916600117905590518381527f75f21ca04fec38f3a9c5d47e1e2a6f75c114170867b1335a94e53d128992902c9101610705565b6000610d9a82611932565b905081518103610da8575050565b6000818351610db791906128e9565b90506000816001600160401b03811115610dd357610dd3612604565b6040519080825280601f01601f191660200182016040528015610dfd576020820181803683370190505b50905060005b82811015610e625784610e1682866128fc565b81518110610e2657610e266128a4565b602001015160f81c60f81b828281518110610e4357610e436128a4565b60200101906001600160f81b031916908160001a905350600101610e03565b50600081806020019051810190610e799190612982565b905060005b8151811015610eb157610ea9828281518110610e9c57610e9c6128a4565b6020026020010151611a82565b600101610e7e565b505050505050565b600081815260066020526040812054829060ff16610ee95760405162461bcd60e51b815260040161035d90612858565b60008381526005602052604081205460048054610f14926109fd9260809190911b9161097a90612824565b9050600081604051610f25906124a8565b610f2f91906125c5565b604051809103906000f080158015610f4b573d6000803e3d6000fd5b50604051633857496960e11b81526001600160a01b038881166004830152919250908216906370ae92d2906024015b6020604051808303816000875af1158015610f99573d6000803e3d6000fd5b505050506040513d601f19601f82011682018060405250810190610fbd9190612b0c565b9695505050505050565b6040805160c0810182526000808252602082018190529181019190915260608082018190526080820181905260a082015260008063420300006001600160a01b0316878787876040516020016110209493929190612b6a565b60408051601f198184030181529082905261103a91612bb2565b6000604051808303816000865af19150503d8060008114611077576040519150601f19603f3d011682016040523d82523d6000602084013e61107c565b606091505b5091509150816110a7576342030000816040516375fff46760e01b815260040161035d929190612bce565b808060200190518101906110bb9190612c8a565b979650505050505050565b60008063420200006001600160a01b03168585856040516020016110ec93929190612d82565b60408051601f198184030181529082905261110691612bb2565b6000604051808303816000865af19150503d8060008114611143576040519150601f19603f3d011682016040523d82523d6000602084013e611148565b606091505b509150915081611173576342020000816040516375fff46760e01b815260040161035d929190612bce565b5050505050565b60606111af60405180604001604052806012815260200171636f6e666964656e7469616c496e7075747360701b815250611c74565b905090565b600081815260066020526040812054829060ff166111e45760405162461bcd60e51b815260040161035d90612858565b6000838152600560205260408120546004805461120f926109fd9260809190911b9161097a90612824565b9050600081604051611220906124a8565b61122a91906125c5565b604051809103906000f080158015611246573d6000803e3d6000fd5b5060405163e3d670d760e01b81526001600160a01b0388811660048301529192509082169063e3d670d790602401610f7a565b6112816124b5565b6112896124b5565b60006112c46112bf8560408051808201825260008082526020918201528151808301909252825182529182019181019190915290565b611d1f565b9050805160091461130d5760405162461bcd60e51b815260206004820152601360248201527234b73b30b634b2103a3930b739b0b1ba34b7b760691b604482015260640161035d565b61133081600081518110611323576113236128a4565b6020026020010151611e2a565b6080830152805161134e9082906001908110611323576113236128a4565b6040830152805161136c9082906002908110611323576113236128a4565b60208301528051611397908290600390811061138a5761138a6128a4565b6020026020010151611e77565b516001036113a857600082526113d7565b6113cb816003815181106113be576113be6128a4565b6020026020010151611ef5565b6001600160a01b031682525b6113ed81600481518110611323576113236128a4565b60608301528051611418908290600590811061140b5761140b6128a4565b6020026020010151611f0f565b8260a0018190525061143681600681518110611323576113236128a4565b8261012001818152505061145e6114598260078151811061140b5761140b6128a4565b611f8c565b8260e00181815250506114806114598260088151811061140b5761140b6128a4565b6101008301525092915050565b606060008063420200016001600160a01b031685856040516020016114b3929190612db7565b60408051601f19818403018152908290526114cd91612bb2565b6000604051808303816000865af19150503d806000811461150a576040519150601f19603f3d011682016040523d82523d6000602084013e61150f565b606091505b50915091508161153a576342020001816040516375fff46760e01b815260040161035d929190612bce565b949350505050565b80516060906000816001600160401b0381111561156157611561612604565b6040519080825280601f01601f19166020018201604052801561158b576020820181803683370190505b50905060005b828110156115e7578481815181106115ab576115ab6128a4565b602001015160f81c60f81b8282815181106115c8576115c86128a4565b60200101906001600160f81b031916908160001a905350600101611591565b509392505050565b6116336040518060c001604052806060815260200160608152602001606081526020016060815260200160001515815260200160006001600160401b031681525090565b600082815260066020526040902054829060ff166116635760405162461bcd60e51b815260040161035d90612858565b604080516001808252818301909252600091816020015b606081526020019060019003908161167a5790505090506040518060400160405280601e81526020017f436f6e74656e742d547970653a206170706c69636174696f6e2f6a736f6e0000815250816000815181106116da576116da6128a4565b60200260200101819052506040518060c00160405280878152602001604051806040016040528060048152602001631413d4d560e21b815250815260200182815260200161172787611ff3565b86604051602001611739929190612dda565b60408051808303601f1901815291815290825260006020830152611b589101529695505050505050565b606060008063432000026001600160a01b0316846040516020016117879190612e69565b60408051601f19818403018152908290526117a191612bb2565b6000604051808303816000865af19150503d80600081146117de576040519150601f19603f3d011682016040523d82523d6000602084013e6117e3565b606091505b50915091508161180e576343200002816040516375fff46760e01b815260040161035d929190612bce565b8080602001905181019061153a9190612f54565b600081815260066020526040812054829060ff166118525760405162461bcd60e51b815260040161035d90612858565b6000838152600560205260408120546004805461187d926109fd9260809190911b9161097a90612824565b90506000818760405161188f90612517565b61189a929190612f88565b604051809103906000f0801580156118b6573d6000803e3d6000fd5b506040516370a0823160e01b81526001600160a01b03888116600483015291925082918216906370a0823190602401602060405180830381865afa158015611902573d6000803e3d6000fd5b505050506040513d601f19601f820116820180604052508101906119269190612b0c565b98975050505050505050565b6000805b8251811015611a7c5760408051808201909152600381526254354360e81b6020909101528251601560fa1b90849083908110611974576119746128a4565b01602001516001600160f81b03191603611a74576001805b6040518060400160405280600381526020016254354360e81b81525051811015611a435784516119bc82856128fc565b101580611a2d57506040518060400160405280600381526020016254354360e81b81525081815181106119f1576119f16128a4565b01602001516001600160f81b03191685611a0b83866128fc565b81518110611a1b57611a1b6128a4565b01602001516001600160f81b03191614155b15611a3b5760009150611a43565b60010161198c565b508015611a72576040518060400160405280600381526020016254354360e81b815250518261153a91906128fc565b505b600101611936565b50505190565b60408101518051602083015151600003611aa1578060208301a0505050565b826020015151600103611ade5760008360200151600081518110611ac757611ac76128a4565b60200260200101519050808260208501a150505050565b826020015151600203611b405760008360200151600081518110611b0457611b046128a4565b6020026020010151905060008460200151600181518110611b2757611b276128a4565b6020026020010151905080828460208701a25050505050565b826020015151600303611bc75760008360200151600081518110611b6657611b666128a4565b6020026020010151905060008460200151600181518110611b8957611b896128a4565b6020026020010151905060008560200151600281518110611bac57611bac6128a4565b602002602001015190508082848660208901a3505050505050565b826020015151600403611c6f5760008360200151600081518110611bed57611bed6128a4565b6020026020010151905060008460200151600181518110611c1057611c106128a4565b6020026020010151905060008560200151600281518110611c3357611c336128a4565b6020026020010151905060008660200151600381518110611c5657611c566128a4565b60200260200101519050808284868860208b01a4505050505b505050565b606060008063533000036001600160a01b031684604051602001611c9891906125c5565b60408051601f1981840301815290829052611cb291612bb2565b6000604051808303816000865af19150503d8060008114611cef576040519150601f19603f3d011682016040523d82523d6000602084013e611cf4565b606091505b50915091508161180e576353300003816040516375fff46760e01b815260040161035d929190612bce565b6060611d2a826121f9565b611d3357600080fd5b6000611d3e83612234565b90506000816001600160401b03811115611d5a57611d5a612604565b604051908082528060200260200182016040528015611d9f57816020015b6040805180820190915260008082526020820152815260200190600190039081611d785790505b5090506000611db185602001516122b9565b8560200151611dc091906128fc565b90506000805b84811015611e1f57611dd78361233b565b9150604051806040016040528083815260200184815250848281518110611e0057611e006128a4565b6020908102919091010152611e1582846128fc565b9250600101611dc6565b509195945050505050565b805160009015801590611e3f57508151602110155b611e4857600080fd5b600080611e54846123df565b81519193509150602082101561153a5760208290036101000a9004949350505050565b6060600082600001516001600160401b03811115611e9757611e97612604565b6040519080825280601f01601f191660200182016040528015611ec1576020820181803683370190505b5090508051600003611ed35792915050565b6000816020019050611eee8460200151828660000151612426565b5092915050565b8051600090601514611f0657600080fd5b61024782611e2a565b8051606090611f1d57600080fd5b600080611f29846123df565b915091506000816001600160401b03811115611f4757611f47612604565b6040519080825280601f01601f191660200182016040528015611f71576020820181803683370190505b50905060208101611f83848285612426565b50949350505050565b60008151602014611feb5760405162461bcd60e51b8152602060048201526024808201527f6279746573546f427974657333323a20696e76616c696420696e707574206c656044820152630dccee8d60e31b606482015260840161035d565b506020015190565b60408051808201909152601081526f181899199a1a9b1b9c1cb0b131b232b360811b602082015281516060919060009061202e906002612fb2565b6120399060026128fc565b6001600160401b0381111561205057612050612604565b6040519080825280601f01601f19166020018201604052801561207a576020820181803683370190505b509050600360fc1b81600081518110612095576120956128a4565b60200101906001600160f81b031916908160001a905350600f60fb1b816001815181106120c4576120c46128a4565b60200101906001600160f81b031916908160001a90535060005b84518110156115e7578260048683815181106120fc576120fc6128a4565b016020015182516001600160f81b031990911690911c60f81c908110612124576121246128a4565b01602001516001600160f81b0319168261213f836002612fb2565b61214a9060026128fc565b8151811061215a5761215a6128a4565b60200101906001600160f81b031916908160001a90535082858281518110612184576121846128a4565b602091010151815160f89190911c600f169081106121a4576121a46128a4565b01602001516001600160f81b031916826121bf836002612fb2565b6121ca9060036128fc565b815181106121da576121da6128a4565b60200101906001600160f81b031916908160001a9053506001016120de565b8051600090810361220c57506000919050565b6020820151805160001a9060c082101561222a575060009392505050565b5060019392505050565b8051600090810361224757506000919050565b60008061225784602001516122b9565b846020015161226691906128fc565b905060008460000151856020015161227e91906128fc565b90505b808210156122b0576122928261233b565b61229c90836128fc565b9150826122a881612fc9565b935050612281565b50909392505050565b8051600090811a60808110156122d25750600092915050565b60b88110806122ed575060c081108015906122ed575060f881105b156122fb5750600192915050565b60c081101561232f57612310600160b8612fe2565b61231d9060ff16826128e9565b6123289060016128fc565b9392505050565b612310600160f8612fe2565b80516000908190811a60808110156123565760019150611eee565b60b881101561237c5761236a6080826128e9565b6123759060016128fc565b9150611eee565b60c08110156123a95760b78103600185019450806020036101000a85510460018201810193505050611eee565b60f88110156123bd5761236a60c0826128e9565b60019390930151602084900360f7016101000a900490920160f5190192915050565b60008060006123f184602001516122b9565b9050600081856020015161240591906128fc565b9050600082866000015161241991906128e9565b9196919550909350505050565b8060000361243357505050565b6020811061246b578251825261244a6020846128fc565b92506124576020836128fc565b91506124646020826128e9565b9050612433565b8015611c6f57600060016124808360206128e9565b61248c906101006130e2565b61249691906128e9565b84518451821691191617835250505050565b612112806130ef83390190565b60405180610140016040528060006001600160a01b031681526020016000815260200160008152602001600081526020016000815260200160608152602001600081526020016000801916815260200160008019168152602001600081525090565b61250b8061520183390190565b6001600160a01b038116811461253957600080fd5b50565b6000806040838503121561254f57600080fd5b823561255a81612524565b9150602083013561256a81612524565b809150509250929050565b60005b83811015612590578181015183820152602001612578565b50506000910152565b600081518084526125b1816020860160208601612575565b601f01601f19169290920160200192915050565b6020815260006102446020830184612599565b600080604083850312156125eb57600080fd5b82356125f681612524565b946020939093013593505050565b634e487b7160e01b600052604160045260246000fd5b604051606081016001600160401b038111828210171561263c5761263c612604565b60405290565b60405160c081016001600160401b038111828210171561263c5761263c612604565b604051601f8201601f191681016001600160401b038111828210171561268c5761268c612604565b604052919050565b60006001600160401b038211156126ad576126ad612604565b50601f01601f191660200190565b600080604083850312156126ce57600080fd5b8235915060208301356001600160401b038111156126eb57600080fd5b8301601f810185136126fc57600080fd5b803561270f61270a82612694565b612664565b81815286602083850101111561272457600080fd5b816020840160208301376000602083830101528093505050509250929050565b60006020828403121561275657600080fd5b5035919050565b6001600160801b03198116811461253957600080fd5b6000806040838503121561278657600080fd5b823561279181612524565b9150602083013561256a8161275d565b6000602082840312156127b357600080fd5b813561232881612524565b6000806000606084860312156127d357600080fd5b83356127de81612524565b925060208401356127ee81612524565b929592945050506040919091013590565b6000806040838503121561281257600080fd5b82359150602083013561256a8161275d565b600181811c9082168061283857607f821691505b602082108103610b5057634e487b7160e01b600052602260045260246000fd5b6020808252602c908201527f4e6f205250432d456e64706f696e7420617661696c61626c6520666f7220746860408201526b34b99031b430b4b716a4a21760a11b606082015260800190565b634e487b7160e01b600052603260045260246000fd5b82815260406020820152600061153a6040830184612599565b634e487b7160e01b600052601160045260246000fd5b81810381811115610247576102476128d3565b80820180821115610247576102476128d3565b60006001600160401b0382111561292857612928612604565b5060051b60200190565b600082601f83011261294357600080fd5b815160208301600061295761270a84612694565b905082815285838301111561296b57600080fd5b612979836020830184612575565b95945050505050565b60006020828403121561299457600080fd5b81516001600160401b038111156129aa57600080fd5b8201601f810184136129bb57600080fd5b80516129c961270a8261290f565b8082825260208201915060208360051b8501019250868311156129eb57600080fd5b602084015b83811015612b015780516001600160401b03811115612a0e57600080fd5b85016060818a03601f19011215612a2457600080fd5b612a2c61261a565b6020820151612a3a81612524565b815260408201516001600160401b03811115612a5557600080fd5b82016020810190603f018b13612a6a57600080fd5b8051612a7861270a8261290f565b8082825260208201915060208360051b85010192508d831115612a9a57600080fd5b6020840193505b82841015612abc578351825260209384019390910190612aa1565b602085015250505060608201516001600160401b03811115612add57600080fd5b612aec8b602083860101612932565b604083015250845250602092830192016129f0565b509695505050505050565b600060208284031215612b1e57600080fd5b5051919050565b600081518084526020840193506020830160005b82811015612b605781516001600160a01b0316865260209586019590910190600101612b39565b5093949350505050565b6001600160401b0385168152608060208201526000612b8c6080830186612b25565b8281036040840152612b9e8186612b25565b905082810360608401526110bb8185612599565b60008251612bc4818460208701612575565b9190910192915050565b6001600160a01b038316815260406020820181905260009061153a90830184612599565b8051612bfd8161275d565b919050565b80516001600160401b0381168114612bfd57600080fd5b600082601f830112612c2a57600080fd5b8151612c3861270a8261290f565b8082825260208201915060208360051b860101925085831115612c5a57600080fd5b602085015b83811015612c80578051612c7281612524565b835260209283019201612c5f565b5095945050505050565b600060208284031215612c9c57600080fd5b81516001600160401b03811115612cb257600080fd5b820160c08185031215612cc457600080fd5b612ccc612642565b612cd582612bf2565b8152612ce360208301612bf2565b6020820152612cf460408301612c02565b604082015260608201516001600160401b03811115612d1257600080fd5b612d1e86828501612c19565b60608301525060808201516001600160401b03811115612d3d57600080fd5b612d4986828501612c19565b60808301525060a08201516001600160401b03811115612d6857600080fd5b612d7486828501612932565b60a083015250949350505050565b6001600160801b031984168152606060208201526000612da56060830185612599565b8281036040840152610fbd8185612599565b6001600160801b03198316815260406020820152600061153a6040830184612599565b7f7b226a736f6e727063223a22322e30222c226d6574686f64223a226574685f7381527f656e645261775472616e73616374696f6e222c22706172616d73223a5b220000602082015260008351612e3881603e850160208801612575565b67112e961134b2111d60c11b603e9390910192830152506046810191909152607d60f81b6066820152606701919050565b602081526000825160c06020840152612e8560e0840182612599565b90506020840151601f19848303016040850152612ea28282612599565b6040860151858203601f190160608701528051808352919350602090810192508084019190600582901b85010160005b82811015612f0357601f19868303018452612eee828651612599565b60209586019594909401939150600101612ed2565b506060880151878203601f190160808901529450612f218186612599565b9450505050506080840151612f3a60a085018215159052565b5060a08401516001600160401b03811660c08501526115e7565b600060208284031215612f6657600080fd5b81516001600160401b03811115612f7c57600080fd5b61153a84828501612932565b604081526000612f9b6040830185612599565b905060018060a01b03831660208301529392505050565b8082028115828204841417610247576102476128d3565b600060018201612fdb57612fdb6128d3565b5060010190565b60ff8281168282160390811115610247576102476128d3565b6001815b60018411156130365780850481111561301a5761301a6128d3565b600184161561302857908102905b60019390931c928002612fff565b935093915050565b60008261304d57506001610247565b8161305a57506000610247565b8160018114613070576002811461307a57613096565b6001915050610247565b60ff84111561308b5761308b6128d3565b50506001821b610247565b5060208310610133831016604e8410600b84101617156130b9575081810a610247565b6130c66000198484612ffb565b80600019048211156130da576130da6128d3565b029392505050565b6000610244838361303e56fe608060405234801561001057600080fd5b5060405161211238038061211283398101604081905261002f91610058565b600061003b82826101ad565b505061026b565b634e487b7160e01b600052604160045260246000fd5b60006020828403121561006a57600080fd5b81516001600160401b0381111561008057600080fd5b8201601f8101841361009157600080fd5b80516001600160401b038111156100aa576100aa610042565b604051601f8201601f19908116603f011681016001600160401b03811182821017156100d8576100d8610042565b6040528181528282016020018610156100f057600080fd5b60005b8281101561010f576020818501810151838301820152016100f3565b50600091810160200191909152949350505050565b600181811c9082168061013857607f821691505b60208210810361015857634e487b7160e01b600052602260045260246000fd5b50919050565b601f8211156101a857806000526020600020601f840160051c810160208510156101855750805b601f840160051c820191505b818110156101a55760008155600101610191565b50505b505050565b81516001600160401b038111156101c6576101c6610042565b6101da816101d48454610124565b8461015e565b6020601f82116001811461020e57600083156101f65750848201515b600019600385901b1c1916600184901b1784556101a5565b600084815260208120601f198516915b8281101561023e578785015182556020948501946001909201910161021e565b508482101561025c5786840151600019600387901b60f8161c191681555b50505050600190811b01905550565b611e988061027a6000396000f3fe608060405234801561001057600080fd5b50600436106100575760003560e01c80631b8b921d1461005c57806370ae92d2146100855780637c52407c146100a6578063c672f9d6146100b9578063e3d670d7146100db575b600080fd5b61006f61006a366004611640565b6100ee565b60405161007c91906116dd565b60405180910390f35b6100986100933660046116f0565b61015a565b60405190815260200161007c565b61006f6100b436600461170b565b6101b8565b6100cc6100c7366004611866565b6102fa565b6040519051815260200161007c565b6100986100e93660046116f0565b610547565b606060006100fb84610563565b6101048461060c565b6040516020016101159291906118f6565b60405160208183030381529060405290506000610131826102fa565b9050600061014e61014961014484610630565b61063f565b610716565b93505050505b92915050565b60008061016683610563565b6040516020016101769190611964565b60405160208183030381529060405290506000610192826102fa565b905060006101af6101aa6101a584610630565b61082e565b6109ad565b95945050505050565b606060006101c585610563565b6101ce8561060c565b6040516020016101df9291906119ec565b604051602081830303815290604052905060005b83518110156102ac578161022385838151811061021257610212611a53565b602002602001015160000151610563565b61024986848151811061023857610238611a53565b60200260200101516020015161060c565b60405160200161025b93929190611a69565b60405160208183030381529060405291506001845161027a9190611af9565b8110156102a457816040516020016102929190611b0c565b60405160208183030381529060405291505b6001016101f3565b50806040516020016102be9190611b31565b604051602081830303815290604052905060006102da826102fa565b905060006102ed61014961014484610630565b93505050505b9392505050565b60408051602081019091526000815261034d6040518060c001604052806060815260200160608152602001606081526020016060815260200160001515815260200160006001600160401b031681525090565b604051806040016040528060048152602001631413d4d560e21b81525081602001819052506000805461037f90611b5f565b80601f01602080910402602001604051908101604052809291908181526020018280546103ab90611b5f565b80156103f85780601f106103cd576101008083540402835291602001916103f8565b820191906000526020600020905b8154815290600101906020018083116103db57829003601f168201915b505050918352505060408051600180825281830190925290816020015b606081526020019060019003908161041557505060408281019182528051808201909152601e81527f436f6e74656e742d547970653a206170706c69636174696f6e2f6a736f6e000060208201529051805160009061047657610476611a53565b602090810291909101015260608101839052600061049382610a38565b905060006104a082610aff565b905060006104d6604051806040016040528060078152602001661132b93937b91160c91b81525083610b1890919063ffffffff16565b90506104e481516007161590565b610513576104f181610630565b60405162461bcd60e51b815260040161050a91906116dd565b60405180910390fd5b604080518082019091526008815267113932b9bab63a1160c11b602082015261053d908390610b18565b9695505050505050565b60008061055383610563565b6040516020016101769190611b93565b606061056e82610b7f565b6028602282019081209192507f4040404040404040404040404040404040404040404040404040404040404040917f888888888888888888888888888888888888888888888888888888888888888016601160f31b60005b82811a8202818001526001810190601219016105c657505050818151166000511660011c8151188152602081019050818151166020511660011c81511881525050919050565b606061061782610b8a565b8051613078825260020160011990910190815292915050565b606060006102f3836000610bf0565b606060008290506000600482516106569190611af9565b6001600160401b0381111561066d5761066d61154d565b6040519080825280601f01601f191660200182016040528015610697576020820181803683370190505b50905060035b600183516106ab9190611af9565b81101561070e578281815181106106c4576106c4611a53565b01602001516001600160f81b031916826106df600384611af9565b815181106106ef576106ef611a53565b60200101906001600160f81b031916908160001a90535060010161069d565b509392505050565b8051606090829061072990600290611c2a565b1561073357600080fd5b6000600282516107439190611c3e565b6001600160401b0381111561075a5761075a61154d565b6040519080825280601f01601f191660200182016040528015610784576020820181803683370190505b50905060005b600283516107989190611c3e565b81101561070e576107d6836107ae836002611c52565b6107b9906001611c69565b815181106107c9576107c9611a53565b016020015160f81c61138c565b6107e5846107b9846002611c52565b6107f0906010611c7c565b6107fa9190611c98565b60f81b82828151811061080f5761080f611a53565b60200101906001600160f81b031916908160001a90535060010161078a565b60606000829050600281511015801561086c57508060008151811061085557610855611a53565b6020910101516001600160f81b031916601160f91b145b80156108a9575080600182516108829190611af9565b8151811061089257610892611a53565b6020910101516001600160f81b031916601160f91b145b6108e55760405162461bcd60e51b815260206004820152600d60248201526c125b9d985b1a59081a5b9c1d5d609a1b604482015260640161050a565b6000600282516108f59190611af9565b6001600160401b0381111561090c5761090c61154d565b6040519080825280601f01601f191660200182016040528015610936576020820181803683370190505b50905060015b6001835161094a9190611af9565b81101561070e5782818151811061096357610963611a53565b01602001516001600160f81b0319168261097e600184611af9565b8151811061098e5761098e611a53565b60200101906001600160f81b031916908160001a90535060010161093c565b600081516001811160208085015160f01c17613078141660011b5b6001810190507403010a071000000b0104040208000c05090d060e0f6d03e4088843e41bac00000000000060ff83870151161c601f161a8360fc1c8115171583029250600181038460041b019350508181106109c8575080610a325763101827966000526004601cfd5b50919050565b606060008063432000026001600160a01b031684604051602001610a5c9190611cb1565b60408051601f1981840301815290829052610a7691611d9c565b6000604051808303816000865af19150503d8060008114610ab3576040519150601f19603f3d011682016040523d82523d6000602084013e610ab8565b606091505b509150915081610ae3576343200002816040516375fff46760e01b815260040161050a929190611db8565b80806020019051810190610af79190611ddc565b949350505050565b60408051600080825291819052906102f38360ff610bf0565b60408051600081529052815160609060071660020361015457815160208301206000610b4385611499565b805190915060051b5b8015610b7657818101519550601f190182610b66876114a8565b8051906020012003610b4c578593505b50505092915050565b6060610617826114c7565b8051604051818001600282019081526f30313233343536373839616263646566600f52918301906022015b818414610be057600184019350600f845116516001820153600f845160041c16518153600201610bb5565b6000815260200160405250919050565b60006112e2565b63101827966000526004601cfd5b805b6001640100002600610c1a835160001a90565b1c161561015457600101610c07565b63ffffffff83113d3d3e63ffffffff821b191691901b1790565b604051610c658486036078610c60601f1986890301605888610c29565b610c29565b959095178552505050602082016040525090565b600080610c8a846018600051610c29565b610c948787610c05565b9150868210610ca35750610dc9565b815160001a60228103610cd55782610cbd89858589610fd9565b9350610ccd60048583868a610c43565b945050610dba565b605b8103610cf257610ce988848488610dd2565b93509350610dba565b607b8103610d0657610ce988848488610e9b565b6703ff200000000000811c60011615610d2557610ce9888484886110ad565b876004840111610d7f5782835160e01c63747275658103610d5d57600485019450610d5460058684878b610c43565b95505050610dba565b636e756c6c8103610d7c57600485019450610d5460068684878b610c43565b50505b876005840111610db25782835160d81c6466616c73658103610daf57600585019450610d5460058684878b610c43565b50505b610dba610bf7565b5050610dc68682610c05565b90505b94509492505050565b600060018401815b868210610de957610de9610bf7565b82610e0d57610df88783610c05565b9150605d610e07835160001a90565b14610e70575b610e1987838587610c79565b925092508215610e6157610e338160988551604017610c29565b8352600101610e43825160001a90565b605d8103610e515750610e70565b602c8103610e5f5750610e65565b505b8691505b600182019150610dda565b50600101610e8082603886610c29565b9350610e90600182878787610c43565b915094509492505050565b6000600184015b858110610eb157610eb1610bf7565b81610ed557610ec08682610c05565b9050607d610ecf825160001a90565b14610f79575b610edf8682610c05565b905080610eee87838587610fd9565b610ef88882610c05565b9250603a610f07845160001a90565b03610f6b57610f1b88600185018688610c79565b935093508315610f6b57610f426020860183036098610c6085850360b88951608017610c29565b8452825160001a607d8103610f5957505050610f79565b602c8103610f6957505050610f71565b505b50508590505b600101610ea2565b600101610f8882603886610c29565b9350610e90600282878787610c43565b6001667e0000007e03ff6030610fb18585015160001a90565b031c16610fc057610fc0610bf7565b60058214610fd557610fd56001830182610f98565b5050565b50506000828210610fec57610fec610bf7565b50600181015b805160001a602281036110055750611063565b605c81146110165750600101610ff2565b600182015160001a905060016a0510110400000000002001602283031c16156110425750600201610ff2565b6075810361105e57611055600283610f98565b50600601610ff2565b508290505b82811061107257611072610bf7565b60010192915050565b805b600a603061108c835160001a90565b03101561109b5760010161107d565b8082148416156102f3576102f3610bf7565b600083602d6110bd825160001a90565b036110c6576001015b600a60306110d5835160001a90565b03106110e3576110e3610bf7565b805160001a60018201915060308114611105576111026000888461107b565b91505b50602e611113825160001a90565b0361112a576111276001876001840161107b565b90505b805160658160001a60201703611159576111566001886001850162010001600e8660011a031a0161107b565b91505b50610e90600382878787610c43565b60405190820190601f19601f850181165b83810151838201528101806111795750508381526000846020830101528360408201016040529392505050565b8483611168565b805160609060028160071611610a32578215811517610a325760208116156111e157603881901c63ffffffff169150610a32565b604051915060208201603882901c63ffffffff165b8015611228578082528051601881901c63ffffffff1661121887601884610c29565b90925250602091909101906111f6565b50601f1983820381018060051c85528260405261124785603886610c29565b93508360201786526040811061127a576020850192508085015b8351815185528152602090930192820180841061126157505b50505050919050565b80516060908215811517156112985750610af7565b80841c63ffffffff1691508086166112d95760d881901c63ffffffff166112c682871c63ffffffff166111a6565b9250506112d4828583610c29565b861783525b50949350505050565b818015611354576001811461136a576003811461137957602084018451810180821461133a57805160001a602282536113218760d8601160f91b610c29565b600052611331828460008a610c79565b93509450808253505b8315818310171561134d5761134d610bf7565b5050611385565b61136360106078605887611283565b9150611385565b611363600860b8609887611283565b611382846111ad565b91505b5092915050565b6000600360fc1b60f883901b6001600160f81b031916108015906113c25750603960f81b60f883901b6001600160f81b03191611155b156113d257610154603083611e49565b606160f81b60f883901b6001600160f81b031916108015906114065750603360f91b60f883901b6001600160f81b03191611155b1561142257606161141883600a611c98565b6101549190611e49565b604160f81b60f883901b6001600160f81b031916108015906114565750602360f91b60f883901b6001600160f81b03191611155b1561146857604161141883600a611c98565b60405162461bcd60e51b815260040161050a9060208082526004908201526319985a5b60e21b604082015260600190565b606060006102f3836003610bf0565b8051606090608016156114c25760006102f3836001610bf0565b919050565b60606040519050608081016040526f30313233343536373839616263646566600f526002810190506028815260208101600060288201528260601b925060005b808101820184821a600f81165160018301538060041c5182535050600181019060121901611507575050919050565b80356001600160a01b03811681146114c257600080fd5b634e487b7160e01b600052604160045260246000fd5b604080519081016001600160401b03811182821017156115855761158561154d565b60405290565b604051601f8201601f191681016001600160401b03811182821017156115b3576115b361154d565b604052919050565b60006001600160401b038211156115d4576115d461154d565b50601f01601f191660200190565b60006115f56115f0846115bb565b61158b565b905082815283838301111561160957600080fd5b828260208301376000602084830101529392505050565b600082601f83011261163157600080fd5b6102f3838335602085016115e2565b6000806040838503121561165357600080fd5b61165c83611536565b915060208301356001600160401b0381111561167757600080fd5b61168385828601611620565b9150509250929050565b60005b838110156116a8578181015183820152602001611690565b50506000910152565b600081518084526116c981602086016020860161168d565b601f01601f19169290920160200192915050565b6020815260006102f360208301846116b1565b60006020828403121561170257600080fd5b6102f382611536565b60008060006060848603121561172057600080fd5b61172984611536565b925060208401356001600160401b0381111561174457600080fd5b61175086828701611620565b92505060408401356001600160401b0381111561176c57600080fd5b8401601f8101861361177d57600080fd5b80356001600160401b038111156117965761179661154d565b8060051b6117a66020820161158b565b918252602081840181019290810190898411156117c257600080fd5b6020850192505b838310156118575782356001600160401b038111156117e757600080fd5b85016040818c03601f190112156117fd57600080fd5b611805611563565b61181160208301611536565b815260408201356001600160401b0381111561182c57600080fd5b61183b8d602083860101611620565b60208301525080845250506020820191506020830192506117c9565b80955050505050509250925092565b60006020828403121561187857600080fd5b81356001600160401b0381111561188e57600080fd5b8201601f8101841361189f57600080fd5b611382848235602084016115e2565b7f7b226a736f6e727063223a22322e30222c226d6574686f64223a226574685f6381527530b6361116113830b930b6b9911d2dbd913a37911d1160511b602082015260360190565b6000611901826118ae565b845161191181836020890161168d565b691116113230ba30911d1160b11b9101908152835161193781600a84016020880161168d565b73227d2c226c6174657374225d2c226964223a317d60601b600a9290910191820152601e01949350505050565b7f7b226a736f6e727063223a22322e30222c226d6574686f64223a226574685f6781527f65745472616e73616374696f6e436f756e74222c22706172616d73223a5b22006020820152600082516119c281603f85016020870161168d565b72222c226c6174657374225d2c226964223a317d60681b603f939091019283015250605201919050565b60006119f7826118ae565b8451611a0781836020890161168d565b691116113230ba30911d1160b11b91019081528351611a2d81600a84016020880161168d565b6c227d2c226c6174657374222c7b60981b600a9290910191820152601701949350505050565b634e487b7160e01b600052603260045260246000fd5b60008451611a7b81846020890161168d565b601160f91b9083019081528451611a9981600184016020890161168d565b6c111d103d9131b7b232911d101160991b600192909101918201528351611ac781600e84016020880161168d565b61227d60f01b600e929091019182015260100195945050505050565b634e487b7160e01b600052601160045260246000fd5b8181038181111561015457610154611ae3565b60008251611b1e81846020870161168d565b600b60fa1b920191825250600101919050565b60008251611b4381846020870161168d565b697d5d2c226964223a317d60b01b920191825250600a01919050565b600181811c90821680611b7357607f821691505b602082108103610a3257634e487b7160e01b600052602260045260246000fd5b7f7b226a736f6e727063223a22322e30222c226d6574686f64223a226574685f6781527532ba2130b630b731b29116113830b930b6b9911d2d9160511b602082015260008251611bea81603685016020870161168d565b72222c226c6174657374225d2c226964223a317d60681b6036939091019283015250604901919050565b634e487b7160e01b600052601260045260246000fd5b600082611c3957611c39611c14565b500690565b600082611c4d57611c4d611c14565b500490565b808202811582820484141761015457610154611ae3565b8082018082111561015457610154611ae3565b60ff818116838216029081169081811461138557611385611ae3565b60ff818116838216019081111561015457610154611ae3565b602081526000825160c06020840152611ccd60e08401826116b1565b90506020840151601f19848303016040850152611cea82826116b1565b6040860151858203601f190160608701528051808352919350602090810192508084019190600582901b85010160005b82811015611d4b57601f19868303018452611d368286516116b1565b60209586019594909401939150600101611d1a565b506060880151878203601f190160808901529450611d6981866116b1565b9450505050506080840151611d8260a085018215159052565b5060a08401516001600160401b03811660c085015261070e565b60008251611dae81846020870161168d565b9190910192915050565b6001600160a01b0383168152604060208201819052600090610af7908301846116b1565b600060208284031215611dee57600080fd5b81516001600160401b03811115611e0457600080fd5b8201601f81018413611e1557600080fd5b8051611e236115f0826115bb565b818152856020838501011115611e3857600080fd5b6101af82602083016020860161168d565b60ff828116828216039081111561015457610154611ae356fea26469706673582212202079d83d831c28836eab6e2f087ed51842a4f44a7e25370e18b42288048268e864736f6c634300081c0033608060405234801561001057600080fd5b5060405161250b38038061250b83398101604081905261002f916100fb565b8160405161003c90610098565b61004691906101bf565b604051809103906000f080158015610062573d6000803e3d6000fd5b50600080546001600160a01b039283166001600160a01b03199182161790915560018054939092169216919091179055506101f2565b612112806103f983390190565b634e487b7160e01b600052604160045260246000fd5b60005b838110156100d65781810151838201526020016100be565b50506000910152565b80516001600160a01b03811681146100f657600080fd5b919050565b6000806040838503121561010e57600080fd5b82516001600160401b0381111561012457600080fd5b8301601f8101851361013557600080fd5b80516001600160401b0381111561014e5761014e6100a5565b604051601f8201601f19908116603f011681016001600160401b038111828210171561017c5761017c6100a5565b60405281815282820160200187101561019457600080fd5b6101a58260208301602086016100bb565b93506101b6915050602084016100df565b90509250929050565b60208152600082518060208401526101de8160408501602087016100bb565b601f01601f19169190910160400192915050565b6101f8806102016000396000f3fe608060405234801561001057600080fd5b5060008054600154604051631b8b921d60e01b81526001600160a01b0392831692631b8b921d9261004a929116908590369060040161009d565b6000604051808303816000875af1158015610069573d6000803e3d6000fd5b505050506040513d6000823e601f3d908101601f1916820160405261009191908101906100f3565b90508081518060208301f35b6001600160a01b03841681526040602082018190528101829052818360608301376000818301606090810191909152601f909201601f1916010192915050565b634e487b7160e01b600052604160045260246000fd5b60006020828403121561010557600080fd5b815167ffffffffffffffff81111561011c57600080fd5b8201601f8101841361012d57600080fd5b805167ffffffffffffffff811115610147576101476100dd565b604051601f8201601f19908116603f0116810167ffffffffffffffff81118282101715610176576101766100dd565b60405281815282820160200186101561018e57600080fd5b60005b828110156101ad57602081850181015183830182015201610191565b5060009181016020019190915294935050505056fea26469706673582212207a43fad4082f9fadfbabb6652ec661b29882804f2964bac79b30fa51eb78e50864736f6c634300081c0033608060405234801561001057600080fd5b5060405161211238038061211283398101604081905261002f91610058565b600061003b82826101ad565b505061026b565b634e487b7160e01b600052604160045260246000fd5b60006020828403121561006a57600080fd5b81516001600160401b0381111561008057600080fd5b8201601f8101841361009157600080fd5b80516001600160401b038111156100aa576100aa610042565b604051601f8201601f19908116603f011681016001600160401b03811182821017156100d8576100d8610042565b6040528181528282016020018610156100f057600080fd5b60005b8281101561010f576020818501810151838301820152016100f3565b50600091810160200191909152949350505050565b600181811c9082168061013857607f821691505b60208210810361015857634e487b7160e01b600052602260045260246000fd5b50919050565b601f8211156101a857806000526020600020601f840160051c810160208510156101855750805b601f840160051c820191505b818110156101a55760008155600101610191565b50505b505050565b81516001600160401b038111156101c6576101c6610042565b6101da816101d48454610124565b8461015e565b6020601f82116001811461020e57600083156101f65750848201515b600019600385901b1c1916600184901b1784556101a5565b600084815260208120601f198516915b8281101561023e578785015182556020948501946001909201910161021e565b508482101561025c5786840151600019600387901b60f8161c191681555b50505050600190811b01905550565b611e988061027a6000396000f3fe608060405234801561001057600080fd5b50600436106100575760003560e01c80631b8b921d1461005c57806370ae92d2146100855780637c52407c146100a6578063c672f9d6146100b9578063e3d670d7146100db575b600080fd5b61006f61006a366004611640565b6100ee565b60405161007c91906116dd565b60405180910390f35b6100986100933660046116f0565b61015a565b60405190815260200161007c565b61006f6100b436600461170b565b6101b8565b6100cc6100c7366004611866565b6102fa565b6040519051815260200161007c565b6100986100e93660046116f0565b610547565b606060006100fb84610563565b6101048461060c565b6040516020016101159291906118f6565b60405160208183030381529060405290506000610131826102fa565b9050600061014e61014961014484610630565b61063f565b610716565b93505050505b92915050565b60008061016683610563565b6040516020016101769190611964565b60405160208183030381529060405290506000610192826102fa565b905060006101af6101aa6101a584610630565b61082e565b6109ad565b95945050505050565b606060006101c585610563565b6101ce8561060c565b6040516020016101df9291906119ec565b604051602081830303815290604052905060005b83518110156102ac578161022385838151811061021257610212611a53565b602002602001015160000151610563565b61024986848151811061023857610238611a53565b60200260200101516020015161060c565b60405160200161025b93929190611a69565b60405160208183030381529060405291506001845161027a9190611af9565b8110156102a457816040516020016102929190611b0c565b60405160208183030381529060405291505b6001016101f3565b50806040516020016102be9190611b31565b604051602081830303815290604052905060006102da826102fa565b905060006102ed61014961014484610630565b93505050505b9392505050565b60408051602081019091526000815261034d6040518060c001604052806060815260200160608152602001606081526020016060815260200160001515815260200160006001600160401b031681525090565b604051806040016040528060048152602001631413d4d560e21b81525081602001819052506000805461037f90611b5f565b80601f01602080910402602001604051908101604052809291908181526020018280546103ab90611b5f565b80156103f85780601f106103cd576101008083540402835291602001916103f8565b820191906000526020600020905b8154815290600101906020018083116103db57829003601f168201915b505050918352505060408051600180825281830190925290816020015b606081526020019060019003908161041557505060408281019182528051808201909152601e81527f436f6e74656e742d547970653a206170706c69636174696f6e2f6a736f6e000060208201529051805160009061047657610476611a53565b602090810291909101015260608101839052600061049382610a38565b905060006104a082610aff565b905060006104d6604051806040016040528060078152602001661132b93937b91160c91b81525083610b1890919063ffffffff16565b90506104e481516007161590565b610513576104f181610630565b60405162461bcd60e51b815260040161050a91906116dd565b60405180910390fd5b604080518082019091526008815267113932b9bab63a1160c11b602082015261053d908390610b18565b9695505050505050565b60008061055383610563565b6040516020016101769190611b93565b606061056e82610b7f565b6028602282019081209192507f4040404040404040404040404040404040404040404040404040404040404040917f888888888888888888888888888888888888888888888888888888888888888016601160f31b60005b82811a8202818001526001810190601219016105c657505050818151166000511660011c8151188152602081019050818151166020511660011c81511881525050919050565b606061061782610b8a565b8051613078825260020160011990910190815292915050565b606060006102f3836000610bf0565b606060008290506000600482516106569190611af9565b6001600160401b0381111561066d5761066d61154d565b6040519080825280601f01601f191660200182016040528015610697576020820181803683370190505b50905060035b600183516106ab9190611af9565b81101561070e578281815181106106c4576106c4611a53565b01602001516001600160f81b031916826106df600384611af9565b815181106106ef576106ef611a53565b60200101906001600160f81b031916908160001a90535060010161069d565b509392505050565b8051606090829061072990600290611c2a565b1561073357600080fd5b6000600282516107439190611c3e565b6001600160401b0381111561075a5761075a61154d565b6040519080825280601f01601f191660200182016040528015610784576020820181803683370190505b50905060005b600283516107989190611c3e565b81101561070e576107d6836107ae836002611c52565b6107b9906001611c69565b815181106107c9576107c9611a53565b016020015160f81c61138c565b6107e5846107b9846002611c52565b6107f0906010611c7c565b6107fa9190611c98565b60f81b82828151811061080f5761080f611a53565b60200101906001600160f81b031916908160001a90535060010161078a565b60606000829050600281511015801561086c57508060008151811061085557610855611a53565b6020910101516001600160f81b031916601160f91b145b80156108a9575080600182516108829190611af9565b8151811061089257610892611a53565b6020910101516001600160f81b031916601160f91b145b6108e55760405162461bcd60e51b815260206004820152600d60248201526c125b9d985b1a59081a5b9c1d5d609a1b604482015260640161050a565b6000600282516108f59190611af9565b6001600160401b0381111561090c5761090c61154d565b6040519080825280601f01601f191660200182016040528015610936576020820181803683370190505b50905060015b6001835161094a9190611af9565b81101561070e5782818151811061096357610963611a53565b01602001516001600160f81b0319168261097e600184611af9565b8151811061098e5761098e611a53565b60200101906001600160f81b031916908160001a90535060010161093c565b600081516001811160208085015160f01c17613078141660011b5b6001810190507403010a071000000b0104040208000c05090d060e0f6d03e4088843e41bac00000000000060ff83870151161c601f161a8360fc1c8115171583029250600181038460041b019350508181106109c8575080610a325763101827966000526004601cfd5b50919050565b606060008063432000026001600160a01b031684604051602001610a5c9190611cb1565b60408051601f1981840301815290829052610a7691611d9c565b6000604051808303816000865af19150503d8060008114610ab3576040519150601f19603f3d011682016040523d82523d6000602084013e610ab8565b606091505b509150915081610ae3576343200002816040516375fff46760e01b815260040161050a929190611db8565b80806020019051810190610af79190611ddc565b949350505050565b60408051600080825291819052906102f38360ff610bf0565b60408051600081529052815160609060071660020361015457815160208301206000610b4385611499565b805190915060051b5b8015610b7657818101519550601f190182610b66876114a8565b8051906020012003610b4c578593505b50505092915050565b6060610617826114c7565b8051604051818001600282019081526f30313233343536373839616263646566600f52918301906022015b818414610be057600184019350600f845116516001820153600f845160041c16518153600201610bb5565b6000815260200160405250919050565b60006112e2565b63101827966000526004601cfd5b805b6001640100002600610c1a835160001a90565b1c161561015457600101610c07565b63ffffffff83113d3d3e63ffffffff821b191691901b1790565b604051610c658486036078610c60601f1986890301605888610c29565b610c29565b959095178552505050602082016040525090565b600080610c8a846018600051610c29565b610c948787610c05565b9150868210610ca35750610dc9565b815160001a60228103610cd55782610cbd89858589610fd9565b9350610ccd60048583868a610c43565b945050610dba565b605b8103610cf257610ce988848488610dd2565b93509350610dba565b607b8103610d0657610ce988848488610e9b565b6703ff200000000000811c60011615610d2557610ce9888484886110ad565b876004840111610d7f5782835160e01c63747275658103610d5d57600485019450610d5460058684878b610c43565b95505050610dba565b636e756c6c8103610d7c57600485019450610d5460068684878b610c43565b50505b876005840111610db25782835160d81c6466616c73658103610daf57600585019450610d5460058684878b610c43565b50505b610dba610bf7565b5050610dc68682610c05565b90505b94509492505050565b600060018401815b868210610de957610de9610bf7565b82610e0d57610df88783610c05565b9150605d610e07835160001a90565b14610e70575b610e1987838587610c79565b925092508215610e6157610e338160988551604017610c29565b8352600101610e43825160001a90565b605d8103610e515750610e70565b602c8103610e5f5750610e65565b505b8691505b600182019150610dda565b50600101610e8082603886610c29565b9350610e90600182878787610c43565b915094509492505050565b6000600184015b858110610eb157610eb1610bf7565b81610ed557610ec08682610c05565b9050607d610ecf825160001a90565b14610f79575b610edf8682610c05565b905080610eee87838587610fd9565b610ef88882610c05565b9250603a610f07845160001a90565b03610f6b57610f1b88600185018688610c79565b935093508315610f6b57610f426020860183036098610c6085850360b88951608017610c29565b8452825160001a607d8103610f5957505050610f79565b602c8103610f6957505050610f71565b505b50508590505b600101610ea2565b600101610f8882603886610c29565b9350610e90600282878787610c43565b6001667e0000007e03ff6030610fb18585015160001a90565b031c16610fc057610fc0610bf7565b60058214610fd557610fd56001830182610f98565b5050565b50506000828210610fec57610fec610bf7565b50600181015b805160001a602281036110055750611063565b605c81146110165750600101610ff2565b600182015160001a905060016a0510110400000000002001602283031c16156110425750600201610ff2565b6075810361105e57611055600283610f98565b50600601610ff2565b508290505b82811061107257611072610bf7565b60010192915050565b805b600a603061108c835160001a90565b03101561109b5760010161107d565b8082148416156102f3576102f3610bf7565b600083602d6110bd825160001a90565b036110c6576001015b600a60306110d5835160001a90565b03106110e3576110e3610bf7565b805160001a60018201915060308114611105576111026000888461107b565b91505b50602e611113825160001a90565b0361112a576111276001876001840161107b565b90505b805160658160001a60201703611159576111566001886001850162010001600e8660011a031a0161107b565b91505b50610e90600382878787610c43565b60405190820190601f19601f850181165b83810151838201528101806111795750508381526000846020830101528360408201016040529392505050565b8483611168565b805160609060028160071611610a32578215811517610a325760208116156111e157603881901c63ffffffff169150610a32565b604051915060208201603882901c63ffffffff165b8015611228578082528051601881901c63ffffffff1661121887601884610c29565b90925250602091909101906111f6565b50601f1983820381018060051c85528260405261124785603886610c29565b93508360201786526040811061127a576020850192508085015b8351815185528152602090930192820180841061126157505b50505050919050565b80516060908215811517156112985750610af7565b80841c63ffffffff1691508086166112d95760d881901c63ffffffff166112c682871c63ffffffff166111a6565b9250506112d4828583610c29565b861783525b50949350505050565b818015611354576001811461136a576003811461137957602084018451810180821461133a57805160001a602282536113218760d8601160f91b610c29565b600052611331828460008a610c79565b93509450808253505b8315818310171561134d5761134d610bf7565b5050611385565b61136360106078605887611283565b9150611385565b611363600860b8609887611283565b611382846111ad565b91505b5092915050565b6000600360fc1b60f883901b6001600160f81b031916108015906113c25750603960f81b60f883901b6001600160f81b03191611155b156113d257610154603083611e49565b606160f81b60f883901b6001600160f81b031916108015906114065750603360f91b60f883901b6001600160f81b03191611155b1561142257606161141883600a611c98565b6101549190611e49565b604160f81b60f883901b6001600160f81b031916108015906114565750602360f91b60f883901b6001600160f81b03191611155b1561146857604161141883600a611c98565b60405162461bcd60e51b815260040161050a9060208082526004908201526319985a5b60e21b604082015260600190565b606060006102f3836003610bf0565b8051606090608016156114c25760006102f3836001610bf0565b919050565b60606040519050608081016040526f30313233343536373839616263646566600f526002810190506028815260208101600060288201528260601b925060005b808101820184821a600f81165160018301538060041c5182535050600181019060121901611507575050919050565b80356001600160a01b03811681146114c257600080fd5b634e487b7160e01b600052604160045260246000fd5b604080519081016001600160401b03811182821017156115855761158561154d565b60405290565b604051601f8201601f191681016001600160401b03811182821017156115b3576115b361154d565b604052919050565b60006001600160401b038211156115d4576115d461154d565b50601f01601f191660200190565b60006115f56115f0846115bb565b61158b565b905082815283838301111561160957600080fd5b828260208301376000602084830101529392505050565b600082601f83011261163157600080fd5b6102f3838335602085016115e2565b6000806040838503121561165357600080fd5b61165c83611536565b915060208301356001600160401b0381111561167757600080fd5b61168385828601611620565b9150509250929050565b60005b838110156116a8578181015183820152602001611690565b50506000910152565b600081518084526116c981602086016020860161168d565b601f01601f19169290920160200192915050565b6020815260006102f360208301846116b1565b60006020828403121561170257600080fd5b6102f382611536565b60008060006060848603121561172057600080fd5b61172984611536565b925060208401356001600160401b0381111561174457600080fd5b61175086828701611620565b92505060408401356001600160401b0381111561176c57600080fd5b8401601f8101861361177d57600080fd5b80356001600160401b038111156117965761179661154d565b8060051b6117a66020820161158b565b918252602081840181019290810190898411156117c257600080fd5b6020850192505b838310156118575782356001600160401b038111156117e757600080fd5b85016040818c03601f190112156117fd57600080fd5b611805611563565b61181160208301611536565b815260408201356001600160401b0381111561182c57600080fd5b61183b8d602083860101611620565b60208301525080845250506020820191506020830192506117c9565b80955050505050509250925092565b60006020828403121561187857600080fd5b81356001600160401b0381111561188e57600080fd5b8201601f8101841361189f57600080fd5b611382848235602084016115e2565b7f7b226a736f6e727063223a22322e30222c226d6574686f64223a226574685f6381527530b6361116113830b930b6b9911d2dbd913a37911d1160511b602082015260360190565b6000611901826118ae565b845161191181836020890161168d565b691116113230ba30911d1160b11b9101908152835161193781600a84016020880161168d565b73227d2c226c6174657374225d2c226964223a317d60601b600a9290910191820152601e01949350505050565b7f7b226a736f6e727063223a22322e30222c226d6574686f64223a226574685f6781527f65745472616e73616374696f6e436f756e74222c22706172616d73223a5b22006020820152600082516119c281603f85016020870161168d565b72222c226c6174657374225d2c226964223a317d60681b603f939091019283015250605201919050565b60006119f7826118ae565b8451611a0781836020890161168d565b691116113230ba30911d1160b11b91019081528351611a2d81600a84016020880161168d565b6c227d2c226c6174657374222c7b60981b600a9290910191820152601701949350505050565b634e487b7160e01b600052603260045260246000fd5b60008451611a7b81846020890161168d565b601160f91b9083019081528451611a9981600184016020890161168d565b6c111d103d9131b7b232911d101160991b600192909101918201528351611ac781600e84016020880161168d565b61227d60f01b600e929091019182015260100195945050505050565b634e487b7160e01b600052601160045260246000fd5b8181038181111561015457610154611ae3565b60008251611b1e81846020870161168d565b600b60fa1b920191825250600101919050565b60008251611b4381846020870161168d565b697d5d2c226964223a317d60b01b920191825250600a01919050565b600181811c90821680611b7357607f821691505b602082108103610a3257634e487b7160e01b600052602260045260246000fd5b7f7b226a736f6e727063223a22322e30222c226d6574686f64223a226574685f6781527532ba2130b630b731b29116113830b930b6b9911d2d9160511b602082015260008251611bea81603685016020870161168d565b72222c226c6174657374225d2c226964223a317d60681b6036939091019283015250604901919050565b634e487b7160e01b600052601260045260246000fd5b600082611c3957611c39611c14565b500690565b600082611c4d57611c4d611c14565b500490565b808202811582820484141761015457610154611ae3565b8082018082111561015457610154611ae3565b60ff818116838216029081169081811461138557611385611ae3565b60ff818116838216019081111561015457610154611ae3565b602081526000825160c06020840152611ccd60e08401826116b1565b90506020840151601f19848303016040850152611cea82826116b1565b6040860151858203601f190160608701528051808352919350602090810192508084019190600582901b85010160005b82811015611d4b57601f19868303018452611d368286516116b1565b60209586019594909401939150600101611d1a565b506060880151878203601f190160808901529450611d6981866116b1565b9450505050506080840151611d8260a085018215159052565b5060a08401516001600160401b03811660c085015261070e565b60008251611dae81846020870161168d565b9190910192915050565b6001600160a01b0383168152604060208201819052600090610af7908301846116b1565b600060208284031215611dee57600080fd5b81516001600160401b03811115611e0457600080fd5b8201601f81018413611e1557600080fd5b8051611e236115f0826115bb565b818152856020838501011115611e3857600080fd5b6101af82602083016020860161168d565b60ff828116828216039081111561015457610154611ae356fea26469706673582212202079d83d831c28836eab6e2f087ed51842a4f44a7e25370e18b42288048268e864736f6c634300081c0033a2646970667358221220ff76a416037e0d4b5fbaf5b6723a09f4d9a0cd902369f5fa112b73da48dd542d64736f6c634300081c0033",
    "linkReferences": {}
  },
  "methodIdentifiers": {
    "RPC()": "4a370573",
    "SIGNING_KEY()": "2abb3ddc",
    "onchainCallback()": "4a525054",
    "printBalance(address)": "eb1292ea",
    "printBalance(address,uint256)": "b6ccab85",
    "printERC20Balance(address,address)": "04ad5c29",
    "printERC20Balance(address,address,uint256)": "e1580684",
    "printNonce(address)": "efdd74c3",
    "printNonce(address,uint256)": "564e4110",
    "printRPCEndpoint(uint256)": "ce6d3cdb",
    "printSigningKey(address)": "dae77bf3",
    "registerRPCOffchain(uint256)": "8111fe79",
    "registerRPCOffchain(uint256,string)": "6693f57d",
    "registerSigningKeyOffchain()": "aa48cfd9",
    "relayTransaction()": "cba5fc8f",
    "updateRPCOnchain(uint256,bytes16)": "f7bddfcb",
    "updateSigningKeyOnchain(address,bytes16)": "8e5fde2a"
  },
  "id": 19
}